:100000000C9453000C947B000C947B000C947B00AC
:100010000C947B000C947B000C947B000C947B0074
:100020000C947B000C947B000C947B000C947B0064
:100030000C947B000C947B000C947B000C947B0054
:100040000C942F020C947B000C949F020C94790268
:100050000C947B000C947B000C947B000C947B0034
:100060000C947B000C947B0000000000250028000D
:100070002B0000000000240027002A0004040404D0
:100080000404040402020202020203030303030342
:10009000010204081020408001020408102001021F
:1000A000040810207A0311241FBECFEFD8E0DEBF72
:1000B000CDBF11E0A0E0B1E0ECEAF7E002C00590AE
:1000C0000D92A631B107D9F721E0A6E1B1E001C058
:1000D0001D92AC3BB207E1F710E0C3E5D0E004C0ED
:1000E0002197FE010E94C903C235D107C9F70E94BA
:1000F000D1020C94D4030C940000CF93DF9390E0D2
:10010000FC01E057FF4F2491FC01E458FF4F84911C
:100110008823C1F090E0880F991FFC01EE58FF4F33
:10012000C591D491FC01E859FF4FA591B4919FB7B7
:10013000F8948881E22FE0958E2388838C91E823C0
:10014000EC939FBFDF91CF910895CF92DF92EF9212
:10015000FF920F931F93CF93DF936C017A018B0172
:10016000C0E0D0E0CE15DF0589F0D8016D918D019A
:10017000D601ED91FC910190F081E02DC601099529
:10018000892B11F47E0102C02196ECCFC701DF91CB
:10019000CF911F910F91FF90EF90DF90CF90089536
:1001A000FC01918D828D981761F0828DDF01A80F7F
:1001B000B11D5D968C91928D9F5F9F73928F90E0A1
:1001C00008958FEF9FEF0895FC01918D828D981710
:1001D00031F0828DE80FF11D858D90E008958FEF4D
:1001E0009FEF0895FC01918D228D892F90E0805C16
:1001F0009F4F821B91098F73992708958FE191E09A
:100200000E94F20021E0892B09F420E0822F08955A
:10021000FC01848DDF01A80FB11DA35ABF4F2C91A3
:10022000848D90E001968F739927848FA689B78972
:100230002C93A089B1898C9180648C93938D848D4B
:10024000981306C00288F389E02D80818F7D80831A
:100250000895EF92FF920F931F93CF93DF93EC01DA
:1002600081E0888F9B8D8C8D981305C0E889F98972
:10027000808185FD24C0F62E0B8D10E00F5F1F4F8F
:100280000F731127E02E8C8DE8120CC00FB607FCFF
:10029000FACFE889F989808185FFF5CFCE010E94E8
:1002A0000801F1CF8B8DFE01E80FF11DE35AFF4FDE
:1002B000F0820B8FEA89FB898081806207C0EE891A
:1002C000FF896083E889F98980818064808381E087
:1002D00090E0DF91CF911F910F91FF90EF900895E3
:1002E000CF93DF93EC01888D8823C9F0EA89FB89DD
:1002F000808185FD05C0A889B9898C9186FD0FC0D4
:100300000FB607FCF5CF808185FFF2CFA889B989A8
:100310008C9185FFEDCFCE010E940801E7CFDF91E0
:10032000CF91089580E090E0892B29F00E94FE0093
:1003300081110C94000008958E3008F08E50877063
:10034000806480937C0080917A00806480937A003E
:1003500080917A0086FDFCCF809178002091790011
:1003600090E0922B0895009769F0FC010190002025
:10037000E9F73197AF01481B590BBC018FE191E0C0
:100380000C94A50080E090E008958F929F92AF9228
:10039000BF920F931F93CF93DF93CDB7DEB7A19793
:1003A0000FB6F894DEBF0FBECDBF19A2423008F4DD
:1003B0004AE08E010F5D1F4F842E912CA12CB12C91
:1003C000A50194010E94A703E62FB901CA010150BB
:1003D0001109EA3014F4E05D01C0E95CD801EC9346
:1003E000232B242B252B61F7C8010E94B301A19672
:1003F0000FB6F894DEBF0FBECDBFDF91CF911F9136
:100400000F91BF90AF909F908F900895CF92DF9201
:10041000EF92FF92CF93DF936B017C01E0911F017C
:10042000F09120010190F081E02D6DE28FE191E0EB
:100430000995EC0166277727CB016C197D098E0998
:100440009F094AE00E94C5018C0F9D1FDF91CF914B
:10045000FF90EF90DF90CF9008950E94CF031F92FE
:100460000F920FB60F9211242F933F938F939F9368
:10047000AF93BF9380911B0190911C01A0911D012E
:10048000B0911E0130911A0123E0230F2D3720F483
:100490000196A11DB11D05C026E8230F0296A11DDE
:1004A000B11D20931A0180931B0190931C01A0930E
:1004B0001D01B0931E018091160190911701A0912A
:1004C0001801B09119010196A11DB11D809316016B
:1004D00090931701A0931801B0931901BF91AF91A8
:1004E0009F918F913F912F910F900FBE0F901F9072
:1004F00018951F920F920FB60F9211242F933F93CE
:100500004F935F936F937F938F939F93AF93BF931B
:10051000EF93FF938FE191E00E940801FF91EF912B
:10052000BF91AF919F918F917F916F915F914F910B
:100530003F912F910F900FBE0F901F9018951F9213
:100540000F920FB60F9211242F938F939F93EF93D7
:10055000FF93E0912F01F09130018081E09135010E
:10056000F091360182FD12C09081809138018F5F39
:100570008F7320913901821751F0E0913801F0E03A
:10058000E15EFE4F958F8093380101C08081FF911D
:10059000EF919F918F912F910F900FBE0F901F9011
:1005A0001895789484B5826084BD84B5816084BDDB
:1005B00085B5826085BD85B5816085BD80916E0001
:1005C000816080936E001092810080918100826032
:1005D000809381008091810081608093810080916F
:1005E00080008160809380008091B100846080935E
:1005F000B1008091B00081608093B00080917A005A
:10060000846080937A0080917A00826080937A007F
:1006100080917A00816080937A0080917A0080686E
:1006200080937A001092C100E0912F01F091300187
:1006300082E08083E0912B01F0912C011082E09107
:100640002D01F0912E0180E1808310923701E0911D
:100650003301F091340186E08083E0913101F09123
:100660003201808180618083E0913101F09132011B
:10067000808188608083E0913101F0913201808136
:1006800080688083E0913101F091320180818F7D1B
:1006900080838FE00E947D008EE00E947D008FE0CD
:1006A0000E949C018C018EE00E949C01EC01B8012B
:1006B000110F880B990B97FF03C00E94060203C01D
:1006C0004AE00E94C50180E191E00E94B301BE01B1
:1006D000DD0F880B990B97FF03C00E94060203C031
:1006E0004AE00E94C50182E191E00E94B3010E94AC
:1006F0009201D5CFEFE1F1E01382128288EE93E010
:10070000A0E0B0E084839583A683B78384E091E082
:100710009183808385EC90E09587848784EC90E0DA
:100720009787868780EC90E0918B808B81EC90E0BE
:10073000938B828B82EC90E0958B848B86EC90E09F
:10074000978B868B118E128E138E148E0895A1E2D4
:100750001A2EAA1BBB1BFD010DC0AA1FBB1FEE1F3B
:10076000FF1FA217B307E407F50720F0A21BB30B86
:10077000E40BF50B661F771F881F991F1A9469F702
:1007800060957095809590959B01AC01BD01CF015E
:100790000895EE0FFF1F0590F491E02D099481E07C
:0C07A00090E0F8940C94D403F894FFCF80
:1007AC00000000002901A500F200D000E400700157
:0607BC0020000D0A000000
:107E0000112484B714BE81FFF0D085E080938100F7
:107E100082E08093C00088E18093C10086E0809377
:107E2000C20080E18093C4008EE0C9D0259A86E02C
:107E300020E33CEF91E0309385002093840096BBD3
:107E4000B09BFECF1D9AA8958150A9F7CC24DD24C4
:107E500088248394B5E0AB2EA1E19A2EF3E0BF2EE7
:107E6000A2D0813461F49FD0082FAFD0023811F036
:107E7000013811F484E001C083E08DD089C08234E0
:107E800011F484E103C0853419F485E0A6D080C0E4
:107E9000853579F488D0E82EFF2485D0082F10E0AE
:107EA000102F00270E291F29000F111F8ED06801E7
:107EB0006FC0863521F484E090D080E0DECF843638
:107EC00009F040C070D06FD0082F6DD080E0C81688
:107ED00080E7D80618F4F601B7BEE895C0E0D1E017
:107EE00062D089930C17E1F7F0E0CF16F0E7DF06D8
:107EF00018F0F601B7BEE89568D007B600FCFDCFD4
:107F0000A601A0E0B1E02C9130E011968C91119780
:107F100090E0982F8827822B932B1296FA010C0160
:107F200087BEE89511244E5F5F4FF1E0A038BF0790
:107F300051F7F601A7BEE89507B600FCFDCF97BE46
:107F4000E89526C08437B1F42ED02DD0F82E2BD052
:107F50003CD0F601EF2C8F010F5F1F4F84911BD097
:107F6000EA94F801C1F70894C11CD11CFA94CF0C13
:107F7000D11C0EC0853739F428D08EE10CD085E9AC
:107F80000AD08FE07ACF813511F488E018D01DD067
:107F900080E101D065CF982F8091C00085FFFCCF94
:107FA0009093C60008958091C00087FFFCCF809118
:107FB000C00084FD01C0A8958091C6000895E0E648
:107FC000F0E098E1908380830895EDDF803219F02E
:107FD00088E0F5DFFFCF84E1DECF1F93182FE3DFCA
:107FE0001150E9F7F2DF1F91089580E0E8DFEE27F6
:047FF000FF270994CA
:027FFE00040479
:0400000300007E007B
:00000001FF
