:100000000C9453000C947B000C947B000C947B00AC
:100010000C947B000C947B000C947B000C947B0074
:100020000C947B000C947B000C947B000C947B0064
:100030000C947B000C947B000C947B000C947B0054
:100040000C9446020C947B000C9414020C94EE0168
:100050000C947B000C947B000C947B000C947B0034
:100060000C947B000C947B0000000000250028000D
:100070002B0000000000240027002A0004040404D0
:100080000404040402020202020203030303030342
:10009000010204081020408001020408102001021F
:1000A00004081020ED0411241FBECFEFD8E0DEBFFE
:1000B000CDBF11E0A0E0B1E0EEEFFFE002C005909F
:1000C0000D92A032B107D9F722E0A0E2B1E001C061
:1000D0001D92A232B207E1F710E0C3E5D0E004C000
:1000E0002197FE010E945B05C235D107C9F70E9426
:1000F00090020C94FD070C940000CF92DF92EF92D7
:10010000FF920F931F93CF93DF936C017A018B01C2
:10011000C0E0D0E0CE15DF0589F0D8016D918D01EA
:10012000D601ED91FC910190F081E02DC601099579
:10013000892B11F47E0102C02196ECCFC701DF911B
:10014000CF911F910F91FF90EF90DF90CF90089586
:10015000FC01918D828D981761F0828DDF01A80FCF
:10016000B11D5D968C91928D9F5F9F73928F90E0F1
:1001700008958FEF9FEF0895FC01918D828D981760
:1001800031F0828DE80FF11D858D90E008958FEF9D
:100190009FEF0895FC01918D228D892F90E0805C66
:1001A0009F4F821B91098F739927089585E891E0ED
:1001B0000E94CA0021E0892B09F420E0822F0895D3
:1001C000FC01848DDF01A80FB11DA35ABF4F2C91F4
:1001D000848D90E001968F739927848FA689B789C3
:1001E0002C93A089B1898C9180648C93938D848D9C
:1001F000981306C00288F389E02D80818F7D80836B
:100200000895EF92FF920F931F93CF93DF93EC012A
:1002100081E0888F9B8D8C8D981305C0E889F989C2
:10022000808185FD24C0F62E0B8D10E00F5F1F4FDF
:100230000F731127E02E8C8DE8120CC00FB607FC4F
:10024000FACFE889F989808185FFF5CFCE010E9438
:10025000E000F1CF8B8DFE01E80FF11DE35AFF4F57
:10026000F0820B8FEA89FB898081806207C0EE896A
:10027000FF896083E889F98980818064808381E0D7
:1002800090E0DF91CF911F910F91FF90EF90089533
:10029000CF93DF93EC01888D8823C9F0EA89FB892D
:1002A000808185FD05C0A889B9898C9186FD0FC024
:1002B0000FB607FCF5CF808185FFF2CFA889B989F9
:1002C0008C9185FFEDCFCE010E94E000E7CFDF915A
:1002D000CF91089580E090E0892B29F00E94D6000C
:1002E00081110C94000008953FB7F8948091250186
:1002F00090912601A0912701B091280126B5A89BD5
:1003000005C02F3F19F00196A11DB11D3FBFBA2FA7
:10031000A92F982F8827820F911DA11DB11DBC0107
:10032000CD0142E0660F771F881F991F4A95D1F7CC
:100330000895009769F0FC0101900020E9F73197DA
:10034000AF01481B590BBC0185E891E00C947D007E
:1003500080E090E008958F929F92AF92BF920F93AA
:100360001F93CF93DF93CDB7DEB7A1970FB6F89465
:10037000DEBF0FBECDBF19A2423008F44AE08E01A5
:100380000F5D1F4F842E912CA12CB12CA50194013F
:100390000E941A05E62FB901CA0101501109EA307D
:1003A00014F4E05D01C0E95CD801EC93232B242B0D
:1003B000252B61F7C8010E949901A1960FB6F89408
:1003C000DEBF0FBECDBFDF91CF911F910F91BF90C8
:1003D000AF909F908F9008950E94F8071F920F9200
:1003E0000FB60F9211242F933F934F935F936F9308
:1003F0007F938F939F93AF93BF93EF93FF9385E882
:1004000091E00E94E000FF91EF91BF91AF919F9129
:100410008F917F916F915F914F913F912F910F90AD
:100420000FBE0F901F9018951F920F920FB60F924C
:1004300011242F938F939F93EF93FF93E091950156
:10044000F09196018081E0919B01F0919C0182FDE9
:1004500012C0908180919E018F5F8F7320919F01C8
:10046000821751F0E0919E01F0E0EB57FE4F958F1F
:1004700080939E0101C08081FF91EF919F918F91A8
:100480002F910F900FBE0F901F9018951F920F92F3
:100490000FB60F9211242F933F938F939F93AF9397
:1004A000BF938091210190912201A0912301B091ED
:1004B00024013091200123E0230F2D3720F40196F1
:1004C000A11DB11D05C026E8230F0296A11DB11D77
:1004D000209320018093210190932201A093230176
:1004E000B09324018091250190912601A0912701CC
:1004F000B09128010196A11DB11D80932501909313
:100500002601A0932701B0932801BF91AF919F913D
:100510008F913F912F910F900FBE0F901F901895C4
:10052000789484B5826084BD84B5816084BD85B5CE
:10053000826085BD85B5816085BD80916E008160DA
:1005400080936E0010928100809181008260809380
:100550008100809181008160809381008091800082
:100560008160809380008091B10084608093B100AD
:100570008091B00081608093B00080917A008460A7
:1005800080937A0080917A00826080937A008091D3
:100590007A00816080937A0080917A0080688093ED
:1005A0007A001092C100E0919501F091960182E0ED
:1005B0008083E0919101F09192011082E09193018A
:1005C000F091940180E1808310929D01E091990166
:1005D000F0919A0186E08083E0919701F091980173
:1005E000808180618083E0919701F0919801808102
:1005F00088608083E0919701F09198018081806804
:100600008083E0919701F091980180818F7D8083B4
:10061000E8E9F0E02491E4E8F0E08491882399F09F
:1006200090E0880F991FFC01EE58FF4FA591B491FF
:10063000FC01E859FF4F859194918FB7F894EC91A4
:10064000E22BEC938FBF81E090E090934001809388
:100650003F0186E696E2A6E1B4E4809345019093DB
:100660004601A0934701B093480180E090E0A0E0EC
:10067000B4E48093610190936201A0936301B0930D
:1006800064011EE410937C000E9474016B017C01E4
:1006900032E0832E912CA12CB12C0E947401DC013C
:1006A000CB018C199D09AE09BF09883E9340A10575
:1006B000B10598F328EEC20E23E0D21EE11CF11C16
:1006C0008A9489288A288B2829F0812C912C54011E
:1006D0008394E3CF80917A00806480937A00809144
:1006E0007A0086FDFCCF809178002091790030E07F
:1006F000322F2227A901330F660B770B9A01AB012A
:10070000282B60E070E381E190E00E943C056901E4
:100710007A01C8ECD5E080913F018E3008F08E5010
:100720008770806480937C0080917A0080648093DD
:100730007A0080917A0086FDFCCF609178008091EC
:10074000790070E0782B7093500160934F01072E71
:10075000000C880B990B0E9476064B015C014090BF
:100760006101509062016090630170906401A30187
:1007700092010E94610520E030E040E85AE30E94C7
:100780002B079B01AC01C301B2010E9462059B01D2
:10079000AC01609361017093620180936301909357
:1007A0006401C501B4010E94610560935901709311
:1007B0005A0180935B0190935C019B01AC010E9404
:1007C0002B07609371017093720180937301909372
:1007D000740120917501309176014091770150911B
:1007E00078010E9462056093750170937601809391
:1007F000770190937801219709F08DCF20E030E0C8
:1008000049EB54E40E94D3050E949E074B015C0112
:10081000B601DD0C880B990B0E94760620E030E0D3
:100820004AE754E40E94D30520E030E040E85AE370
:100830000E942B07209145013091460140914701CC
:10084000509148010E942B07A50194010E942B079B
:100850006B017C014B015C016093390170933A019B
:1008600080933B0190933C011092750110927601A8
:1008700010927701109278019B01AC010E94DE0773
:10088000882319F080E191E01AC026013701E8942D
:1008900077F82FEF3FEF4FE75FE7C301B2010E9408
:1008A000DE0781110FC02FEF3FEF4FE75FE7C30176
:1008B000B2010E94CE0518162CF484E191E00E944A
:1008C000990184C02FEF3FEF4FE75FE4C701B60106
:1008D0000E94260718161CF488E191E0F0CF2FEF54
:1008E0003FEF4FE75FECC701B6010E94CE0587FDE1
:1008F000F3CF20E030E0A901C701B6010E94CE0588
:1009000087FF11C0E0918501F09186010190F0818F
:10091000E02D6DE285E891E0099546015701B7FAAF
:10092000B094B7F8B0942AE037ED43EA5BE3C50131
:10093000B4010E9462054B015C010E9445066B01F7
:100940007C010E9474069B01AC01C501B4010E94A8
:1009500061054B015C014AE0C701B6010E94AB0191
:10096000E0918501F09186010190F081E02D6EE229
:1009700085E891E0099520E030E040E251E4C501CE
:10098000B4010E942B074B015C010E9445066B01DC
:10099000E12CF12C4AE0C701B6010E94AB01C7016E
:1009A000B6010E9474069B01AC01C501B4010E940E
:1009B000610520E030E040E251E40E942B070E94F4
:1009C000450680E090E04AE00E94AB018CE191E0B6
:1009D0000E9499010E946A0155CEE5E8F1E0138278
:1009E000128288EE93E0A0E0B0E084839583A68332
:1009F000B78384E091E09183808385EC90E09587D4
:100A0000848784EC90E09787868780EC90E0918BD8
:100A1000808B81EC90E0938B828B82EC90E0958BC5
:100A2000848B86EC90E0978B868B118E128E138EC2
:100A3000148E0895A1E21A2EAA1BBB1BFD010DC046
:100A4000AA1FBB1FEE1FFF1FA217B307E407F5077E
:100A500020F0A21BB30BE40BF50B661F771F881F5A
:100A6000991F1A9469F760957095809590959B01F0
:100A7000AC01BD01CF010895052E97FB1EF4009433
:100A80000E94530557FD07D00E941A0507FC03D0AA
:100A90004EF40C94530550954095309521953F4F59
:100AA0004F4F5F4F089590958095709561957F4F5A
:100AB0008F4F9F4F0895EE0FFF1F0590F491E02D8B
:100AC00009945058BB27AA270E9479050C94EC067C
:100AD0000E94DE0638F00E94E50620F039F49F3FC0
:100AE00019F426F40C94DB060EF4E095E7FB0C9465
:100AF000D506E92F0E94FD0658F3BA17620773075F
:100B00008407950720F079F4A6F50C941F070EF4DE
:100B1000E0950B2EBA2FA02D0B01B90190010C010D
:100B2000CA01A0011124FF27591B99F0593F50F425
:100B3000503E68F11A16F040A22F232F342F44277D
:100B4000585FF3CF469537952795A795F040539575
:100B5000C9F77EF41F16BA0B620B730B840BBAF045
:100B60009150A1F0FF0FBB1F661F771F881FC2F7B0
:100B70000EC0BA0F621F731F841F48F487957795C4
:100B80006795B795F7959E3F08F0B0CF9395880F7E
:100B900008F09927EE0F9795879508950E94B10662
:100BA00008F481E008950E94E7050C94EC060E9489
:100BB000E50658F00E94DE0640F029F45F3F29F078
:100BC0000C94D50651110C9420070C94DB060E945E
:100BD000FD0668F39923B1F3552391F3951B550B4B
:100BE000BB27AA2762177307840738F09F5F5F4F00
:100BF000220F331F441FAA1FA9F335D00E2E3AF03F
:100C0000E0E832D091505040E695001CCAF72BD056
:100C1000FE2F29D0660F771F881FBB1F26173707A7
:100C20004807AB07B0E809F0BB0B802DBF01FF27D9
:100C300093585F4F3AF09E3F510578F00C94D506DB
:100C40000C9420075F3FE4F3983ED4F386957795A4
:100C50006795B795F7959F5FC9F7880F911D969592
:100C6000879597F90895E1E0660F771F881FBB1FEE
:100C7000621773078407BA0720F0621B730B840B9B
:100C8000BA0BEE1F88F7E09508950E94050788F0DB
:100C90009F5798F0B92F9927B751B0F0E1F0660F40
:100CA000771F881F991F1AF0BA95C9F714C0B13081
:100CB00091F00E941F07B1E008950C941F07672F61
:100CC000782F8827B85F39F0B93FCCF386957795B0
:100CD0006795B395D9F73EF4909580957095619599
:100CE0007F4F8F4F9F4F0895E89409C097FB3EF4C4
:100CF00090958095709561957F4F8F4F9F4F992369
:100D0000A9F0F92F96E9BB279395F69587957795E6
:100D10006795B795F111F8CFFAF4BB0F11F460FFA6
:100D20001BC06F5F7F4F8F4F9F4F16C0882311F0FE
:100D300096E911C0772321F09EE8872F762F05C012
:100D4000662371F096E8862F70E060E02AF09A95AD
:100D5000660F771F881FDAF7880F9695879597F9A2
:100D60000895990F0008550FAA0BE0E8FEEF16163C
:100D70001706E807F907C0F012161306E407F5078F
:100D800098F0621B730B840B950B39F40A2661F003
:100D9000232B242B252B21F408950A2609F4A140A6
:100DA000A6958FEF811D811D089597F99F6780E8B3
:100DB00070E060E008959FEF80EC089500240A94AD
:100DC0001616170618060906089500240A94121626
:100DD0001306140605060895092E0394000C11F459
:100DE000882352F0BB0F40F4BF2B11F460FF04C006
:100DF0006F5F7F4F8F4F9F4F089557FD9058440F5F
:100E0000551F59F05F3F71F04795880F97FB991F69
:100E100061F09F3F79F08795089512161306140626
:100E2000551FF2CF4695F1DF08C0161617061806B3
:100E3000991FF1CF86957105610508940895E8948E
:100E4000BB2766277727CB0197F908950E94B10643
:100E500008F48FEF08950E943E070C94EC060E9460
:100E6000DE0638F00E94E50620F0952311F00C9480
:100E7000D5060C94DB0611240C9420070E94FD0675
:100E800070F3959FC1F3950F50E0551F629FF001DD
:100E9000729FBB27F00DB11D639FAA27F00DB11DF6
:100EA000AA1F649F6627B00DA11D661F829F22277F
:100EB000B00DA11D621F739FB00DA11D621F839F06
:100EC000A00D611D221F749F3327A00D611D231FDC
:100ED000849F600D211D822F762F6A2F11249F572A
:100EE00050409AF0F1F088234AF0EE0FFF1FBB1F2D
:100EF000661F771F881F91505040A9F79E3F5105EC
:100F000080F00C94D5060C9420075F3FE4F3983EE4
:100F1000D4F3869577956795B795F795E7959F5F95
:100F2000C1F7FE2B880F911D9695879597F9089527
:100F300019F416F40C94DB060C94E3070E940507E1
:100F4000B8F39923C9F3B6F39F57550B87FF0E9457
:100F5000F1070024A0E640EA900180585695979545
:100F600028F4805C660F771F881F20F0261737074C
:100F7000480730F4621B730B840B202931294A2B5C
:100F8000A69517940794202531254A2758F7660F10
:100F9000771F881F20F026173707480730F4620BA9
:100FA000730B840B200D311D411DA09581F7B901F4
:100FB000842F9158880F9695879508950E94B106C1
:100FC000880B990B08959F3F31F0915020F487953D
:100FD00077956795B795880F911D9695879597F9A1
:100FE000089591505040660F771F881FD2F70895DB
:0E0FF00081E090E0F8940C94FD07F894FFCF98
:100FFE000000000001017D00CA00A800BC004801ED
:10100E006E616E00696E66006F7666000D0A0000F6
:00000001FF
