:1020000000800020493400003134000031340000E9
:1020100000000000000000000000000000000000C0
:10202000000000000000000000000000313400004B
:102030000000000000000000313400009D3400006A
:1020400031340000313400003134000061330000CD
:1020500031340000313400003134000035340000E8
:10206000313400007D330000313400003134000091
:1020700039330000313400008D330000313400006A
:1020800031340000313400003134000031340000BC
:102090000000000031340000313400003134000011
:1020A000313400003134000031340000313400009C
:1020B0000000000010B5064C2378002B07D1054B1B
:1020C000002B02D0044800E000BF0123237010BDA4
:1020D0003001002000000000B86A000008B5084B7D
:1020E000002B03D00748084900E000BF07480368F9
:1020F000002B03D0064B002B00D0984708BDC046EC
:1021000000000000B86A0000340100202001002017
:1021100000000000014B03607047C046385D0000BE
:10212000014B03607047C046385D000038B5456814
:102130002C1E06D02368201C9B6898476468AC421C
:10214000F8D138BD034B0360034B03644361C360A4
:102150007047C046085E0000385D000004307047DC
:1021600010B5034B041C0360FFF7ECFF201C10BDEF
:10217000085F000010B5034B041C0360FFF7F0FF7D
:10218000201C10BD906300000020704710B5041C97
:102190002368201CDB6898470028F9DA10BD08B5D1
:1021A00003689B69984708BD70470000014B0360B6
:1021B0007047C046385D000010B5034B041C036037
:1021C000FFF7D8FF201C10BD685D000008B540680F
:1021D00003689B69984708BD08B540680368DB69D8
:1021E000984708BD08B5406803689B68984708BDD4
:1021F00008B540680368DB68984708BD08B54068C3
:1022000003685B68984708BD08B5406803685B6968
:10221000984708BD10B5034B041C036001F066FF2E
:10222000201C10BD385D000010B5034B041C03607A
:1022300001F05CFF201C10BD385D000010B5041CCF
:10224000FFF780FF201C01F051FF201C10BD10B5CE
:10225000041CFFF785FF201C01F048FF201C10BD67
:1022600010B5041CFFF786FF201C01F03FFF201C67
:1022700010BD000010B5034B041C036001F036FFD5
:10228000201C10BD385D000010B5041CFFF794FF42
:10229000201C01F02BFF201C10BD38B5041C216050
:1022A000081C09684D68111C1A1CA847E079012810
:1022B00006D9012101F07EFAE079002101F0D4FA7B
:1022C000206803685B699847221C002349325370D9
:1022D00013700132538108321380023A1380642351
:1022E000A38038BD08B5024BFFF7D7FF08BDC04635
:1022F0003304000010B5041C01F0DEF8E36DC01AD1
:10230000C317181AC00F10BDF7B5051C49350026B4
:10231000041C01912E70206803689B689847002870
:102320000DD02F783F2F01D90126F4E77B1C2068C0
:102330002B700368E719DB6898477872EBE7231C7A
:1023400050331A8801321A80002E08D05434238862
:10235000019A0133238003235B42138001E0019B38
:102360001E802878FEBD000030B50D4B021C141AEB
:10237000E4B28C420FD2547A6340082401251D40F8
:102380005B08002D01D0074D6B40013CE4B2002CEE
:10239000F4D10132EBE71A0A1802104380B230BDC3
:1023A000FFFF000001A0000070B5051C49352E7824
:1023B000041C311CFFF7D8FFA31902125A72731CB8
:1023C000DBB2E318023658722E70E07901280CD97E
:1023D000012101F049FAA388002B06D03020584390
:1023E000032102F063FF0138FDD12068211C03683E
:1023F0002A781B6909319847E379012B07D92068AE
:1024000003689B699847E079002101F02DFA206864
:1024100003685B69984700232B7001F04DF8231C7B
:1024200056331B88C018E06552342388013323805B
:1024300070BDF0B5041C85B0081C0393A379000A95
:102440000E1C01910292CDB2C0B2310C92B2002B9F
:1024500060D1237A002B5FD16B1EDBB2F62B5DD8E7
:10246000039B6572A0720D120138E364E57221735B
:102470000F2848D802F010FF080808080C18474732
:102480004747474747471D2A13126373A27306E065
:102490001B885A1E93415B4263730023A373062279
:1024A000231C49331A702EE01A88121262731B889B
:1024B000F4E713095B00DBB2110701D00133DBB293
:1024C0001112A2736173E3730722E9E711126173BA
:1024D0005100E173211C07204931A27308700020CC
:1024E000904210D00D781F8866193F1277726E1CCB
:1024F000F6B20E701F88A61902350130777280B2CD
:102500000D700233ECE7201CFFF74EFF012323720E
:10251000002004E0FE2002E0FF2000E0FD2040B2A9
:1025200005B0F0BD1FB50C30FFF783FF05B000BD4F
:1025300010B5041C9C342168026F031C914201DD1C
:102540000022226021685A6F181C0C234B439958B3
:10255000D3185A680C309B68FFF76BFF2368013370
:10256000236010BD38B5031C49331D78041C032DAE
:1025700005D8543423881848013323802AE0A91E43
:10258000C9B2FFF7F1FE6519EB792A7A1B021343F2
:10259000984205D05434238810480133238019E031
:1025A000A27A002351B2994206DA231C54331A88C6
:1025B00001321A80E07A0DE00949595C914208D055
:1025C0000133082BF8D154342388012001332380B0
:1025D00000E0002000B238BDF9FF0000FCFF000061
:1025E000F85D000070B5051C00246300E97ADA1C70
:1025F000D2B249088C420AD2E96CAA18CE18507A95
:10260000917A01F045FD01343080E4B2EDE770BD10
:10261000F7B5041C006803689B689847071C201CDA
:10262000FFF768FE061E0BD0002323720622231C30
:10263000603352421A80543423880133238031E0BE
:10264000002F01D1002039E0251C4A352B789F420C
:1026500005D02F7000F030FF0530A065F2E700F0E4
:102660002BFFA36DC01AEDD46F4606372E70201CC9
:10267000391CFFF749FE3D88002D09D0231C60332B
:102680001D80267254342388E8B20133238015E07C
:10269000201CFFF767FF3880002805D0231C60331B
:1026A00018802572FF2009E0A37A033B012B02D892
:1026B000201CFFF797FF00232372012040B2FEBDCC
:1026C00010B5041C0C30FFF7A3FF6F34207010BD51
:1026D000F8B5051C0026AA6F96422FDA184C0C2775
:1026E00077431849201C01F079F96A6F201CD15DED
:1026F0000A2201F0E2F91449201C01F06FF96A6F17
:10270000201CD31959780A2201F0D7F90F49201C4F
:1027100001F064F96A6F201CD31959880A2201F06C
:10272000B4F90B49201C01F059F96B6F201CDF191B
:10273000B9880A2201F0ADF90136CCE7F8BDC046F0
:1027400008070020D05D0000D55D0000E25D0000BC
:10275000ED5D0000F0B585B0041C02930AAB019159
:102760001B88806F216F00920393814222DBAA2392
:10277000656F40001B05984202D80C23584301E0C6
:102780000120404201F0AEFC00216067A76FB94212
:1027900008DA0C224A43666F0131B318AA18C1CA7D
:1027A000C1C3F3E7002D02D0281C01F0A3FCA06FE9
:1027B0004300A367226F0C235A43616F019E0B985D
:1027C0005654226F676F5A43009EBA185670226F94
:1027D000676F5343029EFB18039F01325E809F8008
:1027E0009860226705B0F0BD73B5214D281C00F03C
:1027F0009DFB1120012100F0DDFF1120012101F0DE
:1028000033F81C4C9622201C0C301B49D201FFF7D8
:1028100069FD231CFA22D20062331A8064232382CA
:10282000281C211C00F0C6F8144E154D3288154B9B
:10283000201C1B880121009201950322FFF78AFFCB
:102840003288114B201C1B88012100920195032224
:10285000FFF780FF00F030FEFA239B00C0180B4BFF
:102860000B4A1860002313700A4A137073BDC046E8
:10287000F00100204C01002068030020040000202B
:1028800070030020060000200800002064030020E0
:1028900060030020EC01002008B50248FFF718FF94
:1028A00008BDC0464C01002070B51B4C0025201C03
:1028B00000F052F8194A231C194EFC335A66194B82
:1028C000321C1949201C236002F040FD174C1223D2
:1028D000E374FA22231C920062331A80144BA5740D
:1028E00008332360231C6560A5606F330C201D70C6
:1028F000256701F0F7FB0123A367231C321C6067E7
:102900009C33201C0B491D6002F020FD0A4B0B4A32
:102910001A600B4A5A6070BDF0010020985E0000FA
:1029200000000020685D0000B92100004C0100207B
:10293000B05D0000AD21000068030020905D000044
:1029400060050020024B032201201A607047C04638
:10295000AC03002070470000114B124A083303609B
:10296000114B4261C360421D002303618361C36157
:102970000362D3770D4A83620264021CD032C362C1
:10298000036343638363C36343648364137053705B
:102990002C329365D3651366054B18607047C046AB
:1029A000005E0000805E0000505D0000285E0000B8
:1029B000900300200369002B03D149608960016105
:1029C00004E09A684B608A6051609960704708B56E
:1029D000403000F021F808BD014B03607047C0464D
:1029E000385D000030B5041C9034002201252270AF
:1029F0006570A1708C30914201D1036000E00260EB
:102A000030BD704710B5034B041C036001F06EFB32
:102A1000201C10BD385D0000FC30036A4A61002BA9
:102A200002D10960496004E05A680B604A60116095
:102A3000596001627047F8B58468C7680E1C0025AC
:102A4000BD4208D02068311C02F0D2FD002804D01D
:102A500001350834F4E7002000E0201CF8BD000038
:102A600007B5031C903301211970002159706C3394
:102A70008021021C98690091F03B024900F05CF94A
:102A800007BDC046E52900000EB403B503AA08CA75
:102A9000FC308069191C019200F0D2F902B008BC28
:102AA00003B01847F7B5031CFC331D6A00902C1EB9
:102AB00019D02269A76801920026E3689E420FD2CE
:102AC000019A3B680098002A03D00849FFF7DCFF11
:102AD00003E007491A1CFFF7D7FF01360837ECE778
:102AE0002468AC42E5D10020FEBDC046385E00003F
:102AF0003B5E0000F7B50024071C0D1C161CA1420C
:102B00003BD013681E49181C009300F0FBFA041E0A
:102B100005D1381C291C321CFFF7C4FF2DE03B1CDB
:102B2000FC331B6A01931C1E0CD10124644224E077
:102B3000201C0099FFF77FFF002815D12468019B16
:102B40009C42F2D021690029F2D0012DF6DD0098D7
:102B500000F0D8FA0028F1D1201C7168FFF76BFF54
:102B60000028EBD00436013D61692A1C4468331CFF
:102B7000381CA047041E00DA0124201CFEBDC046FC
:102B80003F5E0000021C8C3238B5031C15680C3304
:102B9000041C5D1900211A1C131C954202D91078DF
:102BA00020281DD995420FD088002018943002604B
:102BB000AB4202D21A78202A16D801311F29EAD155
:102BC00001204042AB4211D10B1C24339B00E3187F
:102BD00000225A60221C9432201CFFF78BFF05E074
:102BE000002313700132D7E70133E1E738BD00005D
:102BF00010B5031C91331A78041C002A18D0002247
:102C00001A705A780133002A0FD1063B1B68C3188B
:102C1000DA72FFF7B7FF021C201C002A03D1094912
:102C2000FFF732FF04E0084900E00849FFF72CFFF6
:102C3000231C90331B78002B02D1201CFFF710FFC0
:102C400010BDC046445E0000495E00004F5E0000BB
:102C5000F8B5061C151C1F1C0124AC420DDAA3009C
:102C6000FA586B1E9C4201DA202300E00A23301C34
:102C70000349FFF709FF0134EFE70020F8BDC04624
:102C8000625E000008B507480023036043600361EB
:102C9000054B06498360064A0123C36002F056FBD8
:102CA00008BDC046940300206C5E0000032A0000AB
:102CB000000000200CB470B5134CA2B0061C201C00
:102CC0000D1C01F0B1FA002819D033682B4202D153
:102CD000013D033513D927AB269A02A87F21019322
:102CE00002F09CFF6B4600228733201C1A7001F013
:102CF0009BFA002803D0201C02A900F06FFE22B02E
:102D000070BC08BC02B0184708070020014B002225
:102D10001A607047AC030020014B03607047C04647
:102D2000385D000010B5034B041C036001F0DEF9B0
:102D3000201C10BD385D0000F8B5041C0E1C171CCB
:102D40001D1C00290DD08369002B04D0101C02210A
:102D50002A1C069BB047069BA661E7612562636259
:102D6000A562F8BD10B58469031C002C06D00022B2
:102D700082619B6A026AC0699B1AA04710BDC16844
:102D800070B5041C00295AD08269002A57D04069C6
:102D9000002804D003681B68984700284FD0E068DB
:102DA00003689B689847051E49D0216AA26A8B1A5E
:102DB000616A5B18AB4202D8002B02D01D1C0026B2
:102DC00022E0E06803689B689847002837D0E068F5
:102DD0000368DB689847002831DB0A28F1D1201C02
:102DE00001212AE0A36A5A1CA26218700D2812D190
:102DF000A36A0A22013B1A700123237400210136C1
:102E0000022919D1AE421AD0E0680368DB689847FE
:102E10000028E7DA0FE000210A2809D1237C8B4241
:102E200003D0A36A0221013BA36200232374E6E7D7
:102E300021740221E3E70321201CFFF793FF70BDFB
:102E400070B5041C4069A0B00E1C151C002804D0ED
:102E500003681B68984700280DD07F21321C2B1C6B
:102E6000684602F0DBFE6B4600227F33E06869466D
:102E70001A7000F0B3FD20B070BD000008B5024824
:102E800001F0D2F908BDC04608070020F0B5234F75
:102E90008BB00E1C041C03920092381C0021204AA7
:102EA000331CFFF707FF201CFFF74CFD051E05D163
:102EB000381C02211B4AFFF7FDFE2BE0201C06A94F
:102EC00000F0BEF8221C08CA201C5F6906A905ABE9
:102ED000B847059B039AFC34B343E0661343FA20DA
:102EE000A366C000104CDA070CD500F0EBFA201CEA
:102EF00001F09AF900280DD0E121201C490201F0CF
:102F000091F907E000F0DEFA201C01F08DF90028AD
:102F1000FAD0F1E7281C0BB0F0BDC046AC0300208E
:102F2000A05E0000BE5E00000807002010B5002172
:102F3000041C054A0548FFF7BDFE0021201C0A1CA1
:102F4000FFF7A4FF10BDC046E15E0000AC03002007
:102F500010B58EB0041C081C01A900F089F80449C2
:102F6000021C201CFFF790FD00200EB010BDC046D3
:102F70003B5E000010B5041CFFF7ECFC201C02496E
:102F8000221CFFF724FD10BDB003002008B5074840
:102F90000023036043600361054B06498360064AD2
:102FA0000123C36002F0D2F908BDC046B00300207F
:102FB000285F0000032A000000000020F7B5171C5E
:102FC00001911B4800211B4A1C1CFFF773FE1A4B82
:102FD00000261B68009324257543184BED18009BB1
:102FE0009E4218D0281C0199102202F001FA0028F4
:102FF0000FD1291C381C1431082202F008FA286964
:10300000002C13D0EB6982699A432B6A1343236027
:103010000CE00136DFE7381C0021082202F000FA3C
:103020000020844201D0206000E0201CFEBDC0468C
:10303000AC030020305F00006C5F0000705F000098
:103040007FB50A4A684670CA70C012686B46026053
:10305000002298580C1D006808700131000AA14236
:10306000FAD10432102AF4D17FBDC046505F00006F
:10307000F0B587B00E1C02A9FFF7E2FF00252C1C5B
:1030800031277F1B7019002C01D10A4B00E00A4B3D
:1030900002A90A5D391C0092084A02F077FA00285A
:1030A00005DBB84203DA01342D18102CE8D1301CAE
:1030B00007B0F0BD72690000605F0000625F000051
:1030C000036870B5DB69041C98472368051C9B687E
:1030D000201C9847002814D006CD002A0CD00D1CC7
:1030E0004B3500235C42C65C2C5DA64206D1013301
:1030F000082BF7D1081C04E0101C02E05431013AFF
:10310000EBE770BD10B5002802D1484248411AE0F3
:1031100000291DD003780A78934203D1002B14D1E3
:10312000181C16E01C1C413C192C01D82033DBB2C2
:10313000141C413C192C01D82032D2B2934204D045
:103140000120934205DA404203E001300131E1E71A
:10315000012010BD094B0A4A0A491A6000225A711F
:103160001A71094B196016211971182199711721CB
:10317000597101215A72D9711A727047C80300201F
:1031800000093D00F8060020D0030020F8B5051C1A
:103190000F1C161C0024B44208D02B68395D1B6834
:1031A000281C9847002801D00134F4E7201CF8BD02
:1031B000704708B5183000F0F3FC08BD08B51830AA
:1031C00000F002FD08BD38B5837D0D1C002B06D034
:1031D000041CC434201C00F00DFD002801D0002088
:1031E00004E0201C291C00F0C2FC012038BD08B5F9
:1031F000183000F0F2FC08BDF7B50193FA239B00EC
:1032000083600B4B00250833041C456003601830B5
:103210000F1C161C00F09EFC201CC43000F09AFC11
:10322000019B27612675A575201C6375FEBDC046F0
:103230000065000038B5041C006900F090FD00280E
:1032400079D0206900F099FD00280ED1206900F0A6
:103250009EFD00281FD0206900F094FD00281AD0A0
:10326000206900F099FD002815D1206900F04AFD81
:103270002069032100F050FD231CFC33DD6F002D7D
:1032800004D02368201C9B689847A847201C18304E
:1032900000F07FFC4FE0206900F079FD031C2069FD
:1032A000002B16D000F02EFD2069032100F034FD24
:1032B000206900F071FD00283DD0201CC43000F0D2
:1032C00068FC0123A375FC34A36F002B33D098470F
:1032D00031E000F04DFD00282DD0206900F05CFDAC
:1032E000251C00280FD0C435281C00F06DFCFF21E0
:1032F000002803D0281C00F053FCC1B2206900F064
:1033000021FDA07517E01835281C00F073FC031C84
:103310002069002B02D000F0EDFC08E000F041FD38
:10332000011C281C00F023FC206900F0EBFC206944
:10333000032100F0F1FC38BD08B50248FFF77AFF21
:1033400008BDC046E003002008B503480349142225
:103350001523FFF751FF08BDE0030020E806002019
:1033600008B5044B1B68002B00D09847024B012284
:103370001A7208BD5C0500200014004008B5024820
:1033800000F0FEFD08BDC0466005002008B50248FB
:1033900000F0F6FD08BDC04624060020F7B5164F24
:1033A0001649381C00F036FC1549164800F032FC6E
:1033B0001549164800F02EFC1549164800F02AFC65
:1033C0001549164800F026FC154D03260124281C3B
:1033D000144900F01FFC391C0096231C01940022A4
:1033E000114800F0A9FD0096291C01941F221E23FC
:1033F0000E4800F0A1FDF7BDEC06002000080042D9
:10340000000C0042F006002000100042F4060020EC
:1034100000140042E806002000180042F8060020D0
:10342000FC060020001C004260050020240600204D
:10343000FEE7000008B5034B1B68002B00D098473F
:1034400008BDC0460007002038B50F490F4CA14207
:1034500004D100F055F800F021FE0BE00C4D8D4238
:10346000F7D00023CA18E818A24204D20068043337
:103470001060F7E7FEE79042EBD0064B064A934216
:10348000E7D2002204C3F9E7000000203001002049
:10349000BC6A000030010020000D002008B500F0DB
:1034A0002CF8002801D100F01DF808BD014B186070
:1034B0007047C04600070020014B18687047C0469F
:1034C0000407002070B5041E08D0054B1D681E1CA3
:1034D00000F012F833685B1BA342F9D370BDC046FD
:1034E0000407002008B5034B1A6801321A6000F087
:1034F000F7FA08BD0407002070470020704700005D
:1035000070B5494A1E21536802208B430343474943
:1035100053608B69082423438B61454C454B9C8247
:103520009C8A20439882101CDA689407FCD5424A92
:10353000012414701478E50704D53F4C647864B214
:10354000002CF7DB01249460547864B2002CFBDB80
:103550003A4D394C6560547864B2002CFBDB82250F
:10356000354CED016580547864B2002CFBDB0224FD
:103570009C84DC68E606FCD5314D2E4CE562DD68A6
:103580002C4CEE06FBD5A58C2E4E3543A584DD686C
:10359000284CEE06FBD5A58C02263543A584DC68B5
:1035A0002506FCD5234CE4686606F8D5DC68E506FC
:1035B000FCD500249460547864B2002CFBDB224DCF
:1035C0001D4C656055781C4C6DB2002DFADB1E6AEF
:1035D0001E4D35401D621D6A8026B5431D620323C2
:1035E000A3601B4B636053785BB2002BFBDB0023B3
:1035F0000B72184A4B728B72CB72174BFF211A60F9
:10360000164B174A1B6812685C01D20E2140114309
:103610009A06520F12020B1C1343124A1385436879
:1036200080221343436070BD00400041000400400D
:103630000C06000000080040000C004001050100DD
:10364000B905FF7D040A000000070300FFFCFFFF2F
:1036500003060100006CDC020C00002024608000E6
:103660002060800000400042314BFA21186810B5FC
:10367000890001F01BFE2F4B0138984224D82E4AB6
:103680002E4B5060186AC0210002000A090601434F
:1036900019620024072194601160196A80220902CE
:1036A000090A12060A431A62254BFC211A6A0A43C8
:1036B0001A62196AFC2292010A431A62196AA0224C
:1036C000D2020A431A6200E0FEE7201C0021013406
:1036D00000F070F8142CF8D11A4C63785BB2002B10
:1036E000FADB194B6380194B5A7ED209012AFAD0B2
:1036F000E422D2009A803F22DA70597E134AC90927
:103700000129FAD0C0235B0100201361907000F002
:1037100023F863785BB2002BFBDB0D4A094B5A8020
:103720000C4BDA79D209012AFAD041225A7010BD25
:103730000C000020FFFFFF0010E000E000ED00E0C3
:1037400000040040000C00401E4000000040004209
:10375000214000000048004200B5144A517E131C6D
:10376000C9090129F9D00138042813D81969104A68
:103770000A401A615A780F218A4301F08DFD030532
:1037800009070300012102E0032100E002210A43AE
:103790005A700AE01169F0231B050B43136153783B
:1037A0000F218B4302210B43537000BD00400042A8
:1037B000FFFFFFF010B51824021C201C5043274BBC
:1037C0001818007A40B2013046D0032944D8081CAA
:1037D000211C01F061FD02331121624398569A18B1
:1037E000C3011F4852681B18991840310220087005
:1037F0000121914059602FE06243985618499A1868
:103800005268C3015B1899184031062008700121E5
:103810009140596099611FE051435A561048591818
:103820004B68D2011118C8184030062404700120DA
:10383000984048600B49521850600DE0624398561A
:103840009A18C301064852681B1899184031022083
:10385000087001219140996010BDC04620650000AC
:10386000004400411044004118235843134AF0B566
:10387000131808241C5701341FD08256104ED20151
:103880005D6801249019231C8668AB401E420BD151
:103890000E1C771EBE41401934404030A50004780C
:1038A0000426B4432C430470002903D1054952185F
:1038B000536002E0024E92199361F0BD2065000052
:1038C000004400411044004118224243F8B52D4DF8
:1038D0000824AA181457031C621C50D0481C00244A
:1038E0000C284CD801F0D8FC071E1E1E1E1E1E1EE2
:1038F0001E0A0A0A0A000124644240E0092902D192
:10390000181C002103E00A2904D1181C0221FFF72A
:1039100051FF23E000240B2931D1181C0121FFF7AE
:1039200049FF2CE018225343EA185268EB56012055
:10393000141C04405508DB01002C11D0124C1B193B
:103940005D1930352E780C010F21314021439A1832
:10395000C9B22970403213781843107000240EE069
:10396000094E0F279B195D1930352E789A18BE43E2
:103970003143C9B229704032137818431070201CAB
:10398000F8BDC0462065000000440041F7B58A1824
:10399000061C0D1C01920C1C019B671B9C4207D04E
:1039A000336821781B68301C984701340028F3D114
:1039B000381CFEBD08B50368C9B21B68984708BD2E
:1039C00038B5051C0C1C081E07D001F01BFE2B6827
:1039D000021C5B68281C211C984738BD08B5FFF7FE
:1039E000EFFF08BD08B503681B68984708BD0000D5
:1039F00008B50249FFF7E4FF08BDC0467069000042
:103A0000F0B58DB0161C0BAB002201900C1C1A7087
:103A1000012E00D80A266D462B35201C311C01F0E2
:103A200089FC201CCFB2311C01F040FC291C041C75
:103A3000092F01D8303700E03737FFB22F70013D32
:103A4000002CEAD10198FFF7BBFF0DB0F0BDF8B52F
:103A5000041C0D1C161E04D10368C9B21B689847CC
:103A600012E00A2A0DD100290ADA2D21FFF7BAFF48
:103A70006942071C321C201CFFF7C2FFC01903E07B
:103A800000E0D2B2FFF7BCFFF8BD08B5FFF7DFFFDB
:103A900008BD38B5041CFFF7DAFF051C201CFFF732
:103AA000A7FF281838BD08B5002A02D1FFF782FF0A
:103AB00002E0D2B2FFF7A4FF08BD08B5FFF7F3FF9D
:103AC00008BD0000014B18607047C0461000002080
:103AD000024B012252421A607047C046100000207B
:103AE000154A1368581C25D0013B1360002B21D1C7
:103AF00072B6124A124B04329A4207D8BFF34F8F64
:103B0000104A114BDA60BFF34F8F11E00F4B197D54
:103B1000C807FBD5188B2021FF31920852000143C2
:103B20001983DA610A4A1A801A7DD107FCD5E5E7C4
:103B3000C046FDE77047C04610000020002000008E
:103B4000030200000400FA0500ED00E0004000411F
:103B500002A5FFFF10B50021041CA42201F060FCA7
:103B6000221CA4320023201C1360536010BDF8B542
:103B7000051CA4352E68041C0F1C701CA42101F028
:103B8000D9FB231CA8331B68994201D0A755296093
:103B9000F8BD021C0023A432A830136003607047F4
:103BA00038B5021C041CA834A4322368126893425E
:103BB00007D0C55CA421581C01F0BCFB281C216067
:103BC00001E00120404238BD031CA433A8301A682C
:103BD0000368D01A00D5A4307047031C021CA83318
:103BE000A4321B681268934201D0C05C01E001203E
:103BF00040427047031CA43310B5041C1868A4216C
:103C0000013001F097FBA8342368C81A4342584199
:103C1000C0B210BD01607047F7B508AC26780468E3
:103C20009D1E27686C1EA541ECB2920705683A43B9
:103C300027063A432A600268072529405068B501E3
:103C4000002C00D05C03294301430C435460F7BDB2
:103C500030B50368C0251C68AD0312052A40224315
:103C6000C024A402090421401143196003685A6862
:103C700014435C6030BD036801211A680A431A606E
:103C80000268116801231942FBD1D1691942F8D1A8
:103C90007047036802211A680A431A600268D369F0
:103CA0009907FCD4704703681A7ED10702D41A7EA4
:103CB0009107FCD57047036800225A837047036858
:103CC000187E4007C00F70470368187EC009704710
:103CD00003688022197E52420A431A7670470368AD
:103CE000188DC0B2704703681A7E01200242FBD0D3
:103CF000198570470368802219685968D2020A43FF
:103D00005A6070470368034A196859680A405A6044
:103D10007047C046FFFFFBFF30B5036803241D68F2
:103D20000C40074A596824040A40ED0622436D0FEF
:103D30005A60052D03D10268D3695907FCD430BD00
:103D4000FFFFFCFF036828331970036800201A7E08
:103D5000510703D55B8B01209B089843704703688C
:103D60001868C006400F043843425841C0B270473B
:103D70000368187E4007C00F70470368187E012350
:103D8000184070470368588BC006C00F704703681F
:103D9000187E8007C00F70470368588B0007C00F5C
:103DA000704703681A68D206520F052A02D11A7E9C
:103DB0009107FCD528331878C0B270470368244AAD
:103DC000F0B5934211D0234A934211D0224A934234
:103DD00011D0224A934211D0214A934211D0214A54
:103DE000934233D119220E230DE0142209230AE055
:103DF00015220A2307E016220B2304E017220C23C6
:103E000001E018220D23DEB217490120C024B04082
:103E100064009B08085103259B00C0245B18A40084
:103E20002E401F59F500FF26AE40B7433E1CC02769
:103E3000AF403D1C35431D518023DB011A430B4B22
:103E400008605A805A7852B2002AFBDBF0BDC046A7
:103E500000080042000C0042001000420014004222
:103E600000180042001C004200E100E0000C00408D
:103E7000F8B5041C151C0E1C1F1CFFF79FFF201C0F
:103E8000FFF7F9FEB1001C220A4069072368090CFC
:103E90000A431A60226884239375012E1AD10821DF
:103EA000012D00D110210C4B79431868C00001F09E
:103EB000FDF9236807219A890140D2044903D20CF5
:103EC0000A439A8123680004C20C9889400B40037E
:103ED00010439881F8BDC0460C00002001207047B7
:103EE00008B50368014ADB69984708BD1304000060
:103EF00010B5041C0069FFF7BEFE201C1430FFF74C
:103F000048FE10BD08B50069FFF7CDFE08BD08B535
:103F10001430FFF759FE08BD08B51430FFF75DFEF9
:103F200008BD08B51430FFF73BFE08BD08B50069B1
:103F3000FFF7D9FE012008BDF7B51D1C08AB1B78A3
:103F4000041C009309AB1B78161C019300234360EB
:103F5000FA239B008360094B0F1C08330360143065
:103F6000FFF7F8FD009A231CC03327619A70019A6D
:103F70001E705D70201CDA70FEBDC04688690000AE
:103F800010B5041C0069FFF79AFE002807D02069CD
:103F9000FFF7A5FE011C201C1430FFF7E8FD206987
:103FA000FFF792FE002805D02069FFF791FE2069F7
:103FB000FFF781FE10BDF023081C18403038434243
:103FC00058417047F0231B01194080239B00994200
:103FD0000CD0C0239B00994206D080235B000520B3
:103FE000994204D0002002E0072000E0062070473C
:103FF0000F231940012905D002394B424B410220C1
:10400000C01A00E000207047F0B5031C85B0039192
:10401000C033041C182718783B1C43431B4E08214F
:10402000F3185956151CFFF74FFC231CC1331878A1
:1040300008214743F6197156FFF746FC01210A1C77
:10404000039B2069FFF714FF291C201CFFF7BAFF10
:10405000291C071C201CFFF7CBFF291C061C201C59
:10406000FFF7A9FF391C0090331C20690122FFF7DC
:10407000D3FD231CC3331978013B1A782069FFF75D
:10408000E7FD2069FFF705FE05B0F0BD20650000E3
:10409000000208437047FEE77047000010B5FFF7C5
:1040A000E3FA01F06BF9FFF7F7FF0120FFF70AFAD7
:1040B000084C201C00F0CAFA201C00F03FFBFEF761
:1040C00093FBFEF7E9FB044B002BFAD000E000BFA6
:1040D000F7E7C046D30B00200000000008B501F050
:1040E00073F908BD08B501F06FF908BD08B501F016
:1040F00075F908BD08B501F071F908BD3F2070479A
:1041000013B502686B46D97107335468191C012234
:10411000A04716BD08B50069022100F0FFFB08BDED
:1041200008B50069032100F00FFC08BD38B50D1C6F
:10413000041C131C006903212A1C00F001FD002847
:1041400001D10123636038BD10B5054C23685A1CAA
:1041500004D10368DB6898472060031C181C10BD5D
:1041600064000020074A08B51368591C04D00121D7
:1041700049421160181C03E00069022100F0D2FCE2
:1041800008BDC0466400002008B503780349023327
:1041900003704222024800F089FD08BD2000002083
:1041A000D30B002010B50178031C42780020A12910
:1041B00008D1212A2FD118481849072200F076FD8E
:1041C000012028E0212926D1202A05D113490722E0
:1041D000114800F0FFFB04E0222A10D19A780F4B1F
:1041E000DA710E4B96221968D200914210D1DC7917
:1041F00001231C400CD1FA20FFF764FC0AE0232ABB
:1042000009D1DA789B7812021A43054B1A6002E052
:10421000FFF75EFC002010BDD30B0020140000202F
:104220001C00002070470000024BD8790123184081
:104230007047C04614000020064BFA21890099609F
:10424000054900220831196004495A6019611A763B
:104250007047C04608070020B8690000D30B002053
:104260007047000070B582291ED1C2B22A4953019D
:10427000CB189D69294C80012C40C025AD052C43ED
:104280009C61274C0832201858610B68520199181C
:104290000C798020404220430871D15C702081431A
:1042A00030200143D15435E0002933D1C2B21A493C
:1042B0005301CB189E68194DC0242E40A4052643F7
:1042C0009E60184E8001096830180832586052010B
:1042D000505C0726B0430126304350549E69354058
:1042E0002C439C610E4C5C61505C7024A0431024F4
:1042F000204350549C680C488A1820408024640352
:104300002043986098684021800B8003986053791F
:104310000B43537170BDC046DC0B0020FFFFFF8FC5
:1043200030080020F4090020FF3F00F0EFF3108375
:1043300003600123436072B670470368002B02D10B
:1043400062B6BFF36F8F704737B50569041C6846C6
:10435000002D12D1FFF7EAFF019B013B03D3621D41
:10436000D57FEDB2F9E768460193FFF7E6FF00203D
:10437000854217D0206AE36913E0FFF7D7FF019B5E
:104380000025013B04D3221C34321578EDB2F8E746
:1043900068460193FFF7D1FF0020854202D0206BD1
:1043A000E36AC01A3EBD0000436810B51A68037A7C
:1043B00001215B01D318FF339A7A0A439A72037A78
:1043C00042685B01D318C2689C6891040B4A0909D2
:1043D00022400A439A60037A42685B01D3189A68C4
:1043E0004021920B92039A6043681A68037A08335B
:1043F0005B01D3181A790A431A7110BDFF3F00F010
:10440000F7B50569041C0E1C171C6846002D1FD14A
:10441000FFF78CFF019B013B5A1C06D0621DD17F28
:104420005A1E00293AD0131CF6E768460193FFF79D
:1044300084FF0025E369BD4235D0226A934232D21F
:104440005A1CE261A269D3181B7873550135F1E754
:10445000FFF76CFF019B013B5A1C08D0221C343231
:1044600015785A1EEDB2002D18D0131CF4E76846DB
:104470000193FFF762FF0025E36ABD4226D0226B5D
:10448000934241D322E0621D0021D1773032167869
:10449000581E8E4214D1031C5A1CF4D16846019355
:1044A000FFF74BFF38E0226A934235D10023E361E6
:1044B000012323616846FFF739FF019B013BEBE7CE
:1044C0001170201C0193FFF76FFFF6E7226B9342F8
:1044D00022D10023E36223616846FFF727FF019B97
:1044E000013B5A1CDAD0221C3432002111700132F7
:1044F0001678581E8E4201D1031CF2E71170201C61
:104500000193FFF751FFEAE75A1CE262A26AD3184F
:104510001B7873550135AFE7281CFEBD37B54368DE
:10452000027A1B68083252019A18041CD0790123C0
:10453000FF21184253D0D371A068656962680140B9
:10454000002D20D149015218916863618904890CBA
:104550002162A16A68465160621DD377FFF7E6FECB
:10456000019B013B5A1C33D0221C34321178581E57
:10457000C9B20132002903D001930123137023E053
:104580001170031CEEE74B01D3189A68A5699204D9
:10459000920C22630022626168465D60FFF7C6FEEE
:1045A000019B013B01E011702B1C591C10D0221CF7
:1045B000343201201070621DD17F5D1EC9B23032CD
:1045C0000029F0D0019310706846FFF7B6FE06E0B0
:1045D00068460193FFF7B1FE201CFFF7E5FE37BDEB
:1045E00037B500236C46E3710734201C0D1CFFF720
:1045F000CBFD2B681818286000F0F4FD211C00F09A
:10460000ABFD2B681818286020783EBD03290BD11C
:104610000D4BB2221B685200985C80214942014335
:104620009954022168220CE001290CD1064B9222F8
:104630001B685200985C8021494201439954022131
:104640002822FF3299547047DC0B002038B5304BDC
:1046500000240121051C1A201C70FFF7ABF81A205A
:104660000121FFF701F92B4B192001211C70FFF7E5
:10467000A1F819200121FFF7F7F8274B2021DA696B
:1046800001200A43DA61254B06241A7802431A7086
:10469000234B0F221978914319701978214319700F
:1046A00020490C782043087019780A401A701A784B
:1046B00060210A431A701C4B1C4A5A805A78D2094E
:1046C000FCD11B48FEF7F2FE1A4C201C00F09CFDAA
:1046D000201C00F0B3FD23687F2219780A401A706D
:1046E0001A7804210A431A701A890C218A431A8104
:1046F000C121114A890050580002000A50508021FF
:1047000011601A7802210A431A7001232B7038BDF8
:10471000F0090020D80B002000040040584400415C
:104720003C44004159440041000C00400640000058
:1047300039510000DC0B002000E100E00078002887
:1047400010D0094B01211B681A898A431A811A8BE0
:1047500008210A431A831A8B04210A431A83034B44
:1047600000221A607047C046DC0B0020E00C0020DD
:104770000F4B9A69920B92039A611B680222FF33D6
:104780001A7298798022524202439A711A7A9007DB
:10479000FCD5084B081C997A7F22104091430143B5
:1047A0009972997A802252420A439A727047C0469F
:1047B000DC0B00200050004110B50B790C1C002BC5
:1047C0000BD1081CFFF7EEFC002804D1094B9A69B5
:1047D000920B92039A6101200BE000F003FD211C73
:1047E00000F0EEFC0028F6D1024B9A69920B92037E
:1047F0009A6110BDDC0B0020F8B50D1C832A18D17E
:10480000CAB238495301CB189C693748AD012040E2
:10481000C024A405204398613448083245195D61DD
:104820000B685201D15C7020814340200143D15478
:1048300056E0022A45D13820FFF750FC2C4B294F77
:104840008026036076000023421D036203614361FA
:10485000C36147608560C660D3772F32041CC36292
:1048600003631370301C537000F0AEFDA061301C68
:1048700000F0AAFDFF232A1C1A405201A062BF18B3
:10488000B968194A07260A40C02189050A43BA6057
:10489000A16862681940126808314901885CAD005E
:1048A000B043032630438854A16862680B405B0123
:1048B000A169D3185960201CFFF776FD0D4BEC5011
:1048C0000EE0032A08D10B4B8D00E858002807D0D2
:1048D0000368DB68984703E0081C111CFFF7C2FC63
:1048E000F8BDC046DC0B0020FFFFFF8F3008002022
:1048F000E8690000B40B002038B5051C0124064B04
:10490000A200D258002A06D0211C281C0134FFF72F
:1049100073FFE4B2F3E738BD6800002008B5084B28
:104920008A00D058002803D003689B68984706E0A7
:10493000C9B2044B4901591888688004800C08BD2D
:10494000B40B0020DC0B002010B50C1CFFF7E6FFB9
:1049500000280CD0064BE1B21B68083149015918F8
:104960004A7980235B4213434B710223CB7110BD04
:10497000DC0B002070B5CAB2134B144854018901F6
:104980005918031959609D6811490832294080253A
:10499000AD022943996099684026890B8903996083
:1049A0000368510159180D7935430D71510159189A
:1049B00089794D06FAD551015918C979CD07FAD52B
:1049C0000419A068C0B270BDF4090020DC0B0020FF
:1049D000FF3F00F038B50C4B141C1B680D1CFF3357
:1049E0005A7940210A435A710021FFF7C3FFA042C0
:1049F00000D9201C0023A34204D0044A9A5CEA5444
:104A00000133F8E738BDC046DC0B0020F409002074
:104A100010B5C9B20C48490143189A689204920C27
:104A20003F2A08D9141C9A68403CA404920BA40C99
:104A30009203224302E09A68920B92039A60411813
:104A40008868C0B210BDC046DC0B0020F0B51C1C4D
:104A50002F4B85B01B68061C0D1C0292002B51D0F9
:104A60002C4F3978C9B2002902D11920FEF7FCFE7B
:104A700064233B70284BAA00D058002805D0036857
:104A800002995B68221C984740E0301C291CFFF704
:104A900045FFA04204D2301C291CFFF73FFF041C35
:104AA000291C301CFFF7B4FF1C4FE9B24A010191E9
:104AB000396803928B18FF335A7A01210A43184947
:104AC0005A72AB01C9180298221C00F0A0FC002CFD
:104AD0001BD0301C291CFFF721FF002815D1019B9A
:104AE0003A6808335B01D3181979402001431971E2
:104AF0000121D97103995318FF339A7A01210A438E
:104B00009A7202E00120404200E0201C05B0F0BD96
:104B1000E00C0020D80B0020B40B0020DC0B0020A0
:104B2000F409002013B56C460734221C0123FFF75B
:104B30008DFF012801D1207801E00120404216BDFF
:104B4000F0B51C1C3F4B85B01B680E1C0292002B5D
:104B50006AD08023DB019C4266D83B4D2978C9B2DC
:104B6000002902D11A20FEF77FFE642300222B7059
:104B70000092002C56D0354DF7B22B6801933B1CA8
:104B80000833019A5B01D3189B79DB091AD0304BAB
:104B90003049186800F08AFB2F4B1721584300F06A
:104BA00085FB3B1C0833019A5B01D318DB799A071C
:104BB00008D42A4B9A5D002A38D1421E002835D0ED
:104BC000101CEEE7254B00229A55251E402D00D9DA
:104BD0004025234AB301D318181C02992A1C0393B9
:104BE00000F015FC194A7B01D318039AA9045A61F5
:104BF0009A69890C920B92030A439A613B1C019AB1
:104C000008335B01D3180222DA71597980225242AB
:104C10000A435A71009B029A5B1952190093641B54
:104C20000292A6E700980BE0012008E001229A55C5
:104C30007B01ED18AB69101C9B0B9B03AB614042E1
:104C400005B0F0BDE00C0020F0090020DC0B0020D6
:104C50000C00002040420F007011010028080020C5
:104C60003008002070B50E4D1C1C8B01ED18281C5F
:104C70000E1C111C221C00F0CAFBF6B20949760179
:104C800089194D618A69084B201C13408B618B691F
:104C9000A2049B0B920C9B0313438B6170BDC04617
:104CA00030080020DC0B0020FF3F00F0F7B5114B6F
:104CB00001901B780F1C141C002B19D10E4B1E7871
:104CC000002E01D1151C08E00C4D0D482E888019CE
:104CD000361900F09CFB2E800AE0002D08D0BA198E
:104CE0002B1C01980021FFF7BDFF36182D1AF4E7A1
:104CF000201CFEBDD20B0020D00B00202608002077
:104D000025070020F8B50E1C00AF151E012D28D96F
:104D1000D31DDB08DB006A46D21A9546081C00F05A
:104D200071FC01306C464000032320706370022246
:104D3000AA420ED23378002B0BD0511CC9B20136D7
:104D4000A354A94204D0002302326354D2B2EFE745
:104D50002A1C0548211CFFF7A9FF431E9841C0B239
:104D600000E00020BD46F8BDD30B002008B5044B81
:104D700000221A70034B04491A88FFF797FF08BDF9
:104D8000D00B00202608002025070020F0B5204A7F
:104D900087B001230026009102A91370051C02961A
:104DA000FFF71EFC03AC092701903A1C201C311CA4
:104DB00000F036FB02236370A023E371FA23237211
:104DC000029B0122DB196380019B62712371104AEF
:104DD000009B27701670BB4205D1281C211C1A1C91
:104DE000FFF764FF11E00B4B01221A700A4B211CE4
:104DF0003A1C281C1E800296FFF758FF281C02A9A7
:104E0000FFF7EEFB281CFFF7B1FF012007B0F0BD54
:104E1000D20B0020D00B00202608002070B5CE78E1
:104E20008AB0051C0C1C022E08D1C9882348FFF744
:104E3000ADFF031C581E8341D8B23DE000F0D2F90B
:104E4000211C00F09EF9002803D0C3171B1AD80FAD
:104E500032E0012E04D1E2881949112A27D823E033
:104E6000032E29D1A278002A05D11649E2880B78B1
:104E7000934219D81BE0022A03D1A279281C1249B7
:104E800004E0012A05D1A2791049281CFFF73AFF56
:104E900012E0032A10D100F0A5F901A900F081F970
:104EA000A279281C01A9F1E7D2B2002A00D10A7820
:104EB000281CFFF7FBFE01200AB070BDD30B0020B9
:104EC000066A0000026A0000186A0000F869000023
:104ED00073B5051C48780C1C0B2878D800F0DCF959
:104EE000081C7728773E4306474B686F00206FE029
:104EF000097801AA002903D111705170281C09E01A
:104F0000002313705370334B1B78012B00D11370A7
:104F1000281C002102234FE08A780023012A04D1B3
:104F200001AA137053702C4BEEE72A4A137049E024
:104F30008E78012E07D1284B01AA00211E70117016
:104F4000281C331C38E0002E08D1224A012313709C
:104F5000224A9169890B8903916138E0A178281C64
:104F6000FFF706FC33E0281CFFF758FF30E0281C51
:104F700000211B4A1FE00A780020D30628D1281CF4
:104F8000FFF7BAFCA2781549154B02241A600A688B
:104F90002A23FF33D05C2043D0544A20FF30145CD6
:104FA00001231C4314548A69920B92038A610EE018
:104FB0000C4A281C00210123FFF754FE07E08A78E1
:104FC000084B1A60054B9A69920B92039A61012073
:104FD00076BDC04624070020D10B0020DC0B00204A
:104FE000E00C0020D40B0020F8B54B4B071C1C78BC
:104FF000002C00D08FE0494D2868838B19070ED50F
:10500000201C211CFFF72EF92B6810201A1CFF32E0
:10501000917A01439172424A146008229A832B6864
:105020009A8B50071FD504229A833E4B1A78002A88
:105030000AD01A78013AD2B21A701B78002B03D129
:105040001A200121FEF710FC374B1A78002A0AD0EB
:105050001A78013AD2B21A701B78002B03D11920AA
:105060000121FEF701FC2B68FF331A7AD10626D501
:1050700010221A725A7940210A432C495A710A782F
:105080006023381C1A4202D1FFF722FF01E0FFF72C
:1050900093FB002806D02B688022FF339979524277
:1050A0000A4301E0224B20229A712B68FF331A7ABF
:1050B000500604D540221A72597A0A435A72296856
:1050C000FE230E8C00241E40E1B2002E23D0321CA1
:1050D000012322411A4216D0221C286808325201AC
:1050E0008218D079184203D1D279DA401A4207D017
:1050F000104BA200D058002809D003681B689847BD
:105100000123A3409E430134092CDDD103E0381C68
:10511000FFF77CFAF4E7F8BDD00B0020DC0B002091
:10512000E00C0020F0090020D80B0020F40900203A
:10513000FF500041B40B002008B50248FFF754FFB0
:1051400008BDC046D30B0020014A024B1A607047CD
:1051500000500041DC0B002070B544680E1C002597
:10516000002C09D02368201C5B68311C984700285C
:1051700004DB2D18E468F3E7281C01E0012040421D
:1051800070BD38B544680D1C002C08D02368201C65
:105190009B68291C9847002802D1E468F4E7201C8A
:1051A00038BD38B544680D1C002C07D02368201C7E
:1051B000291CDB689847E4682D18F5E72C7038BD8A
:1051C00038B544680D1C002C08D02368201C1B68CF
:1051D000291C9847002803D1E468F4E7201C00E06C
:1051E000012038BD064B0122196810B51140054851
:1051F00005D1022404700424447041601A6010BD7B
:10520000EC0C0020E40C002038B5041C08CC012173
:105210001A78051C0A431A708022201C00215200B3
:1052200000F0FEF82B68997801221142FBD19978A1
:10523000D1401142F7D15C6238BD0000134BF0B58C
:105240001B6899035A029B01C90ED20E5B0F1F29DE
:1052500000D105211F2A00D11D22072B00D10323D5
:1052600004688E01278D0A491F2539403143218565
:1052700001682A400C8DAC4322430A850268190359
:10528000108D044B03400B431385F0BD2460800058
:105290003FF8FFFFFF8FFFFF02B471464908490046
:1052A000095C49008E4402BC7047C046002934D0D6
:1052B0000123002210B488422CD301242407A142E8
:1052C00004D2814202D209011B01F8E7E400A142A5
:1052D00004D2814202D249005B00F8E7884201D340
:1052E000401A1A434C08A04202D3001B5C08224318
:1052F0008C08A04202D3001B9C082243CC08A04289
:1053000002D3001BDC082243002803D01B0901D074
:105310000909E3E7101C10BC7047002801D00020E9
:10532000C04307B4024802A14018029003BDC04622
:10533000190000000029F0D003B5FFF7B9FF0EBC3B
:105340004243891A1847C0467047C04608B5031C37
:10535000081C191C00F002F808BD000038B5051C37
:1053600005480C1C131C002804D00220291C221CF8
:1053700000E000BF38BDC0460000000070B50E4B15
:105380000E4D0024ED1AAD101E1CAC4204D0A3003B
:10539000F35898470134F8E700F0BEFC084B094D7C
:1053A0000024ED1AAD101E1CAC4204D0A300F3582B
:1053B00098470134F8E770BDF4000020F4000020A5
:1053C000F40000201C01002008B5034B011C1868E4
:1053D00000F076F808BDC046F000002008B5034B89
:1053E000011C186800F024F808BDC046F000002039
:1053F00030B50023934208D0C55C0133CC18013C82
:105400002478A542F6D0281B00E0002030BD10B55E
:105410000023934203D0CC5CC4540133F9E710BDA0
:10542000031C8218934202D019700133FAE77047C7
:1054300030B5002940D004390B68002B00DAC918B8
:105440001E4A1368141C002B02D14B60116033E01C
:1054500099420FD208680A189A4205D11368526817
:10546000C01808604A6000E04B60216024E08A4276
:1054700003D8131C5A68002AF9D11D685C198C42A4
:105480000BD10968691858181960904214D1146832
:105490005268091919605A600EE08C4202D90C2337
:1054A000036009E008680C18944203D1146852683C
:1054B000001908604A60596030BDC046F40C0020F5
:1054C00070B50323CD1C9D430835061C0C2D01D25D
:1054D0000C2501E0002D3FDB8D423DD3204B1C68A5
:1054E0001A1C211C002913D00868431B0DD40B2B58
:1054F00002D90B60CC181EE08C4202D163681360A5
:105500001AE0486860600C1C16E00C1C4968E9E76A
:10551000144C2068002803D1301C00F025F82060CE
:10552000301C291C00F020F8431C15D0C41C032398
:105530009C4384420AD12560201C0B300722231D86
:105540009043C31A0BD05A42E25008E0211A301C93
:1055500000F00AF80130EED10C233360002070BD5A
:10556000F40C0020F00C002038B5074C0023051C7B
:10557000081C236000F0B6FB431C03D12368002BFA
:1055800000D02B6038BDC046FC0C00200CB430B5F8
:10559000164B9DB00C1C1D6804D58B2301202B607D
:1055A00040421DE0822302A99B008B8100230290D0
:1055B00008619C4200D0631E8B604B6101235B42FB
:1055C000CB81209A21AB281C019300F083F8421C68
:1055D00001DA8B232B60002C02D0029A0023137077
:1055E0001DB030BC08BC02B01847C046F000002017
:1055F00002780B7801300131002A01D09A42F7D0AD
:10560000D01A70470023C25C0133002AFBD1581E18
:1056100070470000F0B58D6885B0071C0C1C039224
:105620000193AB4245D390228B89D20013423DD0E7
:1056300062690326564309692068F20F401A9619D9
:105640000290021C0198013212187610964200D284
:10565000161C381C5A050FD5311CFFF731FF051EEB
:1056600013D0029A2169FFF7D2FEA289184B13408A
:1056700080221343A38111E0321C00F003FB051EBE
:105680000CD1381C2169FFF7D3FE0C233B60A389A2
:10569000402213430120A381404217E0029B256171
:1056A000ED1825606661019DF61AA6600198A84272
:1056B00000D2019D2A1C2068039900F0CAFAA26852
:1056C0000020531BA36023685D19256005B0F0BD61
:1056D0007FFBFFFFF0B59FB0039005938B890E1CF5
:1056E000171C19060FD53269002A0CD14021FFF78B
:1056F000E7FE30603061002803D103990C230B6072
:10570000C9E04023736106AD00236B6120236B76F3
:105710003023AB763C1C2378002B03D1E21B029292
:1057200011D003E0252BF9D00134F4E70398311CA4
:105730003A1C029BFFF76EFF013000D1A6E06969B9
:10574000029A8B186B612378002B00D19EE0012216
:1057500052426A606A4600235B3201342B60EB6080
:10576000AB601370AB654E4F2178381C052200F0FA
:1057700065FA002807D0C71B2B680120B8401843E2
:1057800028600134EFE72B68D90603D56A4620214B
:105790005B3211701A0703D56A462B215B321170F8
:1057A00022782A2A01D0099B0EE0059A111D126861
:1057B0000591002A01DB099204E05242EA600222CC
:1057C00013432B60013409E02278303A092A04D8C7
:1057D0000A214B4301349B18F6E7099323782E2BBB
:1057E00018D163782A2B09D1059B02341A1D1B6836
:1057F0000592002B0DDA01235B420AE001340023FD
:105800002278303A092A04D80A214B4301349B18E4
:10581000F6E70793234F2178381C032200F00EFA95
:10582000002806D0C71B2B684020B84018432860CA
:10583000013421781C480622671C297600F0FEF905
:10584000002812D0194B002B06D1059B07220733E5
:1058500093430833059314E005AB00930398291C88
:10586000321C134B00E000BF07E005AB0093039828
:10587000291C321C0E4B00F091F804900499013160
:1058800004D06A69049953186B6143E7B3895A06D7
:1058900001D40B9801E0012040421FB0F0BDC0468A
:1058A000256A00002B6A00002F6A0000000000003B
:1058B00015560000F7B5151C01930A698B68061C84
:1058C0000C1C934200DA131C221C2B60433212780A
:1058D000002A01D001332B602068800602D52B6896
:1058E00002332B60216806270F401FD0231C43334F
:1058F0001B785A1E9341226892061FD5E118403149
:105900003020C870211C5A1C45310978A218403239
:105910000233D17012E0221C301C0199193201238C
:10592000089FB847013011D0009F01370097E06809
:105930002968009F431A9F42EDDBD7E7221C301CE9
:1059400001994332089FB847013002D101204042FB
:1059500023E0206806212B68E26801400025042925
:1059600003D1D51AEB43DB171D40A26823699A4285
:1059700001DDD31AED1800270097009FAF420BDA24
:10598000221C301C01991A320123089FB8470130AC
:10599000DCD0009F0137EFE70020FEBDF0B50D1C05
:1059A0008BB0433506920590079304950B7E0C1C33
:1059B000109A6E2B00D1A7E011D8632B22D009D802
:1059C000002B00D1B0E0582B00D0C0E045310B7067
:1059D0007B4D4EE0642B1CD0692B1AD0B7E0732BA3
:1059E00000D1A5E009D86F2B29D0702B00D0AEE0F4
:1059F0000E68202333430B6036E0752B1FD0782BC5
:105A000032D0A4E013680D1C191D423511601B68CB
:105A10009FE0216813680E0603D5191D11601E68EA
:105A200005E04806F9D5191D116000215E5E644B42
:105A3000002E3BDA049D2D2276422A7036E0216842
:105A400013680E0603D5191D11601E6804E0480690
:105A5000F9D5191D1E881160594B227E0393082722
:105A60006F2A1ED00A271CE0231C78214533554D90
:105A7000197011682368081D039510601E0601D572
:105A80000E6802E05806FBD50E88D90702D5202201
:105A9000134323601027002E03D1226820239A434A
:105AA0002260231C002243331A7001E003930A276B
:105AB0006368A360002B03DB2568042295432560FF
:105AC000002E02D1049D002B0ED0049D301C391CE9
:105AD000FFF730FC0398013D435C301C2B70391CF0
:105AE000FFF7E4FB061EF1D1082F09D12168C90791
:105AF00006D5626823699A4202DC013D30232B708F
:105B0000049E731B23612AE008681368496905062F
:105B100004D5181D10601B68196005E04606F8D50D
:105B2000181D10601B68198000232361049D16E076
:105B30001368191D11601D68281CFFF763FD636859
:105B40002061984200D923612069606004E0251C2F
:105B500042352B7001232361049E00233370079E7E
:105B600005980096211C09AA069BFFF7A3FE0130A9
:105B700002D10120404221E02A1C059806992369A0
:105B8000079DA8470130F4D02668B60705D4099BC5
:105B9000E068984212DA181C10E00025E0680999C4
:105BA000431A9D42F3DA221C059806991932012303
:105BB000079EB0470130DCD00135EFE70BB0F0BDF8
:105BC000366A0000476A000030B5051C9BB0141E01
:105BD00004DA8B230360012040421DE08222920000
:105BE000684600910491002182818C4200D0611EA0
:105BF00001225242029105916946CA81281C1A1C51
:105C00001E9BFFF767FD421C01DA8B232B60002CE3
:105C100002D0009900230B701BB030BD73B5141C6B
:105C2000054A061C0D1C1068311C00932A1C231CFD
:105C3000FFF7CAFF76BDC046F0000020C9B2821847
:105C4000904204D003788B4202D00130F8E7002064
:105C5000704770B5814201D300230CE08C18A0423C
:105C6000FAD28518131C013B0BD351426618F65C1F
:105C70006918CE54F7E7934203D0CC5CC454013387
:105C8000F9E770BDF8B5061C0C1C151C002904D1E1
:105C9000111CFFF715FC041C18E0002A03D1FFF7C4
:105CA000C7FB2C1C12E000F013F8A8420ED2301CE7
:105CB000291CFFF705FC071E07D0211C2A1CFFF733
:105CC000A6FB301C211CFFF7B3FB3C1C201CF8BDBD
:105CD00004390B68181F002B02DAC8581B18181F4C
:105CE00070470000094A1368002B0CD01818694649
:105CF000884202D81060181C7047054B0C22012006
:105D00001A604042F8E7034B1360EFE7F80C0020FD
:105D1000FC0C0020000D0020F8B5C046F8BC08BC03
:105D20009E467047F8B5C046F8BC08BC9E46704712
:105D300000000000000000001521000015220000F6
:105D4000974000000000000000000000000000007C
:105D500021210000292200002D2100000000000068
:105D60000000000000000000B921000089220000AE
:105D70005D2100002D2F0000752F0000BD2F0000B9
:105D8000C130000089210000000000000000000078
:105D9000CD210000D9210000E5210000F121000003
:105DA000FD2100008D210000092200009F2100003C
:105DB0000000000000000000AD210000752200007E
:105DC000C1260000A9210000312500002525000082
:105DD00049443A20002046756E6320436F64653A5B
:105DE000200020416464726573733A2000204E7570
:105DF0006D20656C653A20000102030405060F1052
:105E00000000000000000000452100003D220000CD
:105E10005D21000045290000552900000000000018
:105E20000000000000000000D9290000052A000041
:105E3000F12B00000000000025732025730A006884
:105E4000656C70000D4F4B0A000D3F25640A003F42
:105E50002A2A2A206572726F72202575202A2A2A22
:105E60000A0025732563006563686F00675E0000A4
:105E7000512C0000000000000000000000000000A5
:105E8000192D0000252D00007F2D000000000000CE
:105E900000000000000000007D2E00000000000057
:105EA0002B436174656E6153616D6432313A3A62BD
:105EB0006567696E2825782C202578290A004361BA
:105EC00074656E6153616D6432313A3A5375706531
:105ED000723A3A626567696E206661696C65640A48
:105EE000002B436174656E6153616D6432313A3ADF
:105EF000626567696E28290A000000000000000042
:105F00000000000000000000612100004F2200009E
:105F10005D2100002D2F0000752F0000BD2F000017
:105F20006370756964000000205F0000512F00005D
:105F3000436174656E6153616D6432313A3A47650D
:105F400074506C6174666F726D466F7249440A00DA
:105F50000CA0800040A0800044A0800048A08000E9
:105F60002D00257325303278000000001D00000050
:105F7000083BAF3135504D51202020331B1F11FFFE
:105F80003C6400000002CC010000000000000000A2
:105F900001000000EAA37E8735504D5120202033B8
:105FA0003D2113FF046400000002CC010000000149
:105FB0000000000001000000B0A92F5835504D51DD
:105FC00020202033412312FFE86300000002CC01AF
:105FD000000000020000000001000000CF1B20A50F
:105FE00035504D51202020332E0611FF046400004F
:105FF0000002CC01000000030000000001000000CE
:10600000A3ADD03A35504D51202020331E1311FF3F
:10601000046400000002CC01000000040000000045
:1060200001000000DA0E425A35504D512020203335
:10603000332B12FF046400000002CC0100000005B5
:106040000000000001000000C48B81F735504D5165
:10605000202020333C2813FF046400000002CC0100
:1060600000000006000000000100000066522498B5
:1060700035504D51202020331B0811FF04640000CF
:106080000002CC0100000007000000000100000039
:1060900034D8A0F735504D5120202033182D11FF52
:1060A000046400000002CC010000000800000000B1
:1060B00001000000675CC2FF35504D5120202033A5
:1060C000213213FF046400000002CC01000000092B
:1060D0000000000001000000234748BB35504D512F
:1060E00020202033271A13FF046400000002CC0193
:1060F0000000000B0000000001000000EC26E8504A
:1061000035504D5120202035202110FF2064000003
:106110000002CC010000000C0000000001000000A3
:106120005835F7FD35504D51202020351B1F14FFE9
:10613000206400000002CC010000000D00000000FF
:10614000010000002E599CA135504D5120202035D2
:106150001C0D14FF206400000002CC010000000EA2
:106160000000000001000000E9ADA45E35504D5173
:10617000202020351D0414FF206400000002CC0103
:106180000000000F00000000010000005E1031D28E
:1061900035504D5120202035260A14FF2064000080
:1061A0000002CC010000001000000000010000000F
:1061B0001F84897535504D5120202035431C13FF15
:1061C000206400000002CC0100000011000000006B
:1061D000010000003E4F6C2E54534B504A312E3973
:1061E0002B2707FFC86400000002CC01000000411B
:1061F0000000000001000000FDF5076854534B50FB
:106200004A312E39392307FF586400000002CC01BF
:106210000000004200000000010000005B6D7140C2
:1062200054534B504A312E393A1507FF5864000039
:106230000002CC010000004300000000010000004B
:106240009FADBF0254534B504A312E39370E07FFD2
:10625000586400000002CC0100000044000000006F
:10626000010000005F6F4BA654534B504A312E394A
:106270003C2C07FF586400000002CC0100000045E0
:1062800000000000010000000525DCEF54534B50D6
:106290004A312E39361A07FF586400000002CC013B
:1062A000000000460000000001000000F4E8C524E2
:1062B00054534B504A312E39371307FF58640000AE
:1062C0000002CC01000000470000000001000000B7
:1062D0008E3F7C7B54534B504A312E39381307FF85
:1062E000C86400000002CC0100000048000000006B
:1062F0000000000082D1C43854534B504A312E392B
:106300003B1307FFC86400000002CC0100000049F5
:106310000000000000000000BF3D75D354534B50F7
:106320004A312E39372A07FFC86400000002CC0129
:106330000000004B0000000000000000F6744FBE9B
:1063400035504D51202020352D2E11FFB063000017
:106350000002CC010000004D000000000000000021
:106360009531BD2454534B504A312E393F1607FF07
:10637000B06300000002CC010000004E00000000ED
:10638000000000000000000000000000000000000D
:1063900075210000612200005D2100002D2F00000A
:1063A000752F0000BD2F0000C130000089210000C2
:1063B00060480ACBDC5D4148B6C9ACA13449CF1D69
:1063C000AC640000191C000000000000E2DECCC834
:1063D00055FA4BD394C3CE66BCD0BAAC90640000DF
:1063E00001000000000000000E2F07D93074406B40
:1063F0009433CD558CC24FB1E4640000F900000025
:1064000000000000E19FE1DD68814EF0AD01C1B602
:10641000E19EDA34E4640000F901000000000000AD
:106420003BAB150F6E324459A2B672ACED75059FA9
:10643000746400000102000000000000CC0889AD77
:106440008DB8485A9EDC01FC7846AFC4E464000075
:10645000F90100000000000082BF266170CB45AE4C
:10646000B620CAF695478BC1B0630000191C000224
:1064700000000000F6A15678C7F343F4AC5767EF6D
:106480005CF7554100000000000000000000000023
:106490002E6DFED4F57747D59137B3E63976AE92B7
:1064A000000000000000000000000000A67AD93CB7
:1064B000551A47D29ADBE249B4CF915ACC63000017
:1064C00009000000000000002281255EAC5C48CB82
:1064D000A2639DC890D16638B0630000D91D000446
:1064E000000000006785BBF2B3F54D86BB1FBB13F0
:1064F0002F9CB217AC6400003900000000000000BF
:106500000000000000000000C73100008D310000D5
:10651000BD310000B3310000EF310000B1310000A7
:10652000000000000B000000020000001C00000042
:10653000FF00010101010B00000000000A00000043
:10654000020000001C000000FF00000100010A0022
:10655000000000000E000000080000000400000021
:10656000FF00000000000E00000000000900000015
:10657000040000001C000000FF00010001000900F1
:106580000000000008000000040000001C000000E3
:10659000FF00000000001000000000000F000000DD
:1065A000040000001C000000FF00010301030F00B5
:1065B0000000000014000000050000002C00000096
:1065C000FF000200020004000000000015000000AF
:1065D0000800000004000000FF00FFFFFFFF0500AF
:1065E0000000000006000000040000001C00000085
:1065F0000600000100010600000000000700000086
:10660000040000001C000000070001010101070058
:106610000000000012000000040000001C00000048
:10662000FF00000300030200000000001000000053
:10663000040000001C000000FF0000020002000037
:106640000000000013000000050000002C00000006
:10665000FF00030003000300000000001100000021
:10666000040000001C000000FF0001020102010004
:106670000000000002000000010000000200000015
:106680000000FFFFFFFF0200010000000800000003
:1066900001000000180000000200000400040800CF
:1066A00001000000090000000100000018000000C7
:1066B00003000104010409000000000004000000C0
:1066C00001000000180000000400000000000400A9
:1066D000000000000500000001000000180000009C
:1066E000050001000100050001000000020000009B
:1066F00001000000000000000A00FFFFFFFF020091
:10670000000000001600000002000000040000006D
:10671000FF00FFFFFFFF0600000000001700000061
:106720000200000004000000FF00FFFFFFFF070061
:10673000000000000C000000030000000400000046
:10674000FF00FFFFFFFF0C00010000000A00000037
:106750000300000004000000FF00FFFFFFFF0A002D
:10676000010000000B000000030000000400000016
:10677000FF00FFFFFFFF0B0001000000030000000F
:106780000B00000004000000FF00FFFFFFFFFF0000
:10679000000000001B0000000B00000004000000CF
:1067A000FF00FFFFFFFFFF00000000001C000000D3
:1067B0000600000000000000FF00FFFFFFFFFF00D9
:1067C00000000000180000000600000000000000AB
:1067D000FF00FFFFFFFFFF000000000019000000A6
:1067E0000600000000000000FF00FFFFFFFFFF00A9
:1067F000010000001600000003000000000000007F
:10680000FF00FFFFFFFFFF00010000001700000076
:106810000300000000000000FF00FFFFFFFFFF007B
:106820000000000016000000020000000000000050
:10683000FF00FFFFFFFFFF00000000001700000047
:106840000200000000000000FF00FFFFFFFFFF004C
:106850000000000013000000020000000000000023
:10686000FF00FFFFFFFFFF0000000000100000001E
:106870000200000000000000FF00FFFFFFFFFF001C
:1068800000000000120000000200000000000000F4
:10689000FF00FFFFFFFFFF000000000011000000ED
:1068A0000200000000000000FF00FFFFFFFFFF00EC
:1068B000000000000D000000040000000C000000BB
:1068C000FF000100FFFF0D000000000015000000A8
:1068D000050000000C000000FF000300FFFFFF00A8
:1068E0000000000006000000040000000C00000092
:1068F000FF000001FFFFFF00000000000700000094
:10690000040000000C000000FF000101FFFFFF0079
:106910000000000003000000010000000200000071
:10692000FF00FFFFFFFFFF0000000000020000006B
:1069300001000000020000001400FFFFFFFF020042
:10694000000000000600000001000000020000003E
:106950000600000100010600000000000700000022
:106960000100000002000000070001010101070012
:106970000D0A006E616E00696E66006F7666002E0D
:106980000000000000000000000000000000000007
:106990002D3F00008D3900000F3F0000233F000015
:1069A000193F0000053F0000E13E000009400000E3
:1069B000F13E0000DD3E000000000000000000008D
:1069C000014100002D41000015410000654100001B
:1069D0004941000021410000FD400000000000008E
:1069E00000000000000000001D4500000144000000
:1069F0004943000061420000416461667275697438
:106A000000000403090412010002EF0201409A236E
:106A10000B80000101020301466561746865722004
:106A20004D30004300232D302B2000686C4C006556
:106A300066674546470030313233343536373839AA
:106A400041424344454600303132333435363738DD
:106A500039616263646566000000000000000000A8
:106A60000000000000000000000000000000000026
:106A70000000000000000000000000000000000016
:106A80000000000000000000000000000000000006
:106A900000000000000000000000000000000000F6
:106AA00000000000000000000000000000000000E6
:0C6AB000000000000000000000000000DA
:106ABC00000000000800F0037A04000040420F00C0
:106ACC00FFFFFFFF00C2010000000800FFFFFFFFF7
:106ADC00080B00020202000009040000010202007F
:106AEC0000052400100104240206052406000105FB
:106AFC0024010101070581031000100904010002A3
:106B0C000A0000000705020240000007058302404E
:106B1C0000000000FFFFFFFF0000000083000000EA
:106B2C0002000000820000000000000000000000D5
:106B3C000000000000000000000000000000000049
:106B4C0000000000586A0000786A0000986A000093
:106B5C000000000000000000000000000000000029
:106B6C00236A00000000000000000000000000008C
:106B7C000000000000000000000000000000000009
:106B8C0000000000000000000000000000000000F9
:106B9C0000000000000000000000000000000000E9
:106BAC0090000020DD200000A9280000852C0000AA
:106BBC000D2D00008D2F00005531000049330000D1
:106BCC009D3300003942000049510000B5200000FF
:106BDC0000000000000000000000000000000000A9
:04000003000034497C
¸  È  ’  Ÿ                              ›          ·  Â  µL#x +—K +–H ‡ ø##pΩ\       ò  µK +–HI ‡ øHh +–K + –òGΩ¿F    ò  `   X       µ√iú¸‘h$£C`ƒi#B˚—h#C`h‹¸‘ƒi#B˚—ƒi‹@B˜—KC`√iZ¸‘¿#õC`ÅÅ√iú¸‘h"C`Ω  @~⁄¸’ÖpG  ~#Q˚’BãB—Bã⁄@B—BãíB–K"p ç¿≤pG¿Fx   pµhòã!ˇ2B(–òãMCÄ ôÉòr#Sp@!KëqPq^h¿ .@ÄC^`^i5@(CXaH`Ha]hH(@Ä%≠(CX`XhÄÄX` #Qq#q‡z⁄’  Ó˙ ypΩˇˇˇèî  î     ˇ?  #qCqK`É`x"CppG¿F9  8µ6K !⁄i 
C⁄a4K$xCp2K"xëCpx!Cp/Ix Cpx
@px`!
Cp+K+JZÄZxR≤ *˚€)K!x
Cpöx—¸‘&HhQ"@ëB —!@åç"I)@!CÖh°
@* —"ç!
@åC"CÖh!“
@äB —"
@çJ@
CÖx"
@px!H
CpXbâ!äCÅâ!äCÅ !Ä"˘8Ω  @XD A<D AYD A  @@   P A$`Ä ?¯ˇˇˇèˇˇî  ˜µ#J_ó”Xi'@ @03«@–Ä"Yh
CZ`	‡/{üAKøˇ8"≈¯ôH5BaRi°íâí
CZaYiJ 
@ZakÛŸy"@CÿyêC
C⁄qYyÄ"RB
CZqkÛ€yö˙’ ˛Ωî    ˇ? ¯µN3x +—KJdZlííZdXlJ@Zd¢#[ ‚\@ C‚T#3pH'ˇ7‚]#@–KZlíí™B“]l≠≠*Ih¯‚]#@!
C·]ôCC„U #3p ‡(¯Ωy   î  ‘   ˇ? ˇ0Çy0#öC " ) —"CÉqpGKˇ0Zi!ííZaz#@
CzôCCrÇyÄ#[BCÉqzö¸’pG¿Fî  Ä#[BC…≤ÅrpGpµ†#"[ ¬TKJ\l¿!@âCF%\dˇ5@$DUM0&dê%m FU]k@)Cí%Ycm Ä!AU	Mc∞%m DU\o"@Zg≤#[ ¡TpΩ¿Fî  ˇˇˇè‘   T  0µ6J#Qh ôC#CQ`3IäiCäa2H2JêÇêäCìÇ”hò¸’/K pxƒ’,H@x@≤ (˜€ ò`Xx@≤ (˚€(L&HD`Xx@≤ (˚€Ç$#H‰DÄXx@≤ (˚€êåÄ$†CêÑ–h≈¸’LHƒb‘hHÂ˚’ÑåM,CÑÑ‘hHÂ˚’Ñå%,CÑÑ–h¸’H¿hE¯’–hƒ¸’ "ö`ZxR≤ *˚€H
JP`ZxR≤ *˚€ #rKrãrÀr0Ω¿F @ A  @    @  @ ∏ˇ}
    æ˛Áæ˛Áæ˛Áæ˛Áæ˛ÁJH8µÇB—JKìB—
‡LîB˜– #—àBÛŸÂX3`¯Á M¯‡ìB˙“ !√˙Á˛Á    \   †  \   ú  Jµà˙$1â≤K§ °B–Ä‡ !ÄI $W`Cà Ä≤≤ˇ,‹Ä‡ˇ Äp $_ (⁄  Ä pÄ 	IÄàaà ![^öB—Ä"KíZaΩ¿Fz   |        D A8µÄ"+Kíö`Za*Jx"@)K " )
—h'JêB—`‡`%J: *¸—`$KhP–ÿ≤ (
—Ä Ä†aÇÛàˇ"ìCJì`KhGˇ˜‚˛b∂ ˚¸ œ˘Ä#õ£a ˇ˜àˇ´h(òGK (–"px *–   6˙ í˙¸Áx +Ë— P˝ (‰–  )˙ Ö˙¸Á D A8 @¸  5ÅsHË      Ì ‡~   ¯µh ˇ0z∂J!CrµOxµI;pSxµNpìx3Ä—x3à	C3Äy±KÄQyà	CÄóyÆIÄ“yà:C
Ä@"Bq¶H•Ox8x®OC∫B —ô‡‹Ä!I äB —X·‹Å*j–Ç*n–Ä* –P·d‡Å#[ öB —Ø‡ ⁄#·¿#õ öB —C·òKöB —·>·ê#öBB–‹–#€ öB"–à#öBB–†#€ öB –,· ˇ˜Ë˝1à(hâ≤ˇ˜ˇ˝'·âKöB —˙‡ ‹·áKöB —Ë‡ÜKöB –·3àkqÌ‡3à
+—à"(hìBÿ
àí≤~I‹‡3à
+ – ·àC"(hìBÿ
àí≤xIŒ‡3à +qˇ˜±˝ ˇ˜–˝Ú‡)…"¡‡rI #Ä(h"º‡oI "
ÄàP"@mJpà 0@Äà( Ÿ‘‡xà3[‰£y *–õ ‡€€Ä(h"õ‡à"ëC^J…≤pà!@Ä1à ) –∂‡à ) —≤‡à) ŸÆ‡xà3[„ *–Zy0!äC !
C‡Zy0!äC CZqu‡à#öCIK“≤pà"
@Ä2à * –å‡à * —à‡à* ŸÑ‡x +'–à3[„õyôU’à0!3[„yäC !
Cqà3[„€yZD’à`!3[„⁄yäC@!
C⁄qà"3[„&‡à3[„õyﬂ-’à0!3[„yäC!
Cqà3[„€yô’à`!3[„⁄yäC !
C⁄qà"3[„q‡à"(hìBÿ
àí≤I #ˇ˜B¸(‡ ˇ˜‡¸$‡¿Fî   â      Ä   Ñ   Ü       !   °!  !"  Ï     Ç   à   H    !ˇ˜Æ¸¯Ω¿FµKL#`ˇ˜å˚ !hˇ˜z˚ Ω P A  µK"ê©hˇ˜˝˚ Ω¿F  µKlF4h!"ˇ˜?¸ xΩ¿F  µL ˇ˜˚  ÉB–"hH#ˇ3–\#@Ω  µJh#"ˇ˜Œ˚ Ω  pµL ˇ˜Ì˙ #òB– h1*ˇ˜¸pΩ  ¯µL ˇ˜Ÿ˙ #'4òB
– ,–)"8hˇ˜Û˚$-ıÁ3¯Ω¿F  (—KJ`Kp‡ (—JK`pGÑ     ë   l  0µKÖ∞x +)–)—h‡)—à ‡xI ®C;\£B– @	(ÿ0%(C ‡70p	;ÒÁ®0#px#Cp
"Cöp"⁄pK1h‡Kh€hòG∞0Ωê   Ñ  r∂ÔÛÉJ`hÉÛàChGpG¿Fà  µè∞©ŒJ1 1√Q Q√` `√ÀLÀH£hz%[[õ [X…I`¢hí≤SC
`«I«J` #`∆Kp ˇ˜√¸≈K≈Mh(i@!òG√K "`√K`√K¬M¿O`(h9hàBË“æKhxˇ* —ˆ·#* –Õ·ªN3x +–¥K∫Hh!€hòG∞KxS+8—;h*hìBŸ∞H2*`ö≤Khh1`±NöB“2` ‡3`§H2h hê ª˚3h)hZ*`§JhÒ`®Jp+h;+`üKh:`£K°JxhãB“óJïHh h…íiêG¿Fu·R+—êJëKhhóJ[ihj·O+—ãKìJhhpc·H+—áKèJhhÄ[·W+—ÉKãJhh`S·o+—K!h‡h+—|KÑHh!à`ˇ˜ˇ˛B·w+—vKHh!h`ÛÁG+—{Khˇ˜)ˇ|KhÉÛàb∂zKx + —)·mK hhòG#·T+—#3phKh\‡N+—3x +—dKiHh!€hòG #3p·V+P—^M!+hiH€hòG+h!€hgHòGgN+h0€h!òG+h!€hcHòG+h0€h!òGTO`KTN;` #3`:1hX`xì +–h3`ÙÁ+h1h€hVHòG+hRH€h!òGò0`RH8`CJhY`xBK *–h2`ÛÁ*hh”hòG+h€h=H!∫‡=JX+—/N1M6hh*h± ìB“X‡aAH Ä }≈¸’[ÙÁ,K>Hh€h†‡Y+3—h&K;I *—h`&‡hhchÄ%´Cíc` *–5K#Ä#}ﬁ¸’ #M-h ï≠´B”0M%Ä‡ìB˙–ù FY3NQÔÁ%}Ó¸’ù I@“ﬂÁK'Hh€hj‡Z+j—Khh &ÔΩBD–(x1 I˘5ˆÁ    @ A<  4  0  Ä  ,  Ñ  @  $  (  8  ê   `  å  ê     à  ë   <  e  >  à  @  L  •ˇˇU  å   D•ˇˇ•ˇˇY  .M/H+h!€hòG#"2@6	01	* ›1 ¿jFÅT;Ò“+h®€h!òG+h#H€h!òG"Mz#+p!K "`!KxìB,–K!hH€hòG%‡09»≤K	(ÿh2C`‡A9)ÿh7:‡a9)ÿhW:)
C‡,*—Jh`‡I
p "`Kh2`
Kh2ÛÂÑ  ]  _  ,  å  ê   c  Ä  8  (  µK x$CpK"xëCpx!CpIx Cpx
@px !
CpK!j
CbKJZÄZxR≤ *˚€ƒ"HIí˛˜ûˇJ #pJpJpJpJpJpΩJD A5D AKD A  @  @@    B*ˆ  î    ï  ò      µ¡≤H˛˜ùˇ Ω¿F  BK~@¿pG¿F  Bµˇ˜ıˇ (˚–H˛˜éˇΩ¿F  Bµˇ˜Èˇ #òB–ˇ˜Ïˇ#;ZBSAΩpµF¥B– xˇ˜Àˇ4¯Á(pΩµˇ˜’ˇ p Ω
X@K@ ¿Z	H@Ä≤pG¿Fñ  ˜µ $&ºB –ˇ˜ΩˇK¿≤xê +—1ˇ˜‚ˇKà *—Jx* )–ôj)pÄ/—à9Ä4§≤‹Á0 ‡ ˛Ω  ñ    µ>NÖ∞ "ê2p<KëB—"‡:IÄp#B–Ä4úCˇ˜~ˇ3x¿≤ +– %5pˇ˜vˇ3x¿≤´B6—C(–q(S–(Î—# ì ˇ˜Uˇ òˇ˜Rˇ ôÄ%»C¿≤ˇ˜Lˇõ 'ì$Jà +—!Iì	x )—òˇ˜=ˇ9òˇ˜yˇ= -Î— 
¿≤ˇ˜1ˇ¯≤ˇ˜.ˇˇ˜>ˇ3x +
–5p‡ô;	xÄõë3ì›Á¿≤(— õô3€≤Ä1 ìÄ<ë ,∏— ˇ˜ˇˇ˜ˇK%p ‡ %(∞Ω    ñ  µ8Lá∞ #ê#pôB—#‡4JÄ4Jd&pC ˇ˜Ï˛2Oˇ˜Û˛ (— /–?˜Á /—> .Ó—M‡%ˇ˜Ï˛#x +8—¿≤ê(–(=— ˇ˜Œ˛9‡Æ!0ˇ˜ˇòÄ!ˇ˜ˇ#xê +—ˇ˜–˛ˇ˜Õ˛ø≤#x?ø≤+–õüB—3x´B—ÎCrx€≤öB– ˇ˜ß˛ #‡ ˇ˜¢˛õ"x *– &&p‡+—ökÄ2›≤í∂ÁJ #p&0∞Ω  ñ     5 µ #ìB–Ã\ƒT3˘ÁΩÇìB–p3˙ÁpG  ¯µ¿F¯ººûFpG¯µ¿F¯ººûFpG   @ö#                 @   Ä            π  ›  Õ    +  µ  Ω  v   Mar  5 2016 21:28:34 X
 Y
 Z #
 > 2.0    Ÿ
  ı
    5  Q  5  y  [Arduino:XYZ]   !B c0Ñ@•P∆`ÁpÅ)ëJ°k±å¡≠—Œ·ÔÒ1s2R"µRîB˜r÷b9ìÉ{≥Z£Ω”ú√ˇÛﬁ„b$C4 Êd«t§DÖTj•Kµ(Ö	ïÓÂœı¨≈ç’S6r&0◊vˆfïV¥F[∑zßó8áﬂ˜˛Áù◊º«ƒHÂXÜhßx@a(#8Ã…ÌŸéÈØ˘Hâiô
©+πıZ‘J∑zñjqP
3:*˝€‹Àø˚ûÎyõXã;ª´¶lá|‰L≈\",<`AÆÌè˝ÏÕÕ›*≠ΩhçIùó~∂n’^ÙN>2.QpüˇæÔ›ﬂ¸œø:ØYüxèàë©Å ±Î°—-¡NÒo·Ä° ¬0„ P%@Fpg`πÉòì˚£⁄≥=√”„^Û±êÛ"“25BRwbVrÍµÀ•®ïâÖnıOÂ,’≈‚4√$†ÅftGd$TD€ß˙∑ôá∏ó_Á~˜«<◊”&Ú6ë∞WfvvF4VLŸm…˘/È»ôÈâäπ´©DXeHx'h¿·Ç8£(}À\€?Î˚˘ãÿõª´öªuJTZ7jzÒ
–≥*í:.˝Ìl›MÕ™Ωã≠Ëù…ç&|ld\EL¢<É,‡¡Ô>ˇ]œ|ﬂõØ∫øŸè¯ün6~UNt^ì.≤>—         	C  Ä2	    $ $ $ $ É ˇ	 
   Å@  @    ¬    i   A       