:1020000000800020593800004138000041380000AD
:1020100000000000000000000000000000000000C0
:102020000000000000000000000000004138000037
:10203000000000000000000041380000AD38000042
:1020400041380000413800004138000011370000DD
:102050004138000041380000413800004538000098
:10206000413800002D3700004138000041380000A1
:10207000E9360000413800003D37000041380000DB
:10208000413800004138000041380000413800006C
:1020900000000000413800004138000041380000D5
:1020A000413800004138000041380000413800004C
:1020B0000000000010B5064C2378002B07D1054B1B
:1020C000002B02D0044800E000BF0123237010BDA4
:1020D00030010020000000000C8E000008B5084B05
:1020E000002B03D00748084900E000BF07480368F9
:1020F000002B03D0064B002B00D0984708BDC046EC
:10210000000000000C8E0000340100202C01002093
:1021100000000000014B03607047C046987F00003C
:10212000014B03607047C046987F000038B5456892
:102130002C1E06D02368201C9B6898476468AC421C
:10214000F8D138BD034B0360034B03644361C360A4
:102150007047C046D8800000987F00000430704768
:1021600010B5034B041C0360FFF7ECFF201C10BDEF
:10217000D881000010B5034B041C0360FFF7F0FF8B
:10218000201C10BD608600000020704710B5041CA4
:102190002368201CDB6898470028F9DA10BD08B5D1
:1021A00003689B69984708BD10B5034B041C036086
:1021B000FFF7E0FF201C10BDC87F000008B5406895
:1021C00003689B69984708BD08B540680368DB69E8
:1021D000984708BD08B5406803689B68984708BDE4
:1021E00008B540680368DB68984708BD08B54068D3
:1021F00003685B68984708BD08B5406803685B6979
:10220000984708BD10B5034B041C036002F024FA84
:10221000201C10BD987F000010B5034B041C036008
:1022200002F01AFA201C10BD987F000010B5041CA3
:10223000FFF788FF201C02F00FFA201C10BD10B51C
:10224000041CFFF78DFF201C02F006FA201C10BDB5
:1022500010B5041CFFF78EFF201C02F0FDF9201CB6
:1022600010BD10B5041CFFF79FFF201C02F0F4F90D
:10227000201C10BD10B5041C0068002801D002F01D
:10228000EBF9201C10BD0000064B10B50833041CF0
:102290000360006F002801D002F0DEF9024B201C21
:1022A000236010BD10800000987F000010B5041C52
:1022B000FFF7EAFF201C02F0CFF9201C10BD38B553
:1022C000041C2160081C09684D68111C1A1CA847D1
:1022D000E079012806D9012101F074FCE0790021A0
:1022E00001F0CAFC206803685B699847221C002340
:1022F0004932537013700132538108321380023A0D
:1023000013806423A38038BD08B5024BFFF7D7FFC5
:1023100008BDC0463304000010B5041C01F0D4FA17
:10232000E36DC01AC317181AC00F10BDF7B5051C0E
:1023300049350026041C01912E70206803689B68B3
:10234000984700280DD02F783F2F01D90126F4E7B8
:102350007B1C20682B700368E719DB68984778724C
:10236000EBE7231C50331A8801321A80002E08D064
:1023700054342388019A0133238003235B42138062
:1023800001E0019B1E802878FEBD000030B50D4B9A
:10239000021C141AE4B28C420FD2547A634008240F
:1023A00001251D405B08002D01D0074D6B40013C0D
:1023B000E4B2002CF4D10132EBE71A0A1802104300
:1023C00080B230BDFFFF000001A0000070B5051C09
:1023D00049352E78041C311CFFF7D8FFA3190212CF
:1023E0005A72731CDBB2E318023658722E70E07911
:1023F00001280CD9012101F03FFCA388002B06D055
:1024000030205843032103F007FA0138FDD120683A
:10241000211C03682A781B6909319847E379012B4D
:1024200007D9206803689B699847E079002101F08B
:1024300023FC206803685B69984700232B7001F038
:1024400043FA231C56331B88C018E0655234238896
:102450000133238070BDF0B5041C85B0081C0393C4
:10246000A379000A0E1C01910292CDB2C0B2310CC8
:1024700092B2002B60D1237A002B5FD16B1EDBB2AE
:10248000F62B5DD8039B6572A0720D120138E364D0
:10249000E57221730F2848D803F0B4F9080808083A
:1024A0000C1847474747474747471D2A131263738E
:1024B000A27306E01B885A1E93415B42637300239C
:1024C000A3730622231C49331A702EE01A881212B5
:1024D00062731B88F4E713095B00DBB2110701D0BC
:1024E0000133DBB21112A2736173E3730722E9E7D0
:1024F000111261735100E173211C07204931A2734D
:1025000008700020904210D00D781F8866193F1285
:1025100077726E1CF6B20E701F88A6190235013054
:10252000777280B20D700233ECE7201CFFF74EFF8C
:1025300001232372002004E0FE2002E0FF2000E0DF
:10254000FD2040B205B0F0BD1FB50C30FFF783FF92
:1025500005B000BD016FF8B5436F041C5A1A194944
:1025600092104A430C30002A09D00C3B19685A6873
:102570009B68FFF770FF636F0C3B636720E0231CD1
:10258000251C01217C338C3519702B685B18211CAC
:102590000831C96F2B608B4200DB2A602B680C2648
:1025A0007343271DFA6F98349958D3185A689B685B
:1025B000FFF751FF2A68FB6F56439E19B3882360CB
:1025C000F8BDC046ABAAAAAA38B5031C49331D788A
:1025D000041C032D05D85434238818480133238064
:1025E0002AE0A91EC9B2FFF7D1FE6519EB792A7A54
:1025F0001B021343984205D05434238810480133FA
:10260000238019E0A27A002351B2994206DA231CF2
:1026100054331A8801321A80E07A0DE00949595C76
:10262000914208D00133082BF8D15434238801207B
:102630000133238000E0002000B238BDF9FF000024
:10264000FCFF00007080000070B5051C00246300D2
:10265000E97ADA1CD2B249088C420AD2E96CAA188B
:10266000CE18507A917A01F0C9FF01343080E4B27B
:10267000EDE770BDF7B5041C006803689B689847D8
:10268000071C201CFFF748FE061E0BD000232372F8
:102690000622231C603352421A80543423880133AB
:1026A000238031E0002F01D1002039E0251C4A357C
:1026B0002B789F4205D02F7001F006F90530A065F8
:1026C000F2E701F001F9A36DC01AEDD46F460637A9
:1026D0002E70201C391CFFF729FE3D88002D09D0E3
:1026E000231C60331D80267254342388E8B20133E2
:1026F000238015E0201CFFF767FF3880002805D0F5
:10270000231C603318802572FF2009E0A37A033B65
:10271000012B02D8201CFFF797FF00232372012012
:1027200040B2FEBD08B50C30FFF7A4FF08BDF0B500
:10273000061C9C36051C306885B0002801D001F0CD
:102740008FFF2F1C8C3739680C234B432C1DE26FF5
:10275000D31898882B1CA03340081860800001F023
:1027600077FF39680C234B43E26F3060D3189B68C6
:10277000002400932B1D3968DA6F0C234B43D318C8
:102780009B889C4219DAE20703D4009B1B880193C3
:102790000EE00099019A0B88601E1B0413430393FB
:1027A000401033688000181803A9042204F05DFF6C
:1027B0000099013402310091DCE7306805B0F0BDCA
:1027C000031C8C331B6873B5051C002B03D1104808
:1027D000104901F017FB00242B1CA0331B689C42FE
:1027E00014DA2B1C9C331B68A200D05804F06CFE3A
:1027F000074E0B1C0A21021C0091301C01F010FC3A
:10280000301C054901F0ECFA0134E5E773BDC04620
:1028100048070020428C00005C80000038B52B4D3A
:102820002B78012B0CD0002B02D0022B13D04CE0C4
:1028300001F04AF8264B1B68C01A002807DC44E068
:1028400024480022031C6C331A80FFF783FE2B7888
:1028500001332B7039E0204800F08BFA1D4C237DAA
:10286000002B32D12B70231C6C331D88231C221C9F
:1028700008338C32DB6F1268013B9A4204D101F0BD
:1028800023F8164A801802E001F01EF80A30104BB7
:102890001860231C6C3300229B5E002B0AD0104C66
:1028A0001049201C01F09CFA29B2201C0A2201F0D8
:1028B000F8FA0AE0231C7C331B78002B02D0201C82
:1028C000FFF735FF201CFFF77BFF38BD44020020D7
:1028D000B80300204C01002048020020B60300008D
:1028E000480700205E800000F7B5041C0191406895
:1028F0002168224F421A92107A432149002A04D0BB
:1029000053000E1C934209D300E001231E1E8E4289
:1029100001D91B4E02E00025AB4204D00C207043CD
:1029200001F092FE051C626827681448D31B9B10B7
:1029300043430C225343EB18002B02D0019985C965
:1029400085C3216862680D4F531A9B105F43002FA7
:1029500004D00C227A43281C04F090FE0C235F4321
:102960002068EF19FF18002801D001F075FE0C2334
:102970005E432560AD196760A560F7BDABAAAAAA42
:1029800055555515F0B589B000930EAB1B88151C35
:102990000293021C031C08338832041CDB6F10688E
:1029A0000191834223DB231DDB6F40000393AA23A5
:1029B0001B05984202D80C23584301E001204042F5
:1029C00001F046FE231DD8670021231C88331A68B6
:1029D00091420ADA0C224A43231D039EDB6F013128
:1029E0009B18B218C1CAC1C3EFE752001A60042D88
:1029F0001DD9019F05A90F704D70029E009D0F9F6C
:102A0000636FA06F4D808E808F60834207D0002B54
:102A100001D0E0C9E0C3636F0C33636703E0201C9F
:102A20007030FFF761FF7C340023237019E0231C12
:102A30000833D96F0C2251430434E06F019E0E54C9
:102A4000D96FE76F514379184D70D96FE06F4A43E2
:102A5000009D029E0F9F82180131558096809760DD
:102A6000D96709B0F0BDF0B5071C87B0059394375E
:102A70000CAB1D883B68061C041C03910492903625
:102A80009D420ADC00953668201C01960399049A41
:102A9000059BFFF777FF07B0F0BD30683D60002869
:102AA00001D001F0DDFD3868FE239B05984201D876
:102AB000400001E00120404201F0CAFD231C083320
:102AC000DA6F306000239342DCDA211DCF6F0C21D6
:102AD0005943791888600133F5E7F0B50E1C151CD1
:102AE0000F1C87B0360AADB21C1CC9B2F2B23B0C47
:102AF0000095002C02D1FFF7B6FF02E00194FFF72A
:102B000041FF07B0F0BD000038B51C4D281C00F097
:102B1000E5FB1120012101F055F81120012101F000
:102B2000ABF8174C9622201C0C301649D201FFF747
:102B3000EBFB231CFA226233D2001A806423238227
:102B4000281C211C00F008F90F4B00251D700C23D8
:102B50006B430E4A201C9958D3185A6801359B685C
:102B6000FFF7BBFF072DF2D100F0AEFE084B64303B
:102B700018600849084801F033F938BD48020020C0
:102B80004C010020BC03002044020020F001002082
:102B9000B80300206580000048070020F8B53D4CD0
:102BA000201C00F0ABF8231C3B4A3C4EFC335A6619
:102BB0003B4B201C321C3B49236004F0F5FC3A4B94
:102BC0003A4A181C111CB0C9B0C03949021CB0C91E
:102BD000B0C23849483331C931C2374991C991C26D
:102BE0003649A1C9A1C23649B0C9B0C2354A00258B
:102BF00013CA13C3344C1223E374FA22231C920029
:102C000062331A80314B012708332360231C6F3352
:102C10001D70231CA5746560A56025676567A567A1
:102C20007C330C201F7001F013FD231DD867231C7B
:102C30000833DD67231C88331F60231C7A428C33E2
:102C400002201A6001F004FD231C90331860231C3D
:102C500094331F60231C983304201F6001F0F8FC9C
:102C6000231C9C331860231C321CA033201C1849E1
:102C70001F6004F099FC174B174A18481A60184A4D
:102C800005605A6045608560321C164904F08CFC72
:102C9000F8BDC04648020020688100000000002006
:102CA000C87F0000A9210000F0010020A8800000DA
:102CB000B4800000C08000007880000084800000A4
:102CC000908000009C8000004C01002010800000DB
:102CD00089220000BC030020F07F0000C403002014
:102CE000A005002075220000024B032201201A607B
:102CF0007047C046EC03002070470000114B124A99
:102D000008330360114B4261C360421D002303611D
:102D10008361C3610362D3770D4A83620264021C3C
:102D2000D032C362036343638363C36343648364D6
:102D3000137053702C329365D3651366054B18607E
:102D40007047C046D080000050810000B07F000076
:102D5000F8800000D00300200369002B03D14960F4
:102D60008960016104E09A684B608A6051609960F3
:102D7000704708B50C30FFF7D9F908BD08B54030E9
:102D800000F022F808BD0000014B03607047C04608
:102D9000987F000030B5041C903400220125227079
:102DA0006570A1708C30914201D1036000E0026037
:102DB00030BD704710B5034B041C036001F04CFCA0
:102DC000201C10BD987F0000FC30036A4A61002B74
:102DD00002D10960496004E05A680B604A601160E2
:102DE000596001627047F8B58468C7680E1C0025F9
:102DF000BD4208D02068311C04F042FD002804D0F8
:102E000001350834F4E7002000E0201CF8BD000084
:102E100007B5031C903301211970002159706C33E0
:102E20008021021C98690091F03B024900F05CF996
:102E300007BDC046952D00000EB403B503AA08CA0D
:102E4000FC308069191C019200F0D2F902B008BC74
:102E500003B01847F7B5031CFC331D6A00902C1E05
:102E600019D02269A76801920026E3689E420FD21A
:102E7000019A3B680098002A03D00849FFF7DCFF5D
:102E800003E007491A1CFFF7D7FF01360837ECE7C4
:102E90002468AC42E5D10020FEBDC0460881000098
:102EA0000B810000F7B50024071C0D1C161CA14265
:102EB0003BD013681E49181C009300F0FBFA041E57
:102EC00005D1381C291C321CFFF7C4FF2DE03B1C28
:102ED000FC331B6A01931C1E0CD10124644224E0C4
:102EE000201C0099FFF77FFF002815D12468019B63
:102EF0009C42F2D021690029F2D0012DF6DD009824
:102F000000F0D8FA0028F1D1201C7168FFF76BFFA0
:102F10000028EBD00436013D61692A1C4468331C4B
:102F2000381CA047041E00DA0124201CFEBDC04648
:102F30000F810000021C8C3238B5031C15680C335D
:102F4000041C5D1900211A1C131C954202D910782B
:102F500020281DD995420FD0880020189430026097
:102F6000AB4202D21A78202A16D801311F29EAD1A1
:102F700001204042AB4211D10B1C24339B00E318CB
:102F800000225A60221C9432201CFFF78BFF05E0C0
:102F9000002313700132D7E70133E1E738BD0000A9
:102FA00010B5031C91331A78041C002A18D0002293
:102FB0001A705A780133002A0FD1063B1B68C318D8
:102FC000DA72FFF7B7FF021C201C002A03D109495F
:102FD000FFF732FF04E0084900E00849FFF72CFF43
:102FE000231C90331B78002B02D1201CFFF710FF0D
:102FF00010BDC04614810000198100001F8100002F
:10300000F8B5061C151C1F1C0124AC420DDAA300E8
:10301000FA586B1E9C4201DA202300E00A23301C80
:103020000349FFF709FF0134EFE70020F8BDC04670
:103030003281000008B50748002303604360036144
:10304000054B06498360064A0123C36004F0ACFACD
:1030500008BDC046D40300203C810000B32D000011
:10306000000000200CB470B5134CA2B0061C201C4C
:103070000D1C01F08FFB002819D033682B4202D1C0
:10308000013D033513D927AB269A02A87F2101936E
:1030900004F00CFF6B4600228733201C1A7001F0ED
:1030A00079FB002803D0201C02A900F099FE22B071
:1030B00070BC08BC02B0184748070020014B002232
:1030C0001A607047EC030020014B03607047C04654
:1030D000987F000010B5034B041C036001F0BCFA9C
:1030E000201C10BD987F0000F8B5041C0E1C171C96
:1030F0001D1C00290DD08369002B04D0101C022157
:103100002A1C069BB047069BA661E76125626362A5
:10311000A562F8BD10B58469031C002C06D00022FE
:1031200082619B6A026AC0699B1AA04710BDC16890
:1031300070B5041C00295AD08269002A57D0406912
:10314000002804D003681B68984700284FD0E06827
:1031500003689B689847051E49D0216AA26A8B1AAA
:10316000616A5B18AB4202D8002B02D01D1C0026FE
:1031700022E0E06803689B689847002837D0E06841
:103180000368DB689847002831DB0A28F1D1201C4E
:1031900001212AE0A36A5A1CA26218700D2812D1DC
:1031A000A36A0A22013B1A7001232374002101360D
:1031B000022919D1AE421AD0E0680368DB6898474B
:1031C0000028E7DA0FE000210A2809D1237C8B428E
:1031D00003D0A36A0221013BA36200232374E6E724
:1031E00021740221E3E70321201CFFF793FF70BD48
:1031F00070B5041C4069A0B00E1C151C002804D03A
:1032000003681B68984700280DD07F21321C2B1CB7
:10321000684604F04BFE6B4600227F33E068694647
:103220001A7000F0DDFD20B070BD000008B5024846
:1032300001F0B0FA08BDC04648070020F0B5234FA2
:103240008BB00E1C041C03920092381C0021204AF3
:10325000331CFFF707FF201CFFF746FD051E05D1B5
:10326000381C02211B4AFFF7FDFE2BE0201C06A99B
:1032700000F0BEF8221C08CA201C5F6906A905AB35
:10328000B847059B039AFC34B343E0661343FA2026
:10329000A366C000104CDA070CD500F01BFB201C05
:1032A00001F078FA00280DD0E121201C490201F03C
:1032B0006FFA07E000F00EFB201C01F06BFA00280B
:1032C000FAD0F1E7281C0BB0F0BDC046EC0300209B
:1032D000708100008E8100004807002010B5002199
:1032E000041C054A0548FFF7BDFE0021201C0A1CEE
:1032F000FFF7A4FF10BDC046B1810000EC03002021
:1033000010B58EB0041C081C01A900F089F804490E
:10331000021C201CFFF790FD00200EB010BDC0461F
:103320000B81000010B5041CFFF7E6FC201C0249CD
:10333000221CFFF723FD10BDF003002008B507484D
:103340000023036043600361054B06498360064A1E
:103350000123C36004F028F908BDC046F003002033
:10336000F8810000B32D000000000020F7B5171C05
:1033700001911B4800211B4A1C1CFFF773FE1A4BCE
:1033800000261B68009324257543184BED18009BFD
:103390009E4218D0281C0199102204F057F90028E9
:1033A0000FD1291C381C1431082204F05EF9286959
:1033B000002C13D0EB6982699A432B6A1343236074
:1033C0000CE00136DFE7381C0021082204F06FF919
:1033D0000020844201D0206000E0201CFEBDC046D9
:1033E000EC030020008200003C82000040820000CC
:1033F0007FB50A4A684670CA70C012686B460260A0
:10340000002298580C1D006808700131000AA14282
:10341000FAD10432102AF4D17FBDC04620820000C8
:10342000F0B587B00E1C02A9FFF7E2FF00252C1CA7
:1034300031277F1B7019002C01D10A4B00E00A4B89
:1034400002A90A5D391C0092084A04F0E7F9002835
:1034500005DBB84203DA01342D18102CE8D1301CFA
:1034600007B0F0BD428C00003082000032820000C4
:10347000036870B5DB69041C98472368051C9B68CA
:10348000201C9847002814D006CD002A0CD00D1C13
:103490004B3500235C42C65C2C5DA64206D101334D
:1034A000082BF7D1081C04E0101C02E05431013A4B
:1034B000EBE770BD10B5002802D1484248411AE040
:1034C00000291DD003780A78934203D1002B14D130
:1034D000181C16E01C1C413C192C01D82033DBB20F
:1034E000141C413C192C01D82032D2B2934204D092
:1034F0000120934205DA404203E001300131E1E767
:10350000012010BD094B0A4A0A491A6000225A716B
:103510001A71094B19601621197118219971172117
:10352000597101215A72D9711A727047080400202A
:1035300000093D003807002010040020F8B5051CE4
:103540000F1C161C0024B44208D02B68395D1B6880
:10355000281C9847002801D00134F4E7201CF8BD4E
:10356000704708B5183000F0D1FD08BD08B5183017
:1035700000F0E0FD08BD38B5837D0D1C002B06D0A2
:10358000041CC434201C00F0EBFD002801D00020F6
:1035900004E0201C291C00F0A0FD012038BD08B566
:1035A000183000F0D0FD08BDF7B50193FA239B0059
:1035B00083600B4B00250833041C45600360183002
:1035C0000F1C161C00F07CFD201CC43000F078FDA0
:1035D000019B27612675A575201C6375FEBDC0463D
:1035E000D087000038B5041C006900F06EFE00288A
:1035F00079D0206900F077FE00280ED1206900F014
:103600007CFE00281FD0206900F072FE00281AD02E
:10361000206900F077FE002815D1206900F028FE0F
:103620002069032100F02EFE231CFC33DD6F002DEA
:1036300004D02368201C9B689847A847201C18309A
:1036400000F05DFD4FE0206900F057FE031C20698B
:10365000002B16D000F00CFE2069032100F012FEB2
:10366000206900F04FFE00283DD0201CC43000F03F
:1036700046FD0123A375FC34A36F002B33D098477C
:1036800031E000F02BFE00282DD0206900F03AFE3A
:10369000251C00280FD0C435281C00F04BFDFF214D
:1036A000002803D0281C00F031FDC1B2206900F0D1
:1036B000FFFDA07517E01835281C00F051FD031C14
:1036C0002069002B02D000F0CBFD08E000F01FFEC7
:1036D000011C281C00F001FD206900F0C9FD2069D3
:1036E000032100F0CFFD38BD08B50248FFF77AFF8F
:1036F00008BDC0462004002008B503480349142231
:103700001523FFF751FF08BD2004002028070020E3
:1037100008B5044B1B68002B00D09847024B0122D0
:103720001A7208BD9C0500200014004008B502482C
:1037300000F0DCFE08BDC046A005002008B5024828
:1037400000F0D4FE08BDC04664060020F7B5164F51
:103750001649381C00F014FD1549164800F010FDFC
:103760001549164800F00CFD1549164800F008FDF3
:103770001549164800F004FD154D03260124281CA8
:10378000144900F0FDFC391C0096231C0194002212
:10379000114800F087FE0096291C01941F221E2369
:1037A0000E4800F07FFEF7BD2C0700200008004205
:1037B000000C0042300700200010004234070020B7
:1037C000001400422807002000180042380700209B
:1037D0003C070020001C0042A005002064060020D9
:1037E0000B1C011C021C30B519430220002900D11A
:1037F00030BD802109068B4216D00D4904205C188B
:103800000C498C42F4D90C4D5C198C42F0D90B4C0C
:10381000590049080320A142EAD9074C0020A142DF
:10382000E6D150425041E3E7002AE1D0EFE7C0463D
:103830000000F0FFFFFFDF7F0000F07FFFFF0F00C1
:10384000FEE7000008B5034B1B68002B00D098472B
:1038500008BDC0464007002038B50F490F4CA142B3
:1038600004D100F055F800F0CFFE0BE00C4D8D4276
:10387000F7D00023CA18E818A24204D20068043323
:103880001060F7E7FEE79042EBD0064B064A934202
:10389000E7D2002204C3F9E7000000203001002035
:1038A000108E000030010020400D002008B500F00F
:1038B0002CF8002801D100F01DF808BD014B18605C
:1038C0007047C04640070020014B18687047C0464B
:1038D0004407002070B5041E08D0054B1D681E1C4F
:1038E00000F012F833685B1BA342F9D370BDC046E9
:1038F0004407002008B5034B1A6801321A6000F033
:10390000A5FB08BD44070020704700207047000059
:1039100070B5494A1E21536802208B43034347492F
:1039200053608B69082423438B61454C454B9C8233
:103930009C8A20439882101CDA689407FCD5424A7E
:10394000012414701478E50704D53F4C647864B200
:10395000002CF7DB01249460547864B2002CFBDB6C
:103960003A4D394C6560547864B2002CFBDB8225FB
:10397000354CED016580547864B2002CFBDB0224E9
:103980009C84DC68E606FCD5314D2E4CE562DD6892
:103990002C4CEE06FBD5A58C2E4E3543A584DD6858
:1039A000284CEE06FBD5A58C02263543A584DC68A1
:1039B0002506FCD5234CE4686606F8D5DC68E506E8
:1039C000FCD500249460547864B2002CFBDB224DBB
:1039D0001D4C656055781C4C6DB2002DFADB1E6ADB
:1039E0001E4D35401D621D6A8026B5431D620323AE
:1039F000A3601B4B636053785BB2002BFBDB00239F
:103A00000B72184A4B728B72CB72174BFF211A60E4
:103A1000164B174A1B6812685C01D20E21401143F5
:103A20009A06520F12020B1C1343124A1385436865
:103A300080221343436070BD0040004100040040F9
:103A40000C06000000080040000C004001050100C9
:103A5000B905FF7D040A000000070300FFFCFFFF1B
:103A600003060100006CDC021800002024608000C6
:103A70002060800000400042314BFA21186810B5E8
:103A8000890001F0C9FE2F4B0138984224D82E4AF4
:103A90002E4B5060186AC0210002000A090601433B
:103AA00019620024072194601160196A80220902BA
:103AB000090A12060A431A62254BFC211A6A0A43B4
:103AC0001A62196AFC2292010A431A62196AA02238
:103AD000D2020A431A6200E0FEE7201C00210134F2
:103AE00000F070F8142CF8D11A4C63785BB2002BFC
:103AF000FADB194B6380194B5A7ED209012AFAD09E
:103B0000E422D2009A803F22DA70597E134AC90912
:103B10000129FAD0C0235B0100201361907000F0EE
:103B200023F863785BB2002BFBDB0D4A094B5A800C
:103B30000C4BDA79D209012AFAD041225A7010BD11
:103B400018000020FFFFFF0010E000E000ED00E0A3
:103B500000040040000C00401E40000000400042F5
:103B6000214000000048004200B5144A517E131C59
:103B7000C9090129F9D00138042813D81969104A54
:103B80000A401A615A780F218A4301F03BFE03056F
:103B900009070300012102E0032100E002210A439A
:103BA0005A700AE01169F0231B050B431361537827
:103BB0000F218B4302210B43537000BD0040004294
:103BC000FFFFFFF010B51824021C201C5043274BA8
:103BD0001818007A40B2013046D0032944D8081C96
:103BE000211C01F00FFE02331121624398569A18EE
:103BF000C3011F4852681B189918403102200870F1
:103C00000121914059602FE06243985618499A1853
:103C10005268C3015B1899184031062008700121D1
:103C20009140596099611FE051435A561048591804
:103C30004B68D2011118C8184030062404700120C6
:103C4000984048600B49521850600DE06243985606
:103C50009A18C301064852681B189918403102206F
:103C6000087001219140996010BDC046F0870000A6
:103C7000004400411044004118235843134AF0B552
:103C8000131808241C5701341FD08256104ED2013D
:103C90005D6801249019231C8668AB401E420BD13D
:103CA0000E1C771EBE41401934404030A5000478F8
:103CB0000426B4432C430470002903D1054952184B
:103CC000536002E0024E92199361F0BDF08700004C
:103CD000004400411044004118224243F8B52D4DE4
:103CE0000824AA181457031C621C50D0481C002436
:103CF0000C284CD801F086FD071E1E1E1E1E1E1E1F
:103D00001E0A0A0A0A000124644240E0092902D17D
:103D1000181C002103E00A2904D1181C0221FFF716
:103D200051FF23E000240B2931D1181C0121FFF79A
:103D300049FF2CE018225343EA185268EB56012041
:103D4000141C04405508DB01002C11D0124C1B1927
:103D50005D1930352E780C010F21314021439A181E
:103D6000C9B22970403213781843107000240EE055
:103D7000094E0F279B195D1930352E789A18BE43CE
:103D80003143C9B229704032137818431070201C97
:103D9000F8BDC046F087000000440041F7B58A181E
:103DA000061C0D1C01920C1C019B671B9C4207D03A
:103DB000336821781B68301C984701340028F3D100
:103DC000381CFEBD38B5051C0C1C081E07D003F0BE
:103DD00061FD2B68021C5B68281C211C984738BDBC
:103DE00008B5FFF7EFFF08BD08B503681B689847E3
:103DF00008BD000008B50249FFF7E4FF08BDC04652
:103E0000408C000038B5041CFFF7DCFF051C201CAB
:103E1000FFF7F0FF281838BDF0B58DB0161C0BABBE
:103E2000002201900C1C1A70012E00D80A266D4643
:103E30002B35201C311C01F033FD201CCFB2311C6E
:103E400001F0EAFC291C041C092F01D8303700E0DE
:103E50003737FFB22F70013D002CEAD10198FFF7F0
:103E6000B1FF0DB0F0BDF8B5041C0D1C161E04D139
:103E70000368C9B21B68984712E00A2A0DD10029CD
:103E80000ADA2D21FFF7B0FF6942071C321C201C03
:103E9000FFF7C2FFC01903E000E0D2B2FFF7BCFF9A
:103EA000F8BD08B5FFF7DFFF08BD00000000000007
:103EB000F7B51C1C08AB1B78071C211C101C151C1B
:103EC0000093FFF78DFC002802D1381C504907E011
:103ED000281C211CFFF784FC012804D14D49381C03
:103EE000FFF770FF7CE0281C211C404B3E4A01F08C
:103EF0000DFD002802D0381C4749F1E7281C211C81
:103F00003B4A3C4B01F0EEFC0028F4D1281C211C5C
:103F1000394A3A4B01F0E6FC002808D02D21381C24
:103F2000FFF762FF802109060190641800E001900C
:103F30000026334A334B00998E420AD0101C191CBC
:103F4000314A324B02F034F80136021C0B1CF6B237
:103F5000F1E7281C211C01F00FFD0D1C041C01F0D1
:103F6000EBFC061C03F07CFA0B1C021C291C201C19
:103F700002F018FF0A22041C0D1C381C311CFFF72C
:103F80004BFF019B0099C618002904D0381C234917
:103F9000FFF718FF3618009B002B20D01A4A1B4B46
:103FA000201C291C02F06EFC0D1C041C01F0C4FC3A
:103FB00001900A220199381CFFF72EFF361801984C
:103FC00003F04EFA0B1C021C291C201C02F0EAFE16
:103FD000009B041C013BDBB20D1C0093DBE7301C93
:103FE000FEBDC046C046C046000000E0FFFFEF41F6
:103FF000000000E0FFFFEFC1000000000000000033
:10400000000000000000E03F00000000000024402D
:10401000438C0000478C00004B8C00004F8C00004C
:1040200013B5049CE1B20091FFF742FF16BD0000FA
:10403000014B18607047C0461C000020024B012253
:1040400052421A607047C0461C000020154A13688F
:10405000581C25D0013B1360002B21D172B6124AA7
:10406000124B04329A4207D8BFF34F8F104A114BBC
:10407000DA60BFF34F8F11E00F4B197DC807FBD5F6
:10408000188B2021FF319208520001431983DA6115
:104090000A4A1A801A7DD107FCD5E5E7C046FDE73C
:1040A0007047C0461C0000200020000003020000F2
:1040B0000400FA0500ED00E00040004102A5FFFF0A
:1040C00010B50021041CA42203F0F1FA221CA43232
:1040D0000023201C1360536010BDF8B5051CA435E7
:1040E0002E68041C0F1C701CA42101F0D9FB231C9A
:1040F000A8331B68994201D0A7552960F8BD021C5E
:104100000023A432A83013600360704738B5021C46
:10411000041CA834A43223681268934207D0C55CFB
:10412000A421581C01F0BCFB281C216001E00120E7
:10413000404238BD031CA433A8301A680368D01A63
:1041400000D5A4307047031C021CA833A4321B689E
:104150001268934201D0C05C01E0012040427047E8
:10416000031CA43310B5041C1868A421013001F00D
:1041700097FBA8342368C81A43425841C0B210BD07
:1041800001607047F7B508AC267804689D1E276863
:104190006C1EA541ECB2920705683A4327063A43E4
:1041A0002A600268072529405068B501002C00D01C
:1041B0005C03294301430C435460F7BD30B50368E9
:1041C000C0251C68AD0312052A402243C024A40266
:1041D000090421401143196003685A6814435C6064
:1041E00030BD036801211A680A431A600268116829
:1041F00001231942FBD1D1691942F8D170470368F4
:1042000002211A680A431A600268D3699907FCD42C
:10421000704703681A7ED10702D41A7E9107FCD535
:104220007047036800225A8370470368187E40076E
:10423000C00F70470368187EC0097047036880226A
:10424000197E52420A431A7670470368188DC0B22D
:10425000704703681A7E01200242FBD0198570471F
:104260000368802219685968D2020A435A6070476D
:104270000368034A196859680A405A607047C04683
:10428000FFFFFBFF30B5036803241D680C40074A9D
:10429000596824040A40ED0622436D0F5A60052D2B
:1042A00003D10268D3695907FCD430BDFFFFFCFF7E
:1042B000036828331970036800201A7E510703D55C
:1042C0005B8B01209B089843704703681868C00601
:1042D000400F043843425841C0B270470368187E0B
:1042E0004007C00F70470368187E012318407047CD
:1042F0000368588BC006C00F70470368187E80079C
:10430000C00F70470368588B0007C00F70470368E1
:104310001A68D206520F052A02D11A7E9107FCD5DF
:1043200028331878C0B270470368244AF0B5934226
:1043300011D0234A934211D0224A934211D0224AEB
:10434000934211D0214A934211D0214A934233D152
:1043500019220E230DE0142209230AE015220A2354
:1043600007E016220B2304E017220C2301E0182299
:104370000D23DEB217490120C024B04064009B0821
:10438000085103259B00C0245B18A4002E401F5930
:10439000F500FF26AE40B7433E1CC027AF403D1C92
:1043A00035431D518023DB011A430B4B08605A80B3
:1043B0005A7852B2002AFBDBF0BDC046000800422A
:1043C000000C00420010004200140042001800429D
:1043D000001C004200E100E0000C0040F8B5041CA5
:1043E000151C0E1C1F1CFFF79FFF201CFFF7F9FE7A
:1043F000B1001C220A4069072368090C0A431A60AD
:10440000226884239375012E1AD10821012D00D131
:1044100010210C4B79431868C00001F0FDF92368A6
:1044200007219A890140D2044903D20C0A439A8198
:1044300023680004C20C9889400B40031043988104
:10444000F8BDC046180000200120704708B5036879
:10445000014ADB69984708BD1304000010B5041C2D
:104460000069FFF7BEFE201C1430FFF748FE10BDA8
:1044700008B50069FFF7CDFE08BD08B51430FFF799
:1044800059FE08BD08B51430FFF75DFE08BD08B53C
:104490001430FFF73BFE08BD08B50069FFF7D9FEF1
:1044A000012008BDF7B51D1C08AB1B78041C009348
:1044B00009AB1B78161C019300234360FA239B0071
:1044C0008360094B0F1C083303601430FFF7F8FDBD
:1044D000009A231CC03327619A70019A1E705D7088
:1044E000201CDA70FEBDC046588C000010B5041CBC
:1044F0000069FFF79AFE002807D02069FFF7A5FEA4
:10450000011C201C1430FFF7E8FD2069FFF792FE24
:10451000002805D02069FFF791FE2069FFF781FE92
:1045200010BDF023081C18403038434258417047F2
:10453000F0231B01194080239B0099420CD0C0231B
:104540009B00994206D080235B000520994204D04D
:10455000002002E0072000E0062070470F231940EA
:10456000012905D002394B424B410220C01A00E01C
:1045700000207047F0B5031C85B00391C033041CC4
:10458000182718783B1C43431B4E0821F318595633
:10459000151CFFF7A1FB231CC133187808214743E2
:1045A000F6197156FFF798FB01210A1C039B20693D
:1045B000FFF714FF291C201CFFF7BAFF291C071C5A
:1045C000201CFFF7CBFF291C061C201CFFF7A9FFAE
:1045D000391C0090331C20690122FFF7D3FD231CF6
:1045E000C3331978013B1A782069FFF7E7FD20698A
:1045F000FFF705FE05B0F0BDF0870000000208439C
:104600007047FEE77047000010B5FFF735FA02F07B
:10461000E3FFFFF7F7FF0120FFF75CF9084C201CD0
:1046200000F0CAFA201C00F03FFBFEF76DFAFEF71F
:10463000F5F8044B002BFAD000E000BFF7E7C046C6
:10464000130C00200000000008B502F0EBFF08BDCD
:1046500008B502F0E7FF08BD08B502F0EDFF08BDA0
:1046600008B502F0E9FF08BD3F20704713B50268A6
:104670006B46D97107335468191C0122A04716BD37
:1046800008B50069022100F0FFFB08BD08B500690C
:10469000032100F00FFC08BD38B50D1C041C131CD1
:1046A000006903212A1C00F001FD002801D101232B
:1046B000636038BD10B5054C23685A1C04D10368EB
:1046C000DB6898472060031C181C10BD7000002098
:1046D000074A08B51368591C04D0012149421160EA
:1046E000181C03E00069022100F0D2FC08BDC0469E
:1046F0007000002008B5037803490233037042229A
:10470000024800F089FD08BD2C000020130C002099
:1047100010B50178031C42780020A12908D1212A74
:104720002FD118481849072200F076FD012028E013
:10473000212926D1202A05D113490722114800F04A
:10474000FFFB04E0222A10D19A780F4BDA710E4B4E
:1047500096221968D200914210D1DC7901231C40C5
:104760000CD1FA20FFF764FC0AE0232A09D1DA7899
:104770009B7812021A43054B1A6002E0FFF75EFCB9
:10478000002010BD130C0020200000202800002075
:1047900070470000024BD879012318407047C0468B
:1047A00020000020064BFA2189009960054900226B
:1047B0000831196004495A6019611A767047C04679
:1047C00048070020888C0000130C00207047000070
:1047D00070B582291ED1C2B22A495301CB189D69F6
:1047E000294C80012C40C025AD052C439C61274CF1
:1047F0000832201858610B68520199180C798020F2
:10480000404220430871D15C702081433020014335
:10481000D15435E0002933D1C2B21A495301CB1823
:104820009E68194DC0242E40A40526439E60184E54
:10483000800109683018083258605201505C072620
:10484000B0430126304350549E6935402C439C614F
:104850000E4C5C61505C7024A043102420435054E3
:104860009C680C488A182040802464032043986088
:1048700098684021800B8003986053790B435371F3
:1048800070BDC0461C0C0020FFFFFF8F7008002089
:10489000340A0020FF3F00F0EFF310830360012390
:1048A000436072B670470368002B02D162B6BFF353
:1048B0006F8F704737B50569041C6846002D12D10B
:1048C000FFF7EAFF019B013B03D3621DD57FEDB2E9
:1048D000F9E768460193FFF7E6FF0020854217D00D
:1048E000206AE36913E0FFF7D7FF019B0025013B36
:1048F00004D3221C34321578EDB2F8E768460193F0
:10490000FFF7D1FF0020854202D0206BE36AC01A76
:104910003EBD0000436810B51A68037A01215B01AF
:10492000D318FF339A7A0A439A72037A42685B017A
:10493000D318C2689C6891040B4A090922400A43B3
:104940009A60037A42685B01D3189A684021920BFF
:1049500092039A6043681A68037A08335B01D3189C
:104960001A790A431A7110BDFF3F00F0F7B50569C7
:10497000041C0E1C171C6846002D1FD1FFF78CFF6E
:10498000019B013B5A1C06D0621DD17F5A1E002993
:104990003AD0131CF6E768460193FFF784FF002521
:1049A000E369BD4235D0226A934232D25A1CE26199
:1049B000A269D3181B7873550135F1E7FFF76CFF37
:1049C000019B013B5A1C08D0221C343215785A1E18
:1049D000EDB2002D18D0131CF4E768460193FFF7E1
:1049E00062FF0025E36ABD4226D0226B934241D389
:1049F00022E0621D0021D17730321678581E8E4297
:104A000014D1031C5A1CF4D168460193FFF74BFFE5
:104A100038E0226A934235D10023E3610123236108
:104A20006846FFF739FF019B013BEBE71170201C43
:104A30000193FFF76FFFF6E7226B934222D1002329
:104A4000E36223616846FFF727FF019B013B5A1C85
:104A5000DAD0221C34320021117001321678581E2F
:104A60008E4201D1031CF2E71170201C0193FFF765
:104A700051FFEAE75A1CE262A26AD3181B78735509
:104A80000135AFE7281CFEBD37B54368027A1B68C5
:104A9000083252019A18041CD0790123FF211842D0
:104AA00053D0D371A068656962680140002D20D1A0
:104AB00049015218916863618904890C2162A16AD5
:104AC00068465160621DD377FFF7E6FE019B013B0C
:104AD0005A1C33D0221C34321178581EC9B201320C
:104AE000002903D001930123137023E01170031CEC
:104AF000EEE74B01D3189A68A5699204920C2263E1
:104B00000022626168465D60FFF7C6FE019B013BC3
:104B100001E011702B1C591C10D0221C34320120D2
:104B20001070621DD17F5D1EC9B230320029F0D0F5
:104B3000019310706846FFF7B6FE06E068460193E1
:104B4000FFF7B1FE201CFFF7E5FE37BD37B50023A8
:104B50006C46E3710734201C0D1CFFF7CBFD2B685E
:104B60001818286000F0F4FD211C00F0ABFD2B6844
:104B70001818286020783EBD03290BD10D4BB222B6
:104B80001B685200985C80214942014399540221DC
:104B900068220CE001290CD1064B92221B685200BE
:104BA000985C802149420143995402212822FF3216
:104BB000995470471C0C002038B5304B002401215B
:104BC000051C1A201C70FEF7FDFF1A200121FFF7BB
:104BD00053F82B4B192001211C70FEF7F3FF19200D
:104BE0000121FFF749F8274B2021DA6901200A4308
:104BF000DA61254B06241A7802431A70234B0F22E0
:104C000019789143197019782143197020490C784B
:104C10002043087019780A401A701A7860210A43F4
:104C20001A701C4B1C4A5A805A78D209FCD11B4876
:104C3000FEF744FE1A4C201C00F09CFD201C00F0E6
:104C4000B3FD23687F2219780A401A701A7804216C
:104C50000A431A701A890C218A431A81C121114A08
:104C6000890050580002000A5050802111601A78C3
:104C700002210A431A7001232B7038BD300A00202C
:104C8000180C002000040040584400413C440041FE
:104C900059440041000C004006400000A5560000A9
:104CA0001C0C002000E100E00078002810D0094B27
:104CB00001211B681A898A431A811A8B08210A4329
:104CC0001A831A8B04210A431A83034B00221A60A9
:104CD0007047C0461C0C0020200D00200F4B9A6925
:104CE000920B92039A611B680222FF331A72987921
:104CF0008022524202439A711A7A9007FCD5084BDF
:104D0000081C997A7F221040914301439972997A45
:104D1000802252420A439A727047C0461C0C0020FF
:104D20000050004110B50B790C1C002B0BD1081C56
:104D3000FFF7EEFC002804D1094B9A69920B92030D
:104D40009A6101200BE000F003FD211C00F0EEFC55
:104D50000028F6D1024B9A69920B92039A6110BD1A
:104D60001C0C0020F8B50D1C832A18D1CAB2384992
:104D70005301CB189C693748AD012040C024A405DD
:104D8000204398613448083245195D610B6852012F
:104D9000D15C7020814340200143D15456E0022A67
:104DA00045D13820FFF750FC2C4B294F802603605B
:104DB00076000023421D036203614361C3614760C3
:104DC0008560C660D3772F32041CC36203631370FF
:104DD000301C537002F026FCA061301C02F022FC53
:104DE000FF232A1C1A405201A062BF18B968194A51
:104DF00007260A40C02189050A43BA60A168626893
:104E00001940126808314901885CAD00B04303269F
:104E100030438854A16862680B405B01A169D318D4
:104E20005960201CFFF776FD0D4BEC500EE0032A75
:104E300008D10B4B8D00E858002807D00368DB68C9
:104E4000984703E0081C111CFFF7C2FCF8BDC046E0
:104E50001C0C0020FFFFFF8F70080020B88C0000A2
:104E6000F40B002038B5051C0124064BA200D258D3
:104E7000002A06D0211C281C0134FFF773FFE4B27E
:104E8000F3E738BD7400002008B5084B8A00D058FD
:104E9000002803D003689B68984706E0C9B2044B1A
:104EA0004901591888688004800C08BDF40B002063
:104EB0001C0C002010B50C1CFFF7E6FF00280CD0DE
:104EC000064BE1B21B680831490159184A79802321
:104ED0005B4213434B710223CB7110BD1C0C0020AD
:104EE00070B5CAB2134B14485401890159180319FB
:104EF00059609D681149083229408025AD02294337
:104F0000996099684026890B89039960036851016B
:104F100059180D7935430D715101591889794D068C
:104F2000FAD551015918C979CD07FAD50419A068E5
:104F3000C0B270BD340A00201C0C0020FF3F00F0FE
:104F400038B50C4B141C1B680D1CFF335A794021DB
:104F50000A435A710021FFF7C3FFA04200D9201C69
:104F60000023A34204D0044A9A5CEA540133F8E7D0
:104F700038BDC0461C0C0020340A002010B5C9B250
:104F80000C48490143189A689204920C3F2A08D9A8
:104F9000141C9A68403CA404920BA40C9203224374
:104FA00002E09A68920B92039A6041188868C0B236
:104FB00010BDC0461C0C0020F0B51C1C2F4B85B04A
:104FC0001B68061C0D1C0292002B51D02C4F397807
:104FD000C9B2002902D11920FEF74EFE64233B70AE
:104FE000284BAA00D058002805D0036802995B68B6
:104FF000221C984740E0301C291CFFF745FFA042C7
:1050000004D2301C291CFFF73FFF041C291C301C54
:10501000FFF7B4FF1C4FE9B24A01019139680392CE
:105020008B18FF335A7A01210A4318495A72AB018F
:10503000C9180298221C02F018FB002C1BD0301C4F
:10504000291CFFF721FF002815D1019B3A6808337E
:105050005B01D31819794020014319710121D971DD
:1050600003995318FF339A7A01210A439A7202E096
:105070000120404200E0201C05B0F0BD200D0020C2
:10508000180C0020F40B00201C0C0020340A002017
:1050900013B56C460734221C0123FFF78DFF01284E
:1050A00001D1207801E00120404216BDF0B51C1C62
:1050B0003F4B85B01B680E1C0292002B6AD08023E8
:1050C000DB019C4266D83B4D2978C9B2002902D148
:1050D0001A20FEF7D1FD642300222B700092002CD1
:1050E00056D0354DF7B22B6801933B1C0833019A1B
:1050F0005B01D3189B79DB091AD0304B3049186813
:1051000000F08AFB2F4B1721584300F085FB3B1C16
:105110000833019A5B01D318DB799A0708D42A4B2C
:105120009A5D002A38D1421E002835D0101CEEE7C7
:10513000254B00229A55251E402D00D94025234A93
:10514000B301D318181C02992A1C039302F08DFA9C
:10515000194A7B01D318039AA9045A619A69890CE8
:10516000920B92030A439A613B1C019A08335B013C
:10517000D3180222DA715979802252420A435A71B5
:10518000009B029A5B1952190093641B0292A6E7D6
:1051900000980BE0012008E001229A557B01ED18F0
:1051A000AB69101C9B0B9B03AB61404205B0F0BD8B
:1051B000200D0020300A00201C0C002018000020C8
:1051C00040420F00701101006808002070080020A4
:1051D00070B50E4D1C1C8B01ED18281C0E1C111CEB
:1051E000221C02F042FAF6B20949760189194D6192
:1051F0008A69084B201C13408B618B69A2049B0BAE
:10520000920C9B0313438B6170BDC0467008002055
:105210001C0C0020FF3F00F0F7B5114B01901B78EC
:105220000F1C141C002B19D10E4B1E78002E01D11F
:10523000151C08E00C4D0D482E888019361902F017
:1052400014FA2E800AE0002D08D0BA192B1C019800
:105250000021FFF7BDFF36182D1AF4E7201CFEBD14
:10526000120C0020100C00206608002065070020AA
:10527000F8B50E1C00AF151E012D28D9D31DDB0873
:10528000DB006A46D21A9546081C02F003FB013087
:105290006C4640000323207063700222AA420ED2A3
:1052A0003378002B0BD0511CC9B20136A354A9424C
:1052B00004D0002302326354D2B2EFE72A1C05481F
:1052C000211CFFF7A9FF431E9841C0B200E0002057
:1052D000BD46F8BD130C002008B5044B00221A701F
:1052E000034B04491A88FFF797FF08BD100C0020F4
:1052F0006608002065070020F0B5204A87B001232A
:105300000026009102A91370051C0296FFF71EFCEF
:1053100003AC092701903A1C201C311C02F0C7F98C
:1053200002236370A023E371FA232372029B0122FC
:10533000DB196380019B62712371104A009B277007
:105340001670BB4205D1281C211C1A1CFFF764FFF4
:1053500011E00B4B01221A700A4B211C3A1C281C2D
:105360001E800296FFF758FF281C02A9FFF7EEFBEC
:10537000281CFFF7B1FF012007B0F0BD120C002080
:10538000100C00206608002070B5CE788AB0051C8D
:105390000C1C022E08D1C9882348FFF7ADFF031C5F
:1053A000581E8341D8B23DE000F0D2F9211C00F034
:1053B0009EF9002803D0C3171B1AD80F32E0012E24
:1053C00004D1E2881949112A27D823E0032E29D1D4
:1053D000A278002A05D11649E2880B78934219D8A1
:1053E0001BE0022A03D1A279281C124904E0012AF9
:1053F00005D1A2791049281CFFF73AFF12E0032AD1
:1054000010D100F0A5F901A900F081F9A279281CBA
:1054100001A9F1E7D2B2002A00D10A78281CFFF7CF
:10542000FBFE01200AB070BD130C0020D68C0000DA
:10543000D28C0000E88C0000C88C000073B5051CFD
:1054400048780C1C0B2878D800F0DCF9081C772869
:10545000773E4306474B686F00206FE0097801AA4A
:10546000002903D111705170281C09E0002313702A
:105470005370334B1B78012B00D11370281C002173
:1054800002234FE08A780023012A04D101AA137075
:1054900053702C4BEEE72A4A137049E08E78012EA8
:1054A00007D1284B01AA00211E701170281C331C43
:1054B00038E0002E08D1224A01231370224A916954
:1054C000890B8903916138E0A178281CFFF706FC5D
:1054D00033E0281CFFF758FF30E0281C00211B4A4E
:1054E0001FE00A780020D30628D1281CFFF7BAFC59
:1054F000A2781549154B02241A600A682A23FF3343
:10550000D05C2043D0544A20FF30145C01231C435C
:1055100014548A69920B92038A610EE00C4A281C8B
:1055200000210123FFF754FE07E08A78084B1A6038
:10553000054B9A69920B92039A61012076BDC04691
:1055400064070020110C00201C0C0020200D0020FE
:10555000140C0020F8B54B4B071C1C78002C00D015
:105560008FE0494D2868838B19070ED5201C211C1C
:10557000FFF72EF92B6810201A1CFF32917A014395
:105580009172424A146008229A832B689A8B5007C2
:105590001FD504229A833E4B1A78002A0AD01A7823
:1055A000013AD2B21A701B78002B03D11A200121C4
:1055B000FEF762FB374B1A78002A0AD01A78013AB4
:1055C000D2B21A701B78002B03D119200121FEF7EB
:1055D00053FB2B68FF331A7AD10626D510221A7294
:1055E0005A7940210A432C495A710A786023381CA1
:1055F0001A4202D1FFF722FF01E0FFF793FB0028D8
:1056000006D02B688022FF33997952420A4301E089
:10561000224B20229A712B68FF331A7A500604D548
:1056200040221A72597A0A435A722968FE230E8C54
:1056300000241E40E1B2002E23D0321C012322415F
:105640001A4216D0221C2868083252018218D079DA
:10565000184203D1D279DA401A4207D0104BA20087
:10566000D058002809D003681B6898470123A3403D
:105670009E430134092CDDD103E0381CFFF77CFA8E
:10568000F4E7F8BD100C00201C0C0020200D0020B9
:10569000300A0020180C0020340A0020FF5000417E
:1056A000F40B002008B50248FFF754FF08BDC046C0
:1056B000130C0020014A024B1A6070470050004151
:1056C0001C0C002070B544680E1C0025002C09D06D
:1056D0002368201C5B68311C9847002804DB2D18C8
:1056E000E468F3E7281C01E00120404270BD38B5B2
:1056F00044680D1C002C08D02368201C9B68291CC2
:105700009847002802D1E468F4E7201C38BD38B57A
:1057100044680D1C002C07D02368201C291CDB6862
:105720009847E4682D18F5E72C7038BD38B5446803
:105730000D1C002C08D02368201C1B68291C9847CE
:10574000002803D1E468F4E7201C00E0012038BD04
:10575000064B0122196810B51140054805D10224F5
:1057600004700424447041601A6010BD2C0D0020A8
:10577000240D002038B5041C08CC01211A78051C22
:105780000A431A708022201C0021520001F08FFF72
:105790002B68997801221142FBD19978D1401142AE
:1057A000F7D15C6238BD0000134BF0B51B6899035C
:1057B0005A029B01C90ED20E5B0F1F2900D1052191
:1057C0001F2A00D11D22072B00D1032304688E015C
:1057D000278D0A491F2539403143218501682A4018
:1057E0000C8DAC4322430A8502681903108D044BCB
:1057F00003400B431385F0BD246080003FF8FFFF9A
:10580000FF8FFFFF02B4714649084900095C490057
:105810008E4402BC7047C046002934D001230022C8
:1058200010B488422CD301242407A14204D281421F
:1058300002D209011B01F8E7E400A14204D281422F
:1058400002D249005B00F8E7884201D3401A1A43AC
:105850004C08A04202D3001B5C0822438C08A042E3
:1058600002D3001B9C082243CC08A04202D3001B99
:10587000DC082243002803D01B0901D00909E3E713
:10588000101C10BC7047002801D00020C04307B492
:10589000024802A14018029003BDC0461900000052
:1058A0000029F0D003B5FFF7B9FF0EBC4243891AB7
:1058B0001847C0467047C0468446101C62468C4656
:1058C000191C634600E0C0461FB500F05DFF0028CC
:1058D00001D40021C8421FBD10B500F08DFE40422A
:1058E000013010BD10B500F04FFF002801DB002093
:1058F00010BD012010BDC04610B500F045FF0028C6
:1059000001DD002010BD012010BDC04610B500F023
:10591000BDFE002801DC002010BD012010BDC046E6
:1059200010B500F0B3FE002801DA002010BD012000
:1059300010BDC0460000000038B50E4B0C4A041CD8
:105940000D1CFFF7EDFF002804D1201C291C01F0DD
:1059500053FD38BD074B064A201C291C01F022FAD2
:1059600001F04AFD80231B06C018F2E7C046C0467E
:10597000000000000000E041F8B55F46564644468E
:105980004D46F0B40C034D00CE0F610A440F214385
:10599000C400180380465800400D8246D80F844644
:1059A0004046400A530F0343D0006D0D371C834619
:1059B0005246664500D19DE0AF1A002F00DC03E19E
:1059C000002A38D1184300D0E4E0630709D00F2340
:1059D0002340042B05D0231DA342A441644209198E
:1059E0001C1C080200D478E0CE4B6A1C9A4200D1FD
:1059F00005E1CD4BE408194048075205490204432C
:105A00000B0B520D371C002000211B03201C1C0B0C
:105A10000B0D1B05C54D2343520552081D40154370
:105A20006D006D08FF07291C39433CBC9046994620
:105A3000A246AB46F8BDBB488542C6D080200004D4
:105A40000343382F00DDECE01F2F00DD20E1202094
:105A5000C01B1A1C814682405846F84002439446B7
:105A600058464A469040421E9041FB4062460243DF
:105A70001F1CA21A9442A4416442C91B091B141C96
:105A80000B02A2D549024F0A002F00D1C4E0381CF6
:105A900001F06CFD021C083A1F2A00DDB7E0282146
:105AA000091A201C9740C84007439440954200DDE6
:105AB000A9E0551B691C1F2900DDD8E01F22551BDA
:105AC0003B1C221CAB40CA40AC40651EAC4113439A
:105AD000CF401C43391C002577E74807E4086A05D6
:105AE000C908520D371C04438E4B9D4248D0090310
:105AF0000B0B88E7AA1A9446002A00DC98E050466F
:105B0000002853D08748854200D15EE780200004FA
:105B100003436246382A00DDFDE01F2A00DD4BE129
:105B200020226046101A1A1C82408246914658462E
:105B30006246D0404A4602439046584652469040FC
:105B4000421E9041424602436046C3401219A2429F
:105B5000A441644259180919141C080200D434E7FE
:105B6000704B01359D4200D124E16F4B6008194014
:105B7000012323401C1C0443CB071C43490824E792
:105B80000B1C234300D1C7E180231B030B431B03E2
:105B90001B0B38E7013F002F64D15846221A94426C
:105BA000A4416442C91A091B141C69E758461843EA
:105BB00000D10AE70122524294446046002800D0F6
:105BC000C5E058460219C2E7002F72D1681C400593
:105BD000400D012800DCDEE05A46A21A9442BF4183
:105BE000C81A7F42C71B380200D488E05A46141BEB
:105BF000A3459241591A52428F1A664644E7371C10
:105C000000230024FFE64849AD1A3940DDE6271C91
:105C100028388740002449E7201C01F0A7FC2030E9
:105C200038E75A461A43531E9A41D2B2002720E75A
:105C3000002A00D0DDE0681C4205520D012A00DC7C
:105C40008EE0384DA84200D1B3E05D462A19A24249
:105C5000A441644259180919CC0752081443490851
:105C6000051CB2E62F48854200D0EAE6ADE62B1CC3
:105C70001F3B3A1CDA40131C20296DD03F22551BD4
:105C8000AF403C43601E84411C43002100259CE63C
:105C9000381C20381A1CC240101C202F5ED0402215
:105CA000D71BBB405A461A43531E9A410243002752
:105CB000DFE6002D3CD01B4DAA4500D194E08025A5
:105CC0002D047F422943382F00DDADE01F2F00DD7A
:105CD0002CE12025ED1B081C261CA840FE40AC40F2
:105CE0000643651EAC413443F9405D462C1BA34579
:105CF00092415B1A5242991A55466646C0E6131CF9
:105D00003B43141C002B00D0BEE6002700220025D8
:105D100000210024E8E65A461A43531E9A41D2B2A3
:105D2000002313E7FF070000FFFF7FFFFFFF0F8047
:105D30000D1C254358D0FF43002F51D1041BA34510
:105D40009241591A5242891A5546664698E6964833
:105D5000854200D0DDE638E6002792E70023A1E780
:105D6000081C2043002D00D0C0E0002800D1FBE03B
:105D70005846184300D128E658460219A242A441C9
:105D8000644259180919141C0A0200D41DE6874BF5
:105D90000125194019E6081C2043002D39D100289F
:105DA0006DD15946194300D1BDE0191C5C466646C9
:105DB0000BE6051C2A1CABE7604620381A1CC240C3
:105DC00060469146202800D1ABE04022121A934051
:105DD0005A461A43531E9A414B461A430023B5E6CE
:105DE000714DAA4500D06EE7191C5C4655466646C3
:105DF000EBE5002D1ED10D1C254373D0D543002D9E
:105E00006DD15C445C4592415918524289185546FF
:105E1000A3E6002849D15946194300D196E0191C40
:105E20005C466646604DD0E50C43611E8C41E4B291
:105E300000215AE75C4DAA4554D0554280221004F7
:105E40000143382D00DD85E01F2D00DD95E0202287
:105E5000501B0A1C84468240201CE84002439046A6
:105E600062469440601E844142461443E9405C44CB
:105E70005C459241CB185242991855466DE65846FA
:105E8000184300D1A1E55846271ABC429241C81ACE
:105E90005242801A02026AD55846041BA345924119
:105EA000591A5242891A66468FE55846184336D029
:105EB0004807E40804438020C9080003014208D0D1
:105EC000DD08054205D15946CA085C071443291C60
:105ED0006646630FC9001943E400334D75E5324A45
:105EE0009245AED1191C5C4655466EE5002837D068
:105EF0005846184313D080254807E408C9082D03E5
:105F000004432942E5D0D8082842E2D15D46EA0898
:105F10005C071443011CDCE70023002473E5224DD9
:105F200053E5002354E700270022F1E63D1C203D05
:105F30000A1CEA40151C202F31D04026F71BB9401F
:105F40000C43611E8C412C430021CEE6164A0027EB
:105F5000151CDDE60C43611E8C41E4B2002186E78E
:105F6000191C5C46104D30E5191C5C462DE5031CE0
:105F70003B43D8D0011C3C1C27E52020404240195F
:105F80000A1CC2409046202D0BD04020451BA94042
:105F90000C43611E8C4145462C43002167E70021DC
:105FA000CEE70021F4E7C046FF070000FFFF7FFFB8
:105FB000F0B5564644465F464D46F0B41F1C0B03F1
:105FC0001B0B98464B0087B0041C81465B0DC80F25
:105FD000161C9A460090002B51D06A4B9A4531D03E
:105FE0008022414652030A43630FD2001A43664B94
:105FF00090460025E20091469A44002402953B0316
:106000001B0B9B46FD0F7B00311C5B0D019560D087
:106010005C4A934254D08021584649030143720F91
:10602000C9001143584A8B469B18F1000020009A82
:1060300004436A4003920F2C00D9ADE0534EA400F4
:106040003459A746404604436ED100210225082456
:10605000884689460295D2E7009C0298C346494685
:106060000194022864D0032800D1ABE2012800D0BB
:1060700038E2019A002402400025A14660E0434630
:1060800023434AD04046002800D1C0E101F06EFA17
:10609000031E272B00DDB3E128210D1A211C083B2C
:1060A0004246E9409A400D1C1543221C9A40A846DE
:1060B0009146374B00251B1A9A46002402959EE70D
:1060C0005A4616430320002EB1D1B34600210220C8
:1060D000ADE75A4632431BD05B46002B00D18AE124
:1060E000584601F043FA272800DD7DE12822171ADF
:1060F000011C321C08395B46FA408B40171C1F43B9
:10610000331C8B40BB46191C214B1B1A00208EE709
:106110000027BB460021012089E700200125042437
:106120008046814602956AE703250C24029566E7BE
:10613000019C0394039D01222A400024114DA14695
:10614000002000212403260B0C0D2405114B3443A1
:106150002D0523402B435B005B08D207191C4846E2
:10616000114307B03CBC90469946A246AB46F0BDF1
:106170000022802424039146024DE1E700240025FB
:10618000A146DDE7FF07000001FCFFFFF48C0000E3
:106190000DFCFFFFFFFF0F805546ED1A0495D84513
:1061A00000D953E100D14EE1049C0025013C4E464C
:1061B00004944746A946584603020C0E1C430902A4
:1061C000250C23041B0C0091381C291C0193FFF79C
:1061D00023FB019983464143381C8A46291CFFF75B
:1061E0005FFB330C090419438A450CD95B46091936
:1061F000013B8C4200D947E18A4500D844E10222A4
:106200005242934409195346CB1A181C291C98462C
:10621000FFF702FB071C0198291C78438246404681
:10622000FFF73EFB36040B04360C33439A4509D97D
:106230001B197A1E9C4200D924E19A4500D821E11D
:10624000023F1B195E4632041743380CBB46009EC2
:10625000009F51463F0C32045B1A5946BA46120C55
:106260000F043F0C904651467A434F434146414309
:1062700056467043CF19160CBE19B14202D9802779
:106280007F02C019310C12043604120C4018B618E3
:10629000834200D2C4E000D1BEE0191A4846861BF2
:1062A000B145BF417F42CF1BA74200D113E1291C5A
:1062B000381CFFF7B1FA019902904143381C894616
:1062C000291CFFF7EDFA330C0904194389450CD951
:1062D000029B0919013B8C4200D9FFE0894500D897
:1062E000FCE0029F0919023F02974F46CF1B381C62
:1062F000291C0597FFF790FA071C0198291C784381
:1063000081460598FFF7CCFA36040904360C0E4393
:10631000B14509D936197B1EB44200D9E0E0B14538
:1063200000D8DDE0023F3619029D4946761A29045D
:1063300039430B0457460A0C1B0C4046454658434C
:1063400055437B437A43EB18070CDB199D4202D976
:1063500080256D0252191D0C00041B04000C5219FB
:106360001B18964235D300D1FCE001231943049E4B
:10637000994FF519002D00DCA1E0480709D00F2343
:106380000B40042B05D00B1D8B42894149428B44A5
:10639000191C5A46D20107D5904B5C46049E8027B3
:1063A0001C40FF00A346F5198D4B9D427ADD039CEE
:1063B0000122224000248B4DA146C1E68024240303
:1063C000474627424CD13C432403240B009A854D79
:1063D000B6E63619481EB4425ED9011C9642C4D1B5
:1063E000009E9E42C1D1C2E7031C283B311C99404C
:1063F0008B46002188E6301C01F0B8F8203072E6A8
:10640000283B211C994000228846914651E6201CD9
:1064100001F0ACF820303BE60021B14500D33DE768
:10642000009F5A46B944B945BF417F423F19FB1806
:10643000013A9C421ED2984200D97EE000D1B5E0DC
:10644000191A93462AE7894500D8ADE648464646DC
:1064500042467708D3074608C0071E438146AAE68E
:106460005846204212D1044324032A1C240B894697
:106470005C4D65E6A342E3D1009F4F45DBD9211A6D
:1064800093460BE7171CDDE69B46BCE63C43240322
:10649000240B009A534D53E6B24259D800D18AE0FA
:1064A000011C62E75F46C9087B07039E0B437C0221
:1064B0006D0501229946240B6D0D324040E64A4B92
:1064C000049FDB1B382B10DD039C0122224000249B
:1064D0000025A14634E60121494248E7029304E73A
:1064E0001F1C21E7019C039441E71F2B40DC3F4820
:1064F000049F0C1C3A1858469140DC4090402043C1
:106500000A1C511E8A41011C11435A46DA40131CD1
:10651000480709D00F220A40042A05D00A1D8A42E2
:10652000894149425B18111C1A0234D5039C01228F
:10653000224000240125A14602E6009F0221494293
:10654000B9448B44B945894149420919CB18A4E69D
:10655000009D881E6900A942AD416D422C19361973
:1065600000913AE7002B00D033E70024009437E78E
:106570001F4A049C5D46121BD5402A1C202B1FD0AD
:106580001C4E5F46A3199F403B1C19434B1E99416B
:1065900011430023BCE75A07C9080A43039F9146E9
:1065A0005B0201221C0B3A400025C9E54E45C4D8C8
:1065B0009346002172E6009F9F42C9D3011C0FE75A
:1065C0000023E2E7802424035F463C432403240B9A
:1065D000019A8946034DB3E5FF030000FFFFFFFE6C
:1065E000FE070000FF07000002FCFFFF1E04000082
:1065F000E2FBFFFF3E040000F0B55F4656464D4605
:106600004446F0B40D1C041C8046E80F8146180374
:106610000F03000B3F0B83B084461B4800974900D3
:106620005E00DF0F490D9246760DBB4681420CD0CD
:106630001548864210D00120B14215D003B03CBCB1
:1066400090469946A246AB46F0BD009F01202743E5
:10665000F4D10D488642EED1604602430120002A63
:10666000ECD10120B142E9D1009B6345E6D1D04590
:10667000E4D1D94506D00029E0D11C43201C441E9A
:10668000A041DBE70020D9E7FF070000F0B55F4637
:1066900056464D464446F0B4CD0FDE0FAC461D03C2
:1066A0002D0BB146374E0F034C00AB465D008046C4
:1066B0003F0B640D92466D0DB44232D0314EB5425F
:1066C00035D0002C0ED1384341424141081C002DE9
:1066D0000BD0002919D1CC452DD065466842012345
:1066E000184318E0002DF6D1281C59460A4353429E
:1066F0005341002806D1002BEDD0634658420123B8
:10670000184308E00020002B05D14A465042504172
:106710004042012318433CBC90469946A246AB46F2
:10672000F0BD3E1C0643C9D002204042F3E75E465E
:106730001643C6D0F8E7AC4207DC0BDA61464842A4
:106740004841404201231843E5E766467042012371
:106750001843E0E75F450AD80ED000205F45DAD243
:10676000654668426841404201231843D3E76246C8
:10677000504201231843CEE7D045F8D80020D04539
:10678000EED3C8E7FF070000F0B556464D46444635
:106790005F46F0B40D1C83B0041C0190E80F8146E5
:1067A00018030F03000B3F0B844635480097490040
:1067B0005E00DF0F490D9246760DB846814234D017
:1067C0002F48864236D0002918D0002E1FD1341C05
:1067D00067463A4353425341002C1FD00020002B00
:1067E00005D142465042504140420123184303B074
:1067F0003CBC90469946A246AB46F0BD0098044387
:1068000060426041041C002EE2D00028E9D1C1455D
:1068100015D04F46784201231843E8E7002BF6D005
:106820004B46584201231843E1E7009F02202743CB
:10683000DDD1C5E7674602201743D8D1C3E7B1428F
:1068400004DD4A46504201231843D0E7B14207DB3A
:1068500000986045E4D80AD0009F00206745C6D262
:106860004F4678427841404201231843BFE7019ADE
:106870005245D5D8019A00205245F1D3B7E7C0461A
:10688000FF070000F0B5564644465F464D46F0B45B
:106890001F1C0B031B0B9A464B0087B0041C804641
:1068A0005B0DC80F161C02938146002B68D0694B04
:1068B0000299994232D08022534652031A43D200A1
:1068C000630F1A439246644AE00089188046029199
:1068D000002400253B031B0B9B467800FB0F321C5A
:1068E000400D039300D175E05A4B984269D0802245
:1068F000594652030A43730FD2001A43564B93462C
:10690000C018F200002303994E4671401C430F2C1F
:1069100000D9A9E0514EA4003459A74653461C4360
:1069200000D087E00025AA46A84608240225D1E722
:106930004946022D6CD0032D00D117E2012D00D065
:1069400058E10D40EDB20024A9460023A0460020E6
:10695000002125030A0D1C052D0B1205404B2A436F
:10696000134023435B004C465B08E207191C40467A
:10697000114307B03CBC90469946A246AB46F0BDD9
:106980005346234350D05346002B00D184E1504658
:1069900000F0ECFD031E272B00DD76E128210D1A07
:1069A000211C083B5246E9409A400D1C1543221C0D
:1069B0009A40AA4690462B4B00241B1A02930025AE
:1069C00088E75B461E430323002E9CD1B34600227A
:1069D000022398E75B46334321D05846002800D174
:1069E0004EE100F0C3FD272800DD42E128210F1A07
:1069F000021C311C083A5B46F94093400F1C1F43B0
:106A0000331C9340BB461A1C164B181A00237AE716
:106A100001230B4000249946A0460E4B97E7002720
:106A2000BB46002201236EE7002104248A468846E3
:106A300001254FE70C2403254CE700258024A946B7
:106A40002403A846034B82E7DA46904603991D1CAF
:106A50006FE7C046FF07000001FCFFFF348D000018
:106A6000FFFF0F800DFCFFFF029F160C38180490EB
:106A70004046070C0004000C1204120C031C534384
:106A8000041C3D1C7443554398463B1C73436419D6
:106A9000A44644460293230C63449D4204D9029DBC
:106AA000802464022D1902951D0C039545462C0483
:106AB0001B04240C1C1905945C46230C051C58432C
:106AC0002404240C8446381C604365435F4381469C
:106AD000CC44280C6044BB46814502D980277F0204
:106AE000BB442D04070C2D0C000440195546BC4630
:106AF0002F04E3448446280C3D0C2F1C5743B84612
:106B00002F1C77434243B94647463F0C9144BA464F
:106B1000D14446434A4502D980225202B6184F4614
:106B20003A0CB6183A0447463F043F0CB8462F1CAF
:106B300067435D434443584365190190380C2D1851
:106B40004244B846AC4204D9019880235B02C01885
:106B50000190039C029F201C6044C0196045A44121
:106B600047466442A4462B043C049946240C4C44FA
:106B7000A046D8448018C246E2449042924157460B
:106B800052429146F219E245BF417F424B46BC4614
:106B9000D845BF41D4187F4263461F432D0C7F194F
:106BA000B24292414C45AD4152426D421543019E65
:106BB0007D19AB19E20D5B02059F134342023A4374
:106BC0009A46531E9A41C30D101C18436402204379
:106BD00080465046C0010DD5454601225646049CCC
:106BE0006B082A401A43F30701341A4376080494C9
:106BF0009046B246049E634FF319002B61DD404678
:106C000040070BD00F2244462240042A06D04246B9
:106C10000432424580414042824490465546ED014F
:106C200007D5594B5646049F80201E40C000B246EF
:106C30003B18564A934200DDEAE644465546E208D0
:106C40006807104301226C025B050A408046240B52
:106C50005B0D91467BE6DA4690461D1C69E6802472
:106C60002403574627421CD13C432403240B484BA2
:106C70006DE6031C283B311C99408B460022C3E67D
:106C8000301C00F073FC2030ADE6283B211C9940FD
:106C900000228A4690468EE6201C00F067FC2030D9
:106CA00078E65846204207D1044303992403240B75
:106CB00089469046364B4AE63C432403240B344B2A
:106CC00045E6344B049E9B1B382B06DD01230B400D
:106CD00000249946A046002339E61F2B25DC049C9E
:106CE0002D4D46466019524644468640DC4082405F
:106CF0005746301C2243DF40441EA04102433B1C48
:106D0000540709D00F201040042805D0101D9042D0
:106D1000924152429B18021C1D021AD501230B40BE
:106D200000249946A046012311E61C48049C5546C0
:106D3000001BC540281C202B16D0194E5746A219FF
:106D400097403A1C43461A43531E9A41024300237C
:106D5000D6E758075B02D2081C0B01230B401043F7
:106D6000994680460023F2E50022EBE780242403C5
:106D700050460123044319402403240B8946044B45
:106D8000E5E5C046FF030000FFFFFFFEFE07000031
:106D9000FF07000002FCFFFF1E040000E2FBFFFFF4
:106DA0003E040000F8B55F46564644464D46F0B4F2
:106DB0000C034D00CF0F610A440F2143C400180398
:106DC000DE0F8046B44646465800760A530F3343DA
:106DD000D600C94A6D0DBA46400DB346904200D167
:106DE000EBE06246012672409446674500D1A1E07F
:106DF0002F1A002F00DC08E100283BD15846184329
:106E000000D0E8E0600709D00F232340042B05D011
:106E1000231DA342A441644209191C1C0A0200D488
:106E200079E0B54B6A1C9A4200D109E1B34BE40802
:106E300019404807044349025205012750460B0BED
:106E4000520D0740002000211B03201C1C0B0B0DC2
:106E50001B05AB4D2343520552081D4015436D00E1
:106E60006D08FF07291C39433CBC90469946A24651
:106E7000AB46F8BDA0488542C4D08020000403433F
:106E8000382F00DDF0E01F2F00DD24E12020C01BA3
:106E90001A1C5E468240FE40324394465A46824067
:106EA000101C421E9041FB40624602431F1CA21A66
:106EB0009442A4416442C91B091B141C0A02A1D5B7
:106EC00049024F0A002F00D1C9E0381C00F04EFBE8
:106ED000021C083A1F2A00DDBCE02821231C091AE5
:106EE0009740CB401F439440954200DDAEE0551BD8
:106EF000691C1F2900DDDDE01F22551B3B1C221CE5
:106F0000AB40CA40AC40651EAC411343CF401C436C
:106F1000391C002576E74807E4086A05012756462C
:106F2000C908520D37400443734B9D4249D00903B1
:106F30000B0B87E72A1A9446002A00DC9BE0002806
:106F400055D06D48854200D15CE7802000040343A2
:106F50006046382800DD09E11F2800DD50E1624667
:106F60002020801A1E1C8640B1465E46D6404A4606
:106F700032435E4686409046301C421E9041424657
:106F800002436046C3401219A242A4416442591808
:106F90000919141C080200D434E7574B01359D42EF
:106FA00000D142E1554B60081940012323401C1CCD
:106FB0000443CB071C43490824E71E4300D014E7D1
:106FC0000FE70B1C234300D1CFE180231B030B43AE
:106FD0001B031B0B36E7013F002F66D15E46A21B49
:106FE0009442A4416442C91A091B141C66E758461E
:106FF000184300D106E701267642B44460460028D3
:1070000000D0CAE05E463219BEE7002F7AD1681C74
:107010004005400D012800DCE3E05A46A21A9442E4
:10702000BF41C81A7F42C71B3E0200D492E05846B7
:10703000041BA3459241591A52428F1AE24641E776
:10704000534601271F4000240023FBE62B49AD1ABD
:107050003940D7E6271C28388740002444E7201C05
:1070600000F084FA203033E75A461A43531E9A41FF
:10707000D2B200271BE7002A00D0E1E0681C4605D9
:10708000760D012E00DC91E01B4DA84200D1F7E007
:107090005E463219A242A441644259180919CC072C
:1070A000520814434908051CACE61348854200D039
:1070B000E6E6A7E62B1C1F3B3E1CDE40331C2029C6
:1070C00070D03F22551BAF403C43601E84411C439F
:1070D0000021002596E6381C20381E1CC640301CB6
:1070E000202F61D04022D71BBB405A461A43531E63
:1070F0009A4102430027DAE6FF070000FFFF7FFF07
:10710000FFFF0F80002D38D0B94DA84200D192E08A
:1071100080252D047F422943382F00DDAAE01F2F50
:1071200000DD2CE12025ED1B0E1CAE40B046261CD8
:10713000FE404246AC401643651EAC413443F94024
:107140005A46141BA34592415B1A5242991A051CD8
:10715000E246B3E6131C3B43141C002B00D0B1E6FF
:1071600000270022002500210024DDE65A461A43AC
:10717000531E9A41D2B2002305E70D1C25435AD075
:10718000FF43002F53D15A46141BA3459241591A6D
:107190005242891A051CE24690E69548854200D085
:1071A000D6E62FE600278FE700239EE7081C204342
:1071B000002D00D0C3E0002800D1F6E05846184367
:1071C00000D11FE658460219A242A4416442591850
:1071D0000919141C0A0200D414E6864B0125194033
:1071E00010E6081C2043002D3AD1002800D089E089
:1071F0005946194300D1BFE0191C5C46E24601E63E
:10720000604620381A1CC2406646101C202E00D151
:10721000B0E04022921B93405A461A43531E9A41B3
:1072200002430023AFE6724D00272A1C9BE7704DF6
:10723000A84200D070E7191C5C46051CE246E1E557
:10724000002D20D10D1C254375D0D543002D6FD1C5
:107250005C445C459241591852428918051C99E6D4
:10726000002835D159461943DDD0191C5C46E24649
:107270005F4DC7E50C43611E8C41E4B200215FE71E
:10728000051C021C6FE75A4DA84254D0554280227B
:1072900016043143382D00DD81E01F2D00DD91E023
:1072A0002022561B0A1CB446B240261CEE40324334
:1072B000904662469440661EB44142461443E940FB
:1072C0005C445C459241CB1852429918051C61E61A
:1072D000584618434CD04807E40804438020C908A6
:1072E0000003014208D0DD08054205D15946CA080D
:1072F0005C071443291CE246630FC9001943E400EC
:107300003B4D7FE55846184300D17BE55E46A71B01
:10731000BC429241C81A5242801A06024CD55846C5
:10732000041BA3459241591A5242891AE24669E563
:107330002F4A9042AED1191C5C46051C62E500281C
:1073400036D05846184313D080254807E408C908AA
:107350002D0304432942CFD0D8082842CCD15D4622
:10736000EA085C071443011CC6E70023002469E512
:107370001F4D47E500234FE700270022F3E63D1CA1
:10738000203D0E1CEE40351C202F2DD04026F71B33
:10739000B9400C43611E8C412C430021D0E60C43C4
:1073A000611E8C41E4B200218AE7191C5C4629E584
:1073B000191C5C460E4D25E5031C3B43DCD0011C2B
:1073C0003C1C1FE52026764276190A1CF2409046A6
:1073D000202D0BD04026751BA9400C43611E8C410B
:1073E00045462C4300216BE70021D2E70021F4E75A
:1073F000FF070000FFFF7FFF70B50B1C124C090355
:107400000E0B5900021C490DDD0F0020A14211DDB9
:107410000E4881420FDC8020400306430C48401A8E
:107420001F280BDD0B4A521AD640321C5042002D49
:1074300000D1101C70BD084BE818FBE7074BC24099
:10744000C9188E403243F1E7FE0300001D0400001E
:107450003304000013040000FFFFFF7FEDFBFFFF7C
:1074600010B5041E28D000F081F8154A121A0A2817
:1074700015DD0B38844024035205240B520D0023E4
:10748000002000212403181C0B0D240B1B05234393
:107490000C4C12051C4014436400610810BD031C11
:1074A0001533211C99400B1C0B21081AC4402403DE
:1074B0005205240B520DE3E7002200240023DFE7EE
:1074C0001E040000FFFF0F8043001B0E5A1C4102E8
:1074D000D2B270B54C0AC50F012A17DDE022920026
:1074E0006407090B9818002200231E0D221C340586
:1074F0000C431B494005400821400143490049080D
:10750000ED070B1C2B43101C191C70BD002B15D153
:10751000002C1CD0201C00F029F80A281ADC0B21B2
:10752000091A231CCB40191C031C15339C400D4B1E
:107530000903181A4005090B400DD4E7002C03D0AD
:107540006407090B0848CEE707480021CBE7002075
:107550000021C8E7011C0B398C40211C0024E6E700
:10756000FFFF0F8089030000FF0700001C2101239B
:107570001B04984201D3000C10391B0A984201D316
:10758000000A08391B09984201D30009043902A2F4
:10759000105C40187047C04604030202010101015B
:1075A000000000000000000008B5031C081C191CA6
:1075B00000F002F808BD000038B5051C05480C1C99
:1075C000131C002804D00220291C221C00E000BF4C
:1075D00038BDC0460000000070B50E4B0E4D0024B3
:1075E000ED1AAD101E1CAC4204D0A300F35898470E
:1075F0000134F8E700F0BEFC084B094D0024ED1AF9
:10760000AD101E1CAC4204D0A300F35898470134BF
:10761000F8E770BD000100200001002000010020FB
:107620002801002008B5034B011C186800F090F8F1
:1076300008BDC046FC00002008B5034B011C1868BB
:1076400000F03EF808BDC046FC00002030B5002325
:10765000934208D0C55C0133CC18013C2478A54284
:10766000F6D0281B00E0002030BD10B50023934267
:1076700003D0CC5CC4540133F9E710BD70B581422E
:1076800001D300230CE08C18A042FAD28518131CF9
:10769000013B0BD351426618F65C6918CE54F7E7EC
:1076A000934203D0CC5CC4540133F9E770BD031C92
:1076B0008218934202D019700133FAE77047000034
:1076C00030B5002940D004390B68002B00DAC91806
:1076D0001E4A1368141C002B02D14B60116033E06A
:1076E00099420FD208680A189A4205D11368526865
:1076F000C01808604A6000E04B60216024E08A42C4
:1077000003D8131C5A68002AF9D11D685C198C42F1
:107710000BD10968691858181960904214D114687F
:107720005268091919605A600EE08C4202D90C2384
:10773000036009E008680C18944203D11468526889
:10774000001908604A60596030BDC046340D002001
:1077500070B50323CD1C9D430835061C0C2D01D2AA
:107760000C2501E0002D3FDB8D423DD3204B1C68F2
:107770001A1C211C002913D00868431B0DD40B2BA5
:1077800002D90B60CC181EE08C4202D163681360F2
:107790001AE0486860600C1C16E00C1C4968E9E7B8
:1077A000144C2068002803D1301C00F025F820601C
:1077B000301C291C00F020F8431C15D0C41C0323E6
:1077C0009C4384420AD12560201C0B300722231DD4
:1077D0009043C31A0BD05A42E25008E0211A301CE1
:1077E00000F00AF80130EED10C233360002070BDA8
:1077F000340D0020300D002038B5074C0023051C47
:10780000081C236000F09CFB431C03D12368002B61
:1078100000D02B6038BDC0463C0D00200CB430B504
:10782000164B9DB00C1C1D6804D58B2301202B60CA
:1078300040421DE0822302A99B008B81002302901D
:1078400008619C4200D0631E8B604B6101235B4248
:10785000CB81209A21AB281C019300F083F8421CB5
:1078600001DA8B232B60002C02D0029A00231370C4
:107870001DB030BC08BC02B01847C046FC00002058
:1078800002780B7801300131002A01D09A42F7D0FA
:10789000D01A70470023C25C0133002AFBD1581E66
:1078A00070470000F0B58D6885B0071C0C1C039272
:1078B0000193AB4245D390228B89D20013423DD035
:1078C00062690326564309692068F20F401A961927
:1078D0000290021C0198013212187610964200D2D2
:1078E000161C381C5A050FD5311CFFF731FF051E39
:1078F00013D0029A2169FFF7B8FEA289184B1340F2
:1079000080221343A38111E0321C00F0EAFA051E25
:107910000CD1381C2169FFF7D3FE0C233B60A389EF
:10792000402213430120A381404217E0029B2561BE
:10793000ED1825606661019DF61AA6600198A842BF
:1079400000D2019D2A1C20680399FFF797FEA268C8
:107950000020531BA36023685D19256005B0F0BDAE
:107960007FFBFFFFF0B59FB0039005938B890E1C42
:10797000171C19060FD53269002A0CD14021FFF7D8
:10798000E7FE30603061002803D103990C230B60BF
:10799000C9E04023736106AD00236B6120236B7641
:1079A0003023AB763C1C2378002B03D1E21B0292E0
:1079B00011D003E0252BF9D00134F4E70398311CF2
:1079C0003A1C029BFFF76EFF013000D1A6E0696907
:1079D000029A8B186B612378002B00D19EE0012264
:1079E00052426A606A4600235B3201342B60EB60CE
:1079F000AB601370AB654E4F2178381C052200F048
:107A000065FA002807D0C71B2B680120B84018432F
:107A100028600134EFE72B68D90603D56A46202198
:107A20005B3211701A0703D56A462B215B32117045
:107A300022782A2A01D0099B0EE0059A111D1268AE
:107A40000591002A01DB099204E05242EA60022219
:107A500013432B60013409E02278303A092A04D814
:107A60000A214B4301349B18F6E7099323782E2B08
:107A700018D163782A2B09D1059B02341A1D1B6883
:107A80000592002B0DDA01235B420AE0013400234A
:107A90002278303A092A04D80A214B4301349B1832
:107AA000F6E70793234F2178381C032200F00EFAE3
:107AB000002806D0C71B2B684020B8401843286018
:107AC000013421781C480622671C297600F0FEF953
:107AD000002812D0194B002B06D1059B0722073333
