:10200000008000203D4300002543000025430000E0
:1020100000000000000000000000000000000000C0
:102020000000000000000000000000002543000048
:102030000000000000000000254300009143000064
:102040002543000025430000254300007D42000099
:1020500025430000254300002543000029430000DC
:10206000254300009942000025430000254300005D
:10207000F9410000254300002543000025430000EE
:1020800025430000254300002543000025430000B0
:102090000000000025430000254300002543000008
:1020A0002543000025430000254300002543000090
:1020B0000000000010B5064C2378002B07D1054B1B
:1020C000002B02D0044800E000BF0123237010BDA4
:1020D0005001002000000000A881000008B5084B56
:1020E000002B03D00748084900E000BF07480368F9
:1020F000002B03D0064B002B00D0984708BDC046EC
:1021000000000000A88100005401002040010020D0
:1021100000000000014B03607047C046686C00007F
:10212000014B03607047C046686C000038B54568D5
:102130002C1E06D02368201C9B6898476468AC421C
:10214000F8D138BD034B0360034B03644361C360A4
:102150007047C046706D0000686C00000430704726
:1021600010B5034B041C0360FFF7ECFF201C10BDEF
:10217000A86E000010B5034B041C0360FFF7F0FFCE
:10218000201C10BD307300000020704710B5034BB9
:10219000041C0360FFF7EEFF201C10BD986C0000CC
:1021A000014B03607047C046C06C000010B5054B82
:1021B000054A0360B8235B00041CC250FFF7E6FF2A
:1021C000201C10BD40740000C06C000010B5034B13
:1021D000041C0360FFF7EAFF201C10BD60730000C1
:1021E00010B5041C2368201CDB6898470028F9DA26
:1021F00010BD08B503689B69984708BD10B5034B2F
:10220000041C0360FFF7E2FF201C10BDE86C000017
:1022100008B5406803689B69984708BD08B54068E1
:102220000368DB69984708BD08B5406803689B6888
:10223000984708BD08B540680368DB68984708BD43
:1022400008B5406803685B68984708BD08B54068F2
:1022500003685B69984708BD10B5034B041C036015
:1022600002F0CCFE201C10BD686C000010B5034BC2
:10227000041C036002F0C2FE201C10BD686C00004C
:1022800010B5041CFFF75EFF201C02F0B7FE201CF7
:1022900010BD10B5041CFFF763FF201C02F0AEFE5A
:1022A000201C10BD10B5041CFFF764FF201C02F0B9
:1022B000A5FE201C10BD10B5041CFFF767FF201CF5
:1022C00002F09CFE201C10BD10B5034B041C0360E3
:1022D00002F094FE201C10BDC06C000010B5041C60
:1022E000FFF764FF201C02F089FE201C10BD10B512
:1022F000041CFFF76BFF201C02F080FE201C10BDA9
:1023000010B5041CFFF77AFF201C02F077FE201C9A
:1023100010BD000008B50C4800F058FD1120012147
:1023200002F0C2F91120012102F018FA02F03EF881
:10233000FA239B00C018054B054A18600023137050
:10234000044A137008BDC0467001002050030020ED
:102350006D0100206C01002008B50248024902F01E
:10236000BDFA08BD94060020606D000010B5114C48
:10237000201C00F03DF8104A231CFC335A660F4A1B
:1023800022600F4A5A67EA235B00E01801F044FD1F
:10239000BA2300225B00E2540A4B201C0A490B4A74
:1023A000236003F03FFF0A4B0A4A1A600A4A5A6048
:1023B00010BDC04670010020386E0000407400005F
:1023C000E86D0000E86C0000FD2100000000002026
:1023D00054030020186D0000B0050020024B0322BA
:1023E00001201A607047C046780300207047000043
:1023F000114B124A08330360114B4261C360421D06
:10240000002303618361C3610362D3770D4A836252
:102410000264021CD032C362036343638363C363F9
:1024200043648364137053702C329365D3651366D1
:10243000054B18607047C046686D0000206E0000B4
:10244000806C0000906D00005C0300200369002B8D
:1024500003D149608960016104E09A684B608A6039
:1024600051609960704708B5403000F021F808BD10
:10247000014B03607047C046686C000030B5041C17
:1024800090340022012522706570A1708C30914239
:1024900001D1036000E0026030BD704710B5034B0E
:1024A000041C036002F0AAFD201C10BD686C000033
:1024B000FC30036A4A61002B02D10960496004E0E4
:1024C0005A680B604A601160596001627047F8B544
:1024D0008468C7680E1C0025BD4208D02068311CE6
:1024E00004F01CF8002804D001350834F4E700207B
:1024F00000E0201CF8BD000007B5031C903301214B
:102500001970002159706C338021021C9869009168
:10251000F03B024900F0AFF907BDC0467D24000042
:1025200010B5031CFC33041C9961DA61101C211CDA
:10253000FFF78CFF201C04490022FFF7B9FF201C85
:10254000FFF7DAFF012010BD600300200EB403B5D1
:1025500003AA08CAFC308069191C019200F00FFA26
:1025600002B008BC03B01847F7B5031CFC331D6A62
:1025700000902C1E19D02269A76801920026E368FA
:102580009E420FD2019A3B680098002A03D0084966
:10259000FFF7DCFF03E007491A1CFFF7D7FF0136FE
:1025A0000837ECE72468AC42E5D10020FEBDC04608
:1025B000A06D0000B9740000F7B50024071C0D1CC5
:1025C000161CA1423BD013681E49181C009301F051
:1025D000F5FB041E05D1381C291C321CFFF7C4FF73
:1025E0002DE03B1CFC331B6A01931C1E0CD1012403
:1025F000644224E0201C0099FFF769FF002815D1F0
:102600002468019B9C42F2D021690029F2D0012D5F
:10261000F6DD009801F0D2FB0028F1D1201C716892
:10262000FFF755FF0028EBD00436013D61692A1CF5
:102630004468331C381CA047041E00DA0124201C07
:10264000FEBDC046A76D0000021C8C3238B5031CCD
:1026500015680C33041C5D1900211A1C131C9542CB
:1026600002D9107820281DD995420FD08800201853
:1026700094300260AB4202D21A78202A16D8013177
:102680001F29EAD101204042AB4211D10B1C243357
:102690009B00E31800225A60221C9432201CFFF792
:1026A0008BFF05E0002313700132D7E70133E1E728
:1026B00038BD000010B5031C91331A78041C002AA1
:1026C00018D000221A705A780133002A0FD1063B25
:1026D0001B68C318DA72FFF7B7FF021C201C002A20
:1026E00003D10949FFF732FF04E0084900E0084937
:1026F000FFF72CFF231C90331B78002B02D1201CEA
:10270000FFF7FAFE10BDC046AC6D0000B16D0000D1
:10271000B76D0000F8B5061C151C1F1C0124AC4247
:102720000DDAA300FA586B1E9C4201DA202300E068
:102730000A23301C0349FFF709FF0134EFE70020AB
:10274000F8BDC046CA6D000008B507480023036005
:1027500043600361054B06498360064A0123C36059
:1027600003F060FD08BDC04660030020D46D00008A
:102770009B240000000000200079704700230371B3
:1027800070470000014B03607047C046C06C0000FA
:10279000802000017047000010B5034B041C03604B
:1027A00002F02CFC201C10BDC06C000010B5041CF5
:1027B00000F094FC0021201C21662171024A643043
:1027C00001F02DFB10BDC0460804002008B56430A0
:1027D00089B201F061FB08BD08B5643089B201F02F
:1027E00040FB012008BD00000CB470B5134CA2B032
:1027F000061C201C0D1C02F09BFC002819D033681D
:102800002B4202D1013D033513D927AB269A02A8EA
:102810007F21019304F098F96B4600228733201C36
:102820001A7002F085FC002803D0201C02A902F0D7
:1028300049F822B070BC08BC02B0184794060020CA
:10284000014B00221A60704778030020014B03609F
:102850007047C046686C000010B5034B041C036051
:1028600002F0CCFB201C10BD686C00000023C1608E
:10287000426103747047F8B5041C0E1C171C1D1C24
:1028800000290DD08369002B04D0101C02212A1CC2
:10289000069BB047069BA661E76125626362A5625D
:1028A000F8BD10B58469031C002C06D0002282619B
:1028B0009B6A026AC0699B1AA04710BDC16870B5C7
:1028C000041C00295AD08269002A57D04069002888
:1028D00004D003681B68984700284FD0E06803685D
:1028E0009B689847051E49D0216AA26A8B1A616AC3
:1028F0005B18AB4202D8002B02D01D1C002622E040
:10290000E06803689B689847002837D0E068036850
:10291000DB689847002831DB0A28F1D1201C01210F
:102920002AE0A36A5A1CA26218700D2812D1A36A69
:102930000A22013B1A700123237400210136022967
:1029400019D1AE421AD0E0680368DB6898470028C6
:10295000E7DA0FE000210A2809D1237C8B4203D05B
:10296000A36A0221013BA36200232374E6E72174DA
:102970000221E3E70321201CFFF793FF70BD70B530
:10298000041C4069A0B00E1C151C002804D003686C
:102990001B68984700280DD07F21321C2B1C6846ED
:1029A00004F0D2F86B4600227F33E06869461A7063
:1029B00001F088FF20B070BD08B5024802F0B8FBF6
:1029C00008BDC04694060020F0B5234F8BB00E1C06
:1029D000041C03920092381C0021204A331CFFF78C
:1029E00003FF201CFFF7FAFC051E05D1381C02214D
:1029F0001B4AFFF7F9FE2BE0201C06A900F0BEF8E9
:102A0000221C08CA201C5F6906A905ABB847059BB4
:102A1000039AFC34B343E0661343FA20A366C00074
:102A2000104CDA070CD501F0C7FC201C02F080FB2B
:102A300000280DD0E121201C490202F077FB07E0BD
:102A400001F0BAFC201C02F073FB0028FAD0F1E779
:102A5000281C0BB0F0BDC04678030020406E00007B
:102A60005E6E00009406002010B50021041C054A8B
:102A70000548FFF7B9FE0021201C0A1CFFF7A4FF40
:102A800010BDC046816E00007803002010B58EB0E6
:102A9000041C081C01A900F089F80449021C201C30
:102AA000FFF754FD00200EB010BDC046B974000001
:102AB00010B5041CFFF79AFC201C0249221CFFF7EA
:102AC000D2FC10BD7C03002008B50748002303603A
:102AD00043600361054B06498360064A0123C360D6
:102AE00003F0A0FB08BDC0467C030020C86E0000B8
:102AF0009B24000000000020F7B5171C01911B4823
:102B000000211B4A1C1CFFF76FFE1A4B00261B6896
:102B1000009324257543184BED18009B9E4218D056
:102B2000281C0199102203F0CFFB00280FD1291C8B
:102B3000381C1431082203F0D6FB2869002C13D06E
:102B4000EB6982699A432B6A134323600CE00136D8
:102B5000DFE7381C0021082203F0CEFB002084426E
:102B600001D0206000E0201CFEBDC046780300209C
:102B7000D06E00000C6F0000106F00007FB50A4A95
:102B8000684670CA70C012686B460260002298588E
:102B90000C1D006808700131000AA142FAD104320C
:102BA000102AF4D17FBDC046F06E0000F0B587B0AA
:102BB0000E1C02A9FFF7E2FF00252C1C31277F1B0A
:102BC0007019002C01D10A4B00E00A4B02A90A5DE2
:102BD000391C0092084A03F045FC002805DBB84286
:102BE00003DA01342D18102CE8D1301C07B0F0BDE9
:102BF000527F0000006F0000026F0000036870B594
:102C0000DB69041C98472368051C9B68201C9847B7
:102C1000002814D006CD002A0CD00D1C4B35002303
:102C20005C42C65C2C5DA64206D10133082BF7D16D
:102C3000081C04E0101C02E05431013AEBE770BDBF
:102C4000024B0B60022313607047C04650730000B4
:102C5000F8B51D1CB8235B000F1CC418161C201CE3
:102C600002213A1C102300F047FD002E05D0201C45
:102C70000121321C082300F03FFD002D05D0201C4F
:102C80000F212A1C042300F037FDF8BDF0B5424E99
:102C90008DB0041C0191151C301C00213F4A029389
:102CA000FFF7A2FDB8225200A2180092101C0121C9
:102CB0002A1C082300F0DAFC071E09D1301C12215F
:102CC000374AFFF791FD281C391C082203F014FB3A
:102CD0000098022108AA102300F0C8FC002817D190
:102CE000301C12212F4AFFF77FFD201C01992A1C5E
:102CF00007ABFFF701FF071E05D0201C391C2A1C5B
:102D000007ABFFF7A5FF029B002B35D0079A32E0F7
:102D100000980F2104AA042300F0A8FC051E00D18E
:102D20000490236806AA1B6A201C05A99847069BE5
:102D3000059A03930192002600E00136039B9E4210
:102D40001CD0019AB300D75808A9381C102203F0F0
:102D5000BBFA0028F1D1BB690793002D07D107AA60
:102D600000980F21042300F0C7FC079A0492029BED
:102D7000002B01D0049A1A60381C0BE0019A1168EC
:102D8000002D01D18B690493201C002204ABFFF7B6
:102D90005FFF00200DB0F0BD7803002088730000B5
:102DA000B4730000DF73000010B5041D7130012101
:102DB000FF30221C082300F059FC011E03D1201C07
:102DC000082203F099FA201C10BD0000F8B5041C7D
:102DD000FA20C00001F0F0FAB8225200A518281C11
:102DE000FFF7E4FC061E43D0281C00F045FA00283B
:102DF00007D120480221204AFFF7F6FC281C00F0EA
:102E000028F9201CFFF730FE002801D100262FE012
:102E1000261CB0235B001436E218301C1749FFF75C
:102E200025FD311C201CFFF711FB201C311C221C2E
:102E30004030FFF775FB2368201C1B699847281C4E
:102E400000F088FE061EE1D0EE225200A7180E21E7
:102E50003A1C0423281C00F009FCEE235B00E25816
:102E6000281C0132E2500E213A1C042300F044FCDD
:102E7000301CF8BD780300200A740000940600207E
:102E8000F0B59DB00393061C02920223012A00DCD8
:102E900082E005AC1123039A7131A3710123FF3144
:102EA0005B4255683E4F0591A3603868291C03F0CA
:102EB0000BFB002806D13A793A4B9200D158201CDE
:102EC00000F072FB364B083718339F42EDD16B464A
:102ED0001A331B78112B04D1301C3349334A2B1C75
:102EE00040E0201C00F040FC071E102F00D91027E6
:102EF000029B022B27D1079A013206D1301C2C49A4
:102F00002A1CFFF723FB042346E0201C08A93A1CD7
:102F100000F085FB002806D1301C26492A1CFFF74B
:102F200015FB052338E008AB00930CA900234022D1
:102F30000197201C00F0A6FC301C1F490CAAFFF7CB
:102F400005FB002328E0039A201C92683B1C029298
:102F5000111C08AA00F014FC002807D11749029B95
:102F6000301C2A1CFFF7F2FA022315E0201C00F0A7
:102F7000B7FA002806D1301C11492A1CFFF7E6FADF
:102F8000072309E03A1C201C08A900F083FB4242F9
:102F90005041062340420340181C1DB0F0BDC046FE
:102FA00004000020AC030020707400000D750000C8
:102FB0007D74000092740000B9740000A2740000D7
:102FC000BD74000010B5041CFFF772FD201C0249FF
:102FD000221CFFF748FA10BD94030020074808B5EB
:102FE000002303604360064B064983600123C360EE
:102FF000054B064A036103F015F908BD9403002050
:10300000687400009B240000D974000000000020B8
:1030100010B502681378191C3039CCB2092C03D8CA
:1030200001320260081C13E0191C4139052904D83B
:1030300001320260181C37380AE0191C6139052971
:1030400004D801320260181C573801E001204042C8
:1030500010BD036810B55B69041C9847031C012070
:10306000002B03D12368201C1B69984710BD00006A
:10307000F0B58BB004AD0126041C0096281C16493F
:103080000022042300F03AFC049A002793041B0C4E
:103090000393236802975A6A201C9446182102AAB7
:1030A0000823E0472368391C5A6A201C94461823D9
:1030B0002A1CE04723686A466E75AE75EE751521C9
:1030C0005D6A2532201C0323A8472368201C5B6906
:1030D00098470BB0F0BDC0464D79000000239A0020
:1030E0000121821849429160C2184C3200210133FB
:1030F0001170112BF3D17047F0B5041C8DB0FFF7A0
:10310000EDFF2368201C9B699847002801D000250B
:103110002CE04C4802214C4A4C4BFFF765FB8FE0FA
:103120006246A718BB68059A01950092591C7FD189
:103130000821474A331C4348FFF756FB2D232E2115
:10314000BD606B4469441A780B78934202D02F22F9
:103150006A441378059962184832137106998BB244
:103160009B009BB2002B00D10423ED18236E374E39
:103170009D4227D22368201C1F6A291C06AA1823F7
:10318000B847002807D100952E480221314A331C48
:10319000FFF72AFB54E006A800F000FC002804D149
:1031A0000095284802212C4A19E00BAB1B7806A891
:1031B0002A49059300F0E2FB00280CD0059910295C
:1031C00009D810E0019300951E480821244A331CB9
:1031D000FFF70AFB34E01B48224A00950221331C0A
:1031E000FFF702FBBAE7059A06991F4B92009B581E
:1031F00094464A00520CD71CBF087F00063789B29C
:103200000020B94240415F0E0121B943884204D0F9
:1032100000950C480221154AE1E799B28A4200D193
:103220007EE701920291009506480221104A03E0D0
:103230000448104A02930221331CFFF7D5FA8DE7A8
:103240000DB0F0BD78030020437500001975000033
:10325000FA75000057750000767500004D79000082
:103260005176000089760000AC03002099750000BB
:10327000C37500001D760000F0B503688BB09B6934
:10328000051C98470124071E00D088E02B68281CE5
:103290001C6A391C04AA1823A047424E182807D0DC
:1032A00000900221301C404A1823FFF79DFA07E0E6
:1032B000049B002B06DA3D4A301C0221FFF794FAEA
:1032C0003C1C6CE03A491A1C0A40120CD41CA4089D
:1032D000063498B2844245D8042A43D104A835491B
:1032E00000F04CFB041E05D1301C0221324AFFF7CE
:1032F0007BFA54E009AB1B78002B03D0301C022171
:103300002E4ADBE72520262268446A440378177892
:103310009F4202D027236B441F782548049B03401B
:103320001B0C03339B085F432B6806371A6ABF00E8
:103330009446281C391C03AA0423E047042807D01C
:1033400000900221301C1E4A3B1CFFF74DFA18E08A
:10335000039B032119400FD104988204120C93425D
:103360000AD310E09904090C00910192301C02214B
:10337000144AFFF739FA04E0301C0221124AFFF721
:1033800033FA00240BE001222A712B660093301CD3
:103390000E4A0F4BFFF728FA281CFFF7ADFE201C42
:1033A0000BB0F0BD78030020AF760000D5760000AA
:1033B0000000FF7F4D790000F676000014770000D2
:1033C0002E7700005D7700009C770000B477000046
:1033D0002D790000036870B59B6A041C0D1C98478A
:1033E0002368061C9B69201C984700280AD0206E81
:1033F000321AB24206D8EB1C9B089B00AB4201D3A9
:103400009A4201D20120404270BD0000F0B50D0C7F
:10341000EDB2041CA81C8000065987B0701C07D1AF
:10342000009529480121294A294BFFF7DDF90AE0D7
:1034300088B2834209D00093019001212248254A95
:10344000234BFFF7D1F900203BE020688F0105D521
:10345000311C456A1831201CA84732E061194831F7
:103460000F7979424F41416AFFB28C461821002FF3
:1034700003D0D91C8908063189008919201CE0472E
:103480000028E0D0331C15330196032605930293E0
:103490000D480821104A2B1C00970396FFF7A4F94A
:1034A000321C23687A43586A0C4984468A18201CC7
:1034B0000599331CE0470028C5D0641948342771AA
:1034C000012007B0F0BDC04678030020D17700008E
:1034D00035790000F37700001A7800003D75000090
:1034E000F0B5051CAA688BB00120013251D1AB792F
:1034F000112B18D0284F9B00F95804A82C6800F015
:103500002FFA049B201C9904090CFFF763FF061C8B
:103510000390421C09D1049A204893041B0C0221F9
:103520001F4AFFF761F9002033E02368201C5A6A24
:10353000311C9446182304AAE047039B049A1833CD
:10354000039393041B0C183B0193019A002A0ED09D
:103550002368201C5A6A039994460423114AE047C1
:10356000019B043B0193039B04330393EDE73F6806
:10357000201C391C03AA04230197FFF747FF0028EA
:10358000D1D0039B01202366AB7902339B001E51EF
:10359000AE600BB0F0BDC046AC0300207803002045
:1035A0005978000039750000F7B50D0CEFB2041C16
:1035B0000E1C102F08D9EDB200950F4801210F4ABB
:1035C0000F4BFFF711F905E0006803689B69984706
:1035D000002801D100200DE0EDB22368AA1CA771DC
:1035E0009200D258A680A2600132F3D05D1948350E
:1035F0002B79E371FEBDC046780300207978000086
:103600002375000010B51123837101235B42041C54
:1036100001608360111CFFF7C7FF201C10BDF8B5C7
:10362000041C00680E1C0368151C9B699847002841
:103630001AD0A3685A1C16D0A2880020954213D134
:10364000206818210268176AE279002A03D0E91C71
:10365000890806318900C918321C2B1CB847431E43
:103660009841C0B200E00020F8BD00007FB51C1CEE
:10367000074B061C8900151C01A8CA58311CFFF70E
:10368000C1FF01A8291C221CFFF7C9FF04B070BDAF
:10369000AC03002070B5856886B00E1C131C6A1C34
:1036A00004D08479112C12D10D4B00E00D4B009306
:1036B00083880121019383790B4A0293C3790B48D4
:1036C000039304950A4BFFF78FF8002006E0094AA0
:1036D000A400A1580068321CFFF798FE06B070BD28
:1036E0009D78000095780000A37800007803002002
:1036F0001A790000AC030020F0B51C1C0F4B87B0FA
:10370000071C161C8A000D1CD25803A8391CFFF791
:1037100079FF03A8FFF7E4FE002807D10095019484
:1037200007480221074A084BFFF75EF803A8311C3F
:10373000221CFFF7AFFF07B0F0BDC046AC0300206E
:1037400078030020EF780000437900008379112B83
:1037500005D0044A9B009B5801200B6000E000202C
:103760007047C046AC03002013B5002401A90194A2
:10377000FFF7ECFFA04201D0019B9CB2201C16BDBC
:10378000F0B589B00591002507A9141C029307958F
:10379000FFF7DCFF0390A84202D1002103916DE006
:1037A000079A029993B29942F7D1029A201C291CD8
:1037B00002F0A2FD029A0194A2180492019B0199C1
:1037C000049A1B1B0093914245D0059F002D01D008
:1037D000BD420AD1381C2D2102F094FE051E04D1F1
:1037E000291C381C02F08EFE051C0123EF1B05A8C6
:1037F0001F40FFF70DFC061C002F10D1002806DA31
:10380000059B1A78029B013B002A22D0C5E705A838
:10381000FFF7FEFB002804DB3601361801E0002824
:10382000EEDB0199059B0E701A782D2A05D15A7886
:10383000002A02D0013305930025019A013201923A
:10384000BCE7009900290ED00139625C0091E25476
:10385000013B591CF5D1079BDB010FD5029AA31838
:103860005208A21801E0009AF1E7013B944205D00A
:1038700021781878207019700134F6E7039809B0A0
:10388000F0BD0000F0B51D1C87B00023029103922B
:103890000593954200D24B5505A9FFF757FF002825
:1038A00023D00D9F0026013F3C1C621C1DD00599B2
:1038B000C90105D50D9A042A07D9221E03D105E0B6
:1038C000321EBA4202D00A4B01E0221C094B0C996D
:1038D00002988A5C0193009203992A1C064B00F01F
:1038E0005EFA01362D18013CDFE7281C07B0F0BD59
:1038F000006F0000527F000013790000F8B5161C1D
:1039000006AA1278041CD81C8008002A00D04000A7
:10391000104A0025904201D8851DADB20E486F1E99
:103920000022874200D82A1C0020854210D00B4874
:10393000834200D9031C1B04D218201C04C010228F
:1039400002F0D1FC002326756375A375E375012091
:10395000F8BDC046F9FF0000FEFF0000FF7F000039
:1039600013B58BB24C0E0A0C0121A1430091D2B2C7
:103970000149FFF7C3FF16BD4D79000008B5036884
:10398000002B09DB031D1022081C191C02F09CFCF3
:1039900043425841C0B200E0002008BD0368002B3C
:1039A0000BDB5A00520C03329208063292B29BB2E1
:1039B000002093424041C0B200E000207047000068
:1039C000114B124A1A60124A5A60124A9A60124AFD
:1039D000DA60124A1A61124A5A61124A9A61124A0C
:1039E000DA61124A1A62124A5A62124A9A62124AF8
:1039F000DA62124A1A63124A5A63124A9A63124AE4
:103A0000DA63124A1A647047AC0300200400000114
:103A10000800010010000200080003010800040172
:103A20000400050101000601010007011000080063
:103A30001000090004000A0104000B0104000C013D
:103A400010000D0004000E0104000F0141001000E1
:103A5000F0B589000E5885B0301C171C02F068FDC7
:103A60006C46051C0F343B1C0094301C291C102292
:103A700000F096F80123002802D0A84200D1237854
:103A8000181C05B0F0BD0000022038B50C1C151E36
:103A9000854213DC82420AD15868094902F03EFD92
:103AA000031C281C002B09D123681B6901E00B684B
:103AB000DB68201C984701235840C0B238BDC0467F
:103AC0005D790000F0B59FB003900F1C1C1C022A0A
:103AD00006DC20230493012A09DC002305930DE072
:103AE000181C022104AAFFF7B3FF00282ED1201CC6
:103AF000012105AAFFF7ACFF002827D10024049D6F
:103B0000AC4222D22D1B102D00D9102506AE00216B
:103B10002A1C301C02F0F0FB3B68059A381CA118E7
:103B20001A6A2B1C9446321CE047059A5021A318B0
:103B30000096002201950AA800F0C8F803980449ED
:103B40000AAAFEF703FD1034D9E700201FB0F0BD2C
:103B5000B974000008B5034B021C03491868FEF74E
:103B600082FC08BD5C030020F0030020074808B574
:103B7000002303604360064B064983600223C36051
:103B8000054B064A036102F04DFB08BDF00300201F
:103B9000747900009B24000062790000000000207E
:103BA000F0B587B0051C0C980391161C1F1C00284B
:103BB00001D000230370002D05D0012E03D0242E48
:103BC00001D8039C0EE00C990023994200D00B70A1
:103BD000002F00D03B60002075E02B78202B04D80C
:103BE0000135013C002CF8D10AE0012C0AD9002251
:103BF00001922D2B09D101230135013C019304E0F1
:103C0000019402E0002001900124002E12D1012C29
:103C10000FD92B780A26302B0CD10826022C09D07C
:103C20006B7820229343582B04D10235023C102696
:103C300000E00A2601204042311C02F0A3FA031CD6
:103C400073430022DB4304938446131C0292002C2E
:103C500025D02978081C4138192801D82031C9B24B
:103C6000081C30380090C0B2092801D8009804E040
:103C7000081C6138192812D80A30B0420FD26345A7
:103C800006D802D10499884202D87343C31801E0D0
:103C9000012253420120013C01350290D7E7002F59
:103CA00008D0002A01D0012302E00199002900D0A8
:103CB0005B423B600C9B002B00D01A7002980028DE
:103CC00089D00399081B07B0F0BD0000F0B58BB098
:103CD0000093224B141C061C0F1C00F060F80025FA
:103CE00009AA04191570119B9D4213D2109A1C4BFE
:103CF000525D301C03920092391C221C00F04FF8D8
:103D0000039B2418203B5E2B01D92E23039305AB84
:103D1000039A08E0221C134B301C391C00F03FF8BA
:103D20000022241805ABEA54072D08D1221C301CB0
:103D3000391C0D4B00F033F808252418D3E7013562
:103D4000102DD0D105AB0093301C391C221C074B21
:103D500000F025F820180BB0F0BDC0460C7B000029
:103D6000127B0000187B00001A7B00001C7B000007
:103D700070B5051C0E1C081C8A420FD2002D0DD0F8
:103D80008C1AA818211C1A1C049B02F0DDFEA0420C
:103D900004D3AD19013D00232B70601E70BD08B423
:103DA00010B585B007AB10CB03930093079BFFF7CB
:103DB000DFFF05B010BC08BC01B0184710B50028E3
:103DC00002D1484248411AE000291DD003780A7800
:103DD000934203D1002B14D1181C16E01C1C413C4B
:103DE000192C01D82033DBB2141C413C192C01D80A
:103DF0002032D2B2934204D00120934205DA4042ED
:103E000003E001300131E1E7012010BD08B503688E
:103E1000C9B21B68984708BD00234370704770B54E
:103E2000041C161C002900D150210723994321703E
:103E30006660301C00F0BAF800252178301C691843
:103E4000C9B200F013F9301C00F04EF9002806D179
:103E50000135EDB2082DF0D10120607000E00020A6
:103E600070BDF8B50D1C1E1C49050378490FC91813
:103E7000041CC9B24068171C00F0F8F8E9B2606889
:103E8000FFF7C4FF6068391C0368321C5B68984701
:103E9000606800F029F9F8BDF7B54E050093037886
:103EA000760FF618F6B2051C0C1C4068311C019206
:103EB000FF2700F0DBF8211C39406868FFF7A6FFF8
:103EC000686800F011F9009CBC4200D93C1C311C10
:103ED0006868221C00F0C5F8019FE6B268680368B4
:103EE0009B689847002802D1341BE0B2FEBD002C2D
:103EF000FAD06868013C0368DB689847387001377E
:103F0000ECE7F8B5051C0F1C161C0024B44208D0C1
:103F10002B68395D1B68281C9847002801D00134A4
:103F2000F4E7201CF8BD704708B5183000F04EFDCE
:103F300008BD08B5183000F05DFD08BD38B5837DBB
:103F40000D1C002B06D0041CC434201C00F068FD9E
:103F5000002801D0002004E0201C291C00F01DFDD9
:103F6000012038BD08B5183000F04DFD08BD000037
:103F7000F7B50193FA239B0083600B4B00250833B0
:103F8000041C4560036018300F1C161C00F0F8FC80
:103F9000201CC43000F0F4FC019B27612675A57538
:103FA000201C6375FEBDC046287B000070B50D491E
:103FB000041C006900F006FF206900F0BFFD182610
:103FC000207D331C4343084D0821EB18595600F05F
:103FD000F5FB607D08214643AD19695600F0EEFB04
:103FE00070BDC046A0860100487B0000F7B5041CE8
:103FF00000200E1C151C0193824231D0271C18375B
:10400000381C00F0DCFC2069311C012200F0D2FDDC
:10401000002823D0206900F03CFE011C381C00F071
:10402000BCFC01262069AE420ED000F0A3FD0221A7
:10403000206900F0A9FD206900F02BFE011C381C4E
:1040400000F0ABFC0136EDE700F08CFD019B002B8E
:1040500005D02069032100F097FD00E0051CE8B2BF
:10406000FEBD08B50123FFF7C1FF08BD10B5B82399
:104070005B00C154041CC43000F0A1FC0123A375F3
:1040800010BDF8B50022B82382755B00041C0F1C1C
:10409000C15C006900F08EFD002805D12069032174
:1040A00000F072FD02251DE0261CC436301C00F015
:1040B000A1FC00280FD0301C256900F087FCC1B29C
:1040C000281C00F0A6FD0028EED12069032100F095
:1040D0005BFD032506E0051C002F03D020690321AA
:1040E00000F052FD281CF8BD08B50121FFF7C9FFFB
:1040F00008BD38B5041C006900F0A9FD002879D07E
:10410000206900F0B2FD00280ED1206900F0B7FD53
:1041100000281FD0206900F0ADFD00281AD02069CA
:1041200000F0B2FD002815D1206900F023FD2069C0
:10413000032100F029FD231CFC33DD6F002D04D08A
:104140002368201C9B689847A847201C183000F063
:1041500036FC4FE0206900F092FD031C2069002B23
:1041600016D000F007FD2069032100F00DFD206945
:1041700000F08AFD00283DD0201CC43000F01FFC58
:104180000123A375FC34A36F002B33D0984731E093
:1041900000F066FD00282DD0206900F075FD251C7B
:1041A00000280FD0C435281C00F024FCFF21002873
:1041B00003D0281C00F00AFCC1B2206900F03AFDCF
:1041C000A07517E01835281C00F02AFC031C206994
:1041D000002B02D000F0C6FC08E000F05AFD011CE4
:1041E000281C00F0DAFB206900F0C4FC20690321E0
:1041F00000F0CAFC38BD000008B50248FFF779FF9F
:1042000008BDC0460804002008B5034803491A2227
:104210001B23FFF7ADFE08BD080400207406002034
:10422000104B114A11491A6000225A711A71104B31
:1042300019601C2119711E2199711D2159710121CB
:104240005A72D9711A720B490B4B196024211971DA
:1042500026215A729971DA712521022259711A7236
:104260007047C0468405002000093D0084060020F8
:104270008C050020800600209C05002008B5044B1A
:104280001B68002B00D09847024B01221A7208BD10
:10429000AC0500200014004008B5024800F000FE04
:1042A00008BDC046B005002013B5114C1149201CB3
:1042B00000F0C6FB1049114800F0C2FB104911483C
:1042C00000F0BEFB1049114800F0BAFB104911483C
:1042D00000F0B6FB1049114800F0B2FB0323009335
:1042E00001230193211C00220D4800F0B5FD13BDF0
:1042F0007806002000080042000C00427C060020E6
:1043000000100042800600200014004274060020C5
:104310000018004284060020001C0042880600208D
:10432000B0050020FEE7000008B5034B1B68002B1A
:1043300000D0984708BDC0468C06002038B50F490C
:104340000F4CA14204D100F055F800F033FE0BE011
:104350000C4D8D42F7D00023CA18E818A24204D2AF
:10436000006804331060F7E7FEE79042EBD0064B9D
:10437000064A9342E7D2002204C3F9E70000002076
:1043800050010020AC810000500100208C0C002066
:1043900008B500F02CF8002801D100F01DF808BD88
:1043A000014B18607047C0468C060020014B18680E
:1043B0007047C0469006002070B5041E08D0054B1B
:1043C0001D681E1C00F012F833685B1BA342F9D372
:1043D00070BDC0469006002008B5034B1A68013234
:1043E0001A6000F093FA08BD900600207047002084
:1043F0007047000070B5494A1E21536802208B4364
:104400000343474953608B69082423438B61454C20
:10441000454B9C829C8A20439882101CDA68940742
:10442000FCD5424A012414701478E50704D53F4CAA
:10443000647864B2002CF7DB01249460547864B291
:10444000002CFBDB3A4D394C6560547864B2002C8B
:10445000FBDB8225354CED016580547864B2002C7D
:10446000FBDB02249C84DC68E606FCD5314D2E4C37
:10447000E562DD682C4CEE06FBD5A58C2E4E35434F
:10448000A584DD68284CEE06FBD5A58C02263543B5
:10449000A584DC682506FCD5234CE4686606F8D5BF
:1044A000DC68E506FCD500249460547864B2002CE6
:1044B000FBDB224D1D4C656055781C4C6DB2002D08
:1044C000FADB1E6A1E4D35401D621D6A8026B5430B
:1044D0001D620323A3601B4B636053785BB2002B08
:1044E000FBDB00230B72184A4B728B72CB72174B9B
:1044F000FF211A60164B174A1B6812685C01D20E26
:10450000214011439A06520F12020B1C1343124A08
:104510001385436880221343436070BD004000410F
:10452000000400400C06000000080040000C0040A1
:1045300001050100B805FF7D040A00000007030023
:10454000FFFCFFFF03060100006CDC021C000020E2
:10455000246080002060800000400042314BFA213E
:10456000186810B5890001F00DFE2F4B01389842F4
:1045700024D82E4A2E4B5060186AC0210002000A2F
:104580000906014319620024072194601160196A29
:1045900080220902090A12060A431A62254BFC21ED
:1045A0001A6A0A431A62196AFC2292010A431A62C1
:1045B000196AA022D2020A431A6200E0FEE7201C18
:1045C0000021013400F070F8142CF8D11A4C6378F3
:1045D0005BB2002BFADB194B6380194B5A7ED20970
:1045E000012AFAD0E422D2009A803F22DA70597E62
:1045F000134AC9090129FAD0C0235B0100201361C5
:10460000907000F023F863785BB2002BFBDB0D4A5F
:10461000094B5A800C4BDA79D209012AFAD041228F
:104620005A7010BD1C000020FFFFFF0010E000E0EA
:1046300000ED00E000040040000C00401E400000BF
:1046400000400042214000000048004200B5144AEA
:10465000517E131CC9090129F9D00138042813D847
:104660001969104A0A401A615A780F218A4301F0E9
:104670007FFD030509070300012102E0032100E09B
:1046800002210A435A700AE01169F0231B050B430B
:10469000136153780F218B4302210B43537000BDEC
:1046A00000400042FFFFFFF010B51824021C201C40
:1046B0005043274B1818007A40B2013046D00329E6
:1046C00044D8081C211C01F053FD02331121624320
:1046D00098569A18C3011F4852681B189918403100
:1046E000022008700121914059602FE062439856E2
:1046F00018499A185268C3015B189918403106206E
:10470000087001219140596099611FE051435A5648
:10471000104859184B68D2011118C81840300624A7
:1047200004700120984048600B49521850600DE019
:10473000624398569A18C301064852681B18991884
:1047400040310220087001219140996010BDC0469F
:10475000487B0000004400411044004118235843A6
:10476000134AF0B5131808241C5701341FD0825681
:10477000104ED2015D6801249019231C8668AB405D
:104780001E420BD10E1C771EBE41401934404030F2
:10479000A50004780426B4432C430470002903D1F7
:1047A00005495218536002E0024E92199361F0BD20
:1047B000487B00000044004110440041182242435D
:1047C000F8B52D4D0824AA181457031C621C50D0AC
:1047D000481C00240C284CD801F0CAFC071E1E1EE1
:1047E0001E1E1E1E1E0A0A0A0A000124644240E020
:1047F000092902D1181C002103E00A2904D1181C40
:104800000221FFF751FF23E000240B2931D1181CAE
:104810000121FFF749FF2CE018225343EA185268A0
:10482000EB560120141C04405508DB01002C11D06C
:10483000124C1B195D1930352E780C010F213140B7
:1048400021439A18C9B22970403213781843107066
:1048500000240EE0094E0F279B195D1930352E7884
:104860009A18BE433143C9B22970403213781843B5
:104870001070201CF8BDC046487B00000044004179
:10488000F7B58A18061C0D1C01920C1C019B671BB6
:104890009C4207D0336821781B68301C984701344C
:1048A0000028F3D1381CFEBD38B5051C0C1C081EB1
:1048B00007D001F03DFE2B68021C5B68281C211C00
:1048C000984738BD08B5FFF7EFFF08BD08B50249A6
:1048D000FFF7EAFF08BDC046507F000038B5041C52
:1048E000FFF7E2FF051C201CFFF7F0FF281838BD7A
:1048F000014B18607047C04620000020024B012287
:1049000052421A607047C04620000020154A1368C2
:10491000581C25D0013B1360002B21D172B6124ADE
:10492000124B04329A4207D8BFF34F8F104A114BF3
:10493000DA60BFF34F8F11E00F4B197DC807FBD52D
:10494000188B2021FF319208520001431983DA614C
:104950000A4A1A801A7DD107FCD5E5E7C046FDE773
:104960007047C04620000020002000000302000025
:104970000400FA0500ED00E00040004102A5FFFF41
:1049800010B50021041CA42201F0B6FC221CA432A4
:104990000023201C1360536010BDF8B5051CA4351E
:1049A0002E68041C0F1C701CA42101F02FFC231C7A
:1049B000A8331B68994201D0A7552960F8BD021C95
:1049C0000023A432A83013600360704738B5021C7E
:1049D000041CA834A43223681268934207D0C55C33
:1049E000A421581C01F012FC281C216001E00120C8
:1049F000404238BD031CA433A8301A680368D01A9B
:104A000000D5A4307047031C021CA833A4321B68D5
:104A10001268934201D0C05C01E00120404270471F
:104A2000031CA43310B5041C1868A421013001F044
:104A3000EDFBA8342368C81A43425841C0B210BDE8
:104A400001607047F7B508AC267804689D1E27689A
:104A50006C1EA541ECB2920705683A4327063A431B
:104A60002A600268072529405068B501002C00D053
:104A70005C03294301430C435460F7BD30B5036820
:104A8000C0251C68AD0312052A402243C024A4029D
:104A9000090421401143196003685A6814435C609B
:104AA00030BD036801211A680A431A600268116860
:104AB00001231942FBD1D1691942F8D1704703682B
:104AC00002211A680A431A600268D3699907FCD464
:104AD000704703681A7ED10702D41A7E9107FCD56D
:104AE0007047036800225A8370470368187E4007A6
:104AF000C00F70470368187EC009704703688022A2
:104B0000197E52420A431A7670470368188DC0B264
:104B1000704703681A7E01200242FBD01985704756
:104B2000036801211A680A431A60026811680123A8
:104B30001942FBD1D1691942F8D1704703680221AB
:104B40001A680A431A600368DA699107FCD45A8B21
:104B500030218A4310210A435A830268D3695907D6
:104B6000FCD470470368802219685968D2020A434E
:104B70005A6070470368034A196859680A405A60C6
:104B80007047C046FFFFFBFF30B5036803241D6874
:104B90000C40074A596824040A40ED0622436D0F71
:104BA0005A60052D03D10268D3695907FCD430BD82
:104BB000FFFFFCFF49001143036830B5CDB2598BAC
:104BC000032409092140012904D0598B09090C400B
:104BD000022CF4D1596AC90AC902294359620368EF
:104BE000002A03D11A7ED107FCD50DE0187E0122E0
:104BF0004008104008D1197E1142F7D05968C022F0
:104C000092020A435A6003E05B8B01209B089843A1
:104C100030BD0368283319700268107E01231840E4
:104C200003D1518B1942F8D003E0528B181C920823
:104C300090437047036828331970036800201A7E78
:104C4000510703D55B8B01209B089843704703688D
:104C50001868C006400F043843425841C0B270473C
:104C60000368187E4007C00F70470368187E012351
:104C7000184070470368588BC006C00F7047036820
:104C8000187E8007C00F70470368588B0007C00F5D
:104C9000704703681A68D206520F052A02D11A7E9D
:104CA0009107FCD528331878C0B270470368224AB0
:104CB00030B5934211D0214A934211D0204A9342F9
:104CC00011D0204A934211D01F4A934211D01F4A5B
:104CD000934230D10E2319220DE0092314220AE059
:104CE0000A23152207E00B23162204E00C231722C7
:104CF00001E00D231822DCB2154901209B08A040D9
:104D00009B0008605B180320C021890004405D58A7
:104D1000E000FF248440A5432C1CC0258540281CAE
:104D2000204358508023DB011A430A4B5A805A789B
:104D300052B2002AFBDB30BD00080042000C0042EA
:104D4000001000420014004200180042001C004203
:104D500000E100E0000C0040F8B5041C151C0E1C1E
:104D60001F1CFFF7A3FF201CFFF79BFEB1001C22B6
:104D70000A4069072368090C0A431A6022688423E1
:104D80009375012E1AD10821012D00D110210C4B51
:104D900079431868C00001F0F5F9236807219A8962
:104DA0000140D2044903D20C0A439A8123680004CB
:104DB000C20C9889400B400310439881F8BDC0464F
:104DC0001C00002038B5041C0D1CFFF76FFF201CD1
:104DD000FFF7A6FE236814221A60074B69001868C3
:104DE00001F0D0F92468421EE068FF231A4098437E
:104DF0001043E06038BDC0461C0000200120704711
:104E000008B50368014ADB69984708BD1304000030
:104E100010B5041C0069FFF744FE201C1430FFF796
:104E2000CEFD10BD08B50069FFF753FE08BD08B5FB
:104E30001430FFF7DFFD08BD08B51430FFF7E3FDC0
:104E400008BD08B51430FFF7C1FD08BD08B50069FD
:104E5000FFF75FFE012008BDF7B51D1C08AB1B78EE
:104E6000041C009309AB1B78161C019300234360BC
:104E7000FA239B008360094B0F1C08330360143036
:104E8000FFF77EFD009A231CC03327619A70019AB8
:104E90001E705D70201CDA70FEBDC046687F000089
:104EA00010B5041C0069FFF720FE002807D0206918
:104EB000FFF72BFE011C201C1430FFF76EFD20694C
:104EC000FFF718FE002805D02069FFF717FE2069BC
:104ED000FFF707FE10BDF023081C1840303843428E
:104EE00058417047F0231B01194080239B009942D1
:104EF0000CD0C0239B00994206D080235B00052084
:104F0000994204D0002002E0072000E0062070470C
:104F10000F231940012905D002394B424B41022091
:104F2000C01A00E000207047F0B5031C85B0039163
:104F3000C033041C182718783B1C43431B4E082120
:104F4000F3185956151CFFF739FC231CC133187888
:104F500008214743F6197156FFF730FC01210A1C5E
:104F6000039B2069FFF7F8FE291C201CFFF7BAFFFE
:104F7000291C071C201CFFF7CBFF291C061C201C2A
:104F8000FFF7A9FF391C0090331C20690122FFF7AD
:104F900059FD231CC3331978013B1A782069FFF7A8
:104FA0006DFD2069FFF78BFD05B0F0BD487B00006B
:104FB000FEE7704710B5FFF7D1FA01F04BF9FFF7A4
:104FC000F8FF0120FFF7F8F9084C201C00F0DEFA8A
:104FD000201C00F053FBFDF79DF9FDF7BDF9044BD4
:104FE000002BFAD000E000BFF7E7C0465F0B0020BF
:104FF0000000000008B501F053F908BD08B501F044
:1050000059F908BD3F20704713B502686B46D97146
:1050100007335468191C0122A04716BD08B5006962
:10502000022100F02FFC08BD08B50069032100F043
:105030003FFC08BD38B50D1C041C131C006903217E
:105040002A1C00F031FD002801D10123636038BD26
:1050500010B5054C23685A1C04D10368DB689847D7
:105060002060031C181C10BD74000020074A08B5FE
:105070001368591C04D0012149421160181C03E037
:105080000069022100F002FD08BDC0467400002046
:1050900008B503780349023303704222024800F046
:1050A000B9FD08BD300000205F0B002010B501786D
:1050B000031C42780020A12908D1212A2FD11848A9
:1050C0001849072200F0A6FD012028E0212926D159
:1050D000202A05D113490722114800F02FFC04E0D3
:1050E000222A10D19A780F4BDA710E4B962219684A
:1050F000D200914210D1DC7901231C400CD1FA205E
:10510000FFF7F6FB0AE0232A09D1DA789B7812022E
:105110001A43054B1A6002E0FFF7F0FB002010BDB8
:105120005F0B0020240000202C00002070470000AE
:10513000024BD879012318407047C0462400002054
:10514000064BFA218900996005490022083119604F
:1051500004495A6019611A767047C04694060020C7
:10516000987F00005F0B002070B5C2B2194953014F
:10517000CB189E68184DC0242E40A40526439E607F
:10518000164E800109683018083258605201505C90
:105190000726B0430126304350549E6935402C43C6
:1051A0009C610F4C5C61505C7024A0431024204330
:1051B00050549C680B488A18204080246403204384
:1051C000986098684021800B8003986053790B4366
:1051D000537170BD680B0020FFFFFF8F8009002016
:1051E000BC070020FF3F00F038B5041C08CC0121AB
:1051F0001A78051C0A431A708022201C00215200D4
:1052000001F07AF82B689A78D107FCD45C6238BD3B
:10521000134BF0B51B6899035A029B01C90ED20EBD
:105220005B0F1F2900D105211F2A00D11D22072B4A
:1052300000D1032304688E01278D0A491F253940B8
:105240003143218501682A400C8DAC4322430A85F5
:1052500002681903108D044B03400B431385F0BD06
:10526000246080003FF8FFFFFF8FFFFFEFF3108304
:1052700003600123436072B670470368002B02D1BC
:1052800062B6BFF36F8F704737B50569041C684677
:10529000002D12D1FFF7EAFF019B013B03D3621DF2
:1052A000D57FEDB2F9E768460193FFF7E6FF0020EE
:1052B000854217D0206AE36913E0FFF7D7FF019B0F
:1052C0000025013B04D3221C34321578EDB2F8E7F7
:1052D00068460193FFF7D1FF0020854202D0206B82
:1052E000E36AC01A3EBD0000436810B51A68037A2D
:1052F00001215B01D318FF339A7A0A439A72037A29
:1053000042685B01D318C2689C6891040B4A090982
:1053100022400A439A60037A42685B01D3189A6874
:105320004021920B92039A6043681A68037A08330B
:105330005B01D3181A790A431A7110BDFF3F00F0C0
:10534000F7B50569041C0E1C171C6846002D1FD1FB
:10535000FFF78CFF019B013B5A1C06D0621DD17FD9
:105360005A1E00293AD0131CF6E768460193FFF74E
:1053700084FF0025E369BD4235D0226A934232D2D0
:105380005A1CE261A269D3181B7873550135F1E705
:10539000FFF76CFF019B013B5A1C08D0221C3432E2
:1053A00015785A1EEDB2002D18D0131CF4E768468C
:1053B0000193FFF762FF0025E36ABD4226D0226B0E
:1053C000934241D322E0621D0021D177303216781A
:1053D000581E8E4214D1031C5A1CF4D16846019306
:1053E000FFF74BFF38E0226A934235D10023E36197
:1053F000012323616846FFF739FF019B013BEBE77F
:105400001170201C0193FFF76FFFF6E7226B9342A8
:1054100022D10023E36223616846FFF727FF019B47
:10542000013B5A1CDAD0221C3432002111700132A7
:105430001678581E8E4201D1031CF2E71170201C11
:105440000193FFF751FFEAE75A1CE262A26AD31800
:105450001B7873550135AFE7281CFEBD37B543688F
:10546000027A1B68083252019A18041CD079012371
:10547000FF21184253D0D371A0686569626801406A
:10548000002D20D149015218916863618904890C6B
:105490002162A16A68465160621DD377FFF7E6FE7C
:1054A000019B013B5A1C33D0221C34321178581E08
:1054B000C9B20132002903D001930123137023E004
:1054C0001170031CEEE74B01D3189A68A56992048A
:1054D000920C22630022626168465D60FFF7C6FE9F
:1054E000019B013B01E011702B1C591C10D0221CA8
:1054F000343201201070621DD17F5D1EC9B230327E
:105500000029F0D0019310706846FFF7B6FE06E060
:1055100068460193FFF7B1FE201CFFF7E5FE37BD9B
:1055200037B500236C46E3710734201C0D1CFFF7D0
:10553000AFFD2B681818286000F008FE211C00F051
:10554000BFFD2B681818286020783EBD03290BD1B9
:105550000D4BB2221B685200985C802149420143E6
:105560009954022168220CE001290CD1064B9222A9
:105570001B685200985C80214942014399540221E2
:105580002822FF3299547047680B002038B5304B01
:1055900000240121051C20201C70FFF785F8202025
:1055A0000121FFF7DBF82B4B1F2001211C70FFF7B7
:1055B0007BF81F200121FFF7D1F8274B2021DA6962
:1055C00001200A43DA61254B06241A7802431A7037
:1055D000234B0F22197891431970197821431970C0
:1055E00020490C782043087019780A401A701A78FC
:1055F00060210A431A701C4B1C4A5A805A78D209FF
:10560000FCD11B48FEF7CCFE1A4C201CFFF7ECFD2A
:10561000201CFFF7FDFD23687F2219780A401A70CD
:105620001A7804210A431A701A890C218A431A81B4
:10563000C121114A890050580002000A50508021AF
:1056400011601A7802210A431A7001232B7038BDA9
:105650007C090020640B00200004004058440041F5
:105660003C44004159440041000C00400640000009
:10567000A1600000680B002000E100E00078002835
:1056800010D0094B01211B681A898A431A811A8B91
:1056900008210A431A831A8B04210A431A83034BF5
:1056A00000221A607047C046680B00206C0C002076
:1056B0000F4B9A69920B92039A611B680222FF3387
:1056C0001A7298798022524202439A711A7A90078C
:1056D000FCD5084B081C997A7F2210409143014366
:1056E0009972997A802252420A439A727047C04650
:1056F000680B00200050004110B50B790C1C002BEA
:105700000BD1081CFFF7D2FC002804D1094B9A6981
:10571000920B92039A6101200BE000F017FD211C0F
:1057200000F002FD0028F6D1024B9A69920B920319
:105730009A6110BD680B0020F8B50D1C832A16D1A4
:10574000CAB242495301CB189C694148AD0120407F
:10575000C024A405204398613E48083245195D6184
:105760000B685201D15C70208143402065E0022A21
:1057700045D13820FFF73EFC374B344F802603607D
:1057800076000023421D036203614361C3614760E9
:105790008560C660D3772F32041CC3620363137025
:1057A000301C537000F07CFDA061301C00F078FDCF
:1057B000FF232A1C1A405201A062BF18B968244A6C
:1057C00007260A40C02189050A43BA60A1686268B9
:1057D0001940126808314901885CAD00B0430326C6
:1057E00030438854A16862680B405B01A169D318FB
:1057F0005960201CFFF778FD184BEC5025E0822AF9
:105800001ED1CAB211495301CB189C691048AD0191
:105810002040C024A405204398610E480832451951
:105820005D610B68520199180C7980204042204339
:105830000871D15C7020814330200143D15404E0D1
:10584000002A02D1081CFFF78FFCF8BD680B00206E
:10585000FFFFFF8FBC070020C87F0000400B002027
:1058600038B5051C0124064BA200D258002A06D0E8
:10587000211C281C0134FFF75FFFE4B2F3E738BDB9
:105880007800002008B5084B8A00D058002803D0C3
:1058900003689B68984706E0C9B2044B4901591850
:1058A00088688004800C08BD400B0020680B002035
:1058B00010B50C1CFFF7E6FF00280CD0064BE1B238
:1058C0001B680831490159184A7980235B42134308
:1058D0004B710223CB7110BD680B002070B5CAB2AA
:1058E000134B1448540189015918031959609D68D4
:1058F0001149083229408025AD02294399609968F1
:105900004026890B890399600368510159180D7964
:1059100035430D715101591889794D06FAD5510158
:105920005918C979CD07FAD50419A068C0B270BD5D
:1059300080090020680B0020FF3F00F038B50C4BB9
:10594000141C1B680D1CFF335A7940210A435A71FD
:105950000021FFF7C3FFA04200D9201C0023A3426F
:1059600004D0044A9A5CEA540133F8E738BDC046D3
:10597000680B00208009002010B5C9B20C4849010D
:1059800043189A689204920C3F2A08D9141C9A680A
:10599000403CA404920BA40C9203224302E09A68B8
:1059A000920B92039A6041188868C0B210BDC0463D
:1059B000680B0020F0B51C1C2F4B85B01B68061C23
:1059C0000D1C0292002B51D02C4F3978C9B20029FE
:1059D00002D11F20FEF7C2FE64233B70284BAA00B1
:1059E000D058002805D0036802995B68221C9847AC
:1059F00040E0301C291CFFF745FFA04204D2301CB8
:105A0000291CFFF73FFF041C291C301CFFF7B4FFC3
:105A10001C4FE9B24A010191396803928B18FF3398
:105A20005A7A01210A4318495A72AB01C9180298DF
:105A3000221C00F058FC002C1BD0301C291CFFF746
:105A400021FF002815D1019B3A6808335B01D31868
:105A500019794020014319710121D9710399531813
:105A6000FF339A7A01210A439A7202E001204042F0
:105A700000E0201C05B0F0BD6C0C0020640B002081
:105A8000400B0020680B00208009002013B56C46F5
:105A90000734221C0123FFF78DFF012801D1207854
:105AA00001E00120404216BDF0B51C1C3F4B85B003
:105AB0001B680E1C0292002B6AD08023DB019C42E3
:105AC00066D83B4D2978C9B2002902D12020FEF7C3
:105AD00045FE642300222B700092002C56D0354DD9
:105AE000F7B22B6801933B1C0833019A5B01D31872
:105AF0009B79DB091AD0304B3049186800F042FB23
:105B00002F4B1721584300F03DFB3B1C0833019AF3
:105B10005B01D318DB799A0708D42A4B9A5D002AD7
:105B200038D1421E002835D0101CEEE7254B00224C
:105B30009A55251E3F2D00D93F25234AB301D3187E
:105B4000181C02992A1C039300F0CDFB194A7B0113
:105B5000D318039AA9045A619A69890C920B92038B
:105B60000A439A613B1C019A08335B01D318022255
:105B7000DA715979802252420A435A71009B029A83
:105B80005B1952190093641B0292A6E700980BE080
:105B9000012008E001229A557B01ED18AB69101C29
:105BA0009B0B9B03AB61404205B0F0BD6C0C002029
:105BB0007C090020680B00201C00002040420F00E0
:105BC00070110100B4070020BC07002070B50E4D15
:105BD0001C1C8B01ED18281C0E1C111C221C00F033
:105BE00082FBF6B20949760189194D618A69084B31
:105BF000201C13408B618B69A2049B0B920C9B03AE
:105C000013438B6170BDC046BC070020680B0020A9
:105C1000FF3F00F0F7B5114B01901B780F1C141CCF
:105C2000002B19D10E4B1E78002E01D1151C08E057
:105C30000C4D0D482E888019361900F054FB2E802B
:105C40000AE0002D08D0BA192B1C01980021FFF79B
:105C5000BDFF36182D1AF4E7201CFEBD5E0B002098
:105C60005C0B0020B2070020B1060020F8B50E1C26
:105C700000AF151E012D28D9D31DDB08DB006A46B5
:105C8000D21A9546081C00F053FC01306C464000C7
:105C90000323207063700222AA420ED23378002BB5
:105CA0000BD0511CC9B20136A354A94204D0002321
:105CB00002326354D2B2EFE72A1C0548211CFFF7D9
:105CC000A9FF431E9841C0B200E00020BD46F8BDC8
:105CD0005F0B002008B5044B00221A70034B0449E7
:105CE0001A88FFF797FF08BD5C0B0020B207002061
:105CF000B1060020F0B5204A87B0012300260091AC
:105D000002A91370051C0296FFF70AFC03AC0927D1
:105D100001903A1C201C311C00F0EEFA0223637043
:105D2000A023E371FA232372029B0122DB19638013
:105D3000019B62712371104A009B27701670BB4251
:105D400005D1281C211C1A1CFFF764FF11E00B4B26
:105D500001221A700A4B211C3A1C281C1E80029634
:105D6000FFF758FF281C02A9FFF7DAFB281CFFF7F2
:105D7000B1FF012007B0F0BD5E0B00205C0B0020DE
:105D8000B207002070B5CE788AB0051C0C1C022E1C
:105D900008D1C9882348FFF7ADFF031C581E834173
:105DA000D8B23DE000F0D2F9211C00F09EF90028A5
:105DB00003D0C3171B1AD80F32E0012E04D1E2889A
:105DC0001949112A27D823E0032E29D1A278002AC5
:105DD00005D11649E2880B78934219D81BE0022AB4
:105DE00003D1A279281C124904E0012A05D1A27925
:105DF0001049281CFFF73AFF12E0032A10D100F0E7
:105E0000A5F901A900F081F9A279281C01A9F1E7FF
:105E1000D2B2002A00D10A78281CFFF7FBFE01202D
:105E20000AB070BD5F0B0020EE7F0000EA7F00002B
:105E300000800000D87F000073B5051C48780C1C5A
:105E40000B2878D800F094F9081C7728773E430691
:105E5000474B686F00206FE0097801AA002903D141
:105E600011705170281C09E0002313705370334BDC
:105E70001B78012B00D11370281C002102234FE056
:105E80008A780023012A04D101AA137053702C4B85
:105E9000EEE72A4A137049E08E78012E07D1284B8D
:105EA00001AA00211E701170281C331C38E0002E3E
:105EB00008D1224A01231370224A9169890B890370
:105EC000916138E0A178281CFFF7F2FB33E0281C31
:105ED000FFF758FF30E0281C00211B4A1FE00A781A
:105EE0000020D30628D1281CFFF7BAFCA278154958
:105EF000154B02241A600A682A23FF33D05C204322
:105F0000D0544A20FF30145C01231C4314548A6986
:105F1000920B92038A610EE00C4A281C0021012397
:105F2000FFF754FE07E08A78084B1A60054B9A6920
:105F3000920B92039A61012076BDC046B006002004
:105F40005D0B0020680B00206C0C0020600B002013
:105F5000F8B54B4B071C1C78002C00D08EE0494D47
:105F60002868838B19070DD5201CFFF7FDF82B68D7
:105F700010201A1CFF32917A01439172424A146038
:105F800008229A832B689A8B50071FD504229A8384
:105F90003E4B1A78002A0AD01A78013AD2B21A7007
:105FA0001B78002B03D120200121FEF7D7FB384BB3
:105FB0001A78002A0AD01A78013AD2B21A701B78DD
:105FC000002B03D11F200121FEF7C8FB2B68FF33F4
:105FD0001A7AD10626D510221A725A7940210A431C
:105FE0002C495A710A786023381C1A4202D1FFF7F3
:105FF00023FF01E0FFF780FB002806D02B688022FA
:10600000FF33997952420A4301E0234B20229A71CF
:106010002B68FF331A7A500604D540221A72597A37
:106020000A435A722968FE230E8C00241E40E1B2F6
:10603000002E23D0321C012322411A4216D0221CEA
:106040002868083252018218D079184203D1D279D7
:10605000DA401A4207D0114BA200D058002809D0CC
:1060600003681B6898470123A3409E430134092C11
:10607000DDD103E0381CFFF769FAF4E7F8BDC0464C
:106080005C0B0020680B00206C0C00207C090020B9
:10609000640B002080090020FF500041400B0020CD
:1060A00008B50248FFF754FF08BDC0465F0B00204B
:1060B000014A024B1A60704700500041680B0020F3
:1060C00070B544680E1C0025002C09D02368201CE4
:1060D0005B68311C9847002804DB2D18E468F3E75F
:1060E000281C01E00120404270BD38B544680D1CF9
:1060F000002C08D02368201C9B68291C9847002886
:1061000002D1E468F4E7201C38BD38B544680D1CA2
:10611000002C07D02368201C291CDB689847E46802
:106120002D18F5E72C7038BD38B544680D1C002CCF
:1061300008D02368201C1B68291C9847002803D11D
:10614000E468F4E7201C00E0012038BD064B012282
:10615000196810B51140054805D1022404700424C3
:10616000447041601A6010BD780C0020700C002053
:1061700002B4714649084900095C49008E4402BCDA
:106180007047C046002934D00123002210B4884251
:106190002CD301242407A14204D2814202D2090156
:1061A0001B01F8E7E400A14204D2814202D2490077
:1061B0005B00F8E7884201D3401A1A434C08A0421A
:1061C00002D3001B5C0822438C08A04202D3001BB0
:1061D0009C082243CC08A04202D3001BDC082243C7
:1061E000002803D01B0901D00909E3E7101C10BCEB
:1061F0007047002801D00020C04307B4024802A124
:106200004018029003BDC046190000000029F0D0DC
:1062100003B5FFF7B9FF0EBC4243891A1847C046C1
:106220007047C04608B5031C081C191C00F002F892
:1062300008BD000038B5051C05480C1C131C0028BF
:1062400004D00220291C221C00E000BF38BDC0463B
:106250000000000070B50E4B0E4D0024ED1AAD107D
:106260001E1CAC4204D0A300F35898470134F8E751
:1062700000F0E8FC084B094D0024ED1AAD101E1C7F
:10628000AC4204D0A300F35898470134F8E770BD3E
:106290000801002008010020080100203C01002026
:1062A00008B5034B011C186800F076F808BDC0461D
:1062B0000001002008B5034B011C186800F024F809
:1062C00008BDC0460001002030B50023934208D02D
:1062D000C55C0133CC18013C2478A542F6D0281BBC
:1062E00000E0002030BD10B50023934203D0CC5C09
:1062F000C4540133F9E710BD031C8218934202D045
:1063000019700133FAE7704730B5002940D00439DD
:106310000B68002B00DAC9181E4A1368141C002BE6
:1063200002D14B60116033E099420FD208680A181D
:106330009A4205D113685268C01808604A6000E0AC
:106340004B60216024E08A4203D8131C5A68002A5B
:10635000F9D11D685C198C420BD10968691858186D
:106360001960904214D114685268091919605A6072
:106370000EE08C4202D90C23036009E008680C1877
:10638000944203D114685268001908604A60596049
:1063900030BDC046800C002070B50323CD1C9D434A
:1063A0000835061C0C2D01D20C2501E0002D3FDB29
:1063B0008D423DD3204B1C681A1C211C002913D090
:1063C0000868431B0DD40B2B02D90B60CC181EE0C0
:1063D0008C4202D1636813601AE0486860600C1C4C
:1063E00016E00C1C4968E9E7144C2068002803D12A
:1063F000301C00F025F82060301C291C00F020F82B
:10640000431C15D0C41C03239C4384420AD125603D
:10641000201C0B300722231D9043C31A0BD05A4275
:10642000E25008E0211A301C00F00AF80130EED1E9
:106430000C233360002070BD800C00207C0C0020F9
:1064400038B5074C0023051C081C236000F0E0FB56
:10645000431C03D12368002B00D02B6038BDC046FD
:10646000880C00200CB430B5164B9DB00C1C1D6878
:1064700004D58B2301202B6040421DE0822302A91A
:106480009B008B810023029008619C4200D0631E18
:106490008B604B6101235B42CB81209A21AB281C8E
:1064A000019300F0ADF8421C01DA8B232B60002C25
:1064B00002D0029A002313701DB030BC08BC02B099
:1064C0001847C046000100200D4BF0B51D680022A2
:1064D000845C2B195E7803233340012B00D12034D8
:1064E0008B5CEE18777803263E40012E00D12033D6
:1064F000E41A02D10132002BEAD1201CF0BDC046C3
:1065000004010020C9B20378002B03D08B4204D0D1
:106510000130F8E7002900D0181C704702780B788A
:1065200001300131002A01D09A42F7D0D01A7047C9
:106530000023C25C0133002AFBD1581E70470000C3
:10654000F0B58D6885B0071C0C1C03920193AB421B
:1065500045D390228B89D20013423DD06269032635
:10656000564309692068F20F401A96190290021CDE
:106570000198013212187610964200D2161C381C6F
:106580005A050FD5311CFFF707FF051E13D0029ADD
:106590002169FFF7A8FEA289184B134080221343FC
:1065A000A38111E0321C00F003FB051E0CD1381C46
:1065B0002169FFF7A9FE0C233B60A3894022134306
:1065C0000120A381404217E0029B2561ED18256060
:1065D0006661019DF61AA6600198A84200D2019D4D
:1065E0002A1C2068039900F0CAFAA2680020531BF5
:1065F000A36023685D19256005B0F0BD7FFBFFFF38
:10660000F0B59FB0039005938B890E1C171C1906DB
:106610000FD53269002A0CD14021FFF7BDFE306052
:106620003061002803D103990C230B60C9E040239B
:10663000736106AD00236B6120236B763023AB764C
:106640003C1C2378002B03D1E21B029211D003E003
:10665000252BF9D00134F4E70398311C3A1C029B36
:10666000FFF76EFF013000D1A6E06969029A8B182E
:106670006B612378002B00D19EE0012252426A60B8
:106680006A4600235B3201342B60EB60AB60137011
:10669000AB654E4F2178381C052200F065FA0028C2
:1066A00007D0C71B2B680120B8401843286001346D
:1066B000EFE72B68D90603D56A4620215B321170BB
:1066C0001A0703D56A462B215B32117022782A2AD9
:1066D00001D0099B0EE0059A111D12680591002A50
:1066E00001DB099204E05242EA60022213432B606C
:1066F000013409E02278303A092A04D80A214B43B0
:1067000001349B18F6E7099323782E2B18D1637870
:106710002A2B09D1059B02341A1D1B680592002BF8
:106720000DDA01235B420AE0013400232278303A7B
:10673000092A04D80A214B4301349B18F6E7079332
:10674000234F2178381C032200F00EFA002806D0CF
:10675000C71B2B684020B8401843286001342178BB
:106760001C480622671C297600F0FEF9002812D08A
:10677000194B002B06D1059B07220733934308339F
:10678000059314E005AB00930398291C321C134BAE
:1067900000E000BF07E005AB00930398291C321C02
:1067A0000E4B00F091F804900499013104D06A690D
:1067B000049953186B6143E7B3895A0601D40B98C7
:1067C00001E0012040421FB0F0BDC0461380000030
:1067D000198000001D8000000000000041650000DD
:1067E000F7B5151C01930A698B68061C0C1C9342B3
:1067F00000DA131C221C2B6043321278002A01D0CD
:1068000001332B602068800602D52B6802332B6091
:10681000216806270F401FD0231C43331B785A1EC4
:106820009341226892061FD5E11840313020C8708C
:10683000211C5A1C45310978A21840320233D1700C
:1068400012E0221C301C019919320123089FB8471D
:10685000013011D0009F01370097E0682968009F40
:10686000431A9F42EDDBD7E7221C301C01994332CB
:10687000089FB847013002D10120404223E0206840
:1068800006212B68E26801400025042903D1D51AAE
:10689000EB43DB171D40A26823699A4201DDD31A3E
:1068A000ED1800270097009FAF420BDA221C301C26
:1068B00001991A320123089FB8470130DCD0009FAC
:1068C0000137EFE70020FEBDF0B50D1C8BB043355E
:1068D00006920590079304950B7E0C1C109A6E2B64
:1068E00000D1A7E011D8632B22D009D8002B00D10A
:1068F000B0E0582B00D0C0E045310B707B4D4EE02E
:10690000642B1CD0692B1AD0B7E0732B00D1A5E003
:1069100009D86F2B29D0702B00D0AEE00E68202351
:1069200033430B6036E0752B1FD0782B32D0A4E0B8
:1069300013680D1C191D423511601B689FE021680A
:1069400013680E0603D5191D11601E6805E0480680
:10695000F9D5191D116000215E5E644B002E3BDAF3
:10696000049D2D2276422A7036E0216813680E06B7
:1069700003D5191D11601E6804E04806F9D5191DDC
:106980001E881160594B227E039308276F2A1ED060
:106990000A271CE0231C78214533554D19701168D6
:1069A0002368081D039510601E0601D50E6802E0DD
:1069B0005806FBD50E88D90702D520221343236041
:1069C0001027002E03D1226820239A432260231C23
:1069D000002243331A7001E003930A276368A3601F
:1069E000002B03DB2568042295432560002E02D18D
:1069F000049D002B0ED0049D301C391CFFF706FCB3
:106A00000398013D435C301C2B70391CFFF7BAFB27
:106A1000061EF1D1082F09D12168C90706D5626881
:106A200023699A4202DC013D30232B70049E731BC4
:106A300023612AE0086813684969050604D5181D12
:106A400010601B68196005E04606F8D5181D106037
:106A50001B68198000232361049D16E01368191D2B
:106A600011601D68281CFFF763FD63682061984270
:106A700000D923612069606004E0251C42352B7039
:106A800001232361049E00233370079E059800961E
:106A9000211C09AA069BFFF7A3FE013002D10120A9
:106AA000404221E02A1C059806992369079DA847C2
:106AB0000130F4D02668B60705D4099BE0689842F7
:106AC00012DA181C10E00025E0680999431A9D426B
:106AD000F3DA221C0598069919320123079EB04764
:106AE0000130DCD00135EFE70BB0F0BD24800000B1
:106AF0003580000030B5051C9BB0141E04DA8B23D2
:106B00000360012040421DE082229200684600910D
:106B10000491002182818C4200D0611E01225242E8
:106B2000029105916946CA81281C1A1C1E9BFFF719
:106B300067FD421C01DA8B232B60002C02D00099E8
:106B400000230B701BB030BD73B5141C054A061C26
:106B50000D1C1068311C00932A1C231CFFF7CAFF70
:106B600076BDC04600010020C9B28218904204D010
:106B700003788B4202D00130F8E70020704770B5EF
:106B8000814201D300230CE08C18A042FAD2851870
:106B9000131C013B0BD351426618F65C6918CE54A6
:106BA000F7E7934203D0CC5CC4540133F9E770BDDE
:106BB000F8B5061C0C1C151C002904D1111CFFF78C
:106BC000EBFB041C18E0002A03D1FFF79DFB2C1CF3
:106BD00012E000F013F8A8420ED2301C291CFFF777
:106BE000DBFB071E07D0211C2A1CFFF77CFB301C97
:106BF000211CFFF789FB3C1C201CF8BD04390B68E5
:106C0000181F002B02DAC8581B18181F7047000005
:106C1000094A1368002B0CD018186946884202D81C
:106C20001060181C7047054B0C2201201A6040426E
:106C3000F8E7034B1360EFE7840C0020880C00207A
:106C40008C0C0020F8B5C046F8BC08BC9E467047C6
:106C5000F8B5C046F8BC08BC9E467047000000006E
:106C60000000000000000000152100005922000073
:106C7000B14F000000000000000000000000000014
:106C8000212100006D2200002D21000000000000E5
:106C900000000000000000008D210000B72200006D
:106CA0005D210000692A0000B12A0000F92A0000D5
:106CB000FD2B000089210000000000000000000002
:106CC000A1210000C9220000B14F0000B14F000017
:106CD000B14F0000B14F0000B14F0000B14F0000B4
:106CE0000000000000000000FD2100000123000062
:106CF000A92D0000CD2D0000C52F00008D2C000017
:106D0000FD2B000089210000412C00000000000044
:106D10000000000000000000112200001D22000001
:106D2000292200003522000041220000E12100005C
:106D30004D220000F321000049443A20002046750E
:106D40006E6320436F64653A20002041646472657D
:106D500073733A2000204E756D20656C653A2000F3
:106D6000676F696E6700000000000000000000000F
:106D700045210000812200005D210000DD2300008C
:106D8000ED230000000000000000000000000000F3
:106D9000712400009D240000B526000000000000C2
:106DA00025732025730A0068656C70000D4F4B0A2F
:106DB000000D3F25640A003F2A2A2A206572726F5F
:106DC00072202575202A2A2A0A002573256300656A
:106DD00063686F00CF6D0000152700000000000001
:106DE0000000000000000000852700009927000037
:106DF000AD270000533000007130000079320000F0
:106E0000792700007D270000CD270000D92700004A
:106E100091270000000000000000000000000000BA
:106E20004D28000059280000BD2800000000000087
:106E30000000000000000000B92900000000000070
:106E40002B436174656E6153616D6432313A3A620D
:106E50006567696E2825782C202578290A0043610A
:106E600074656E6153616D6432313A3A5375706581
:106E7000723A3A626567696E206661696C65640A98
:106E8000002B436174656E6153616D6432313A3A2F
:106E9000626567696E28290A000000000000000092
:106EA00000000000000000006121000093220000AB
:106EB0005D210000692A0000B12A0000F92A0000C3
:106EC0006370756964000000C06E00008D2A0000C8
:106ED000436174656E6153616D6432313A3A47655E
:106EE00074506C6174666F726D466F7249440A002B
:106EF0000CA0800040A0800044A0800048A080003A
:106F00002D00257325303278000000001D000000A0
:106F1000083BAF3135504D51202020331B1F11FF4E
:106F20002C7A00000002CC010000000000000000EC
:106F300001000000EAA37E8735504D512020203308
:106F40003D2113FFF47900000002CC010000000194
:106F50000000000001000000B0A92F5835504D512D
:106F600020202033412312FFBC7900000002CC0115
:106F7000000000020000000001000000CF1B20A55F
:106F800035504D51202020332E0611FFF47900009A
:106F90000002CC010000000300000000010000001E
:106FA000A3ADD03A35504D51202020331E1311FF90
:106FB000F47900000002CC01000000040000000091
:106FC00001000000DA0E425A35504D512020203386
:106FD000332B12FFF47900000002CC010000000501
:106FE0000000000001000000C48B81F735504D51B6
:106FF000202020333C2813FFF47900000002CC014C
:107000000000000600000000010000006652249805
:1070100035504D51202020331B0811FFF47900001A
:107020000002CC0100000007000000000100000089
:1070300034D8A0F735504D5120202033182D11FFA2
:10704000F47900000002CC010000000800000000FC
:1070500001000000675CC2FF35504D5120202033F5
:10706000213213FFF47900000002CC010000000976
:107070000000000001000000234748BB35504D517F
:1070800020202033271A13FFF47900000002CC01DE
:107090000000000B0000000001000000EC26E8509A
:1070A00035504D5120202035202110FF107A00004E
:1070B0000002CC010000000C0000000001000000F4
:1070C0005835F7FD35504D51202020351B1F14FF3A
:1070D000107A00000002CC010000000D000000004A
:1070E000010000002E599CA135504D512020203523
:1070F0001C0D14FF107A00000002CC010000000EED
:107100000000000001000000E9ADA45E35504D51C3
:10711000202020351D0414FF107A00000002CC014D
:107120000000000F00000000010000005E1031D2DE
:1071300035504D5120202035260A14FF107A0000CA
:107140000002CC010000001000000000010000005F
:107150001F84897535504D5120202035431C13FF65
:10716000107A00000002CC010000001100000000B5
:10717000010000003E4F6C2E54534B504A312E39C3
:107180002B2707FFB87A00000002CC010000004165
:107190000000000001000000FDF5076854534B504B
:1071A0004A312E39392307FF487A00000002CC010A
:1071B0000000004200000000010000005B6D714013
:1071C00054534B504A312E393A1507FF487A000084
:1071D0000002CC010000004300000000010000009C
:1071E0009FADBF0254534B504A312E39370E07FF23
:1071F000487A00000002CC010000004400000000BA
:10720000010000005F6F4BA654534B504A312E399A
:107210003C2C07FF487A00000002CC01000000452A
:1072200000000000010000000525DCEF54534B5026
:107230004A312E39361A07FF487A00000002CC0185
:10724000000000460000000001000000F4E8C52432
:1072500054534B504A312E39371307FF487A0000F8
:107260000002CC0100000047000000000100000007
:107270008E3F7C7B54534B504A312E39381307FFD5
:10728000B87A00000002CC010000004800000000B5
:107290000000000082D1C43854534B504A312E397B
:1072A0003B1307FFB87A00000002CC010000004940
:1072B0000000000000000000BF3D75D354534B5048
:1072C0004A312E39372A07FFB87A00000002CC0174
:1072D0000000004B0000000000000000F6744FBEEC
:1072E00035504D51202020352D2E11FF847900007E
:1072F0000002CC010000004D000000000000000072
:107300009531BD2454534B504A312E393F1607FF57
:10731000847900000002CC010000004E0000000053
:10732000000000000000000000000000000000005D
:1073300075210000A52200005D210000692A0000DF
:10734000B12A0000F92A0000FD2B0000892100006D
:10735000D8790000D47A000000000000000000008E
:10736000CD210000EF220000A92D0000CD2D00004E
:10737000C52F00008D2C0000FD2B0000892100008E
:10738000412C000000000000436174656E61576984
:107390006E674672616D326B3A3A476574506C6144
:1073A00074666F726D466F72494420656E746572C3
:1073B00065640A004469646E27742066696E6420FF
:1073C00053797345554920656E7472793B207A650F
:1073D000726F206C6F63616C20636F70790A004478
:1073E00069646E27742066696E64204652414D20A0
:1073F000656E7472793B207365617263682077658E
:107400006C6C2D6B6E6F776E0A004652414D206397
:107410006F6E74656E747320617265206E6F742078
:1074200076616C69642C20726573657474696E672B
:107430000A00000000000000000000000000000042
:10744000AD210000DD220000A92D0000CD2D00009F
:10745000C52F00008D2C0000FD2B000089210000AD
:10746000B14F000000000000E0740000812E000019
:1074700025733A20756E6B6E6F776E0A0025733A2E
:10748000206E6F7420696E697469616C697A6564D5
:107490000A0025733A2072656164206572726F720A
:1074A0000A0025733A20696E76616C696420706108
:1074B00072616D657465723A2025730A0025733A0E
:1074C00020636F756C64206E6F74206372656174E5
:1074D0006520656E7472790A0073797374656D0046
:1074E000636F6E66696775726500506C6174666F74
:1074F000726D4755494400537973455549004F70A3
:1075000065726174696E67466C61677300646F438E
:107510006F6E666967757265006C6F616443616365
:10752000686500634672616D3A3A437572736F72B3
:107530003A3A6C6F6361746500000000000000005F
:1075400001010125733A206672616D206E6F74200F
:1075500072656164790A0025733A2072656164205E
:107560006572726F72206174206F66667365742035
:10757000307825780A0025733A20696E76616C6947
:1075800064206F626A656374206174206F6666733D
:10759000657420307825780A0025733A207265706A
:1075A0006C69636174696F6E206D6973706D61746D
:1075B0006368206174206F66667365742030782577
:1075C000780A0025733A206D69736D6174636820D1
:1075D00073697A65206174206F6666736574203004
:1075E0007825782C20676F742025752C206578709D
:1075F00065637465642025750A0025733A2063610C
:10760000636865206B657920307825782061742067
:107610006F666673657420307825780A0025733AA2
:10762000206B6579202575206174206F666673650F
:10763000742030782578206475706C696361746596
:10764000206F66206F666673657420307825780A2F
:107650000025733A206361636865206C6F6164651F
:1076600064207468726F756768206F6666736574EE
:1076700020307825782028656E64206F66667365F3
:10768000742030782578290A0025733A206D6973B3
:107690006D6174636820677569642F6B657920611B
:1076A00074206F666673657420307825780A0072DE
:1076B000656164206661696C65643B20657870650E
:1076C0006374656420307825782C20676F742030CF
:1076D0007825780A006669727374206F626A656340
:1076E00074206E6F74207374616E646172643A20EA
:1076F000253038780A006775696420646F65736E99
:107700002774206D61746368204652414D2067756F
:1077100069640A006B6579206973206E6F74206B51
:107720004865616465723A20253032780A006572D6
:10773000726F722072656164696E6720656E642085
:10774000706F696E746572206F666673657420254C
:10775000750A206E526561642025750A006669729B
:107760007374206F626A6563742073697A65206E32
:107770006F742076616C69643A2025303878206F08
:10778000626A65637453697A652825752920646186
:10779000746153697A65282575290A00696E7661D6
:1077A0006C696420656E6420706F696E7465722008
:1077B00025750A0025733A20656E6420706F696E26
:1077C0007465722073657420746F20307825780A90
:1077D0000025733A206F666673657420666F7220A9
:1077E000754B65792825752920696E76616C696409
:1077F000210A0025733A206E427566666572282557
:10780000752920213D206974656D2E676574536963
:107810007A652829282575290A006B65792830782A
:10782000257829207772697465206E6577207665E2
:107830007273696F6E282575293A20626173652815
:10784000257529206F666673657428257529207350
:10785000697A65282575290A0025733A2063616EC7
:10786000277420616C6C6F63617465203078252308
:10787000782062797465730A0025733A20696E7600
:10788000616C6964206974656D206B657928307856
:107890002578290A006C6F636174656400626F75F6
:1078A0006E640025733A2063616E277420707574CE
:1078B00020746F20756E257320637572736F723A32
:1078C000207553697A6528307825782920754B65AD
:1078D00079283078257829207556657228257529EC
:1078E000206F66667365742830782578290A00252C
:1078F000733A2063616E2774207361766520754B3F
:107900006579283078257829202575206279746575
:10791000730A0025303278257300634672616D3A30
:107920003A437572736F723A3A70757400697356A0
:10793000616C69640077726974654974656D44614E
:10794000746100736176654669656C64001DE7CDFE
:10795000CD06474B3CA18D8138A3D9613F68617248
:1079600064006672616D0064756D700072657365A8
:107970007400000067790000C53A00006C790000CF
:10798000893A000060480ACBDC5D4148B6C9ACA129
:107990003449CF1D9C7A0000191C00000000000033
:1079A000E2DECCC855FA4BD394C3CE66BCD0BAAC99
:1079B000807A000001000000000000000E2F07D9AF
:1079C0003074406B9433CD558CC24FB1F07A0000C7
:1079D000F900000000000000EA8568EC5DAE46EEAC
:1079E000929AA3F6B00A565E9C7A0000191403001E
:1079F00000000000E19FE1DD68814EF0AD01C1B6FD
:107A0000E19EDA34F07A0000F90100000000000085
:107A10003BAB150F6E324459A2B672ACED75059FA3
:107A2000647A00000102000000000000CC0889AD6B
:107A30008DB8485A9EDC01FC7846AFC4F07A00004D
:107A4000F90100000000000082BF266170CB45AE46
:107A5000B620CAF695478BC184790000191C000234
:107A600000000000F6A15678C7F343F4AC5767EF67
:107A70005CF755410000000000000000000000001D
:107A80002E6DFED4F57747D59137B3E63976AE92B1
:107A9000000000000000000000000000A67AD93CB1
:107AA000551A47D29ADBE249B4CF915AA079000027
:107AB00009000000000000002281255EAC5C48CB7C
:107AC000A2639DC890D1663884790000D91D000456
:107AD00000000000DD0A37A6E46943ECB173FED76D
