:1020000000800020ED690000D5690000D56900005E
:1020100000000000000000000000000000000000C0
:10202000000000000000000000000000D569000072
:102030000000000000000000D5690000416A0000B7
:10204000D5690000D5690000D5690000C5640000AD
:10205000D5690000D5690000D5690000D969000084
:10206000D569000021690000D5690000D56900002C
:10207000F9680000D569000031690000D5690000E9
:10208000D5690000D5690000D5690000D569000058
:1020900000000000D5690000D5690000D569000086
:1020A000D5690000D5690000D5690000D569000038
:1020B0000000000010B5064C2378002B07D1054B1B
:1020C000002B02D0044800E000BF0123237010BDA4
:1020D000300100200000000074A2000008B5084B89
:1020E000002B03D00748084900E000BF07480368F9
:1020F000002B03D0064B002B00D0984708BDC046EC
:102100000000000074A2000034010020240100201F
:1021100000000000014B03607047C046F0960000CD
:1021200010B5041C2368201CDB6898470028F9DAE6
:1021300010BD08B503689B69984708BD08B540689D
:1021400003689B69984708BD08B540680368DB6968
:10215000984708BD08B5406803689B68984708BD64
:1021600008B540680368DB68984708BD08B5406853
:1021700003685B68984708BD08B5406803685B69F9
:10218000984708BD10B5034B041C036005F06AFBBB
:10219000201C10BDF0960000064B10B50833041C3F
:1021A0000360006F002801D005F05CFB024B201C8F
:1021B000236010BD58970000F096000010B5041C75
:1021C000FFF7EAFF201C05F04DFB201C10BD38B5C1
:1021D0000568041C002D05D0281CFFF7F8FF281CFB
:1021E00005F040FB6068A060002801D005F03AFBD4
:1021F0006068002801D005F035FB201C38BD0000C8
:10220000064B1A68002A00D11860054A1368002B93
:1022100000D0186000231060036070475C0200204B
:1022200068020020F7B52F4D281C04F06BF92E4EE4
:102230002E4C3378FF2B07D12D4B1B78002B20D051
:102240002C4B00221A701CE03378DBB20193002B78
:1022500014D1294F3B780133DBB23B70274B186810
:10226000FFF7CEFF2649201C04F0D8FE3978201C49
:10227000C9B20A2204F055FF019B00E001231D4A68
:1022800013703378013BDBB2337004F0E7FB1D4B76
:102290000A3018601C4B281C0833DA6F1B4BD2B273
:1022A0001A7004F0A7F91A4B1B78C1183B2900DDFE
:1022B0003C39281CC9B204F05FF9281C04F0A4F9C9
:1022C0000A22011C201C04F028FF1249201C04F0E3
:1022D000A5FE281C04F08EF90A22011C201C04F023
:1022E00020FFF7BD7C020020A0010020F4050020A3
:1022F0000900002048020020A201002074020020F2
:102300008497000050020020A40100205502002004
:1023100054020020A0970000064B1868002808D03F
:102320000168054A196011680023814200D11360D9
:10233000036070475C020020680200200A4B0B4AD1
:102340001B680B4913600B4A1268101D08600A498C
:10235000581C0860094907300860094991805A787B
:102360000B210A435A7070470400002070020020BD
:1023700078020020100000205802002044020020B3
:1023800003400000024B02221B681A707047C046CF
:1023900070020020024B00221B681A707047C04672
:1023A0007002002008B50249082207F095F808BD20
:1023B0009899000008B50249082207F08DF808BD79
:1023C000C899000008B50249102207F085F808BD39
:1023D000B8990000F0B58BB0051C03F053FB664CB8
:1023E000011C0A22201C04F066FE201C634904F034
:1023F00015FE681E102800D9B1E006F0FFFA090C9E
:102400000F121518B06E7174979A9DA0A8B0AB000A
:10241000201C5B49A0E0201C5A499DE0201C5A4921
:102420009AE0201C594997E0201C594994E05949E9
:10243000201C02AE06AF04F003FE00253B1C321C3C
:10244000684601A90095019503F02EF85249201C19
:1024500004F0E4FD0A220099201C04F076FE4F49A6
:10246000201C04F0DBFD0199201C102204F06DFEFD
:102470004B49201C04F0D2FD795D201C102201354F
:1024800004F04BFE102D04D0002DF5D0201C454942
:10249000F0E7454F201C391C04F0DCFD201C4349AB
:1024A00004F0BCFD0025715D201C1022013504F0F4
:1024B00034FE102D06D0002DF5D0201C394904F033
:1024C000ADFDF0E7201C391C04F0C4FD384B01229F
:1024D00000201A7002F0D8FF4CE0201C354930E093
:1024E000201C35492DE0201C344904F0A9FD344E50
:1024F000AA23FF33F35C7F2B03D9201C314904F05E
:102500009FFDAC25FF35735D002B0CD02E49201CA0
:1025100004F096FD715D201C0A2204F002FE201CCE
:102520002A4904F08DFD0122294B0EE0201C294987
:1025300007E0201C28490FE0201C28490CE028490E
:10254000201C04F07DFD274B01221A7012E0201C94
:10255000254901E02549201C04F072FD0AE02449C8
:10256000201C04F057FD291C0A22201C04F0E3FD66
:10257000FFF708FF0BB0F0BDF40500201D99000027
:10258000A2970000B2970000C2970000D397000006
:10259000E5970000F0970000FA970000029800000D
:1025A0000C980000159800006AA100001798000020
:1025B0006C020020209800002F9800004098000036
:1025C000A80C0020709800007D98000087980000FB
:1025D0000900002099980000A7980000B09800001A
:1025E000BE98000049020020CB980000D998000056
:1025F000E498000010B50C4B0C4C4C331A88802327
:10260000134002D0201C0A4908E00A4A0120116840
:10261000094A127802F018FF0849201C04F010FD46
:10262000074B00221A7010BDA80C0020F4050020F2
:10263000F49800004C0200201B0000200D990000BF
:102640000900002010B503F00DFA02F097FE0020FB
:1026500002F01AFF0E21032002F08CFE012002F08E
:10266000FFFF012005F0FAF80D4B1860FF230370FF
:10267000FFF764FE0B48FFF7BDFF0B4B1A780132E2
:102680001A700A4B00221A701C1C2378002B02D1EE
:1026900003F04CFAF9E7064B00221A7010BDC04651
:1026A0004C0200204C010020A10100206C020020FF
:1026B0004902002038B5041C2160081C09684D68D7
:1026C000111C1A1CA847E079012806D9012104F041
:1026D00075FBE079002104F0CBFB206803685B699F
:1026E0009847221C002349325370137001325381E2
:1026F00008321380023A13806423A38038BD00009F
:1027000008B5024BFFF7D6FF08BDC04633040000F2
:1027100010B5041C04F0A2F9E36DC01AC317181A0F
:10272000C00F10BDF7B5051C49350026041C0191EA
:102730002E70206803689B68984700280DD02F787A
:102740003F2F01D90126F4E77B1C20682B7003681A
:10275000E719DB6898477872EBE7231C50331A8837
:1027600001321A80002E08D054342388019A013394
:10277000238003235B42138001E0019B1E802878A5
:10278000FEBD000030B50D4B021C141AE4B28C42A1
:102790000FD2547A6340082401251D405B08002DA8
:1027A00001D0074D6B40013CE4B2002CF4D1013262
:1027B000EBE71A0A1802104380B230BDFFFF000099
:1027C00001A0000070B5051C49352E78041C311C91
:1027D000FFF7D8FFA31902125A72731CDBB2E31879
:1027E000023658722E70E07901280CD9012104F0CC
:1027F0003FFBA388002B06D030205843032106F06E
:1028000011F90138FDD12068211C03682A781B6961
:1028100009319847E379012B07D9206803689B6940
:102820009847E079002104F023FB206803685B6986
:10283000984700232B7004F011F9231C56331B8892
:10284000C018E065523423880133238070BDF0B591
:10285000041C85B0081C0393A379000A0E1C019187
:102860000292CDB2C0B2310C92B2002B60D1237A69
:10287000002B5FD16B1EDBB2F62B5DD8039B65721C
:10288000A0720D120138E364E57221730F2848D855
:1028900006F0B4F8080808080C18474747474747A8
:1028A00047471D2A13126373A27306E01B885A1E42
:1028B00093415B4263730023A3730622231C4933B5
:1028C0001A702EE01A88121262731B88F4E713093B
:1028D0005B00DBB2110701D00133DBB21112A2732E
:1028E0006173E3730722E9E7111261735100E17329
:1028F000211C07204931A27308700020904210D09B
:102900000D781F8866193F1277726E1CF6B20E7032
:102910001F88A61902350130777280B20D7002331C
:10292000ECE7201CFFF74EFF01232372002004E098
:10293000FE2002E0FF2000E0FD2040B205B0F0BD27
:102940001FB50C30FFF783FF05B000BD016F436F6B
:1029500070B55A1A164992104A43041C0C30002ACA
:1029600009D00C3B19685A689B68FFF770FF636FCA
:102970000C3B63671BE0251C88352B68211DC96F44
:1029800001332B608B4200DB2A602B680C267343DB
:10299000E26F9958D3185A689B68FFF758FF296867
:1029A000E26F4E439619231CB28894331A6070BDAF
:1029B000ABAAAAAA38B5031C49331D78041C032D01
:1029C00005D8543423881848013323802AE0A91EEF
:1029D000C9B2FFF7D7FE6519EB792A7A1B021343B8
:1029E000984205D05434238810480133238019E0DD
:1029F000A27A002351B2994206DA231C54331A8872
:102A000001321A80E07A0DE00949595C914208D000
:102A10000133082BF8D1543423880120013323805B
:102A200000E0002000B238BDF9FF0000FCFF00000C
:102A30003497000070B5051C00246300E97ADA1CA5
:102A4000D2B249088C420AD2E96CAA18CE18507A40
:102A5000917A04F0D9FE01343080E4B2EDE770BD24
:102A6000F7B5041C006803689B689847071C201C86
:102A7000FFF74EFE061E0BD0002323720622231CF6
:102A8000603352421A80543423880133238031E06A
:102A9000002F01D1002039E0251C4A352B789F42B8
:102AA00005D02F7003F0DAFF0530A065F2E703F0E0
:102AB000D5FFA36DC01AEDD46F4606372E70201CCB
:102AC000391CFFF72FFE3D88002D09D0231C6033F1
:102AD0001D80267254342388E8B20133238015E028
:102AE000201CFFF767FF3880002805D0231C6033C7
:102AF00018802572FF2009E0A37A033B012B02D83E
:102B0000201CFFF797FF00232372012040B2FEBD77
:102B100008B50C30FFF7A4FF08BD000010B5094C44
:102B2000201C03F0EFFCFFF78DFD201C03F062FD7D
:102B3000411CC9B2201C03F01FFD201C012103F021
:102B4000CFFC10BD7C020020F8B50F1C43688168E3
:102B5000041C8B4207D03A78002B00D01A706368AF
:102B6000013363602CE002689B1A03D05E009E4232
:102B700005D301E0012604E0351E06D001E0012660
:102B80007642301C04F066FE051C226861688B1AD0
:102B9000EB183A78002B00D01A70216863685F1A2E
:102BA00003D0281C3A1C06F0A0FC2068EF1901375E
:102BB000002801D004F056FE2560AD196760A560BD
:102BC000F8BDF0B587B002910392861C0025029BE8
:102BD0009D4246DA3388FF241A041343E4051C405F
:102BE000E10D081C7F38021C183221DB021C0E325A
:102BF0000ADADA0F7123591A8023DB000B41D20362
:102C000092B29BB2002116E0DA0FF821D203C9017B
:102C100092B2102805DCC82000062418640B21405D
:102C200003E0802801D0002305E05B029B0D02E059
:102C30000023191C1A1C0A43039F13436C46E375B7
:102C400004371734381C211C0193FFF77DFF019ACC
:102C5000381C130A211C23700235FFF775FF043658
:102C6000B5E707B0F0BD0000F0B58E4D85B028780F
:102C7000C0B2062800D913E105F0CAFE07005500CE
:102C80005D006E009F00BB000801FFF77BFB10207A
:102C900004F0E0FD844F00230360041C4360836064
:102CA000C3603860012004F0D5FD6268A168061C8D
:102CB0008B1A7E4AC3181278002B00D01A706168F4
:102CC000A3685F1A03D0301C3A1C06F00EFC606843
:102CD000F7190137002801D004F0C4FD7249A7603C
:102CE000734F666009680136E660381C0E1C03F0FD
:102CF0008BFC6C46E07304360F34301C211CFFF74C
:102D000023FF694A381C166803F074FC04362070EF
:102D1000211C301CFFF718FF664B1A78664B013AEE
:102D2000D2B21A704EE003F099FE644B1B68C01AD1
:102D3000002847DCB4E062480022031C6C331A8090
:102D4000FFF704FE2B780133DBB22B705D4B1A7852
:102D5000013AD2B21A70A3E0594C201C0C30FFF794
:102D60007FFE237D002B00D09AE0231C6C331E884D
:102D7000002E0AD0544C5549201C04F04FF931B2B2
:102D8000201C0A2204F0B5F98AE0231C8C33186851
:102D9000454B94341A682168FFF713FF494B1A78A2
:102DA0000123002A02D12B780133DBB22B7003F010
:102DB00055FE424B0A30186072E0454F02243B78C2
:102DC000A34207D82B780133DBB22B7068E0013CBB
:102DD000002CF7D0FFF7A0FA3B78061C013BDBB2D2
:102DE0003B700028F3D0FFF7F2F9301C04F03AFDF5
:102DF000EDE7384B1B78002B3FD0374B1B68002B7F
:102E00003BD0364F3868002801D004F02FFDFFF783
:102E100083FA2F4E41683378314A013BDBB233707D
:102E20008368041C581A1070C0B204F017FD616862
:102E3000A36838605A1A2A4F01D006F056FB294879
:102E4000FFF7D8FB204E2849301C04F0E7F80A228F
:102E50003978301C04F061F92449301C04F0DEF8A4
:102E60001B4A301C11780A22C9B204F05AF9201CFE
:102E7000FFF7ADF9201C04F0F5FC2B780C4801336A
:102E8000DBB201212B7003F02BFB09E002F04EFEB8
:102E9000FFF780FA164B1B78002B01D0FFF73EFEA0
:102EA00005B0F0BD4802002074020020A1010020FE
:102EB0007C02002008000020A00100205002002019
:102EC000A401002055020020F405002049990000CB
:102ED000A2010020090000205C0200204C0200201A
:102EE0001B0000204C010020509900005A9900005E
:102EF00049020020F7B5041C019140682168224F67
:102F0000421A92107A432149002A04D053000E1C21
:102F1000934209D300E001231E1E8E4201D91B4EAD
:102F200002E00025AB4204D00C20704304F092FC78
:102F3000051C626827681448D31B9B1043430C226E
:102F40005343EB18002B02D0019985C985C3216832
:102F500062680D4F531A9B105F43002F04D00C2260
:102F60007A43281C06F0C1FA0C235F432068EF194E
:102F7000FF18002801D004F075FC0C235E43256087
:102F8000AD196760A560F7BDABAAAAAA555555153E
:102F9000F0B589B000930EAB1B88041C0293031C90
:102FA0000833D86F231DDB6F0191151C834220DB92
:102FB000E66FAA23039640001B05984202D80C2313
:102FC000584301E00120404204F048FC0021E06742
:102FD000231C0833DA6F914209DA0C224A43E76F67
:102FE000039EBB18B218C1CAC1C30131F0E7520039
:102FF000DA67042D1AD9019F05A90F704D70029E42
:10300000009D0F9F636FA06F4D808E808F60834205
:1030100007D0002B01D0E0C9E0C3636F0C336367B6
:103020001CE0201C7030FFF765FF17E0231DD96FEF
:103030000C225143E06F019E0E54D96FE76F51434C
:1030400079184D70D96FE06F4A43009D029E0F9F23
:1030500082180131558096809760D96709B0F0BD1C
:10306000F0B5071C87B0059390370CAB03911D8812
:103070003968061C041C04928C368D420ADC0095CB
:103080003668201C01960399049A059BFFF780FF80
:1030900007B0F0BD30683D60002801D004F0E6FBC9
:1030A0003868FE239B05984201D8400001E00120CA
:1030B000404204F0D3FB231DDA6F306000239342BB
:1030C000DDDA0C215943E76F013379188860F6E7A0
:1030D000F0B50E1C151C0F1C87B0360AADB21C1CB7
:1030E000C9B2F2B23B0C0095002C02D1FFF7B8FF39
:1030F00002E00194FFF74CFF07B0F0BDF8B52A4E8F
:103100002A49301C03F0A6FF1120012103F056FECE
:103110001120012103F0ACFE254C9622201CD20187
:103120000C302449FFF7ECFA231CFA226233D20058
:103130001A80642323820025271C0C236B431E4A1C
:10314000381C9958D3185A6801359B68FFF7C0FF9F
:10315000062DF2D1FFF776FA184C0021201C03F05F
:103160008DFA201C0A2103F007FA201C144903F0F1
:10317000D7F9201C002103F0EBF9201C002103F0FB
:10318000D5F908370F4BFA6F1D700F4BD2B21A707A
:103190000E4BFF22301C0E491A7003F05BFF201CFF
:1031A000012103F09DF9F8BDF40500206D990000A0
:1031B000A401002060020020580100207C020020B1
:1031C000252200004802002055020020A001002016
:1031D0007C99000070B5354803F070F9344B354ADE
:1031E000181C111C70C970C03349021C70C970C210
:1031F00032493C3331C931C2314951C951C23149D7
:1032000061C961C2304A0C2032CA32C32F4C12232A
:10321000E374FA22231C920062331A802C4B00259F
:1032200008332360231CA5746560A5606F33256790
:103230006567A5671D7004F011FB231DDD67231C66
:1032400001260833DE67231C7242E06788330220C0
:103250001A6004F003FB231C8C331860231C90338A
:103260001E60231C943304201E6004F0F7FA231C14
:1032700098331860231C9C331649201C164A1E6084
:1032800006F0D8F8154B164A10201A60154A5A60F5
:1032900004F0E0FA144B05601860144B45601A788E
:1032A000134B013A8560C5601A7070BD7C02002026
:1032B0005801002028970000A099000048970000BE
:1032C000AC9900003C97000078970000A401002012
:1032D00058970000992100000000002060020020A3
:1032E000089700004C040020740200201A000020FF
:1032F0005402002030B5041C1034031CA34212D029
:10330000051C0F35EDB2DAB20021954200D0597894
:103310001A7849B25200D2B2002901DA01210A43D7
:103320001A700133EAE730BDF0B50823061C85B0FA
:103330000D1C141C9E43022E05D0042E7DD0002EA1
:1033400000D08BE060E0474E184215D0301C0021C1
:10335000102206F0E3F8002C52D00023F21828784F
:103360001178013C414011705A1CD1B20135A4B210
:103370000F2B06D1002C0ED0301C3B4900F0EAF890
:10338000E9E7131C002CE9D1731819788022524206
:103390004A401A70012400211022684606F0BEF847
:1033A0006846314900F0D6F8684607787F239F4386
:1033B000FFF7A0FF002F05D06946CA7B79235B4247
:1033C0005340CB73002C0FD06A4614787F23684695
:1033D0009C43FFF78FFF002C06D06B46DA7B7923E6
:1033E0005B4253406846C3730023F2186946C85CC9
:1033F0001178013341401170102BF6D10024BBE746
:10340000301C00F0ADFD2AE0A64227D2A8191649CB
:10341000103600F09FF8F6B2F6E70133002C08D022
:103420002A78F95C013C4A402A70A4B201350F2B7E
:10343000F3D10C4EF37B0133F373002C0CD0094A0B
:103440006B4643CA43C3126868461A60064900F0D7
:1034500081F86F460023E3E7201C00E0002005B060
:10346000F0BDC046980C0020E80B002070B500228B
:10347000910041180023074C0E78A418E55C013137
:103480007540E5540433102BF5D10132042AEFD1F5
:1034900070BDC0467D0200200C4B59791A79197114
:1034A00099795971D979DA719971997A1A7A197267
:1034B000D97A9A725A7A5972997BDA72DA7BD9730D
:1034C000597B9973197B1A73597370477D020020D9
:1034D00073B500228C18247B01ABD4540132042A2A
:1034E000F8D15C781A781C709C785C70DC78DA70A3
:1034F0009C7000229C5C0F2625093440144E2D013F
:1035000075192C5D9C540132042AF3D10122012843
:103510000BD0151C7F245200A543D2B2802D01D1BF
:103520001B2462400138C0B2F1E7187842401A709B
:10353000042000229D5C8C5C6C408C549C540132B5
:10354000042AF7D10138C0B204310028F1D173BD8B
:10355000D0990000F0B500228DB0061C90008019B3
:10356000039000230398534CC05C9D00171901334E
:103570007855042BF6D10132042AEFD10023CA5C1E
:1035800008A81A540133102BF9D1FFF76FFF01255A
:10359000231C0022995C0F200F09014046483F017F
:1035A00084466744795C99540432102AF2D1434925
:1035B00001338B42EDD1FFF76FFF3E4B00229100AC
:1035C000595C1827BF18684639544F0049B2FFB2FA
:1035D00007A8002901DA1B214F4087540132042A31
:1035E000EDD16946497E07AA0391039F1178684689
:1035F0004F400497807E69460590C97E02915178BC
:10360000029F41404F400498391C4140BC466F46E0
:103610001970397E907867464F40474001901F717E
:103620000298039FD2787840071C01984F4047408A
:1036300057401F72059F049879404A4042401F49F5
:103640001A7301338B42B9D1281C08A90135FFF741
:103650003FFFEDB208A8FFF709FF0A2D98D1201D02
:10366000221C0023D15C0F270D093940124F2D0178
:103670007D19695CD1540433102BF3D1013282429D
:10368000EFD1FFF709FF0A2008A9FFF721FF08A8DB
:10369000FFF7ECFE00229000301800239D00111966
:1036A000495DC1540133042BF8D10132042AF2D10F
:1036B0000DB0F0BD7D020020D099000081020020F5
:1036C00008B5064B1A685378FF2B06D09179091A72
:1036D0004A1E9141181C03F0CBFB08BD9402002048
:1036E00038B50A4D041C2B689878FF280DD0012CA2
:1036F00008D8012103F062FB2B68211C987803F0A5
:10370000B7FB02E0002103F059FB38BD9402002012
:10371000024B07201B6818567047C04694020020D1
:1037200037B5041C0F4D1048002C12D12B689B6834
:10373000002B00D10D4B0E4A934200D9131C6A4650
:10374000191C0093002353711371019A02F066FE55
:1037500001E002F07FFE2B68211C187803F088FB43
:1037600037BDC04694020020BC02002040420F003A
:10377000001BB70008B5011C014802F07DFE08BD22
:10378000BC02002038B503F06FF9064A030F117828
:1037900008254B402B40CB18DBB204091806204308
:1037A000137038BD8D02002010B5041CFFF7EAFF2E
:1037B000241AFA239B009C4205DD102003F086F9B1
:1037C000064BE418F5E7002C07DD240130206043A8
:1037D000032105F027F90138FDD110BD18FCFFFFCA
:1037E00010B5041CFFF7CEFF201A431E1843C00F6C
:1037F00010BD000072B6024B1A7801321A70704781
:1038000098020020F8B5114A1378013BDBB213701F
:10381000002B19D162B600240D4BE6B21B681B19B0
:10382000D878FF280DD00B4D675D03F051FB874220
:1038300007D0635D01225340635502D0301C02F073
:103840003BFC0134032CE7D1F8BDC04698020020B0
:10385000940200208E0200207047000070B50D4CCD
:10386000061C0D1C201C0C4903F0F4FB311C201C11
:1038700003F0D4FB3A21201C03F0D4FB291C0A22BC
:10388000201C03F036FC201C04F006F8FFF7B2FF02
:10389000FEE7C046F4050020D09A000010B51F4C8A
:1038A000031C20600078FF2802D11D481A2104E083
:1038B000DA78FF2A03D11A481B21FFF7CFFF9A8835
:1038C000184B9A4202D116481C21F6E7012103F059
:1038D00075FA23685878FF2802D0012103F06EFAA8
:1038E00023689878FF2802D0012103F067FA236843
:1038F0000021D87803F062FA23681879FF2802D0F3
:10390000002103F05BFA23685879FF2802D00021D8
:1039100003F054FA044802F059FD10BD940200204F
:10392000D99A0000FFFF0000BC0200201F4BBE21FF
:10393000002249005A50191CFC31CA67191C523127
:103940000A70C32149005A548621FF315A54C121BB
:1039500049005A54C02149005A54C52149005A54BB
:10396000CA2149005A54C42149005A548A21FF31BE
:103970005A549821FF315A54191C4E310A70822131
:10398000F420FF315854C6210820490058540849F2
:10399000C8204000195007481A54D22252009950AA
:1039A000CC220A21520099547047C046A80C00202E
:1039B000A0700837AB02000010B51A4C231CFC3372
:1039C0009B6F002B04D0231C4C331B885A0703D554
:1039D00015481649FFF742FF221C4C32118840233C
:1039E0000B401ED112482354C02040002354D42041
:1039F000400023548123994301231943118001F08E
:103A00008DFE02F03FF80B4B0B4AC118AD23201C72
:103A10009B001C30E150616002F066F8032002F068
:103A2000D7FB10BDA80C0020369B00007E050000CF
:103A3000BA02000024067B00994C000008B5034A36
:103A4000034B02205A6202F0C3FB08BD094D00007F
:103A5000A80C002008B5034A034B02205A6202F06A
:103A6000B7FB08BD51510000A80C002008B5AA22E0
:103A7000084B0121FF329954D98A802291430A438D
:103A8000DA82AC220021FF3258620220995402F0FF
:103A90009FFB08BDA80C002008B50248FFF7E6FF11
:103AA00008BDC046E952000008B50248FFF7DEFF36
:103AB00008BDC046DD50000008B5AA220B4B02200D
:103AC000FF329854C62252009A5C0949895C8022D0
:103AD00091430A43DA82C82252009A5800211A619F
:103AE000AC22FF32995402F073FB08BDA80C0020F1
:103AF000EF9B000008B5034A034B5A62FFF7DCFF57
:103B000008BDC04629530000A80C002008B5034A90
:103B1000034B5A62FFF7D0FF08BDC04615510000A5
:103B2000A80C00200000000070B5061C224C0029E3
:103B30000ED0221C002354321380221C58321380D2
:103B40009622FF32A3541D4B0C21E25C0A43E2543F
:103B5000082001F0C5FC134B114A051C0021301C44
:103B600005F054F8104A114B80185941104A114B76
:103B700005F008F8291C04F0A3FFAB22431DDBB2BB
:103B80009200A354AD229200A2580D495218082168
:103B9000CB1A5D435519AC229200A55070BDC046AA
:103BA00024F4000000000000E70300000000000013
:103BB000E803000000000000A80C0020BA0200008A
:103BC00000127A00C046C046F8B50E1C184C0028FA
:103BD00008D1231C543300215D5E231C5633002280
:103BE0009B5E0CE0221C54320023D55E221C563210
:103BF0000021525E031C45435343ED11DB11221C8F
:103C000058320021525E9621FF31675C301C5743C9
:103C1000DF1901F065FC011C381C04F051FF053070
:103C20002076301C01F05CFC8300C01A4019F8BDFE
:103C3000A80C0020F7B5061C101C019101F050FCE7
:103C4000194C05232376231C5A331A88051C002A95
:103C50001AD00023F117301C04F0D8FFCB179C4674
:103C60006746BAB2002312184B411B04100C1843CC
:103C7000FA236B43834202DAFF23237604E0291CF4
:103C800004F01EFF053020762368201CF618EB0098
:103C9000F618237E1C305D43751B291C7D39019A63
:103CA000656001F021FFF7BDA80C00200A1C094B3C
:103CB000803202D01A1C4F3211701A1C5032117807
:103CC000814206D010704C331988802212010A43B9
:103CD0001A807047A80C0020F0B585B0051C039130
:103CE0000024039EB44200DB19E1285D023810284D
:103CF00000D914E104F08CFE110013008C00580070
:103D00005100A40013011101130113011301130148
:103D1000130113011301D300E3000334E1E72B196E
:103D20005E78A21C1B79AA18517802930196862707
:103D30007C4E127887230298FF37F35509020F2330
:103D40009843114301F092FD0534331C002803D140
:103D5000F25D01218A43F2550199734A0809125C08
:103D6000FF2A03D1F25D02218A43F255F15D7F22E1
:103D70000A40072A0CD1029A0F210A404E331A70CA
:103D8000019A1E2311404900591A49B2FFF78EFFCC
:103D90000122C1239340F254A3E70121C323614AC6
:103DA0008B40D15464189CE72B195E780F2737405D
:103DB000A01C7606760F2818029601F099FB594B45
:103DC000CA228021520099545749C95DFF2901D068
:103DD00082219954002803D09E5C01210E439E54F9
:103DE000029ECA225200032E03D8995C0426314356
:103DF00099549A5C872A09D1C62252009F54C8223E
:103E000052009850029E8C22FF329E54053468E77F
:103E10002B195B78434EFF2B05D1321C4C32118895
:103E20004020014311800F221340321C4332137093
:103E300001F028FE8A230122FF337064F2546CE003
:103E40002E1970780190A01C281801F051FB76798A
:103E5000344F0296C52676008023011CBB551CD02A
:103E6000029A0F201309C31A9C46304B60461A1C55
:103E700002419446029A0F20024093401A1C634666
:103E80001A40012392B201985B4201F045FB0028E1
:103E900003D0BB5D03221343BB55063421E7601CEE
:103EA000281801F025FB1F4B8022002803D0D222C6
:103EB0005200985081229821FF315A542BE0194E1C
:103EC0000221331C4C331A880A4224D12819C7789E
:103ED0000A4317481A80CB2337545B00F35C002B4E
:103EE00003D114481449FFF7B9FC631CEB185A7846
:103EF0001B7812021A43114B70685A43104912186A
:103F0000AD2352189B00F2500E4B00221E200121BF
:103F1000F254FFF709FE0434E3E60234E1E6201C24
:103F200005B0F0BDA80C0020EF9B0000FFFF0000D3
:103F3000AB020000369B0000B102000053070000F6
:103F4000AAF185FFBA0200004278837812021B04AE
:103F50001A4303781A43C378101C1B061843704792
:103F60008278437812021B041A43C3781A430378F9
:103F7000101C1B06184370470B0A017043700B0C92
:103F8000090E8370C1707047F7B5134C10250E1CD5
:103F900000900192201C2A1C00211F1C05F0BEFA73
:103FA0000123E37323707B1E9F41311C6771A01DA9
:103FB000FFF7E2FF201C01990A30FFF7DDFF2A1C02
:103FC0000099064805F088FA099B08999AB20420DE
:103FD000FFF7AAF9F7BDC046980C0020E80B0020B7
:103FE000F8B510273A1C0021244805F097FA244D13
:103FF0002449AF236C1800269B00E1582E606E60A8
:104000002148FFF7B9FF281FB83DA96FFFF7B4FF9C
:104010003A1C301C1C49FFF787F9AD229200A258C8
:104020001A499A235218AE21FF31655CD621490006
:10403000615CFF33E35C2D020D4315480721C91A6B
:104040000841144905404D435519CE225200A55050
:104050000120CD2252009840CC23A6545B000230B0
:10406000E15CC0B2FFF7B0FDD0232D1A5B00E55034
:10407000227E9C23FF33E254F8BDC046E80B0020AB
:104080005C0E00204CFEFFFF540E00209405020041
:10409000FF0F000053070000F8B50D4B0D1C1C1C52
:1040A0004C3421880B4A1F1C0B4B061C0A409A42B9
:1040B00006D1FFF795FF228880239B0013432380BE
:1040C00001F046FB7A7E301C291CFFF7B3FDF8BDDA
:1040D000A80C0020020600000204000008B5054AF2
:1040E0008423FF33D35C044804495843FFF7D4FFCB
:1040F00008BDC046A80C002024F40000993A000036
:1041000008B502480249FFF7C7FF08BDB4C4040060
:10411000A93A00000B0AC17083700B0C090E4370A2
:104120000170704730B5031C411800208B4211D03C
:104130001A7812025040082205B24400A0B2002DA5
:1041400002DA05484440A0B2013AD2B2002AF3D1C3
:104150000133EBE730BDC04621100000F8B5344A0A
:10416000AC23FF33D35C132B03D032483249FFF723
:1041700075FB324D0721281CFFF7D4FF2A7AEB7913
:104180002F4912021A436C18002382424ED0281C79
:10419000FFF7DAFEA36C0002000A984244D1294ED0
:1041A0000321A75D284B8F43A755627D2749E25421
:1041B000227DAE239B00E2546368E81C5A18AD23AD
:1041C0009B00E250FFF7C0FEAF239B00E0500123AD
:1041D0003B43281C1121A355FFF7A4FFDF235B00FD
:1041E000E25CBE23FF33E35C12021A4301238242E6
:1041F0001CD1281C0930FFF7A7FEB1239B00001239
:10420000E050281C0C30FFF79FFEB2239B000012E9
:10421000E050B623FF33E25CB0239B00E25403235B
:104220001F43A755022301E001235B42181CF8BD80
:10423000A80C0020369B00000D020000540E002048
:1042400054FEFFFFBA020000B902000060EEFFFF5B
:104250000722032302405A430349D84003408A18E7
:10426000D05C8D387047C046219B0000F0B5AC2271
:10427000904CFF32D623A55C5B008BB0E35C0B2D2A
:1042800005DC8C4BAC210020FF3158540FE19A071C
:10429000F7D11F2293430593602B01D0A02BF0D1BF
:1042A000B223FF33E35C0793AE23FF33E018FFF73D
:1042B0004BFED9235B00E15CB423FF33E25C231C9B
:1042C000FC339B6F06909842DBD107980F23184070
:1042D000071C043D083708900295AF42D1DCBD426F
:1042E00006DDE319A933FF331B790137049302E09C
:1042F00001235B420493261CFC36F36F12020A432F
:10430000D21A6D4D92B2D2180392281C00211022AD
:1043100005F004F9492301212B706971029AA81D47
:10432000D2B20992EA730699FFF726FE281C0A30DA
:104330000399FFF721FE614BAA259C466D00631986
:10434000614625CB25C11B68D6200B60029D40002D
:104350002118AAB20220FEF7E7FF0299051C601897
:10436000AD30FF30FFF7FCFD85428AD1F36F039D2E
:104370009D420FD285DC013B9D4282D1C0235B0070
:10438000E35C002B00D17CE7059DA02D00D078E7F1
:1043900001250BE0039B059A0133A03AF3675342D2
:1043A0005A41C02352015B00E2540025C0235B0048
:1043B000E25C404B002A02D10798C00605D51A1CC2
:1043C0004C321188102001431180191C00225231F7
:1043D0000A70C12149005A548222FF329956803115
:1043E00001D0F4219954334CE08AFFF731FF1423B4
:1043F000E356403B181A04D4FE2800DDFE20C0B26C
:1044000000E00020C223DA2149005B00E05460187C
:104410000899FFF761FC002D22D1049D01351FD0C2
:104420000298C51B002D1BDDB221049A49006018BB
:10443000002A02D1AA235B00E0181E4B039ADE1962
:10444000AD36FC33FF36996F009601950123FFF7D7
:104450009BFD0498002803D1301C291CFFF73CFC6D
:10446000D423144A5B00D25CAA23FF33002A07D06E
:10447000079D4022AD0600D58022E15C0A43E2544C
:10448000049DD5225200E15C002D05DC2020014373
:10449000E154A754002306E010200143099DE15494
:1044A000FBB2A354EB1AAC20FF30235401200BB015
:1044B000F0BDC046A80C0020980C0020E80B00209E
:1044C000F8B50725041C054003D10B310A204843E9
:1044D0003DE0AB1D2206C8009B00D20F0427C01A86
:1044E00051424A411201AF42BF411C307F42801805
:1044F0000022FF00260A964200D01422801A0028CB
:104500000BDDD91BC9B24018013804F0D9FA630693
:104510009B0F05334343083300E00823E4060135CD
:10452000A40F98002D1B0A4BEDB23130191C042D3D
:1045300003D9291F0B41191C0425A840051C054857
:10454000CA0F684352185210801804F0B9FAF8BD27
:10455000093D000024F40000F8B5061C01F040FD00
:10456000041C01F03DFD27020743BFB2094DBCB258
:10457000AC4204DD201C291C04F098FA8CB2002EF9
:1045800006D0F8B2311C04F091FAC9B24D43641957
:10459000201CF8BD24F4000010B5041C081CFFF713
:1045A000DBFF094B20181A1C43321278002A03D073
:1045B000596C421A002A06DD58644C33198880224F
:1045C00052000A431A8010BDA80C0020014B503342
:1045D00019707047A80C002038B5174C0020231C18
:1045E000FC339B6F834225D1231C4C331A889023C4
:1045F0001A4203D011481249FFF730F9221C002358
:104600004332251C13704C3529880E4A0A402A80F3
:10461000D4225200A354221C5232137001F09EF98E
:104620002B880422201C13431C3007492B8001F0E7
:1046300041FA012038BDC046A80C0020369B00007E
:10464000DD050000DEE7FFFF3F510000F0B5624BE3
:10465000C1211A1C4C32128887B01C1C0A4200D09F
:1046600000E3FC339B6F002B04D1500702D4FFF70B
:10467000B3FFF7E201F006FA231C04904C331B88C9
:10468000002502959E070FD5AC239B00021CE7581E
:104690007D32D21B1D1C002A03DD50485049FFF714
:1046A000DDF863597D3B0293261C4C3633883C254C
:1046B0001D4000D13EE224271F407A1E9741FFB2E1
:1046C000180509D5049801F021F920603288454B7E
:1046D000051C1340338000E02568231C43331B78FE
:1046E000002B04D1231C4C331B88D90503D5636CE4
:1046F000EA1A00D51D1C231C4C331B8802221A40C9
:1047000010D0002F01D0384900E03849029E6918C6
:10471000891B002906DD364F1021F019FFF73CFFF9
:1047200000250AE2049EA91B7D2900D4FCE1221C7D
:10473000503212780292002F44D000229F0611D5E9
:10474000231C52331B78013BDBB2FF2B09D0294AD3
:10475000029D525DFF2AF6D02A1C013AD2B2029283
:10476000F1E7C022D623AE265B00FF36B627E2541F
:10477000A019FF37A925FDF715FE6D00E019FDF71B
:1047800019FE635BBE22FF32A354DF221B0A5200D4
:10479000A3541948FDF716FED62040002118132215
:1047A0000A20FEF7C1FDC022FF32011CA018FFF74E
:1047B000B1FCAC23FF331722E254635B0133635334
:1047C0000E4B93E1221CFC32D26F81321CD90C4873
:1047D0000C4901F06FF945E2A80C0020369B00005F
:1047E000AA060000FFF7FFFF44950800D8B80500AF
:1047F00094050200EE9B0000E80B00200141000040
:10480000C40C0020FD530000D4225200A25C002AF8
:1048100004D1BE225200A2580132D8D018221A4028
:10482000103A511E8A41D2B2002505920395AA4240
:1048300003D0221C5E3212780392DB4A0825134013
:1048400093420FD1DA2310225B00E2549A23FF3304
:10485000E25CCC235B00E35C12011A43B623FF3316
:10486000E2540A258A23FF33E25C002A07D062194A
:10487000A932FF320421117100220135E254C32212
:104880005200A35C002B13D0D42663197600AA270C
:1048900099190620FF370871D919FF200871C22124
:1048A0004900615CAB33FF33197100230335A35416
:1048B000BE4B8622FF32995C00290DD0D4265819B0
:1048C0007600841903262671AA3007242140FF3080
:1048D0000171002102359954CB2252009A5C002AC2
:1048E00005D05A19A932FF32122111710135C122A6
:1048F0005200985C111C8222FF32002806D0985C7E
:104900007F2801D90020985400205854CA2149001A
:10491000585C00280DD0D4275C197F00E6190527C4
:104920003771AA3407263040FF3420710020023549
:1049300058549821FF31585C00280DD0D4275C19B9
:104940007F00E61911273771AA3401263040FF3461
:104950002071002002355854C5214900585C0028B8
:104960000DD0D4275C197F00E61907273771AA34C8
:1049700003263040FF342071002002355854059E34
:10498000EBB20421002E02D003990531C9B2C91837
:10499000864CCFB2D6214020490060548821FF3197
:1049A000605CC0214900615C7F260143A05C00225D
:1049B00086425241083B92010B43B2211343FF311F
:1049C0006354AE21231CFC33FF316018996FFFF74D
:1049D000D3FAD4235B00E25CBE235B00002A02D141
:1049E000E1580131E150714CD921E3584900013BB4
:1049F0009BB26354B4211B0AFF316354059EC0234C
:104A000000215B00E1548E4237D0231C5D331B78BC
:104A10008B4209D0D62380215B00E154002A03D1C8
:104A20000122D4239340E254261C63195C36327869
:104A3000A9336519FF33AE351A71FF35211C5F317B
:104A4000281C039A04F048FDB2213378490060180D
:104A5000002B02D1AA225200A018544B039E1A1C0C
:104A6000FC32916FBE2252009A58002E05D0013AB6
:104A7000009501960023FFF787FA4C4C4C4D231C00
:104A8000FC339B6F10220393BE235B00E658281C67
:104A9000013E0021059604F041FD49232B703E1F85
:104AA00000236B71EE73A81D0399FFF765FA281CAC
:104AB0000A300599FFF760FA3E48AA2149006318B9
:104AC000011C25CB25C1D6221B6852000B60022099
:104AD000A118B2B2FEF728FC011CE019A930FF3082
:104AE000FFF718FBAC23FF33E754334B029D334AE7
:104AF0006362525D2D4B60218A43191C5131097844
:104B00005D7649010A43DA824C3319882C4A0498AD
:104B10000A40882109010A431A8000F0B9FD1120DA
:104B200000F0B4F8012066E0002A6FD0002D04D117
:104B3000012502E09E0700D494E04C3423889F05B1
:104B400042D5049E7D360396184CD0277F00E2594B
:104B5000039E231C911B55D5CD225200A35C59B254
:104B6000002931DB9A21FF31615C01208840C0B20D
:104B7000C318DBB2A3545AB2002A25DB114ECE2251
:104B80005E43023018185200CC23A2585B00E15C4F
:104B9000F611C0B2B618FFF717F8361AE651227EA2
:104BA0009C23FF33E254CFE702040000A80C00204E
:104BB000980C0020E80B0020DD400000EF9B000077
:104BC0006FF6FFFF00307500002D02D0029EAB1B78
:104BD0001CD400F0A3FD2448AB239B00C35C049FBE
:104BE0000376AC239B00C358029D43607B1B05D416
:104BF0001E4B4362022001F0EBFA33E01C300299B5
:104C00001B4A07E0002D08D0A91A06D5291C19480F
:104C1000194A7D3900F068FF24E09C21FF31595C7E
:104C20005A601976D2214900595814481961CC218B
:104C30004900595C049F405C802188430143D9822C
:104C4000AC210020FF31D21B58547D3203DA0C48CE
:104C50000C49FEF703FE07480B4A031C1C3B59682E
:104C60007D39D7E707B0F0BDA80C0020094D000042
:104C70003D3A0000C40C002049510000EF9B0000A9
:104C8000369B000019070000553A000008B5FDF7F3
:104C9000A1FBFFF7DBFC08BD70B5002001F098FA1E
:104CA000174CAC26251C201C1C3DFF3600F0EEFEE8
:104CB000AB5D002B05D1238E032293432386012075
:104CC0001AE0FFF74BFA00280CDC00230320AB5559
:104CD00001F07EFAAD239B00E958201C094A00F040
:104CE00003FF0BE00D200121FEF71EFF238E0122A2
:104CF0009343022003432386FFF7C8FF70BDC046DD
:104D0000C40C0020994C0000F7B55A4CAD26B600F3
:104D1000A759594D0097675DAC230197FF33E35CBA
:104D2000371C002B57D0FFF719FA002853DD019FDD
:104D30000321394004D10D20FEF7F6FE042589E059
:104D4000A359009F902296265201FF36B818A15D04
:104D5000C01A80B200290AD0231C54331F8800B225
:104D60003BB2C01A013103F0ABFEC01980B2625DE4
:104D7000530718D4231C54331988091A89B28BB2EB
:104D80001FB2002F01DA4B429BB2211C56310B801F
:104D9000211C58310027CE5F1FB2BE4200DA0B80C3
:104DA00008239A436255231C5433221C1880523224
:104DB000002313709622FF32A354635D0422191C52
:104DC00091436155151C9E0733D1CD212B48C90055
:104DD000FEF744FD2DE0231C543300229B5E28483F
:104DE0009625C01AE359FF35C018AF239B00E2583F
:104DF000E0518032E250635D224E0133801904217C
:104E00006355FFF7C9FB635D142B05D9231C4C3395
:104E10001A8820210A431A80AB239B00E35C0325F8
:104E2000642B06D94C342288174B0B201340238067
:104E30001DE0AD239B0000200821E658FEF7C4FECC
:104E40000F4FAC23F6199B00361AE650227EAB2397
:104E50009B00E2540D4B0721E25C01320A40E25410
:104E60004C3423889A0501D5FFF7BAF8281CFFF7C0
:104E70000DFFF7BDA80C0020BA020000369B000011
:104E800000127A0094050200DDF9FFFFAB0200007A
:104E9000F7B5D423824C5B00E258824B1A40802342
:104EA0005B009A4204D180217F48C900FEF7D6FCFE
:104EB000231C4C331B88180603D47B487B49FEF720
:104EC000CDFCAC23FF33E75C002F2AD1221C4C32EF
:104ED0001388590713D49A0603D473487449FEF70C
:104EE000BDFC231C4C331A88A0218A431A805234FB
:104EF0002378092B01D8013323700920CCE08021CD
:104F00008B43138000F04EFD041C00F0BBFD011923
:104F1000002C01D0674A00E0674A684800F0E4FDD1
:104F2000BCE0D6235B00E35C112F08D0212F06D014
:104F3000AA23FF33E35C0020DF07C7D5AFE01C22C4
:104F40009343202BF4D15E48FDF73CFA5D4D7A1E69
:104F500092B2291C0020FEF7E7F93E1F5848FDF7E2
:104F600031FAB2B2691E0A20FEF7DEF90190564806
:104F70002E18F019A930FF30FEF7F2FF019F87428B
:104F8000D6D1A81DFEF7E0FF2B1CB13B9867E81CAB
:104F9000FEF7DAFF0002000AA923B0645B00F35AAF
:104FA0000021013B9BB210224848019304F0B6FA5D
:104FB0000122AA239340281C291CF25458380622A7
:104FC00004F08AFA019F5C23FF33F754AE233A0AB8
:104FD0005B00F2542B1C3D4A493B83CA83C31268D1
:104FE00037481A60B2235B000222F254FDF7EAF957
:104FF000364910220020FEF797F93148FDF7E2F913
:10500000B2204000623D311810220020FF3DFEF723
:105010008BF92A8824231A4203D123482C49FEF70E
:105020001DFC231C4C3319888A0613D5231C221C13
:10503000503352321B781278013AD2B2FF2A06D08E
:105040002448C05CFF28F7D0013BDBB2F4E7221C08
:1050500050321370204B00221940231C4C3319800E
:10506000D4235B00E254FEF761FCB823FF33E35C1A
:105070000F21C62219405200A1545B068C225B0FFF
:10508000FF32A354DC235B00E25C8423FF33002A5D
:1050900000D10122E2540620FFF7F8FD0120FEBDF9
:1050A000A80C002000FF00FF369B00000104000058
:1050B000060400003551000049510000C40C0020D6
:1050C000E80B0020550E002053FEFFFFFC0D0020D2
:1050D00069040000EE9B000059FDFFFF10B50A4B6C
:1050E000AC22FF329A5C1C1C002A07D1C6235B004D
:1050F000E25C06480649FEF79DFD03E0FFF7C8FEA7
:105100000028F3D010BDC046A80C0020D8B8050078
:105110000D3B000008B5AC22054BFF329A5C002A1B
:1051200002D1AA21FF315A54FFF7B2FE08BDC04692
:10513000A80C002008B50820FFF7A8FD08BD08B599
:105140000520FFF7A3FD08BD08B5FFF77FFA08BDEE
:1051500008B5AC22094BFF329A5C002A0BD0AA2278
:105160000421FF329954FFF781F8002803D00D2065
:10517000FFF78CFD01E0FFF769FA08BDA80C0020DD
:1051800038B5534C231C4C331B88180603D45148A4
:105190005149FEF763FBAC25FF35635D002B00D062
:1051A0008BE0D4225200A35C002B26D0072B22D800
:1051B0000133DBB2A354221C50321078474AD35C2F
:1051C000013BDBB2FF2B06D0454A125CFF2AF7D029
:1051D0000138C0B2F4E780214942FEF767FD6068FC
:1051E00003214C34FFF7D8F923888022934323808E
:1051F000FFF72CFA5FE0602200E02022AA23FF33B1
:10520000E2548223FF33E25C51B2803101D001329B
:10521000E254D522002352006355A354231C4C337F
:105220001A888821101C8843AA211880FF31615CEC
:10523000480707D0D10405D52A490F200A401A8013
:10524000FFF724FD0A20FFF721FD8223FF33E256FA
:105250001D1C182A18DD231C50331878204B1B5CAA
:10526000FF2B01D00138C0B280214942FEF71EFD5C
:105270000C236355231C4C331988812252010A43A5
:105280000E201A80FFF702FDCB256D00635D002B19
:1052900011D0221C4C3212880220024204D0FFF7A7
:1052A000F5FC0023635506E0013BDBB26355002BA0
:1052B00001D1FEF781FB012009E0FEF7D7FF0028AE
:1052C000ACD1AA23FF33E35CDA0700D469E738BD29
:1052D000A80C0020369B0000050600007E9B000005
:1052E000EE9B000077EFFFFF10B5AC230B4CFF33B4
:1052F000E35C002B0CD18423FF33E05C084B0130CE
:105300005843C6235B00E25C0649FEF793FC03E0CA
:10531000FFF736FF0028EED010BDC046A80C0020D5
:1053200024F40000F53A000038B50D4CAC23FF33EF
:10533000E35C002B11D1AA22FF32A35400F0A2FBA0
:10534000051C0220FFF708F9064B1C34ED1829183C
:10535000054A201C00F0C8FB01E0FFF711FF38BD33
:10536000A80C00201BB700006D53000008B5FFF724
:1053700007FF08BD08B5FEF799FC08BD70B5002011
:1053800000F026FF1B4D281C2C1C1C3C00F07EFB53
:10539000B42200219200201C04F0C0F800F020FE8E
:1053A000061C00F01DFE3602A92306435B00E652F0
:1053B00088238022FF33E254C62308225B00E25494
:1053C0000D4BC8225200A35084220121FF32A15468
:1053D000D2228A40A350CC238B400A22E2540020E0
:1053E000FF229A2328869B1835352870E25400F056
:1053F0002BFA70BDC40C0020A070083708B5FFF769
:10540000BDFFFFF7E9F80C20FFF740FC08BD0000E6
:10541000024B40224C331A807047C046A80C002033
:1054200008B5084B0820191C4C310A881043088025
:1054300004210A4002D1D42149005A54FFF706F949
:1054400008BDC046A80C002070B5051C141C1E1C0D
:10545000F32A11D8002902D0094804F03DF8094A7E
:10546000131C5D331E70131C5C335E321D70147090
:10547000FFF7D6FF002001E00220404270BDC04689
:10548000070D0020A80C0020064BC122002152006D
:105490009954191C8023002800D0F4238222FF3263
:1054A0008B547047A80C002070B50C4C161CA26CD5
:1054B00010250260221CFC32926F181C0A60B22276
:1054C0005200A1182A1C04F007F8AA235B00301C24
:1054D0002A1CE11804F000F870BDC046A80C00209A
:1054E00007231840014B8000C0587047889B00007C
:1054F00008B50138FEF728FD6423000A5843044B21
:105500000449C218002391425B415B42184008BD28
:1055100080923CCA80BA8C0130B5041C483CE5B28C
:10552000031C0020012D14D81D1C0A483E3DAD006F
:105530002950011C002A00D11F22183464000A538C
:1055400001200F221340021C9A40131C8A8F134320
:105550008B8730BDA80C002070B549281ED80409DF
:105560000F4B183462009A1892880F210140151CC5
:105570000D41EE070CD53F2803D8D88F0138D887C6
:1055800006E04038072803D8981CC58F013DC58721
:1055900001206400884082431B199A8070BDC04678
:1055A000A80C002070B549281ED804090F4B1834E8
:1055B00062009A1892880F210140151C0D41EE07D8
:1055C0000CD43F2803D8D88F0130D88706E0403864
:1055D000072803D8981CC58F0135C58701206400B2
:1055E000884002431B199A8070BDC046A80C002059
:1055F00070B5051E072D03D90A487C21FEF72EF948
:10560000EC00E4B2261C0836F6B2B44204DAE0B28A
:10561000FFF7C8FF0134F8E74035E8B2FFF7C2FFF3
:1056200070BDC046A09B000070B5051E072D03D9B4
:105630000A488921FEF712F9EC00E4B2261C08366C
:10564000F6B2B44204DAE0B2FFF786FF0134F8E7BD
:105650004035E8B2FFF780FF70BDC046A09B000058
:1056600038B5051E072D03D908489621FEF7F6F830
:105670000024A54203D1281CFFF7BAFF02E0E0B2E4
:10568000FFF7D2FF0134082CF3D138BDA09B0000F6
:1056900070B51C4C061C231C42331D783F2D0CD8C2
:1056A000194B5D43194BED18E38F2561312B01D95F
:1056B0001E2300E01523A37613E01A23A376472DBB
:1056C00005D8134B403D5D43124BED1808E0492DC2
:1056D00003D91148AE21FEF7C1F83E3DAD00655932
:1056E0002561251C43352B78002B09D0AC23FF33D3
:1056F000E15CE08AFEF7E4FE2B7898403618666499
:1057000070BDC046A80C0020400D03006001C835E4
:10571000006A1800C0AFD235A09B0000074BAC2236
:105720000021FF329954064A06499A5C4A430649C9
:1057300052181A61054ADA827047C046A80C002048
:10574000AB020000C0270900A070083796130000C4
:105750000E4B1A1C4232117807220A400C494A4368
:105760000C4952181A615A7E032A01D80A3202E003
:10577000042A01D10D225A7607495A7E8A18517897
:10578000802291430A43DA827047C046A80C002069
:10579000C0270900A0700837EE9B0000F7B5071C72
:1057A0000E1C141E03D126482821FEF757F8B742D5
:1057B00003D323482921FEF751F8F31B9C4203D958
:1057C0001F482A21FEF74AF81E4B1A1C4232157850
:1057D000AF420ED8B5420CD22A09183252009B189B
:1057E0009A880F232B401A41D00702D5013C002C88
:1057F00024D000F0F5FBFFB2211C03F057F900970D
:10580000002200988318DBB2B34217D2AB4213D008
:105810001C090C48183464000419A488A4460F24F9
:105820001C4067462741FF0706D54C1E002902D1C0
:105830004230037002E0211C0132E2E7F7BDC046AE
:10584000FE9B0000A80C0020074B012252429A86C2
:10585000DA861A875A87FF229A874022DA8702332C
:105860000822DA877047C046A80C002070B5061CD5
:105870000D1C4F280BD80401E4B2402C03D0261C89
:105880001036F6B238E0002081422BD03CE05028A0
:1058900015D1FF230C1C00209C43844234D1201CD2
:1058A000EA0702D5FFF7A4FE01E0FFF7BDFE0134D1
:1058B000E4B26D08082CF2D10026341C1CE0021C56
:1058C00010239A430020602A1ED1041C201C602E45
:1058D00002D1FFF767FE01E0FFF73EFE0134E4B2BC
:1058E000402CF3D1482607E0054209D0201CFFF7E1
:1058F00059FE0134E4B26D080120B442F4D303E050
:10590000201CFFF729FEF4E770BD000038B5114CEC
:10591000051C231C50331B78032B0CD9A31CDB8FD5
:10592000002B03D10C489B21FDF798FF0234E28F36
:105930004020482109E0E38F002B03D106489F2136
:10594000FDF78CFFE28F00204021FFF727FF281C86
:1059500038BDC046A80C0020FE9B000010B50F4CBF
:105960000020231C42331870E28F4021FFF716FFFE
:10597000231C4F3314221A70231C4C331B881A0526
:1059800003D50748B421FDF769FF00F07BF82060DC
:105990000020011CFEF71AFE10BDC046A80C002016
:1059A000FE9B000070B51D4C231C50331B78042B4C
:1059B0000BD0231C42331A780020D2084032042135
:1059C0001A700025FEF702FE13E000204021E28F4E
:1059D000FFF7E4FED4235B00E55C00200135EDB267
:1059E000E55407231D406B425D41011CEDB2FEF7FB
:1059F000EDFD231C4C331988094A0A401A8000F037
:105A000041F8231C50331B78061C10201841C0B2EB
:105A1000FEF7A2FD36182660281C70BDA80C0020D9
:105A2000FFF7FFFF0368002B07D08B4203D1096803
:105A30000160012002E0181CF4E7181C7047000008
:105A400008B5074B00221A605A60FDF727FF00F0E7
:105A50007DFA002802D0FFF7DBFC012008BDC0461C
:105A60009C02002008B50548FFF7EAFF002803D193
:105A700003483421FDF7F2FE08BDC0468C990000B2
:105A80004E9C000008B5FDF77DFE08BD38B5041C2E
:105A9000FDF7B0FE064D211C281CFFF7C3FF0028B0
:105AA00003D1281D211CFFF7BDFFFDF7ABFE38BD5C
:105AB0009C020020F8B5041C0F1CFDF79BFE094E4C
:105AC000211C351D281CFFF7ADFF002323607368E0
:105AD000A760002B02D01D1C1B68FAE72C60FDF7A5
:105AE00091FEF8BD9C020020F8B5041C0E1C171C8A
:105AF000FDF780FE0C4D211C281CFFF793FF0023AF
:105B000023602B686660A760002B08D059688A1B49
:105B1000002A01DD236002E01D1C1B68F4E72C60F5
:105B2000FDF770FEF8BDC0469C02002038B5FDF7B9
:105B300061FE0E4D6C68002C02D023686B600DE096
:105B40002B68002B08D05868FDF74AFE002803D0C8
:105B50002C6823682B6001E0FDF77EFEFDF752FE06
:105B6000002C02D0A368201C984738BD9C0200205E
:105B700038B5051C00200C1CFDF7D2FD8020284301
:105B8000FDF7F8FD201CFDF7F5FD0120FDF7C8FD30
:105B900038BD000070B5264D0726EA8A1640D206A9
:105BA000920F012A0DD0002A09D09023022A09D091
:105BB000B22120484900FDF751FE002302E0702386
:105BC00000E08023E98A4A06920F022A07D0032ABE
:105BD00007D0012A01D0022404E0042402E00624B4
:105BE00000E008241C43090A05D00123C9B2222081
:105BF0001C43FFF7BDFF211C1D20FFF7B9FFEB8AF7
:105C0000310160311A0601D4042319431E20053ED8
:105C1000FFF7AEFF0421012E05D8EB8A0C21DB062D
:105C20009B0F00D004212620FFF7A2FF70BDC046C5
:105C3000A80C0020989C00000F4B10B518690D4B64
:105C40000B4A410BC00402F0C1FF010C041CC9B295
:105C50000620FFF78DFF210AC9B20720FFF788FF52
:105C6000E1B20820FFF784FF10BDC046C046C04621
:105C70000048E80100000000A80C0020C046C04613
:105C800010B5041C0020FDF74BFD7F202040FDF7E0
:105C900071FD0020FDF76EFD041C0120FDF740FDA5
:105CA000201C10BD10B5041C0120FFF7E9FF0723DD
:105CB000011C99430C43E1B20120FFF759FF10BDCD
:105CC00008B50E4B997E4BB2112B03DC012B02DC85
:105CD000022100E0112180235B4202391943C9B23D
:105CE0000920FFF745FF4D20FFF7CAFF04210143BC
:105CF000C9B24D20FFF73CFF08BDC046A80C0020EC
:105D000038B5051C0020FDF70BFD0020FDF732FD26
:105D10000024E3B2AB4209D20020FDF72BFD054B76
:105D2000E318AD33FF3318700134F2E70120FDF7BB
:105D3000F7FC38BDA80C002038B5051C0020FDF785
:105D4000EFFC8020FDF716FD0024E3B2AB4208D241
:105D5000064BE318AD33FF331878FDF70BFD013424
:105D6000F3E70120FDF7DCFC38BDC046A80C00209D
:105D700070B58821041C0120FFF7FAFE0120FFF70F
:105D80007FFF030603D42B482B49FDF767FD012055
:105D9000FFF788FF022C08D11D200A21FFF7E8FE3B
:105DA0001E207021FFF7E4FE03E0FFF7F3FEFFF78C
:105DB00043FF0C202121FFF7DBFE2320FF21FFF70B
:105DC000D7FE1E4DB3239B00EB5C40263320002BF7
:105DD00004D0FFF755FFB043C1B203E0FFF750FF17
:105DE0000643F1B23320FFF7C3FE297E1F20FFF7E1
:105DF000BFFE39203421FFF7BBFE4020C021FFF752
:105E0000B7FE1220FF21FFF7B3FE0D4B1120195DE5
:105E1000C943C9B2FFF7ACFE0020FDF751FC0520D5
:105E2000002C03D16868FDF7BFFC0620FFF73AFF9E
:105E300070BDC046989C000062020000A80C0020C3
:105E4000F09C000038B5041C0120FFF719FF430740
:105E500003D039483949FDF701FD394BDA8A1D1C59
:105E6000530765D1002C03D033483649FDF7F6FCC3
:105E700001200821FFF77CFE0120FFF701FF030648
:105E800003D52D483049FDF7E9FC0120FFF70AFF53
:105E9000FFF7D2FE0C202121FFF76AFE0D201E2104
:105EA000FFF766FE12200B21FFF762FE132012217E
:105EB000FFF75EFE1F20AA21FFF75AFE27201221BE
:105EC000FFF756FE3020D821FFF752FE3120402147
:105ED000FFF74EFE2820C121FFF74AFE292094211A
:105EE000FFF746FE2A20C121FFF742FE2120FF21B5
:105EF000FFF73EFE0220011CFFF73AFE032080213F
:105F0000FFF736FE04200121FFF732FE052099211C
:105F1000FFF72EFE38214020FFF72AFE0020FDF774
:105F2000CFFB6868FDF740FC0520FFF7BBFE02E0F1
:105F3000201CFFF71DFF38BD989C0000DF02000009
:105F4000A80C0020AD020000B1020000F8B5FDF77A
:105F500051FC0020FDF7C4FBFFF794FD3E30FDF738
:105F600023FC0220FDF7BCFBFFF78CFD3930FF302E
:105F7000FDF71AFC0020FFF795FE4220FFF780FE98
:105F80000026122828D10220FFF7F2FE0120FFF799
:105F900077FE072318400528F8D1012408252C2076
:105FA000FFF76EFE071C2C20FFF76AFE0126374024
:105FB00030408742F3D0094B013DE25CB2401743C9
:105FC000E754002DEBD1A419102CE7D1281C1C702C
:105FD000FFF768FEFDF716FC301CF8BDA402002098
:105FE00038B50A4D2C78002C04D109480949FDF731
:105FF00035FC07E0102C05D1221C0020291CFDF7E0
:1060000093F90024285D01342C7038BDA4020020CF
:10601000989C00002D030000F0B585B0039001208E
:106020000D1CFFF7A5FE224B9D241A69214B9A42B5
:1060300000D8A424FDF76CFB644220180190FFF700
:1060400021FD1F30FDF7B0FBFFF71CFD002402907F
:106050000094261C1B20FFF713FEC2B2331C96428D
:1060600000D2031C0099DEB2081880B20090FDF740
:10607000C9FBFFF707FD071CFDF7BCFB029A03995C
:1060800001345318A4B2FF1AE4D40020FFF70AFE2B
:10609000019A009997B2F61960086E802A80081854
:1060A000211C02F00DFD3F18AF80EC8005B0F0BD63
:1060B000A80C002040DD4A1F70B5FFF7E3FC041C6C
:1060C0000120FFF7DDFD020647D51220FFF7D8FDBE
:1060D000030703D5394B023C1C6035E040230340E5
:1060E0002CD0364DEB8ADA06920F05D107221340E9
:1060F000334A5B009B5AE41A1D206C60FFF7C0FD19
:10610000420701D5222000E01320FFF7B9FDAC249F
:10611000FF3428551020FFF7B3FD011C0D20FFF7B9
:1061200027FD285DFFF7ECFD1920FFF7A9FD687535
:106130001A20FFF7A5FD3D38287505E0020603D5B6
:10614000AC221E49FF328B541120FF21FFF710FDB6
:106150001220FF21FFF70CFD28E03E20FFF790FD05
:10616000051C3F20FFF78CFD0826064002D0134B8C
:106170001C601BE00422031C13400CD00F4D322086
:106180006C60FFF77DFDAC23FF33E854FFF7B8FDEB
:106190006E752E750AE0154204D0AC220749FF3215
:1061A0008B5403E007480849FDF758FB0020FFF730
:1061B00079FD06488168FFF77DFC70BDA80C0020C2
:1061C000E29C0000989C0000DD030000C40C00204D
:1061D00037B5041CFDF70EFB032C00D9CBE0201CC7
:1061E00002F00CFC0204C4C60020BCE00120FFF752
:1061F00047FD420707D00020FFF754FDFFF742FCA0
:106200003E30FDF7D1FA5D4DA8682C1C00280FDD4B
:106210006946FFF701FF6B4602229A5E0C23EB569C
:106220009A4205DB281C1C30696AFFF743FCA2E098
:10623000E38AAC25FF3501205A0750D11021FFF722
:1062400097FC0120FFF71CFD102804D0EA214C48E0
:106250004900FDF703FB0120FFF724FD0220011C8C
:10626000FFF786FC03208021FFF782FC0420012138
:10627000FFF77EFC05209921FFF77AFC25200021FD
:10628000FFF776FC26200521FFF772FC272012215C
:10629000FFF76EFC3020D021FFF76AFC312040214F
:1062A000FFF766FC2820C121FFF762FC292094211A
:1062B000FFF75EFC2A20C121FFF75AFCFFF7BCFC68
:1062C000FFF7FEFC40203421FFF752FC615D3220D5
:1062D0000131C9B2FFF74CFC615D00203AE0882132
:1062E000FFF746FC0120FFF7CBFC030604D4802116
:1062F00023488900FDF7B2FA0120FFF7D3FCFFF72E
:1063000049FCFFF799FC0A20FFF7BAFC0F239843DA
:1063100008210143C9B20A20FFF72AFCFFF7D0FC8D
:1063200039203421FFF724FC4020F021FFF720FC26
:106330001220FF21FFF71CFC1120F721FFF718FCAA
:106340000E200021FFF714FC0D200021FFF710FCA8
:10635000615D2220FFF70CFC605DFFF7EDFC012082
:10636000FDF7AEF90320FFF79DFC04E0002000E0FC
:106370000120FFF767FDFDF745FA37BDA80C0020A7
:10638000989C0000437A002B04D18372C372C360CF
:1063900001234372704730B585B0041C02AD00681C
:1063A0000291039201F024F86B79E179227A00934B
:1063B0002068002301F026F929792068029A00F06C
:1063C000E7FF206801F00AF805B030BD70B5041C85
:1063D0001826FFF7D7FF2079331C43430D4D0821C2
:1063E000EB18595600F08CFDA079331C434308216B
:1063F000EB18595600F084FD607908214643AD1929
:10640000695600F07DFD044B201C06CBFFF7C3FF4F
:1064100070BDC046189D0000B402002007B5837A05
:1064200000910192002B0DD09A0706D5EFF310834F
:106430005A425341C37272B604E0DA0702D5828928
:10644000034B9A600099019AFFF7A5FF07BDC0466C
:1064500000180040837A002B0BD09A0704D5C37A2A
:10646000002B06D062B604E0DA0702D58289014B20
:10647000DA6070470018004008B5006800F0C1FFFE
:1064800008BD0000094B0A4A0A491A6000225A71E5
:106490001A71094B19601621197118219971172168
:1064A000597101215A72D9711A727047B4020020D1
:1064B00000093D00E4050020BC0200200023037019
:1064C0007047000008B5044B1B68002B00D09847AC
:1064D000024B01221A7208BDCC02002000140040B9
:1064E0000378002B0AD0064B081C197F07221040A6
:1064F0009143014319779A7AD209FCD17047C0467B
:10650000001400400378002B07D0044B07211A7FAA
:106510008A431A779A7AD209FCD170470014004056
:10652000014B19607047C046CC0200200378002B55
:106530000AD0064B081C19693F22104091430143C1
:1065400019619A7AD209FCD17047C0460014004004
:106550000378002B0BD0064B3F2211408A011869AB
:1065600004490140114319619A7AD209FCD170475C
:10657000001400403FF0FFFF0378002B0AD0064BC9
:10658000081C99693F2210409143014399619A7A0E
:10659000D209FCD17047C046001400400A4B0B4A98
:1065A0009A605A7852B2002AFBDB0949064A5160C8
:1065B0005A7852B2002AFBDB0649034A51805A78C6
:1065C000D209FCD17047C046000C00400204000014
:1065D00002051100044200000378002B05D0034B94
:1065E000034A5A809A7AD209FCD1704700140040BD
:1065F0000080FFFF08B5FFF7EFFF024B18693F234C
:10660000184008BD0014004008B5FFF7E5FF024B35
:1066100018690005800E08BD00140040044B0221DB
:106620001A888A431A809A7AD209FCD17047C046E8
:1066300000140040044B02211A880A431A809A7AF7
:10664000D209FCD17047C04600140040044B012120
:106650001A880A431A809A7AD209FCD17047C04638
:1066600000140040044B01211A888A431A809A7A48
:10667000D209FCD17047C04600140040F7B52B4B3F
:106680000F1C9A6920210A439A61294A294B002646
:10669000051C9A82284CB7420AD1284B1A787023DD
:1066A0001A4240D023881A073DD52269012601925B
:1066B000281CFFF773FF281CFFF7B0FF281CFFF70B
:1066C000C5FF62881E4B134063801E4B2380A27A55
:1066D000194BD209FBD11C4A08211160C021890045
:1066E00050580002000A5050DA7901210A43DA7149
:1066F0001A7F07218A431A77A37ADB09FCD1281C69
:10670000FFF798FF281CFFF7ADFF002F02D00123F1
:106710002B70F7BD002EFAD0074B019A1A61A37AAD
:10672000DB09FCD1F3E73E1CC2E7C0460004004091
:10673000CE0600000008004000140040380400406D
:10674000FFBFFFFF080A000000E100E0F8B5051CEC
:106750000F1C161C0024B44208D02B68395D1B683E
:10676000281C9847002801D00134F4E7201CF8BD0C
:10677000704708B5183000F061FD08BD08B5183045
:1067800000F070FD08BD38B5837D0D1C002B06D0D0
:10679000041CC434201C00F07BFD002801D0002024
:1067A00004E0201C291C00F030FD012038BD08B594
:1067B000183000F060FD08BDF7B50193FA239B0087
:1067C00083600B4B00250833041C456003601830C0
:1067D0000F1C161C00F00CFD201CC43000F008FD3E
:1067E000019B27612675A575201C6375FEBDC046FB
:1067F000F89C000038B5041C006900F044FE002835
:1068000079D0206900F04DFE00280ED1206900F0FB
:1068100052FE00281FD0206900F048FE00281AD040
:10682000206900F04DFE002815D1206900F0FEFD22
:106830002069032100F004FE231CFC33DD6F002DD2
:1068400004D02368201C9B689847A847201C183058
:1068500000F0EDFC4FE0206900F02DFE031C2069E4
:10686000002B16D000F0E2FD2069032100F0E8FDC6
:10687000206900F025FE00283DD0201CC43000F027
:10688000D6FC0123A375FC34A36F002B33D09847AB
:1068900031E000F001FE00282DD0206900F010FE4C
:1068A000251C00280FD0C435281C00F0DBFCFF217C
:1068B000002803D0281C00F0C1FCC1B2206900F000
:1068C000D5FDA07517E01835281C00F0E1FC031C6D
:1068D0002069002B02D000F0A1FD08E000F0F5FDDA
:1068E000011C281C00F091FC206900F09FFD20692C
:1068F000032100F0A5FD38BD08B50248FFF77AFF77
:1069000008BDC046D002002008B503480349142240
:106910001523FFF751FF08BDD0020020D405002049
:1069200008B5024800F0E8FE08BDC0464C0400204F
:1069300008B5024800F0E0FE08BDC0461005002082
:10694000F7B5164F1649381C00F0B2FC1549164829
:1069500000F0AEFC1549164800F0AAFC154916488F
:1069600000F0A6FC1549164800F0A2FC154D0326C0
:106970000124281C144900F09BFC391C0096231CA0
:1069800001940022114800F093FE0096291C019406
:106990001F221E230E4800F08BFEF7BDD8050020F5
:1069A00000080042000C0042DC05002000100042FC
:1069B000E005002000140042D40500200018004229
:1069C000E4050020E8050020001C00424C040020E3
:1069D00010050020FEE7000008B5034B1B68002BE4
:1069E00000D0984708BDC046EC05002038B50F49D7
:1069F0000F4CA14204D100F087F800F00BFF0BE030
:106A00000C4D8D42F7D00023CA18E818A24204D2D8
:106A1000006804331060F7E7FEE79042EBD0064BC6
:106A2000064A9342E7D2002204C3F9E7000000209F
:106A30003001002080A20000300100207C0F0020E7
:106A400008B500F05EF8002801D100F04FF808BD4D
:106A5000014B18607047C046EC050020014B1868D8
:106A60007047C046F0050020F7B5144D144CA968D6
:106A70001448626803685201D20F2E1C271C8446FA
:106A8000B0687D6801906D016046ED0F0468AA4210
:106A900003D02A1C231C0199F2E7A342FAD10198E2
:106AA0008142F7D30548D2184068FA23411A0648B4
:106AB0009B0048435343000DC018FEBD10E000E0AA
:106AC00000ED00E0F00500205555000070B5041EF3
:106AD00008D0054B1D681E1C00F012F833685B1BC4
:106AE000A342F9D370BDC046F005002008B5034BA2
:106AF0001A6801321A6000F041FB08BDF005002061
:106B0000704700207047000070B5494A1E21536845
:106B100002208B430343474953608B690824234376
:106B20008B61454C454B9C829C8A20439882101C6B
:106B3000DA689407FCD5424A012414701478E507FA
:106B400004D53F4C647864B2002CF7DB01249460D8
:106B5000547864B2002CFBDB3A4D394C65605478B4
:106B600064B2002CFBDB8225354CED016580547846
:106B700064B2002CFBDB02249C84DC68E606FCD5B6
:106B8000314D2E4CE562DD682C4CEE06FBD5A58C14
:106B90002E4E3543A584DD68284CEE06FBD5A58C2A
:106BA00002263543A584DC682506FCD5234CE46821
:106BB0006606F8D5DC68E506FCD5002494605478B8
:106BC00064B2002CFBDB224D1D4C656055781C4CDB
:106BD0006DB2002DFADB1E6A1E4D35401D621D6A26
:106BE0008026B5431D620323A3601B4B636053786B
:106BF0005BB2002BFBDB00230B72184A4B728B72CB
:106C0000CB72174BFF211A60164B174A1B6812688C
:106C10005C01D20E214011439A06520F12020B1C46
:106C20001343124A1385436880221343436070BDA7
:106C300000400041000400400C0600000008004035
:106C4000000C004001050100B905FF7D040A0000A9
:106C500000070300FFFCFFFF03060100006CDC02DD
:106C60001C00002024608000206080000040004262
:106C7000314BFA21186810B5890001F0D3FE2F4B73
:106C80000138984224D82E4A2E4B5060186AC021F1
:106C90000002000A090601431962002407219460DA
:106CA0001160196A80220902090A12060A431A624F
:106CB000254BFC211A6A0A431A62196AFC229201C6
:106CC0000A431A62196AA022D2020A431A6200E039
:106CD000FEE7201C0021013400F070F8142CF8D1DC
:106CE0001A4C63785BB2002BFADB194B6380194BAB
:106CF0005A7ED209012AFAD0E422D2009A803F2299
:106D0000DA70597E134AC9090129FAD0C0235B0100
:106D100000201361907000F023F863785BB2002BC1
:106D2000FBDB0D4A094B5A800C4BDA79D209012A58
:106D3000FAD041225A7010BD1C000020FFFFFF0056
:106D400010E000E000ED00E000040040000C004016
:106D50001E40000000400042214000000048004268
:106D600000B5144A517E131CC9090129F9D0013814
:106D7000042813D81969104A0A401A615A780F2159
:106D80008A4301F03BFE030509070300012102E0ED
:106D9000032100E002210A435A700AE01169F0233E
:106DA0001B050B43136153780F218B4302210B43C7
:106DB000537000BD00400042FFFFFFF010B51824E3
:106DC000021C201C5043274B1818007A40B2013097
:106DD00046D0032944D8081C211C01F00FFE0233C1
:106DE0001121624398569A18C3011F4852681B1814
:106DF00099184031022008700121914059602FE01C
:106E00006243985618499A185268C3015B1899183A
:106E100040310620087001219140596099611FE0BE
:106E200051435A56104859184B68D2011118C818C6
:106E30004030062404700120984048600B495218E5
:106E400050600DE0624398569A18C3010648526894
:106E50001B18991840310220087001219140996057
:106E600010BDC046189D0000004400411044004180
:106E700018235843134AF0B5131808241C5701343B
:106E80001FD08256104ED2015D6801249019231C38
:106E90008668AB401E420BD10E1C771EBE414019C6
:106EA00034404030A50004780426B4432C430470D9
:106EB000002903D105495218536002E0024E92198D
:106EC0009361F0BD189D0000004400411044004152
:106ED00018235843084A082113185956013109D07C
:106EE00082560649D20152185B68106AD8400123C5
:106EF000184000E000207047189D00000044004149
:106F000018224243F8B52D4D0824AA181457031C23
:106F1000621C50D0481C00240C284CD801F06EFD97
:106F2000071E1E1E1E1E1E1E1E0A0A0A0A0001241D
:106F3000644240E0092902D1181C002103E00A291B
:106F400004D1181C0221FFF739FF23E000240B298C
:106F500031D1181C0121FFF731FF2CE018225343D7
:106F6000EA185268EB560120141C04405508DB0156
:106F7000002C11D0124C1B195D1930352E780C01E4
:106F80000F21314021439A18C9B229704032137839
:106F90001843107000240EE0094E0F279B195D194D
:106FA00030352E789A18BE433143C9B22970403229
:106FB000137818431070201CF8BDC046189D0000BF
:106FC00000440041F7B58A18061C0D1C01920C1CE8
:106FD000019B671B9C4207D0336821781B68301CDB
:106FE000984701340028F3D1381CFEBD08B503686A
:106FF000C9B21B68984708BD38B5051C0C1C081E93
:1070000007D002F041FB2B68021C5B68281C211C86
:10701000984738BD08B5FFF7EFFF08BD08B5FFF783
:10702000EBFF08BD08B503681B68984708BD000062
:1070300008B50249FFF7E0FF08BDC04668A100009F
:1070400038B5041CFFF7D8FF051C201CFFF7F0FF24
:10705000281838BD38B5041CFFF7CEFF051C201CCE
:10706000FFF7E6FF281838BDF0B58DB0161C0BAB46
:10707000002201900C1C1A70012E00D80A266D46C1
:107080002B35201C311C01F011FD201CCFB2311C0E
:1070900001F0C8FC291C041C092F01D8303700E07E
:1070A0003737FFB22F70013D002CEAD10198FFF76E
:1070B000A3FF0DB0F0BDF8B5041C0D1C161E04D1C5
:1070C0000368C9B21B68984712E00A2A0DD100294B
:1070D0000ADA2D21FFF7A6FF6942071C321C201C8B
:1070E000FFF7C2FFC01903E000E0D2B2FFF7BCFF18
:1070F000F8BD38B5041CFFF7DEFF051C201CFFF7A8
:1071000097FF281838BD08B5002A02D1FFF76EFF97
:1071100002E0D2B2FFF7A8FF08BD08B5FFF7F3FF02
:1071200008BD38B5041CFFF7EEFF051C201CFFF757
:107130007FFF281838BD38B5041CFFF7E4FF051C95
:10714000201CFFF775FF281838BD38B5041CFFF761
:10715000DAFF051C201CFFF76BFF401938BD00004B
:10716000014B18607047C04620000020024B0122EE
:1071700052421A607047C04620000020154A13682A
:10718000581C25D0013B1360002B21D172B6124A46
:10719000124B04329A4207D8BFF34F8F104A114B5B
:1071A000DA60BFF34F8F11E00F4B197DC807FBD595
:1071B000188B2021FF319208520001431983DA61B4
:1071C0000A4A1A801A7DD107FCD5E5E7C046FDE7DB
:1071D0007047C0462000002000200000030200008D
:1071E0000400FA0500ED00E00040004102A5FFFFA9
:1071F00010B50021041CA42202F090F9221CA43234
:107200000023201C1360536010BDF8B5051CA43585
:107210002E68041C0F1C701CA42101F047FC231CC9
:10722000A8331B68994201D0A7552960F8BD021CFC
:107230000023A432A83013600360704738B5021CE5
:10724000041CA834A43223681268934207D0C55C9A
:10725000A421581C01F02AFC281C216001E0012017
:10726000404238BD031CA433A8301A680368D01A02
:1072700000D5A4307047031C021CA833A4321B683D
:107280001268934201D0C05C01E001204042704787
:10729000031CA43310B5041C1868A421013001F0AC
:1072A00005FCA8342368C81A43425841C0B210BD37
:1072B00001607047F7B508AC267804689D1E276802
:1072C0006C1EA541ECB2920705683A4327063A4383
:1072D0002A600268072529405068B501002C00D0BB
:1072E0005C03294301430C435460F7BD30B5036888
:1072F000C0251C68AD0312052A402243C024A40205
:10730000090421401143196003685A6814435C6002
:1073100030BD036801211A680A431A6002681168C7
:1073200001231942FBD1D1691942F8D17047036892
:1073300002211A680A431A600268D3699907FCD4CB
:10734000704703681A7ED10702D41A7E9107FCD5D4
:107350007047036800225A8370470368187E40070D
:10736000C00F70470368187EC00970470368802209
:10737000197E52420A431A7670470368188DC0B2CC
:10738000704703681A7E01200242FBD019857047BE
:1073900070B5036801268D07ED0F31401C686D073D
:1073A000090729432143196004685100034801F08B
:1073B00039FB0138C0B2207370BDC046006CDC02DE
:1073C000036801211A680A431A60026811680123E0
:1073D0001942FBD1D1691942F8D1704703680221E3
:1073E0001A680A431A600268D3699907FCD4704787
:1073F0000368DA699107FCD41A6802218A431A608B
:10740000704703689A6A520A5202114399620368EC
:107410001A7E5107FCD5986AC0B270470368802273
:1074200019685968D2020A435A6070470368034AD0
:10743000196859680A405A607047C046FFFFFBFF51
:1074400030B5036803241D680C40074A59682404BA
:107450000A40ED0622436D0F5A60052D03D10268E4
:10746000D3695907FCD430BDFFFFFCFF0368283304
:107470001970036800201A7E510703D55B8B012029
:107480009B089843704703681868C006400F04388B
:1074900043425841C0B270470368187E4007C00F8E
:1074A00070470368187E0123184070470368588BA3
:1074B000C006C00F70470368187E8007C00F704772
:1074C0000368588B0007C00F704703681A68D2061C
:1074D000520F052A02D11A7E9107FCD5283318785D
:1074E000C0B270470368244AF0B5934211D0234AD2
:1074F000934211D0224A934211D0224A934211D092
:10750000214A934211D0214A934233D119220E23AA
:107510000DE0142209230AE015220A2307E01622AF
:107520000B2304E017220C2301E018220D23DEB206
:1075300017490120C024B04064009B08085103256E
:107540009B00C0245B18A4002E401F59F500FF26A5
:10755000AE40B7433E1CC027AF403D1C35431D51D4
:107560008023DB011A430B4B08605A805A7852B2D1
:10757000002AFBDBF0BDC04600080042000C0042C0
:10758000001000420014004200180042001C00429B
:1075900000E100E0000C0040F8B5041C151C0E1CB6
:1075A0001F1CFFF79FFF201CFFF7B3FEB1001C223A
:1075B0000A4069072368090C0A431A602268842379
:1075C0009375012E1AD10821012D00D110210C4BE9
:1075D00079431868C00001F025FA236807219A89C9
:1075E0000140D2044903D20C0A439A812368000463
:1075F000C20C9889400B400310439881F8BDC046E7
:107600001C000020F7B5019308AB041C1F780D1C6B
:10761000161CFFF7D5FE201CFFF764FFBF070C22E6
:107620001743C022920336051640C02292022D0451
:107630002368154001993E43354307221D600A40E7
:107640008021236889020A435A602268D369590756
:10765000FCD4F7BD0120704708B50368014ADB6917
:10766000984708BD1304000010B5041C0069FFF71B
:1076700050FE201C1430FFF7DAFD10BD08B500697C
:10768000FFF75FFE08BD08B51430FFF7EBFD08BD3E
:1076900008B51430FFF7EFFD08BD08B51430FFF74B
:1076A000CDFD08BD08B50069FFF76BFE012008BDE0
:1076B000F7B51D1C08AB1B78041C009309AB1B78A5
:1076C000161C019300234360FA239B008360094B3F
:1076D0000F1C083303601430FFF78AFD009A231C47
:1076E000C03327619A70019A1E705D70201CDA7099
:1076F000FEBDC04678A1000010B5041C0069FFF76C
:107700002CFE002807D02069FFF737FE011C201C43
:107710001430FFF77AFD2069FFF724FE002805D01A
:107720002069FFF723FE2069FFF713FE10BDF02349
:10773000081C18403038434258417047F0231B0161
:10774000194080239B0099420CD0C0239B00994292
:1077500006D080235B000520994204D0002002E07F
:10776000072000E0062070470F231940012905D0AB
:1077700002394B424B410220C01A00E00020704702
:10778000F0B5031C85B00391C033041C182718788A
:107790003B1C43431B4E0821F3185956151CFFF799
:1077A000AFFB231CC133187808214743F6197156E3
:1077B000FFF7A6FB01210A1C039B2069FFF7ECFEE3
:1077C000291C201CFFF7BAFF291C071C201CFFF7EF
:1077D000CBFF291C061C201CFFF7A9FF391C0090B9
:1077E000331C20690122FFF765FD231CC333197880
:1077F000013B1A782069FFF779FD2069FFF797FDB3
:1078000005B0F0BD189D0000000208437047FEE778
:107810007047000010B5FFF72BFA01F023FEFFF7C9
:10782000F7FF0120FFF752F9084C201C00F0C0FAC6
:10783000201C00F035FBFBF761FCFBF715FA044B4D
:10784000002BFAD000E000BFF7E7C046BF0A0020D7
:107850000000000008B501F02BFE08BD08B501F0DE
:1078600027FE08BD08B501F02DFE08BD08B501F0E2
:1078700029FE08BD3F20704713B502686B46D971D9
:1078800007335468191C0122A04716BD08B50069CA
:10789000022100F0F5FB08BD08B50069032100F0E6
:1078A00005FC08BD38B50D1C041C131C0069032120
:1078B0002A1C00F0F7FC002801D10123636038BDC9
:1078C00010B5054C23685A1C04D10368DB6898473F
:1078D0002060031C181C10BD74000020074A08B566
:1078E0001368591C04D0012149421160181C03E09F
:1078F0000069022100F0C8FC08BDC04674000020E9
:1079000008B503780349023303704222024800F0AD
:107910007FFD08BD30000020BF0A002010B50178AF
:10792000031C42780020A12908D1212A2FD1184810
:107930001849072200F06CFD012028E0212926D1FA
:10794000202A05D113490722114800F0F5FB04E075
:10795000222A10D19A780F4BDA710E4B96221968B1
:10796000D200914210D1DC7901231C400CD1FA20C5
:10797000FFF7F6FB0AE0232A09D1DA789B78120296
:107980001A43054B1A6002E0FFF7F0FB002010BD20
:10799000BF0A0020240000202C000020064BFA2102
:1079A00089009960054900220831196004495A602C
:1079B00019611A767047C046F4050020A8A100009E
:1079C000BF0A00207047000070B582291ED1C2B2E4
:1079D0002A495301CB189D69294C80012C40C025B0
:1079E000AD052C439C61274C0832201858610B6868
:1079F000520199180C798020404220430871D15CD3
:107A00007020814330200143D15435E0002933D127
:107A1000C2B21A495301CB189E68194DC0242E409A
:107A2000A40526439E60184E80010968301808326C
:107A300058605201505C0726B04301263043505431
:107A40009E6935402C439C610E4C5C61505C7024F7
:107A5000A0431024204350549C680C488A182040AE
:107A6000802464032043986098684021800B800341
:107A7000986053790B43537170BDC046C80A00200B
:107A8000FFFFFF8F1C070020E0080020FF3F00F0F1
:107A9000EFF3108303600123436072B670470368FD
:107AA000002B02D162B6BFF36F8F704737B50569FF
:107AB000041C6846002D12D1FFF7EAFF019B013B31
:107AC00003D3621DD57FEDB2F9E768460193FFF756
:107AD000E6FF0020854217D0206AE36913E0FFF734
