:10200000008000206949000051490000514900004A
:1020100000000000000000000000000000000000C0
:102020000000000000000000000000005149000016
:10203000000000000000000051490000BD49000000
:10204000514900005149000051490000A9480000D1
:102050005149000051490000514900005549000014
:1020600051490000C5480000514900005149000095
:102070002548000051490000514900005149000025
:1020800051490000514900005149000051490000E8
:102090000000000051490000514900005149000072
:1020A00051490000514900005149000051490000C8
:1020B0000000000010B5064C2378002B07D1054B1B
:1020C000002B02D0044800E000BF0123237010BDA4
:1020D0005001002000000000CCA7000008B5084B0C
:1020E000002B03D00748084900E000BF07480368F9
:1020F000002B03D0064B002B00D0984708BDC046EC
:1021000000000000CCA7000054010020480100207E
:1021100000000000014B03607047C04608920000B9
:10212000014B03607047C0460892000038B545680F
:102130002C1E06D02368201C9B6898476468AC421C
:10214000F8D138BD034B0360034B03644361C360A4
:102150007047C0461093000008920000043070479A
:1021600010B5034B041C0360FFF7ECFF201C10BDEF
:102170004894000010B5034B041C0360FFF7F0FF08
:10218000201C10BDD09800000020704710B5034BF4
:10219000041C0360FFF7EEFF201C10BD3892000006
:1021A000014B03607047C0466092000010B5054BBC
:1021B000054A0360B8235B00041CC250FFF7E6FF2A
:1021C000201C10BDE09900006092000010B5034B88
:1021D000041C0360FFF7EAFF201C10BD00990000FB
:1021E00010B5041C2368201CDB6898470028F9DA26
:1021F00010BD08B503689B69984708BD704700008B
:10220000014B03607047C0460892000010B5034BB5
:10221000041C0360FFF7DAFF201C10BD8892000049
:1022200008B5406803689B69984708BD08B54068D1
:102230000368DB69984708BD08B5406803689B6878
:10224000984708BD08B540680368DB68984708BD33
:1022500008B5406803685B68984708BD08B54068E2
:1022600003685B69984708BD10B5034B041C036005
:1022700003F0F0FA201C10BD0892000010B5034BCB
:10228000041C036003F0E6FA201C10BD0892000055
:1022900010B5041CFFF756FF201C03F0DBFA201CCE
:1022A00010BD10B5041CFFF75BFF201C03F0D2FA31
:1022B000201C10BD10B5041CFFF75CFF201C03F0B0
:1022C000C9FA201C10BD10B5041CFFF75FFF201CCD
:1022D00003F0C0FA201C10BD10B5034B041C0360B2
:1022E00003F0B8FA201C10BD6092000010B5041C69
:1022F000FFF75CFF201C03F0ADFA201C10BD10B5E9
:10230000041CFFF763FF201C03F0A4FA201C10BD7F
:1023100010B5034B041C036003F09CFA201C10BD95
:102320000892000010B5041CFFF770FF201C03F09A
:1023300091FA201C10BD38B5041C2160081C0968E6
:102340004D68111C1A1CA847E079012806D9012103
:1023500002F0C0FCE079002102F016FD206803685D
:102360005B699847221C0023493253701370013275
:10237000538108321380023A13806423A38038BD4E
:1023800008B5024BFFF7D7FF08BDC0463304000075
:1023900010B5041C02F020FBE36DC01AC317181A15
:1023A000C00F10BDF7B5051C49350026041C01916E
:1023B0002E70206803689B68984700280DD02F78FE
:1023C0003F2F01D90126F4E77B1C20682B7003689E
:1023D000E719DB6898477872EBE7231C50331A88BB
:1023E00001321A80002E08D054342388019A013318
:1023F000238003235B42138001E0019B1E80287829
:10240000FEBD000030B50D4B021C141AE4B28C4224
:102410000FD2547A6340082401251D405B08002D2B
:1024200001D0074D6B40013CE4B2002CF4D10132E5
:10243000EBE71A0A1802104380B230BDFFFF00001C
:1024400001A0000070B5051C49352E78041C311C14
:10245000FFF7D8FFA31902125A72731CDBB2E318FC
:10246000023658722E70E07901280CD9012102F051
:102470008BFCA388002B06D030205843032104F0A6
:10248000DDFA0138FDD12068211C03682A781B6918
:1024900009319847E379012B07D9206803689B69C4
:1024A0009847E079002102F06FFC206803685B69BF
:1024B000984700232B7002F08FFA231C56331B8899
:1024C000C018E065523423880133238070BDF0B515
:1024D000041C85B0081C0393A379000A0E1C01910B
:1024E0000292CDB2C0B2310C92B2002B60D1237AED
:1024F000002B5FD16B1EDBB2F62B5DD8039B6572A0
:10250000A0720D120138E364E57221730F2848D8D8
:1025100004F08AFA080808080C1847474747474755
:1025200047471D2A13126373A27306E01B885A1EC5
:1025300093415B4263730023A3730622231C493338
:102540001A702EE01A88121262731B88F4E71309BE
:102550005B00DBB2110701D00133DBB21112A273B1
:102560006173E3730722E9E7111261735100E173AC
:10257000211C07204931A27308700020904210D01E
:102580000D781F8866193F1277726E1CF6B20E70B6
:102590001F88A61902350130777280B20D700233A0
:1025A000ECE7201CFFF74EFF01232372002004E01C
:1025B000FE2002E0FF2000E0FD2040B205B0F0BDAB
:1025C00038B5031C49331D78041C032D05D8543439
:1025D00023881848013323802AE0A91EC9B2FFF7D7
:1025E00011FF6519EB792A7A1B021343984205D033
:1025F0005434238810480133238019E0A27A002341
:1026000051B2994206DA231C54331A8801321A80D7
:10261000E07A0DE00949595C914208D00133082B5A
:10262000F8D15434238801200133238000E00020B6
:1026300000B238BDF9FF0000FCFF0000F992000075
:1026400070B5051C00246300E97ADA1CD2B249088F
:102650008C420AD2E96CAA18CE18507A917A03F00B
:10266000CFF801343080E4B2EDE770BDF7B5041C5B
:10267000006803689B689847071C201CFFF788FECA
:10268000061E0BD0002323720622231C6033524205
:102690001A80543423880133238031E0002F01D184
:1026A000002039E0251C4A352B789F4205D02F7039
:1026B00002F092F90530A065F2E702F08DF9A36D02
:1026C000C01AEDD46F4606372E70201C391CFFF758
:1026D00069FE3D88002D09D0231C60331D802672C1
:1026E00054342388E8B20133238015E0201CFFF71F
:1026F00067FF3880002805D0231C603318802572BE
:10270000FF2009E0A37A033B012B02D8201CFFF72E
:1027100097FF00232372012040B2FEBD10B5041CB8
:102720000C30FFF7A3FF6F34207010BD38B5204D7B
:10273000281C00F061FE1120012102F0CBFA1120CB
:10274000012102F021FB1B4C9622201C0C301A495F
:10275000D201FFF715FE231CFA22D20062331A8041
:1027600064232382281C211C00F080F902F034F934
:10277000FA239B00C018114B114A186000231370F4
:10278000104A03201370104A104B128858705A8058
:1027900058730F4A0F48118800880F4A01241C7093
:1027A00099809A601C73D88119825A6138BDC046DD
:1027B000FC0100206C010020600400205C0400206B
:1027C000F9010020F801002006000020E0010020AF
:1027D000040000200800002068040020F7B54F4CDA
:1027E0002378251C012B0FD0002B02D0022B2ED0DA
:1027F00092E002F0F1F84A4B1B68C01A002800DC96
:102800008AE02378013320E04648474C031C6C33B0
:1028100000221A8023780C214B43444A0C309958EB
:10282000D3185A689B68FFF752FE2378002B03D118
:102830003F48404902F06EFB2B7801332B70237820
:102840000133DBB2012B00D90023237064E03A4846
:1028500000F019F9334B1A7D002A5DD122706C33D8
:102860001C88002C03D1354D211C288810E0304DE8
:102870003349281C02F03CFB21B2281C0A2202F03A
:1028800098FB49E02F4A4B00CC0704D4D65A0131BB
:102890008142F7DB08E0D45A4A1E521024042A4B26
:1028A00092003443D450F2E7284F2749381C402285
:1028B00005F0EBFF00242B885B089C4215DAA3008F
:1028C000F85805F011FF1A4E0B1C0A21021C00914A
:1028D000301C02F02DFC2B8801345B089C42EAD0AE
:1028E000301C1B4902F004FBE5E70F4B1A781C1C57
:1028F000012A03D10E48164902F0FAFA2378012B77
:1029000003D102F069F8013004E002F065F8FA231F
:102910009B00C018024B1860F7BDC046F8010020AC
:102920005C0400206C010020F9010020E00100207F
:10293000C0070020F2A40000FC01002004000020D9
:10294000F0920000680400201C040020DC0300203A
:10295000F792000070B51C4C0025201C00F058F8C0
:102960001A4A231CFC335A66194A2260194A5A67CC
:10297000EA235B00E01801F065FDBA23164E5B0008
:10298000E554164B321C201C1549236005F01CFF32
:1029900014481223C374FA22031C623392001A8073
:1029A000114B321C08330360031C8574456085603D
:1029B0006F330E491D7005F007FF0D4B0D4A1A606D
:1029C0000D4A5A6070BDC046FC010020D89300003B
:1029D000E099000088930000000000208892000029
:1029E0000D2200006C010020D8920000012200009E
:1029F00060040020B8920000DC060020024B032295
:102A000001201A607047C046A404002070470000EF
:102A1000114B124A08330360114B4261C360421DDF
:102A2000002303618361C3610362D3770D4A83622C
:102A30000264021CD032C362036343638363C363D3
:102A400043648364137053702C329365D3651366AB
:102A5000054B18607047C04608930000C093000003
:102A60002092000030930000880400200369002BAE
:102A700003D149608960016104E09A684B608A6013
:102A800051609960704708B50C30FFF74FFB08BDE7
:102A900008B5403000F022F808BD0000014B03608B
:102AA0007047C0460892000030B5041C90340022E4
:102AB000012522706570A1708C30914201D10360B4
:102AC00000E0026030BD704710B5034B041C03608A
:102AD00002F0C0FE201C10BD08920000FC30036A0A
:102AE0004A61002B02D10960496004E05A680B601A
:102AF0004A601160596001627047F8B58468C76820
:102B00000E1C0025BD4208D02068311C05F0D8FFFE
:102B1000002804D001350834F4E7002000E0201C30
:102B2000F8BD000007B5031C903301211970002186
:102B300059706C338021021C98690091F03B024966
:102B400000F0AFF907BDC046A92A000010B5031C6C
:102B5000FC33041C9961DA61101C211CFFF786FF0D
:102B6000201C04490022FFF7B9FF201CFFF7DAFF01
:102B7000012010BD8C0400200EB403B503AA08CABE
:102B8000FC308069191C019200F00FFA02B008BCF9
:102B900003B01847F7B5031CFC331D6A00902C1EC8
:102BA00019D02269A76801920026E3689E420FD2DD
:102BB000019A3B680098002A03D00849FFF7DCFF20
:102BC00003E007491A1CFFF7D7FF01360837ECE787
:102BD0002468AC42E5D10020FEBDC0464093000011
:102BE000599A0000F7B50024071C0D1C161CA142C1
:102BF0003BD013681E49181C009301F0F5FB041E1E
:102C000005D1381C291C321CFFF7C4FF2DE03B1CEA
:102C1000FC331B6A01931C1E0CD10124644224E086
:102C2000201C0099FFF769FF002815D12468019B3B
:102C30009C42F2D021690029F2D0012DF6DD0098E6
:102C400001F0D2FB0028F1D1201C7168FFF755FF7D
:102C50000028EBD00436013D61692A1C4468331C0E
:102C6000381CA047041E00DA0124201CFEBDC0460B
:102C700047930000021C8C3238B5031C15680C33D6
:102C8000041C5D1900211A1C131C954202D91078EE
:102C900020281DD995420FD088002018943002605A
:102CA000AB4202D21A78202A16D801311F29EAD164
:102CB00001204042AB4211D10B1C24339B00E3188E
:102CC00000225A60221C9432201CFFF78BFF05E083
:102CD000002313700132D7E70133E1E738BD00006C
:102CE00010B5031C91331A78041C002A18D0002256
:102CF0001A705A780133002A0FD1063B1B68C3189B
:102D0000DA72FFF7B7FF021C201C002A03D1094921
:102D1000FFF732FF04E0084900E00849FFF72CFF05
:102D2000231C90331B78002B02D1201CFFF7FAFEE6
:102D300010BDC0464C930000519300005793000013
:102D4000F8B5061C151C1F1C0124AC420DDAA300AB
:102D5000FA586B1E9C4201DA202300E00A23301C43
:102D60000349FFF709FF0134EFE70020F8BDC04633
:102D70006A93000008B507480023036043600361BD
:102D8000054B06498360064A0123C36005F01CFD1C
:102D900008BDC0468C04002074930000C72A0000C0
:102DA0000000002000797047002303717047000085
:102DB000014B03607047C046609200008020000114
:102DC0007047000010B5034B041C036002F042FD85
:102DD000201C10BD6092000010B5041C00F094FC93
:102DE0000021201C21662171024A643001F02DFB74
:102DF00010BDC0463405002008B5643089B201F02A
:102E000061FB08BD08B5643089B201F040FB0120C8
:102E100008BD00000CB470B5134CA2B0061C201CF9
:102E20000D1C02F0B1FD002819D033682B4202D1ED
:102E3000013D033513D927AB269A02A87F210193C0
:102E400006F054F96B4600228733201C1A7002F0FA
:102E50009BFD002803D0201C02A902F049F822B0F3
:102E600070BC08BC02B01847C0070020014B00220C
:102E70001A607047A4040020014B03607047C046ED
:102E80000892000010B5034B041C036002F0E2FC42
:102E9000201C10BD089200000023C1604261037431
:102EA0007047F8B5041C0E1C171C1D1C00290DD002
:102EB0008369002B04D0101C02212A1C069BB047FA
:102EC000069BA661E76125626362A562F8BD10B545
:102ED0008469031C002C06D0002282619B6A026A6E
:102EE000C0699B1AA04710BDC16870B5041C0029B9
:102EF0005AD08269002A57D04069002804D003685C
:102F00001B68984700284FD0E06803689B68984783
:102F1000051E49D0216AA26A8B1A616A5B18AB420E
:102F200002D8002B02D01D1C002622E0E0680368B6
:102F30009B689847002837D0E0680368DB689847AB
:102F4000002831DB0A28F1D1201C01212AE0A36AE4
:102F50005A1CA26218700D2812D1A36A0A22013BE2
:102F60001A700123237400210136022919D1AE42BF
:102F70001AD0E0680368DB6898470028E7DA0FE0BA
:102F800000210A2809D1237C8B4203D0A36A0221A5
:102F9000013BA36200232374E6E721740221E3E7E7
:102FA0000321201CFFF793FF70BD70B5041C40691E
:102FB000A0B00E1C151C002804D003681B6898479D
:102FC00000280DD07F21321C2B1C684606F08EF89D
:102FD0006B4600227F33E06869461A7001F088FF73
:102FE00020B070BD08B5024802F0CEFC08BDC04656
:102FF000C0070020F0B5234F8BB00E1C041C0392B9
:103000000092381C0021204A331CFFF703FF201CCC
:10301000FFF7F4FC051E05D1381C02211B4AFFF7FF
:10302000F9FE2BE0201C06A900F0BEF8221C08CAFD
:10303000201C5F6906A905ABB847059B039AFC34C1
:10304000B343E0661343FA20A366C000104CDA07CE
:103050000CD501F0C7FC201C02F096FC00280DD016
:10306000E121201C490202F08DFC07E001F0BAFCCE
:10307000201C02F089FC0028FAD0F1E7281C0BB0D4
:10308000F0BDC046A4040020E0930000FE930000C1
:10309000C007002010B50021041C054A0548FFF7B1
:1030A000B9FE0021201C0A1CFFF7A4FF10BDC0467A
:1030B00021940000A404002010B58EB0041C081C4C
:1030C00001A900F089F80449021C201CFFF754FDF7
:1030D00000200EB010BDC046599A000010B5041C67
:1030E000FFF794FC201C0249221CFFF7D1FC10BD05
:1030F000A804002008B5074800230360436003616B
:10310000054B06498360064A0123C36005F05CFB5A
:1031100008BDC046A804002068940000C72A00002B
:1031200000000020F7B5171C01911B4800211B4A25
:103130001C1CFFF76FFE1A4B00261B68009324250A
:103140007543184BED18009B9E4218D0281C01991E
:10315000102205F08BFB00280FD1291C381C1431DC
:10316000082205F092FB2869002C13D0EB698269D4
:103170009A432B6A134323600CE00136DFE7381CC7
:103180000021082205F08AFB0020844201D0206043
:1031900000E0201CFEBDC046A40400207094000086
:1031A000AC940000B09400007FB50A4A684670CA2B
:1031B00070C012686B460260002298580C1D0068AF
:1031C00008700131000AA142FAD10432102AF4D168
:1031D0007FBDC04690940000F0B587B00E1C02A9D8
:1031E000FFF7E2FF00252C1C31277F1B7019002CF4
:1031F00001D10A4B00E00A4B02A90A5D391C00927A
:10320000084A05F001FC002805DBB84203DA013466
:103210002D18102CE8D1301C07B0F0BDF2A400002E
:10322000A0940000A2940000036870B5DB69041C40
:1032300098472368051C9B68201C9847002814D0D9
:1032400006CD002A0CD00D1C4B3500235C42C65C19
:103250002C5DA64206D10133082BF7D1081C04E0EF
:10326000101C02E05431013AEBE770BD024B0B60D9
:10327000022313607047C046F0980000F8B51D1C8B
:10328000B8235B000F1CC418161C201C02213A1C1A
:10329000102300F047FD002E05D0201C0121321C18
:1032A000082300F03FFD002D05D0201C0F212A1C13
:1032B000042300F037FDF8BDF0B5424E8DB0041C7C
:1032C0000191151C301C00213F4A0293FFF7A2FD1B
:1032D000B8225200A2180092101C01212A1C0823B7
:1032E00000F0DAFC071E09D1301C1221374AFFF723
:1032F00091FD281C391C082205F0D0FA0098022103
:1033000008AA102300F0C8FC002817D1301C122195
:103310002F4AFFF77FFD201C01992A1C07ABFFF7FE
:1033200001FF071E05D0201C391C2A1C07ABFFF724
:10333000A5FF029B002B35D0079A32E000980F21A1
:1033400004AA042300F0A8FC051E00D10490236801
:1033500006AA1B6A201C05A99847069B059A039399
:103360000192002600E00136039B9E421CD0019A88
:10337000B300D75808A9381C102205F077FA0028A6
:10338000F1D1BB690793002D07D107AA00980F213F
:10339000042300F0C7FC079A0492029B002B01D083
:1033A000049A1A60381C0BE0019A1168002D01D1B3
:1033B0008B690493201C002204ABFFF75FFF002001
:1033C0000DB0F0BDA404002028990000549900001D
:1033D0007F99000010B5041D71300121FF30221CBF
:1033E000082300F059FC011E03D1201C082205F01F
:1033F00055FA201C10BD0000F8B5041CFA20C000CE
:1034000001F0F0FAB8225200A518281CFFF7E4FCDE
:10341000061E43D0281C00F045FA002807D120489A
:103420000221204AFFF7F6FC281C00F028F9201C96
:10343000FFF730FE002801D100262FE0261CB02324
:103440005B001436E218301C1749FFF725FD311CCC
:10345000201CFFF70BFB201C311C221C4030FFF707
:1034600075FB2368201C1B699847281C00F088FE08
:10347000061EE1D0EE225200A7180E213A1C0423AA
:10348000281C00F009FCEE235B00E258281C0132E6
:10349000E2500E213A1C042300F044FC301CF8BD1D
:1034A000A4040020AA990000C0070020F0B59DB038
:1034B0000393061C02920223012A00DC82E005AC81
:1034C0001123039A7131A3710123FF315B425568C7
:1034D0003E4F0591A3603868291C05F0C7FA002803
:1034E00006D13A793A4B9200D158201C00F072FB79
:1034F000364B083718339F42EDD16B461A331B7891
:10350000112B04D1301C3349334A2B1C40E0201CC2
:1035100000F040FC071E102F00D91027029B022B41
:1035200027D1079A013206D1301C2C492A1CFFF7FB
:1035300023FB042346E0201C08A93A1C00F085FB6D
:10354000002806D1301C26492A1CFFF715FB05234D
:1035500038E008AB00930CA9002340220197201CFF
:1035600000F0A6FC301C1F490CAAFFF705FB002346
:1035700028E0039A201C92683B1C0292111C08AAA6
:1035800000F014FC002807D11749029B301C2A1CAC
:10359000FFF7F2FA022315E0201C00F0B7FA00282A
:1035A00006D1301C11492A1CFFF7E6FA072309E06F
:1035B0003A1C201C08A900F083FB4242504106231C
:1035C00040420340181C1DB0F0BDC0460C00002056
:1035D000D8040020109A0000AD9A00001D9A000047
:1035E000329A0000599A0000429A00005D9A000049
:1035F00010B5041CFFF772FD201C0249221CFFF7C6
:1036000047FA10BDC0040020074808B50023036036
:103610004360064B064983600123C360054B064A9D
:10362000036105F0D1F808BDC0040020089A00002D
:10363000C72A0000799A00000000002010B5026837
:103640001378191C3039CCB2092C03D8013202602E
:10365000081C13E0191C4139052904D80132026005
:10366000181C37380AE0191C6139052904D80132C1
:103670000260181C573801E00120404210BD036869
:1036800010B55B69041C9847031C0120002B03D173
:103690002368201C1B69984710BD0000F0B58BB053
:1036A00004AD0126041C0096281C164900220423A0
:1036B00000F03AFC049A002793041B0C0393236840
:1036C00002975A6A201C9446182102AA0823E04750
:1036D0002368391C5A6A201C944618232A1CE04788
:1036E00023686A466E75AE75EE7515215D6A2532E2
:1036F000201C0323A8472368201C5B6998470BB054
:10370000F0BDC046ED9E000000239A000121821802
:1037100049429160C2184C32002101331170112BC3
:10372000F3D17047F0B5041C8DB0FFF7EDFF2368AF
:10373000201C9B699847002801D000252CE04C48AC
:1037400002214C4A4C4BFFF765FB8FE06246A718FD
:10375000BB68059A01950092591C7FD10821474A00
:10376000331C4348FFF756FB2D232E21BD606B44CD
:1037700069441A780B78934202D02F226A44137856
:10378000059962184832137106998BB29B009BB25F
:10379000002B00D10423ED18236E374E9D4227D213
:1037A0002368201C1F6A291C06AA1823B847002872
:1037B00007D100952E480221314A331CFFF72AFB1E
:1037C00054E006A800F000FC002804D10095284829
:1037D00002212C4A19E00BAB1B7806A82A49059355
:1037E00000F0E2FB00280CD00599102909D810E060
:1037F000019300951E480821244A331CFFF70AFB59
:1038000034E01B48224A00950221331CFFF702FBDB
:10381000BAE7059A06991F4B92009B5894464A00B6
:10382000520CD71CBF087F00063789B20020B9426E
:1038300040415F0E0121B943884204D000950C48F5
:103840000221154AE1E799B28A4200D17EE701924E
:103850000291009506480221104A03E00448104AEC
:1038600002930221331CFFF7D5FA8DE70DB0F0BDAE
:10387000A4040020E39A0000B99A00009A9B00007B
:10388000F79A0000169B0000ED9E0000F19B0000DF
:10389000299C0000D8040020399B0000639B000095
:1038A000BD9B0000F0B503688BB09B69051C984771
:1038B0000124071E00D088E02B68281C1C6A391CD4
:1038C00004AA1823A047424E182807D000900221CE
:1038D000301C404A1823FFF79DFA07E0049B002B99
:1038E00006DA3D4A301C0221FFF794FA3C1C6CE0DA
:1038F0003A491A1C0A40120CD41CA408063498B287
:10390000844245D8042A43D104A8354900F04CFB31
:10391000041E05D1301C0221324AFFF77BFA54E025
:1039200009AB1B78002B03D0301C02212E4ADBE7A9
:103930002520262268446A44037817789F4202D0E3
:1039400027236B441F782548049B03401B0C03333B
:103950009B085F432B6806371A6ABF009446281CF1
:10396000391C03AA0423E047042807D00090022151
:10397000301C1E4A3B1CFFF74DFA18E0039B032145
:1039800019400FD104988204120C93420AD310E01C
:103990009904090C00910192301C0221144AFFF78E
:1039A00039FA04E0301C0221124AFFF733FA0024EE
:1039B0000BE001222A712B660093301C0E4A0F4B3C
:1039C000FFF728FA281CFFF7ADFE201C0BB0F0BD56
:1039D000A40400204F9C0000759C00000000FF7FA5
:1039E000ED9E0000969C0000B49C0000CE9C000060
:1039F000FD9C00003C9D0000549D0000CD9E0000F9
:103A0000036870B59B6A041C0D1C98472368061C4C
:103A10009B69201C984700280AD0206E321AB242B7
:103A200006D8EB1C9B089B00AB4201D39A4201D203
:103A30000120404270BD0000F0B50D0CEDB2041C39
:103A4000A81C8000065987B0701C07D10095294832
:103A50000121294A294BFFF7DDF90AE088B28342A8
:103A600009D00093019001212248254A234BFFF7FA
:103A7000D1F900203BE020688F0105D5311C456A53
:103A80001831201CA84732E0611948310F7979427A
:103A90004F41416AFFB28C461821002F03D0D91C38
:103AA0008908063189008919201CE0470028E0D0E8
:103AB000331C153301960326059302930D48082104
:103AC000104A2B1C00970396FFF7A4F9321C2368B9
:103AD0007A43586A0C4984468A18201C0599331C7D
:103AE000E0470028C5D0641948342771012007B089
:103AF000F0BDC046A4040020719D0000D59E0000CA
:103B0000939D0000BA9D0000DD9A0000F0B5051CF1
:103B1000AA688BB00120013251D1AB79112B18D09A
:103B2000284F9B00F95804A82C6800F02FFA049B3A
:103B3000201C9904090CFFF763FF061C0390421C2C
:103B400009D1049A204893041B0C02211F4AFFF755
:103B500061F9002033E02368201C5A6A311C944626
:103B6000182304AAE047039B049A18330393930491
:103B70001B0C183B0193019A002A0ED02368201CCD
:103B80005A6A039994460423114AE047019B043B77
:103B90000193039B04330393EDE73F68201C391C1A
:103BA00003AA04230197FFF747FF0028D1D0039B06
:103BB00001202366AB7902339B001E51AE600BB02F
:103BC000F0BDC046D8040020A4040020F99D0000E8
:103BD000D99A0000F7B50D0CEFB2041C0E1C102F83
:103BE00008D9EDB200950F4801210F4A0F4BFFF79E
:103BF00011F905E0006803689B699847002801D126
:103C000000200DE0EDB22368AA1CA7719200D258E3
:103C1000A680A2600132F3D05D1948352B79E3719B
:103C2000FEBDC046A4040020199E0000C39A0000F7
:103C300010B51123837101235B42041C0160836072
:103C4000111CFFF7C7FF201C10BDF8B5041C00684D
:103C50000E1C0368151C9B69984700281AD0A3689E
:103C60005A1C16D0A2880020954213D12068182132
:103C70000268176AE279002A03D0E91C8908063134
:103C80008900C918321C2B1CB847431E9841C0B28A
:103C900000E00020F8BD00007FB51C1C074B061C8F
:103CA0008900151C01A8CA58311CFFF7C1FF01A8E3
:103CB000291C221CFFF7C9FF04B070BDD8040020E6
:103CC00070B5856886B00E1C131C6A1C04D08479FC
:103CD000112C12D10D4B00E00D4B00938388012174
:103CE000019383790B4A0293C3790B48039304959C
:103CF0000A4BFFF78FF8002006E0094AA400A158FC
:103D00000068321CFFF798FE06B070BD3D9E0000B3
:103D1000359E0000439E0000A4040020BA9E0000CF
:103D2000D8040020F0B51C1C0F4B87B0071C161CD4
:103D30008A000D1CD25803A8391CFFF779FF03A88D
:103D4000FFF7E4FE002807D10095019407480221FF
:103D5000074A084BFFF75EF803A8311C221CFFF747
:103D6000AFFF07B0F0BDC046D8040020A404002077
:103D70008F9E0000E39E00008379112B05D0044A3A
:103D80009B009B5801200B6000E000207047C0465C
:103D9000D804002013B5002401A90194FFF7ECFF1B
:103DA000A04201D0019B9CB2201C16BDF0B589B089
:103DB0000591002507A9141C02930795FFF7DCFF66
:103DC0000390A84202D1002103916DE0079A029965
:103DD00093B29942F7D1029A201C291C04F05EFD8F
:103DE000029A0194A2180492019B0199049A1B1B48
:103DF0000093914245D0059F002D01D0BD420AD1CC
:103E0000381C2D2104F050FE051E04D1291C381C3D
:103E100004F04AFE051C0123EF1B05A81F40FFF715
:103E20000DFC061C002F10D1002806DA059B1A781D
:103E3000029B013B002A22D0C5E705A8FFF7FEFB45
:103E4000002804DB3601361801E00028EEDB01997A
:103E5000059B0E701A782D2A05D15A78002A02D0B7
:103E6000013305930025019A01320192BCE70099C4
:103E700000290ED00139625C0091E254013B591CCB
:103E8000F5D1079BDB010FD5029AA3185208A2189F
:103E900001E0009AF1E7013B944205D021781878BF
:103EA000207019700134F6E7039809B0F0BD0000E6
:103EB000F0B51D1C87B00023029103920593954233
:103EC00000D24B5505A9FFF757FF002823D00D9FBF
:103ED0000026013F3C1C621C1DD00599C90105D577
:103EE0000D9A042A07D9221E03D105E0321EBA42D8
:103EF00002D00A4B01E0221C094B0C9902988A5C03
:103F00000193009203992A1C064B00F05EFA0136D9
:103F10002D18013CDFE7281C07B0F0BDA09400007D
:103F2000F2A40000B39E0000F8B5161C06AA127891
:103F3000041CD81C8008002A00D04000104A00252C
:103F4000904201D8851DADB20E486F1E00228742F7
:103F500000D82A1C0020854210D00B48834200D98B
:103F6000031C1B04D218201C04C0102204F08DFC7A
:103F7000002326756375A375E3750120F8BDC0465F
:103F8000F9FF0000FEFF0000FF7F000013B58BB2B9
:103F90004C0E0A0C0121A1430091D2B20149FFF756
:103FA000C3FF16BDED9E000008B50368002B09DBBA
:103FB000031D1022081C191C04F058FC43425841F0
:103FC000C0B200E0002008BD0368002B0BDB5A00E4
:103FD000520C03329208063292B29BB200209342F6
:103FE0004041C0B200E0002070470000114B124A6F
:103FF0001A60124A5A60124A9A60124ADA60124AE9
:104000001A61124A5A61124A9A61124ADA61124AD4
:104010001A62124A5A62124A9A62124ADA62124AC0
:104020001A63124A5A63124A9A63124ADA63124AAC
:104030001A647047D8040020040000010800010041
:10404000100002000800030108000401040005013B
:10405000010006010100070110000800100009001E
:1040600004000A0104000B0104000C0110000D0003
:1040700004000E0104000F0141001000F0B589009A
:104080000E5885B0301C171C04F024FD6C46051C2E
:104090000F343B1C0094301C291C102200F096F8B1
:1040A0000123002802D0A84200D12378181C05B0B3
:1040B000F0BD0000022038B50C1C151E854213DC33
:1040C00082420AD15868094904F0FAFC031C281CF2
:1040D000002B09D123681B6901E00B68DB68201CF9
:1040E000984701235840C0B238BDC046FD9E00002D
:1040F000F0B59FB003900F1C1C1C022A06DC202385
:104100000493012A09DC002305930DE0181C022109
:1041100004AAFFF7B3FF00282ED1201C012105AA15
:10412000FFF7ACFF002827D10024049DAC4222D227
:104130002D1B102D00D9102506AE00212A1C301C85
:1041400004F0ACFB3B68059A381CA1181A6A2B1CBA
:104150009446321CE047059A5021A318009600228D
:1041600001950AA800F0C8F8039804490AAAFEF7C6
:1041700003FD1034D9E700201FB0F0BD599A0000AC
:1041800008B5034B021C03491868FEF781FC08BD03
:10419000880400201C050020074808B500230360A0
:1041A0004360064B064983600223C360054B064A01
:1041B000036104F009FB08BD1C050020149F0000EA
:1041C000C72A0000029F000000000020F0B587B061
:1041D000051C0C980391161C1F1C002801D00023FD
:1041E0000370002D05D0012E03D0242E01D8039C8E
:1041F0000EE00C990023994200D00B70002F00D0E4
:104200003B60002075E02B78202B04D80135013C61
:10421000002CF8D10AE0012C0AD9002201922D2BA2
:1042200009D101230135013C019304E0019402E02E
:10423000002001900124002E12D1012C0FD92B78DF
:104240000A26302B0CD10826022C09D06B782022AC
:104250009343582B04D10235023C102600E00A2675
:1042600001204042311C02F0E9FB031C7343002291
:10427000DB4304938446131C0292002C25D029783A
:10428000081C4138192801D82031C9B2081C30381F
:104290000090C0B2092801D8009804E0081C6138D9
:1042A000192812D80A30B0420FD2634506D802D17D
:1042B0000499884202D87343C31801E00122534293
:1042C0000120013C01350290D7E7002F08D0002AD9
:1042D00001D0012302E00199002900D05B423B603C
:1042E0000C9B002B00D01A700298002889D00399EB
:1042F000081B07B0F0BD0000F0B58BB00093224B57
:10430000141C061C0F1C00F060F8002509AA0419F3
:104310001570119B9D4213D2109A1C4B525D301C9C
:1043200003920092391C221C00F04FF8039B2418C2
:10433000203B5E2B01D92E23039305AB039A08E0A3
:10434000221C134B301C391C00F03FF800222418AB
:1043500005ABEA54072D08D1221C301C391C0D4B2B
:1043600000F033F808252418D3E70135102DD0D1FB
:1043700005AB0093301C391C221C074B00F025F8BC
:1043800020180BB0F0BDC046ACA00000B2A00000E9
:10439000B8A00000BAA00000BCA0000070B5051CC9
:1043A0000E1C081C8A420FD2002D0DD08C1AA818A2
:1043B000211C1A1C049B04F099FEA04204D3AD19E1
:1043C000013D00232B70601E70BD08B410B585B090
:1043D00007AB10CB03930093079BFFF7DFFF05B0FC
:1043E00010BC08BC01B0184710B5002802D14842E3
:1043F00048411AE000291DD003780A78934203D17E
:10440000002B14D1181C16E01C1C413C192C01D89F
:104410002033DBB2141C413C192C01D82032D2B21B
:10442000934204D00120934205DA404203E0013078
:104430000131E1E7012010BD08B50368C9B21B686E
:10444000984708BD00234370704770B5041C161CC4
:10445000002900D150210723994321706660301C48
:1044600000F0BAF800252178301C6918C9B200F0B4
:1044700013F9301C00F04EF9002806D10135EDB2D9
:10448000082DF0D10120607000E0002070BDF8B56B
:104490000D1C1E1C49050378490FC918041CC9B21C
:1044A0004068171C00F0F8F8E9B26068FFF7C4FF35
:1044B0006068391C0368321C5B689847606800F0CC
:1044C00029F9F8BDF7B54E0500930378760FF61875
:1044D000F6B2051C0C1C4068311C0192FF2700F04D
:1044E000DBF8211C39406868FFF7A6FF686800F018
:1044F00011F9009CBC4200D93C1C311C6868221C8C
:1045000000F0C5F8019FE6B2686803689B689847A9
:10451000002802D1341BE0B2FEBD002CFAD068683E
:10452000013C0368DB68984738700137ECE7F8B561
:10453000051C0F1C161C0024B44208D02B68395DE2
:104540001B68281C9847002801D00134F4E7201C80
:10455000F8BD704708B5183000F060FE08BD08B51A
:10456000183000F06FFE08BD38B5837D0D1C002BA0
:1045700006D0041CC434201C00F07AFE002801D0B0
:10458000002004E0201C291C00F02FFE012038BD73
:1045900008B5183000F05FFE08BD0000F7B50193C4
:1045A000FA239B0083600B4B00250833041C4560F5
:1045B000036018300F1C161C00F00AFE201CC430CB
:1045C00000F006FE019B27612675A575201C63750A
:1045D000FEBDC046C8A0000070B50D49041C0069AE
:1045E00001F018F8206900F0D1FE1826207D331C58
:1045F0004343084D0821EB18595600F0F5FB607D48
:1046000008214643AD19695600F0EEFB70BDC04667
:10461000A0860100E8A00000F7B5041C00200E1CD5
:10462000151C0193824231D0271C1837381C00F02A
:10463000EEFD2069311C012200F0E4FE002823D0A9
:10464000206900F04EFF011C381C00F0CEFD012651
:104650002069AE420ED000F0B5FE0221206900F0C4
:10466000BBFE206900F03DFF011C381C00F0BDFDC1
:104670000136EDE700F09EFE019B002B05D020697E
:10468000032100F0A9FE00E0051CE8B2FEBD08B55C
:104690000123FFF7C1FF08BD10B5B8235B00C1546B
:1046A000041CC43000F0B3FD0123A37510BDF8B5A0
:1046B0000022B82382755B00041C0F1CC15C0069DA
:1046C00000F0A0FE002805D12069032100F084FE3F
:1046D00002251DE0261CC436301C00F0B3FD002866
:1046E0000FD0301C256900F099FDC1B2281C00F0E4
:1046F000B8FE0028EED12069032100F06DFE0325ED
:1047000006E0051C002F03D02069032100F064FEA1
:10471000281CF8BD08B50121FFF7C9FF08BD38B551
:10472000041C006900F0BBFE002879D0206900F06D
:10473000C4FE00280ED1206900F0C9FE00281FD059
:10474000206900F0BFFE00281AD0206900F0C4FEE6
:10475000002815D1206900F035FE2069032100F002
:104760003BFE231CFC33DD6F002D04D02368201C8E
:104770009B689847A847201C183000F048FD4FE080
:10478000206900F0A4FE031C2069002B16D000F065
:1047900019FE2069032100F01FFE206900F09CFE35
:1047A00000283DD0201CC43000F031FD0123A3754A
:1047B000FC34A36F002B33D0984731E000F078FE33
:1047C00000282DD0206900F087FE251C00280FD07E
:1047D000C435281C00F036FDFF21002803D0281C1A
:1047E00000F01CFDC1B2206900F04CFEA07517E07E
:1047F0001835281C00F03CFD031C2069002B02D05A
:1048000000F0D8FD08E000F06CFE011C281C00F050
:10481000ECFC206900F0D6FD2069032100F0DCFDEE
:1048200038BD000008B50248FFF779FF08BDC04653
:104830003405002008B5034803491A221B23FFF75B
:10484000ADFE08BD34050020A0070020104B114A22
:1048500011491A6000225A711A71104B19601C21FB
:1048600019711E2199711D21597101215A72D97135
:104870001A720B490B4B19602421197126215A72A7
:104880009971DA712521022259711A727047C04656
:10489000B006002000093D00B0070020B806002047
:1048A000AC070020C806002008B5044B1B68002B8D
:1048B00000D09847024B01221A7208BDD80600208A
:1048C0000014004008B5024800F012FF08BDC046C1
:1048D000DC06002013B5114C1149201C00F0D8FC57
:1048E0001049114800F0D4FC1049114800F0D0FCE8
:1048F0001049114800F0CCFC1049114800F0C8FCE8
:104900001049114800F0C4FC0323009301230193D4
:10491000211C00220D4800F0C7FE13BDA407002093
:1049200000080042000C0042A807002000100042CE
:10493000AC07002000140042A0070020001800422D
:10494000B0070020001C0042B4070020DC06002055
:10495000FEE7000008B5034B1B68002B00D098470A
:1049600008BDC046B807002038B50F490F4CA1421A
:1049700004D100F055F800F049FF0BE00C4D8D42DA
:10498000F7D00023CA18E818A24204D20068043302
:104990001060F7E7FEE79042EBD0064B064A9342E1
:1049A000E7D2002204C3F9E70000002050010020F4
:1049B000D0A7000050010020B80D002008B500F07D
:1049C0002CF8002801D100F01DF808BD014B18603B
:1049D0007047C046B8070020014B18687047C046B2
:1049E000BC07002070B5041E08D0054B1D681E1CB6
:1049F00000F012F833685B1BA342F9D370BDC046C8
:104A0000BC07002008B5034B1A6801321A6000F099
:104A1000A5FB08BDBC0700207047002070470000C0
:104A200070B5494A1E21536802208B43034347490E
:104A300053608B69082423438B61454C454B9C8212
:104A40009C8A20439882101CDA689407FCD5424A5D
:104A5000012414701478E50704D53F4C647864B2DF
:104A6000002CF7DB01249460547864B2002CFBDB4B
:104A70003A4D394C6560547864B2002CFBDB8225DA
:104A8000354CED016580547864B2002CFBDB0224C8
:104A90009C84DC68E606FCD5314D2E4CE562DD6871
:104AA0002C4CEE06FBD5A58C2E4E3543A584DD6837
:104AB000284CEE06FBD5A58C02263543A584DC6880
:104AC0002506FCD5234CE4686606F8D5DC68E506C7
:104AD000FCD500249460547864B2002CFBDB224D9A
:104AE0001D4C656055781C4C6DB2002DFADB1E6ABA
:104AF0001E4D35401D621D6A8026B5431D6203238D
:104B0000A3601B4B636053785BB2002BFBDB00237D
:104B10000B72184A4B728B72CB72174BFF211A60C3
:104B2000164B174A1B6812685C01D20E21401143D4
:104B30009A06520F12020B1C1343124A1385436844
:104B400080221343436070BD0040004100040040D8
:104B50000C06000000080040000C004001050100A8
:104B6000B805FF7D040A000000070300FFFCFFFFFB
:104B700003060100006CDC02240000202460800099
:104B80002060800000400042314BFA21186810B5C7
:104B9000890001F053FF2F4B0138984224D82E4A48
:104BA0002E4B5060186AC0210002000A090601431A
:104BB00019620024072194601160196A8022090299
:104BC000090A12060A431A62254BFC211A6A0A4393
:104BD0001A62196AFC2292010A431A62196AA02217
:104BE000D2020A431A6200E0FEE7201C00210134D1
:104BF00000F070F8142CF8D11A4C63785BB2002BDB
:104C0000FADB194B6380194B5A7ED209012AFAD07C
:104C1000E422D2009A803F22DA70597E134AC909F1
:104C20000129FAD0C0235B0100201361907000F0CD
:104C300023F863785BB2002BFBDB0D4A094B5A80EB
:104C40000C4BDA79D209012AFAD041225A7010BDF0
:104C500024000020FFFFFF0010E000E000ED00E076
:104C600000040040000C00401E40000000400042D4
:104C7000214000000048004200B5144A517E131C38
:104C8000C9090129F9D00138042813D81969104A33
:104C90000A401A615A780F218A4301F0C5FE0305C4
:104CA00009070300012102E0032100E002210A4379
:104CB0005A700AE01169F0231B050B431361537806
:104CC0000F218B4302210B43537000BD0040004273
:104CD000FFFFFFF010B51824021C201C5043274B87
:104CE0001818007A40B2013046D0032944D8081C75
:104CF000211C01F099FE02331121624398569A1843
:104D0000C3011F4852681B189918403102200870CF
:104D10000121914059602FE06243985618499A1832
:104D20005268C3015B1899184031062008700121B0
:104D30009140596099611FE051435A5610485918E3
:104D40004B68D2011118C8184030062404700120A5
:104D5000984048600B49521850600DE062439856E5
:104D60009A18C301064852681B189918403102204E
:104D7000087001219140996010BDC046E8A0000074
:104D8000004400411044004118235843134AF0B531
:104D9000131808241C5701341FD08256104ED2011C
:104DA0005D6801249019231C8668AB401E420BD11C
:104DB0000E1C771EBE41401934404030A5000478D7
:104DC0000426B4432C430470002903D1054952182A
:104DD000536002E0024E92199361F0BDE8A000001A
:104DE000004400411044004118224243F8B52D4DC3
:104DF0000824AA181457031C621C50D0481C002415
:104E00000C284CD801F010FE071E1E1E1E1E1E1E72
:104E10001E0A0A0A0A000124644240E0092902D15C
:104E2000181C002103E00A2904D1181C0221FFF7F5
:104E300051FF23E000240B2931D1181C0121FFF779
:104E400049FF2CE018225343EA185268EB56012020
:104E5000141C04405508DB01002C11D0124C1B1906
:104E60005D1930352E780C010F21314021439A18FD
:104E7000C9B22970403213781843107000240EE034
:104E8000094E0F279B195D1930352E789A18BE43AD
:104E90003143C9B229704032137818431070201C76
:104EA000F8BDC046E8A0000000440041F7B58A18EC
:104EB000061C0D1C01920C1C019B671B9C4207D019
:104EC000336821781B68301C984701340028F3D1DF
:104ED000381CFEBD38B5051C0C1C081E07D003F09D
:104EE000F9FD2B68021C5B68281C211C984738BD03
:104EF00008B5FFF7EFFF08BD08B503681B689847C2
:104F000008BD000008B50249FFF7E4FF08BDC04630
:104F1000F0A4000038B5041CFFF7DCFF051C201CC2
:104F2000FFF7F0FF281838BDF0B58DB0161C0BAB9D
:104F3000002201900C1C1A70012E00D80A266D4622
:104F40002B35201C311C01F0BDFD201CCFB2311CC3
:104F500001F074FD291C041C092F01D8303700E032
:104F60003737FFB22F70013D002CEAD10198FFF7CF
:104F7000B1FF0DB0F0BDF8B5041C0D1C161E04D118
:104F80000368C9B21B68984712E00A2A0DD10029AC
:104F90000ADA2D21FFF7B0FF6942071C321C201CE2
:104FA000FFF7C2FFC01903E000E0D2B2FFF7BCFF79
:104FB000F8BD08B5FFF7DFFF08BD000000000000E6
:104FC000F7B51C1C08AB1B78071C211C101C151CFA
:104FD000009301F0F9FC002802D1381C504907E089
:104FE000281C211C01F0F0FC012804D14D49381C7B
:104FF000FFF770FF7CE0281C211C404B3E4A01F06B
:1050000097FD002802D0381C4749F1E7281C211CD5
:105010003B4A3C4B01F078FD0028F4D1281C211CB0
:10502000394A3A4B01F070FD002808D02D21381C78
:10503000FFF762FF802109060190641800E00190EB
:105040000026334A334B00998E420AD0101C191C9B
:10505000314A324B02F0BCF80136021C0B1CF6B28E
:10506000F1E7281C211C01F097FD0D1C041C01F028
:1050700073FD061C03F004FB0B1C021C291C201CE6
:1050800002F0A0FF0A22041C0D1C381C311CFFF783
:105090004BFF019B0099C618002904D0381C2349F6
:1050A000FFF718FF3618009B002B20D01A4A1B4B25
:1050B000201C291C02F0F6FC0D1C041C01F04CFD08
:1050C00001900A220199381CFFF72EFF361801982B
:1050D00003F0D6FA0B1C021C291C201C02F072FFE4
:1050E000009B041C013BDBB20D1C0093DBE7301C72
:1050F000FEBDC046C046C046000000E0FFFFEF41D5
:10510000000000E0FFFFEFC1000000000000000011
:10511000000000000000E03F00000000000024400C
:10512000F3A40000F7A40000FBA40000FFA400000B
:1051300013B5049CE1B20091FFF742FF16BD0000D9
:10514000014B18607047C04628000020024B012226
:1051500052421A607047C04628000020154A136862
:10516000581C25D0013B1360002B21D172B6124A86
:10517000124B04329A4207D8BFF34F8F104A114B9B
:10518000DA60BFF34F8F11E00F4B197DC807FBD5D5
:10519000188B2021FF319208520001431983DA61F4
:1051A0000A4A1A801A7DD107FCD5E5E7C046FDE71B
:1051B0007047C046280000200020000003020000C5
:1051C0000400FA0500ED00E00040004102A5FFFFE9
:1051D00010B50021041CA42203F060FB221CA432A1
:1051E0000023201C1360536010BDF8B5051CA435C6
:1051F0002E68041C0F1C701CA42101F063FC231CEE
:10520000A8331B68994201D0A7552960F8BD021C3C
:105210000023A432A83013600360704738B5021C25
:10522000041CA834A43223681268934207D0C55CDA
:10523000A421581C01F046FC281C216001E001203B
:10524000404238BD031CA433A8301A680368D01A42
:1052500000D5A4307047031C021CA833A4321B687D
:105260001268934201D0C05C01E0012040427047C7
:10527000031CA43310B5041C1868A421013001F0EC
:1052800021FCA8342368C81A43425841C0B210BD5B
:1052900001607047F7B508AC267804689D1E276842
:1052A0006C1EA541ECB2920705683A4327063A43C3
:1052B0002A600268072529405068B501002C00D0FB
:1052C0005C03294301430C435460F7BD30B50368C8
:1052D000C0251C68AD0312052A402243C024A40245
:1052E000090421401143196003685A6814435C6043
:1052F00030BD036801211A680A431A600268116808
:1053000001231942FBD1D1691942F8D170470368D2
:1053100002211A680A431A600268D3699907FCD40B
:10532000704703681A7ED10702D41A7E9107FCD514
:105330007047036800225A8370470368187E40074D
:10534000C00F70470368187EC00970470368802249
:10535000197E52420A431A7670470368188DC0B20C
:10536000704703681A7E01200242FBD019857047FE
:10537000036801211A680A431A6002681168012350
:105380001942FBD1D1691942F8D170470368022153
:105390001A680A431A600368DA699107FCD45A8BC9
:1053A00030218A4310210A435A830268D36959077E
:1053B000FCD470470368802219685968D2020A43F6
:1053C0005A6070470368034A196859680A405A606E
:1053D0007047C046FFFFFBFF30B5036803241D681C
:1053E0000C40074A596824040A40ED0622436D0F19
:1053F0005A60052D03D10268D3695907FCD430BD2A
:10540000FFFFFCFF49001143036830B5CDB2598B53
:10541000032409092140012904D0598B09090C40B2
:10542000022CF4D1596AC90AC90229435962036896
:10543000002A03D11A7ED107FCD50DE0187E012287
:105440004008104008D1197E1142F7D05968C02297
:1054500092020A435A6003E05B8B01209B08984349
:1054600030BD0368283319700268107E012318408C
:1054700003D1518B1942F8D003E0528B181C9208CB
:1054800090437047036828331970036800201A7E20
:10549000510703D55B8B01209B0898437047036835
:1054A0001868C006400F043843425841C0B27047E4
:1054B0000368187E4007C00F70470368187E0123F9
:1054C000184070470368588BC006C00F70470368C8
:1054D000187E8007C00F70470368588B0007C00F05
:1054E000704703681A68D206520F052A02D11A7E45
:1054F0009107FCD528331878C0B270470368224A58
:1055000030B5934211D0214A934211D0204A9342A0
:1055100011D0204A934211D01F4A934211D01F4A02
:10552000934230D10E2319220DE0092314220AE000
:105530000A23152207E00B23162204E00C2317226E
:1055400001E00D231822DCB2154901209B08A04080
:105550009B0008605B180320C021890004405D584F
:10556000E000FF248440A5432C1CC0258540281C56
:10557000204358508023DB011A430A4B5A805A7843
:1055800052B2002AFBDB30BD00080042000C004292
:10559000001000420014004200180042001C0042AB
:1055A00000E100E0000C0040F8B5041C151C0E1CC6
:1055B0001F1CFFF7A3FF201CFFF79BFEB1001C225E
:1055C0000A4069072368090C0A431A602268842389
:1055D0009375012E1AD10821012D00D110210C4BF9
:1055E00079431868C00001F029FA236807219A89D5
:1055F0000140D2044903D20C0A439A812368000473
:10560000C20C9889400B400310439881F8BDC046F6
:105610002400002038B5041C0D1CFFF76FFF201C70
:10562000FFF7A6FE236814221A60074B690018686A
:1056300001F004FA2468421EE068FF231A409843F0
:105640001043E06038BDC0462400002001207047B0
:1056500008B50368014ADB69984708BD13040000D8
:1056600010B5041C0069FFF744FE201C1430FFF73E
:10567000CEFD10BD08B50069FFF753FE08BD08B5A3
:105680001430FFF7DFFD08BD08B51430FFF7E3FD68
:1056900008BD08B51430FFF7C1FD08BD08B50069A5
:1056A000FFF75FFE012008BDF7B51D1C08AB1B7896
:1056B000041C009309AB1B78161C01930023436064
:1056C000FA239B008360094B0F1C083303601430DE
:1056D000FFF77EFD009A231CC03327619A70019A60
:1056E0001E705D70201CDA70FEBDC04608A500006B
:1056F00010B5041C0069FFF720FE002807D02069C0
:10570000FFF72BFE011C201C1430FFF76EFD2069F3
:10571000FFF718FE002805D02069FFF717FE206963
:10572000FFF707FE10BDF023081C18403038434235
:1057300058417047F0231B01194080239B00994278
:105740000CD0C0239B00994206D080235B0005202B
:10575000994204D0002002E0072000E006207047B4
:105760000F231940012905D002394B424B41022039
:10577000C01A00E000207047F0B5031C85B003910B
:10578000C033041C182718783B1C43431B4E0821C8
:10579000F3185956151CFFF727FB231CC133187843
:1057A00008214743F6197156FFF71EFB01210A1C19
:1057B000039B2069FFF7F8FE291C201CFFF7BAFFA6
:1057C000291C071C201CFFF7CBFF291C061C201CD2
:1057D000FFF7A9FF391C0090331C20690122FFF755
:1057E00059FD231CC3331978013B1A782069FFF750
:1057F0006DFD2069FFF78BFD05B0F0BDE8A000004E
:10580000000208437047FEE77047000010B5FFF73D
:10581000BBF902F0F1FFFFF7F7FF0120FFF7E2F815
:10582000084C201C00F0DEFA201C00F053FBFCF7B3
:105830007DFFFCF7D3FF044B002BFAD000E000BF44
:10584000F7E7C0468B0C00200000000008B502F00E
:10585000F9FF08BD08B502F0FFFF08BD3F20704703
:1058600013B502686B46D97107335468191C0122BD
:10587000A04716BD08B50069022100F02FFC08BD45
:1058800008B50069032100F03FFC08BD38B50D1CC8
:10589000041C131C006903212A1C00F031FD0028A0
:1058A00001D10123636038BD10B5054C23685A1C33
:1058B00004D10368DB6898472060031C181C10BDE6
:1058C0007C000020074A08B51368591C04D0012148
:1058D00049421160181C03E00069022100F002FD3A
:1058E00008BDC0467C00002008B503780349023398
:1058F00003704222024800F0B9FD08BD38000020C4
:105900008B0C002010B50178031C42780020A129DF
:1059100008D1212A2FD118481849072200F0A6FDE6
:10592000012028E0212926D1202A05D11349072268
:10593000114800F02FFC04E0222A10D19A780F4B76
:10594000DA710E4B96221968D200914210D1DC799F
:1059500001231C400CD1FA20FFF7F2FB0AE0232AB6
:1059600009D1DA789B7812021A43054B1A6002E0DB
:10597000FFF7ECFB002010BD8B0C00202C0000205A
:105980003400002070470000024BD87901231840F2
:105990007047C0462C000020064BFA218900996010
:1059A000054900220831196004495A6019611A76C4
:1059B0007047C046C007002038A500008B0C0020AF
:1059C00070B5C2B219495301CB189E68184DC02456
:1059D0002E40A40526439E60164E800109683018AB
:1059E000083258605201505C0726B043012630430C
:1059F00050549E6935402C439C610F4C5C61505C57
:105A00007024A0431024204350549C680B488A18EB
:105A10002040802464032043986098684021800BD4
:105A20008003986053790B43537170BD940C002030
:105A3000FFFFFF8FAC0A0020E8080020FF3F00F0C6
:105A400038B5041C08CC01211A78051C0A431A70C9
:105A50008022201C0021520002F020FF2B689A783F
:105A6000D107FCD45C6238BD134BF0B51B689903B9
:105A70005A029B01C90ED20E5B0F1F2900D10521CE
:105A80001F2A00D11D22072B00D1032304688E0199
:105A9000278D0A491F2539403143218501682A4055
:105AA0000C8DAC4322430A8502681903108D044B08
:105AB00003400B431385F0BD246080003FF8FFFFD7
:105AC000FF8FFFFFEFF3108303600123436072B683
:105AD00070470368002B02D162B6BFF36F8F704727
:105AE00037B50569041C6846002D12D1FFF7EAFF9F
:105AF000019B013B03D3621DD57FEDB2F9E76846F8
:105B00000193FFF7E6FF0020854217D0206AE36982
:105B100013E0FFF7D7FF019B0025013B04D3221CB4
:105B200034321578EDB2F8E768460193FFF7D1FFFC
:105B30000020854202D0206BE36AC01A3EBD0000FF
:105B4000436810B51A68037A01215B01D318FF334B
:105B50009A7A0A439A72037A42685B01D318C26840
:105B60009C6891040B4A090922400A439A60037A0F
:105B700042685B01D3189A684021920B92039A60A5
:105B800043681A68037A08335B01D3181A790A4309
:105B90001A7110BDFF3F00F0F7B50569041C0E1C1B
:105BA000171C6846002D1FD1FFF78CFF019B013B9E
:105BB0005A1C06D0621DD17F5A1E00293AD0131CF0
:105BC000F6E768460193FFF784FF0025E369BD42CD
:105BD00035D0226A934232D25A1CE261A269D318AC
:105BE0001B7873550135F1E7FFF76CFF019B013B13
:105BF0005A1C08D0221C343215785A1EEDB2002DE2
:105C000018D0131CF4E768460193FFF762FF0025E4
:105C1000E36ABD4226D0226B934241D322E0621D4B
:105C20000021D17730321678581E8E4214D1031CD1
:105C30005A1CF4D168460193FFF74BFF38E0226A03
:105C4000934235D10023E361012323616846FFF7C6
:105C500039FF019B013BEBE71170201C0193FFF71B
:105C60006FFFF6E7226B934222D10023E3622361A8
:105C70006846FFF727FF019B013B5A1CDAD0221C24
:105C800034320021117001321678581E8E4201D133
:105C9000031CF2E71170201C0193FFF751FFEAE7A4
:105CA0005A1CE262A26AD3181B7873550135AFE71C
:105CB000281CFEBD37B54368027A1B6808325201C2
:105CC0009A18041CD0790123FF21184253D0D371B4
:105CD000A068656962680140002D20D14901521811
:105CE000916863618904890C2162A16A68465160E8
:105CF000621DD377FFF7E6FE019B013B5A1C33D0B0
:105D0000221C34321178581EC9B20132002903D046
:105D100001930123137023E01170031CEEE74B0184
:105D2000D3189A68A5699204920C226300226261DA
:105D300068465D60FFF7C6FE019B013B01E0117004
:105D40002B1C591C10D0221C343201201070621DF3
:105D5000D17F5D1EC9B230320029F0D0019310709E
:105D60006846FFF7B6FE06E068460193FFF7B1FE0E
:105D7000201CFFF7E5FE37BD37B500236C46E37105
:105D80000734201C0D1CFFF7AFFD2B681818286086
:105D900000F008FE211C00F0BFFD2B6818182860D9
:105DA00020783EBD03290BD10D4BB2221B68520057
:105DB000985C8021494201439954022168220CE0F9
:105DC00001290CD1064B92221B685200985C80215D
:105DD00049420143995402212822FF3299547047C5
:105DE000940C002038B5304B00240121051C2020E4
:105DF0001C70FEF76FFF20200121FEF7C5FF2B4B23
:105E00001F2001211C70FEF765FF1F200121FEF7F6
:105E1000BBFF274B2021DA6901200A43DA61254BB9
:105E200006241A7802431A70234B0F2219789143E3
:105E3000197019782143197020490C782043087093
:105E400019780A401A701A7860210A431A701C4B9C
:105E50001C4A5A805A78D209FCD11B48FEF7B6FD7D
:105E60001A4C201CFFF7ECFD201CFFF7FDFD2368FA
:105E70007F2219780A401A701A7804210A431A708E
:105E80001A890C218A431A81C121114A890050586C
:105E90000002000A5050802111601A7802210A4342
:105EA0001A7001232B7038BDA80A0020900C002026
:105EB00000040040584400413C4400415944004122
:105EC000000C004006400000F9680000940C00201F
:105ED00000E100E00078002810D0094B01211B6888
:105EE0001A898A431A811A8B08210A431A831A8B4A
:105EF00004210A431A83034B00221A607047C046EC
:105F0000940C0020980D00200F4B9A69920B92037D
:105F10009A611B680222FF331A72987980225242DA
:105F200002439A711A7A9007FCD5084B081C997A9B
:105F30007F221040914301439972997A8022524204
:105F40000A439A727047C046940C002000500041EA
:105F500010B50B790C1C002B0BD1081CFFF7D2FCE1
:105F6000002804D1094B9A69920B92039A6101208F
:105F70000BE000F017FD211C00F002FD0028F6D117
:105F8000024B9A69920B92039A6110BD940C002007
:105F9000F8B50D1C832A16D1CAB242495301CB1859
:105FA0009C694148AD012040C024A405204398616C
:105FB0003E48083245195D610B685201D15C702082
:105FC0008143402065E0022A45D13820FFF73EFC9E
:105FD000374B344F8026036076000023421D036256
:105FE00003614361C36147608560C660D3772F3228
:105FF000041CC36203631370301C537002F022FC54
:10600000A061301C02F01EFCFF232A1C1A40520122
:10601000A062BF18B968244A07260A40C021890532
:106020000A43BA60A16862681940126808314901E0
:10603000885CAD00B043032630438854A168626891
:106040000B405B01A169D3185960201CFFF778FD54
:10605000184BEC5025E0822A1ED1CAB211495301D7
:10606000CB189C691048AD012040C024A4052043F2
:1060700098610E48083245195D610B685201991804
:106080000C798020404220430871D15C702081430C
:1060900030200143D15404E0002A02D1081CFFF74C
:1060A0008FFCF8BD940C0020FFFFFF8FE808002054
:1060B00068A500006C0C002038B5051C0124064BB7
:1060C000A200D258002A06D0211C281C0134FFF758
:1060D0005FFFE4B2F3E738BD8000002008B5084B4D
:1060E0008A00D058002803D003689B68984706E0D0
:1060F000C9B2044B4901591888688004800C08BD56
:106100006C0C0020940C002010B50C1CFFF7E6FF6F
:1061100000280CD0064BE1B21B6808314901591820
:106120004A7980235B4213434B710223CB7110BD2C
:10613000940C002070B5CAB2134B14485401890165
:106140005918031959609D68114908322940802562
:10615000AD022943996099684026890B89039960AB
:106160000368510159180D7935430D7151015918C2
:1061700089794D06FAD551015918C979CD07FAD553
:106180000419A068C0B270BDAC0A0020940C0020B5
:10619000FF3F00F038B50C4B141C1B680D1CFF337F
:1061A0005A7940210A435A710021FFF7C3FFA042E8
:1061B00000D9201C0023A34204D0044A9A5CEA546C
:1061C0000133F8E738BDC046940C0020AC0A00202B
:1061D00010B5C9B20C48490143189A689204920C50
:1061E0003F2A08D9141C9A68403CA404920BA40CC2
:1061F0009203224302E09A68920B92039A6041183C
:106200008868C0B210BDC046940C0020F0B51C1CBC
:106210002F4B85B01B68061C0D1C0292002B51D021
:106220002C4F3978C9B2002902D11F20FEF7ACFDEE
:1062300064233B70284BAA00D058002805D003687F
:1062400002995B68221C984740E0301C291CFFF72C
:1062500045FFA04204D2301C291CFFF73FFF041C5D
:10626000291C301CFFF7B4FF1C4FE9B24A01019111
:10627000396803928B18FF335A7A01210A4318496F
:106280005A72AB01C9180298221C02F0FEFA002CC7
:106290001BD0301C291CFFF721FF002815D1019BC2
:1062A0003A6808335B01D31819794020014319710A
:1062B0000121D97103995318FF339A7A01210A43B6
:1062C0009A7202E00120404200E0201C05B0F0BDBF
:1062D000980D0020900C00206C0C0020940C0020E5
:1062E000AC0A002013B56C460734221C0123FFF7CB
:1062F0008DFF012801D1207801E00120404216BD28
:10630000F0B51C1C3F4B85B01B680E1C0292002B85
:106310006AD08023DB019C4266D83B4D2978C9B204
:10632000002902D12020FEF72FFD642300222B70CC
:106330000092002C56D0354DF7B22B6801933B1CD0
:106340000833019A5B01D3189B79DB091AD0304BD3
:106350003049186800F072FB2F4B1721584300F0AA
:106360006DFB3B1C0833019A5B01D318DB799A075C
:1063700008D42A4B9A5D002A38D1421E002835D015
:10638000101CEEE7254B00229A55251E3F2D00D903
:106390003F25234AB301D318181C02992A1C0393E2
:1063A00002F073FA194A7B01D318039AA9045A61BF
:1063B0009A69890C920B92030A439A613B1C019AD9
:1063C00008335B01D3180222DA71597980225242D4
:1063D0000A435A71009B029A5B1952190093641B7D
:1063E0000292A6E700980BE0012008E001229A55EE
:1063F0007B01ED18AB69101C9B0B9B03AB6140420A
:1064000005B0F0BD980D0020A80A0020940C0020D3
:106410002400002040420F0070110100E00800201D
:10642000E808002070B50E4D1C1C8B01ED18281CCF
:106430000E1C111C221C02F028FAF6B20949760142
:1064400089194D618A69084B201C13408B618B6947
:10645000A2049B0B920C9B0313438B6170BDC0463F
:10646000E8080020940C0020FF3F00F0F7B5114B26
:1064700001901B780F1C141C002B19D10E4B1E7899
:10648000002E01D1151C08E00C4D0D482E888019F6
:10649000361902F0FAF92E800AE0002D08D0BA1958
:1064A0002B1C01980021FFF7BDFF36182D1AF4E7C9
:1064B000201CFEBD8A0C0020880C0020DE08002075
:1064C000DD070020F8B50E1C00AF151E012D28D9E0
:1064D000D31DDB08DB006A46D21A9546081C02F081
:1064E000F9FA01306C4640000323207063700222E9
:1064F000AA420ED23378002B0BD0511CC9B2013600
:10650000A354A94204D0002302326354D2B2EFE76D
:106510002A1C0548211CFFF7A9FF431E9841C0B261
:1065200000E00020BD46F8BD8B0C002008B5044BF0
:1065300000221A70034B04491A88FFF797FF08BD21
:10654000880C0020DE080020DD070020F0B5204A7E
:1065500087B001230026009102A91370051C029642
:10656000FFF70AFC03AC092701903A1C201C311CE0
:1065700002F094F902236370A023E371FA232372DB
:10658000029B0122DB196380019B62712371104A17
:10659000009B27701670BB4205D1281C211C1A1CB9
:1065A000FFF764FF11E00B4B01221A700A4B211C0C
:1065B0003A1C281C1E800296FFF758FF281C02A9CF
:1065C000FFF7DAFB281CFFF7B1FF012007B0F0BD91
:1065D0008A0C0020880C0020DE08002070B5CE78E0
:1065E0008AB0051C0C1C022E08D1C9882348FFF76D
:1065F000ADFF031C581E8341D8B23DE000F0D2F934
:10660000211C00F09EF9002803D0C3171B1AD80FD5
:1066100032E0012E04D1E2881949112A27D823E05B
:10662000032E29D1A278002A05D11649E2880B78D9
:10663000934219D81BE0022A03D1A279281C1249DF
:1066400004E0012A05D1A2791049281CFFF73AFF7E
:1066500012E0032A10D100F0A5F901A900F081F998
:10666000A279281C01A9F1E7D2B2002A00D10A7848
:10667000281CFFF7FBFE01200AB070BD8B0C002028
:106680008EA500008AA50000A0A5000078A5000046
:1066900073B5051C48780C1C0B2878D800F0C4F999
:1066A000081C7728773E4306474B686F00206FE051
:1066B000097801AA002903D111705170281C09E042
:1066C000002313705370334B1B78012B00D11370D0
:1066D000281C002102234FE08A780023012A04D1DC
:1066E00001AA137053702C4BEEE72A4A137049E04D
:1066F0008E78012E07D1284B01AA00211E7011703F
:10670000281C331C38E0002E08D1224A01231370C4
:10671000224A9169890B8903916138E0A178281C8C
:10672000FFF7F2FB33E0281CFFF758FF30E0281C8E
:1067300000211B4A1FE00A780020D30628D1281C1C
:10674000FFF7BAFCA2781549154B02241A600A68B3
:106750002A23FF33D05C2043D0544A20FF30145CFE
:1067600001231C4314548A69920B92038A610EE040
:106770000C4A281C00210123FFF754FE07E08A7809
:10678000084B1A60054B9A69920B92039A6101209B
:1067900076BDC046DC070020890C0020940C002048
:1067A000980D00208C0C0020F8B54B4B071C1C7872
:1067B000002C00D08EE0494D2868838B19070DD539
:1067C000201CFFF7FDF82B6810201A1CFF32917A6D
:1067D00001439172424A146008229A832B689A8B73
:1067E00050071FD504229A833E4B1A78002A0AD0FC
:1067F0001A78013AD2B21A701B78002B03D12020EC
:106800000121FEF7C1FA384B1A78002A0AD01A780B
:10681000013AD2B21A701B78002B03D11F2001213C
:10682000FEF7B2FA2B68FF331A7AD10626D510226A
:106830001A725A7940210A432C495A710A78602306
:10684000381C1A4202D1FFF723FF01E0FFF780FB5B
:10685000002806D02B688022FF33997952420A43E0
:1068600001E0234B20229A712B68FF331A7A5006DD
:1068700004D540221A72597A0A435A722968FE23B3
:106880000E8C00241E40E1B2002E23D0321C0123C6
:1068900022411A4216D0221C28680832520182185E
:1068A000D079184203D1D279DA401A4207D0114B7D
:1068B000A200D058002809D003681B68984701231C
:1068C000A3409E430134092CDDD103E0381CFFF7BF
:1068D00069FAF4E7F8BDC046880C0020940C00204B
:1068E000980D0020A80A0020900C0020AC0A00207F
:1068F000FF5000416C0C002008B50248FFF754FF20
:1069000008BDC0468B0C0020014A024B1A6070473C
:1069100000500041940C002070B544680E1C002506
:10692000002C09D02368201C5B68311C9847002884
:1069300004DB2D18E468F3E7281C01E00120404245
:1069400070BD38B544680D1C002C08D02368201C8D
:106950009B68291C9847002802D1E468F4E7201CB2
:1069600038BD38B544680D1C002C07D02368201CA6
:10697000291CDB689847E4682D18F5E72C7038BDB2
:1069800038B544680D1C002C08D02368201C1B68F7
:10699000291C9847002803D1E468F4E7201C00E094
:1069A000012038BD064B0122196810B51140054879
:1069B00005D1022404700424447041601A6010BDA3
:1069C000A40D00209C0D00200B1C011C021C30B5E6
:1069D00019430220002900D130BD802109068B42D5
:1069E00016D00D4904205C180C498C42F4D90C4D8A
:1069F0005C198C42F0D90B4C590049080320A14284
:106A0000EAD9074C0020A142E6D150425041E3E7C9
:106A1000002AE1D0EFE7C0460000F0FFFFFFDF7F74
:106A20000000F07FFFFF0F0002B4714649084900E3
:106A3000095C49008E4402BC7047C046002934D02E
:106A40000123002210B488422CD301242407A14240
:106A500004D2814202D209011B01F8E7E400A142FD
:106A600004D2814202D249005B00F8E7884201D398
:106A7000401A1A434C08A04202D3001B5C08224370
:106A80008C08A04202D3001B9C082243CC08A042E1
:106A900002D3001BDC082243002803D01B0901D0CD
:106AA0000909E3E7101C10BC7047002801D0002042
:106AB000C04307B4024802A14018029003BDC0467B
:106AC000190000000029F0D003B5FFF7B9FF0EBC94
:106AD0004243891A1847C0467047C0468446101C76
:106AE00062468C46191C634600E0C0461FB500F0A4
:106AF0005BFF002801D40021C8421FBD10B500F083
:106B00008BFE4042013010BD10B500F04DFF002853
:106B100001DB002010BD012010BDC04610B500F003
:106B200043FF002801DD002010BD012010BDC0463C
:106B300010B500F0BBFE002801DC002010BD0120D4
:106B400010BDC04610B500F0B1FE002801DA0020EB
:106B500010BD012010BDC04638B50E4B0C4A041CB8
:106B60000D1CFFF7EFFF002804D1201C291C01F0A9
:106B700053FD38BD074B064A201C291C01F022FAA0
:106B800001F04AFD80231B06C018F2E7C046C0464C
:106B9000000000000000E041F8B55F46564644465C
:106BA0004D46F0B40C034D00CE0F610A440F214353
:106BB000C400180380465800400D8246D80F844612
:106BC0004046400A530F0343D0006D0D371C8346E7
:106BD0005246664500D19DE0AF1A002F00DC03E16C
:106BE000002A38D1184300D0E4E0630709D00F230E
:106BF0002340042B05D0231DA342A441644209195C
:106C00001C1C080200D478E0CE4B6A1C9A4200D1CA
:106C100005E1CD4BE40819404807520549020443F9
:106C20000B0B520D371C002000211B03201C1C0BDA
:106C30000B0D1B05C54D2343520552081D4015433E
:106C40006D006D08FF07291C39433CBC90469946EE
:106C5000A246AB46F8BDBB488542C6D080200004A2
:106C60000343382F00DDECE01F2F00DD20E1202062
:106C7000C01B1A1C814682405846F8400243944685
:106C800058464A469040421E9041FB4062460243AD
:106C90001F1CA21A9442A4416442C91B091B141C64
:106CA0000B02A2D549024F0A002F00D1C4E0381CC4
:106CB00001F06CFD021C083A1F2A00DDB7E0282114
:106CC000091A201C9740C84007439440954200DDB4
:106CD000A9E0551B691C1F2900DDD8E01F22551BA8
:106CE0003B1C221CAB40CA40AC40651EAC41134368
:106CF000CF401C43391C002577E74807E4086A05A4
:106D0000C908520D371C04438E4B9D4248D00903DD
:106D10000B0B88E7AA1A9446002A00DC98E050463C
:106D2000002853D08748854200D15EE780200004C8
:106D300003436246382A00DDFDE01F2A00DD4BE1F7
:106D400020226046101A1A1C8240824691465846FC
:106D50006246D0404A4602439046584652469040CA
:106D6000421E9041424602436046C3401219A2426D
:106D7000A441644259180919141C080200D434E7CC
:106D8000704B01359D4200D124E16F4B60081940E2
:106D9000012323401C1C0443CB071C43490824E760
:106DA0000B1C234300D1C7E180231B030B431B03B0
:106DB0001B0B38E7013F002F64D15846221A94423A
:106DC000A4416442C91A091B141C69E758461843B8
:106DD00000D10AE70122524294446046002800D0C4
:106DE000C5E058460219C2E7002F72D1681C400561
:106DF000400D012800DCDEE05A46A21A9442BF4151
:106E0000C81A7F42C71B380200D488E05A46141BB8
:106E1000A3459241591A52428F1A664644E7371CDD
:106E200000230024FFE64849AD1A3940DDE6271C5F
:106E300028388740002449E7201C01F0A7FC2030B7
:106E400038E75A461A43531E9A41D2B2002720E728
:106E5000002A00D0DDE0681C4205520D012A00DC4A
:106E60008EE0384DA84200D1B3E05D462A19A24217
:106E7000A441644259180919CC075208144349081F
:106E8000051CB2E62F48854200D0EAE6ADE62B1C91
:106E90001F3B3A1CDA40131C20296DD03F22551BA2
:106EA000AF403C43601E84411C43002100259CE60A
:106EB000381C20381A1CC240101C202F5ED04022E3
:106EC000D71BBB405A461A43531E9A410243002720
:106ED000DFE6002D3CD01B4DAA4500D194E0802573
:106EE0002D047F422943382F00DDADE01F2F00DD48
:106EF0002CE12025ED1B081C261CA840FE40AC40C0
:106F00000643651EAC413443F9405D462C1BA34546
:106F100092415B1A5242991A55466646C0E6131CC6
:106F20003B43141C002B00D0BEE6002700220025A6
:106F300000210024E8E65A461A43531E9A41D2B271
:106F4000002313E7FF070000FFFF7FFFFFFF0F8015
:106F50000D1C254358D0FF43002F51D1041BA345DE
:106F60009241591A5242891A5546664698E6964801
:106F7000854200D0DDE638E6002792E70023A1E74E
:106F8000081C2043002D00D0C0E0002800D1FBE009
:106F90005846184300D128E658460219A242A44197
:106FA000644259180919141C0A0200D41DE6874BC3
:106FB0000125194019E6081C2043002D39D100286D
:106FC0006DD15946194300D1BDE0191C5C46664697
:106FD0000BE6051C2A1CABE7604620381A1CC24091
:106FE00060469146202800D1ABE04022121A93401F
:106FF0005A461A43531E9A414B461A430023B5E69C
:10700000714DAA4500D06EE7191C5C465546664690
:10701000EBE5002D1ED10D1C254373D0D543002D6B
:107020006DD15C445C4592415918524289185546CD
:10703000A3E6002849D15946194300D196E0191C0E
:107040005C466646604DD0E50C43611E8C41E4B25F
:1070500000215AE75C4DAA4554D0554280221004C5
:107060000143382D00DD85E01F2D00DD95E0202255
:10707000501B0A1C84468240201CE8400243904674
:1070800062469440601E844142461443E9405C4499
:107090005C459241CB185242991855466DE65846C8
:1070A000184300D1A1E55846271ABC429241C81A9C
:1070B0005242801A02026AD55846041BA3459241E7
:1070C000591A5242891A66468FE55846184336D0F7
:1070D0004807E40804438020C9080003014208D09F
:1070E000DD08054205D15946CA085C071443291C2E
:1070F0006646630FC9001943E400334D75E5324A13
:107100009245AED1191C5C4655466EE5002837D035
:107110005846184313D080254807E408C9082D03B2
:1071200004432942E5D0D8082842E2D15D46EA0866
:107130005C071443011CDCE70023002473E5224DA7
:1071400053E5002354E700270022F1E63D1C203DD3
:107150000A1CEA40151C202F31D04026F71BB940ED
:107160000C43611E8C412C430021CEE6164A0027B9
:10717000151CDDE60C43611E8C41E4B2002186E75C
:10718000191C5C46104D30E5191C5C462DE5031CAE
:107190003B43D8D0011C3C1C27E52020404240192D
:1071A0000A1CC2409046202D0BD04020451BA94010
:1071B0000C43611E8C4145462C43002167E70021AA
:1071C000CEE70021F4E7C046FF070000FFFF7FFF86
:1071D000F0B5564644465F464D46F0B41F1C0B03BF
:1071E0001B0B98464B0087B0041C81465B0DC80FF3
:1071F000161C9A460090002B51D06A4B9A4531D00C
:107200008022414652030A43630FD2001A43664B61
:1072100090460025E20091469A44002402953B03E3
:107220001B0B9B46FD0F7B00311C5B0D019560D055
:107230005C4A934254D08021584649030143720F5F
:10724000C9001143584A8B469B18F1000020009A50
:1072500004436A4003920F2C00D9ADE0534EA400C2
:107260003459A746404604436ED100210225082424
:10727000884689460295D2E7009C0298C346494653
:107280000194022864D0032800D1ABE2012800D089
:1072900038E2019A002402400025A14660E04346FE
:1072A00023434AD04046002800D1C0E101F06EFAE5
:1072B000031E272B00DDB3E128210D1A211C083BFA
:1072C0004246E9409A400D1C1543221C9A40A846AC
:1072D0009146374B00251B1A9A46002402959EE7DB
:1072E0005A4616430320002EB1D1B3460021022096
:1072F000ADE75A4632431BD05B46002B00D18AE1F2
:10730000584601F043FA272800DD7DE12822171AAC
:10731000011C321C08395B46FA408B40171C1F4386
:10732000331C8B40BB46191C214B1B1A00208EE7D7
:107330000027BB460021012089E700200125042405
:107340008046814602956AE703250C24029566E78C
:10735000019C0394039D01222A400024114DA14663
:10736000002000212403260B0C0D2405114B34436F
:107370002D0523402B435B005B08D207191C4846B0
:10738000114307B03CBC90469946A246AB46F0BDBF
:107390000022802424039146024DE1E700240025C9
:1073A000A146DDE7FF07000001FCFFFFB4A50000D8
:1073B0000DFCFFFFFFFF0F805546ED1A0495D845E1
:1073C00000D953E100D14EE1049C0025013C4E461A
:1073D00004944746A946584603020C0E1C43090272
:1073E000250C23041B0C0091381C291C0193FFF76A
:1073F00025FB019983464143381C8A46291CFFF727
:1074000061FB330C090419438A450CD95B46091901
:10741000013B8C4200D947E18A4500D844E1022271
:107420005242934409195346CB1A181C291C9846FA
:10743000FFF704FB071C0198291C7843824640464D
:10744000FFF740FB36040B04360C33439A4509D949
:107450001B197A1E9C4200D924E19A4500D821E1EB
:10746000023F1B195E4632041743380CBB46009E90
:10747000009F51463F0C32045B1A5946BA46120C23
:107480000F043F0C904651467A434F4341464143D7
:1074900056467043CF19160CBE19B14202D9802747
:1074A0007F02C019310C12043604120C4018B618B1
:1074B000834200D2C4E000D1BEE0191A4846861BC0
:1074C000B145BF417F42CF1BA74200D113E1291C28
:1074D000381CFFF7B3FA019902904143381C8946E2
:1074E000291CFFF7EFFA330C0904194389450CD91D
:1074F000029B0919013B8C4200D9FFE0894500D865
:10750000FCE0029F0919023F02974F46CF1B381C2F
:10751000291C0597FFF792FA071C0198291C78434C
:1075200081460598FFF7CEFA36040904360C0E435F
:10753000B14509D936197B1EB44200D9E0E0B14506
:1075400000D8DDE0023F3619029D4946761A29042B
:1075500039430B0457460A0C1B0C4046454658431A
:1075600055437B437A43EB18070CDB199D4202D944
:1075700080256D0252191D0C00041B04000C5219C9
:107580001B18964235D300D1FCE001231943049E19
:10759000994FF519002D00DCA1E0480709D00F2311
:1075A0000B40042B05D00B1D8B42894149428B4473
:1075B000191C5A46D20107D5904B5C46049E802781
:1075C0001C40FF00A346F5198D4B9D427ADD039CBC
:1075D0000122224000248B4DA146C1E680242403D1
:1075E000474627424CD13C432403240B009A854D47
:1075F000B6E63619481EB4425ED9011C9642C4D183
:10760000009E9E42C1D1C2E7031C283B311C994019
:107610008B46002188E6301C01F0B8F8203072E675
:10762000283B211C994000228846914651E6201CA7
:1076300001F0ACF820303BE60021B14500D33DE736
:10764000009F5A46B944B945BF417F423F19FB18D4
:10765000013A9C421ED2984200D97EE000D1B5E0AA
:10766000191A93462AE7894500D8ADE648464646AA
:1076700042467708D3074608C0071E438146AAE65C
:107680005846204212D1044324032A1C240B894665
:107690005C4D65E6A342E3D1009F4F45DBD9211A3B
:1076A00093460BE7171CDDE69B46BCE63C432403F0
:1076B000240B009A534D53E6B24259D800D18AE0C8
:1076C000011C62E75F46C9087B07039E0B437C02EF
:1076D0006D0501229946240B6D0D324040E64A4B60
:1076E000049FDB1B382B10DD039C01222240002469
:1076F0000025A14634E60121494248E7029304E708
:107700001F1C21E7019C039441E71F2B40DC3F48ED
:10771000049F0C1C3A1858469140DC40904020438E
:107720000A1C511E8A41011C11435A46DA40131C9F
:10773000480709D00F220A40042A05D00A1D8A42B0
:10774000894149425B18111C1A0234D5039C01225D
:10775000224000240125A14602E6009F0221494261
:10776000B9448B44B945894149420919CB18A4E66B
:10777000009D881E6900A942AD416D422C19361941
:1077800000913AE7002B00D033E70024009437E75C
:107790001F4A049C5D46121BD5402A1C202B1FD07B
:1077A0001C4E5F46A3199F403B1C19434B1E994139
:1077B00011430023BCE75A07C9080A43039F9146B7
:1077C0005B0201221C0B3A400025C9E54E45C4D896
:1077D0009346002172E6009F9F42C9D3011C0FE728
:1077E0000023E2E7802424035F463C432403240B68
:1077F000019A8946034DB3E5FF030000FFFFFFFE3A
:10780000FE070000FF07000002FCFFFF1E0400004F
:10781000E2FBFFFF3E040000F0B55F4656464D46D2
:107820004446F0B40D1C041C8046E80F8146180342
:107830000F03000B3F0B83B084461B4800974900A1
:107840005E00DF0F490D9246760DBB4681420CD09B
:107850001548864210D00120B14215D003B03CBC7F
:1078600090469946A246AB46F0BD009F01202743B3
:10787000F4D10D488642EED1604602430120002A31
:10788000ECD10120B142E9D1009B6345E6D1D0455E
:10789000E4D1D94506D00029E0D11C43201C441E68
:1078A000A041DBE70020D9E7FF070000F0B55F4605
:1078B00056464D464446F0B4CD0FDE0FAC461D0390
:1078C0002D0BB146374E0F034C00AB465D00804692
:1078D0003F0B640D92466D0DB44232D0314EB5422D
:1078E00035D0002C0ED1384341424141081C002DB7
:1078F0000BD0002919D1CC452DD065466842012313
:10790000184318E0002DF6D1281C59460A4353426B
:107910005341002806D1002BEDD063465842012385
:10792000184308E00020002B05D14A465042504140
:107930004042012318433CBC90469946A246AB46C0
:10794000F0BD3E1C0643C9D002204042F3E75E462C
:107950001643C6D0F8E7AC4207DC0BDA6146484272
:107960004841404201231843E5E76646704201233F
:107970001843E0E75F450AD80ED000205F45DAD211
:10798000654668426841404201231843D3E7624696
:10799000504201231843CEE7D045F8D80020D04507
:1079A000EED3C8E7FF070000F0B556464D46444603
:1079B0005F46F0B40D1C83B0041C0190E80F8146B3
:1079C00018030F03000B3F0B84463548009749000E
:1079D0005E00DF0F490D9246760DB846814234D0E5
:1079E0002F48864236D0002918D0002E1FD1341CD3
:1079F00067463A4353425341002C1FD00020002BCE
:107A000005D142465042504140420123184303B041
:107A10003CBC90469946A246AB46F0BD0098044354
:107A200060426041041C002EE2D00028E9D1C1452B
:107A300015D04F46784201231843E8E7002BF6D0D3
:107A40004B46584201231843E1E7009F0220274399
:107A5000DDD1C5E7674602201743D8D1C3E7B1425D
:107A600004DD4A46504201231843D0E7B14207DB08
:107A700000986045E4D80AD0009F00206745C6D230
:107A80004F4678427841404201231843BFE7019AAC
:107A90005245D5D8019A00205245F1D3B7E7C046E8
:107AA000FF070000F0B5564644465F464D46F0B429
:107AB0001F1C0B031B0B9A464B0087B0041C80460F
:107AC0005B0DC80F161C02938146002B68D0694BD2
:107AD0000299994232D08022534652031A43D2006F
