:100000000C94C1000C9415150C94EE140C94E9009A
:100010000C94E9000C94E9000C94E9000C94E900BC
:100020000C94E9000C94E9000C94E9000C943C1544
:100030000C94E9000C94E9000C94E9000C94E9009C
:100040000C9492140C94E9000C941B130C94F5126C
:100050000C94E9000C94E9000C94E9000C94E9007C
:100060000C94E9000C94E900B61F99207520022039
:100070008A208F202D205A209220A62080217921AD
:100080001E2164216E214721772179210000000083
:10009000240027002A0001020408102040800102E9
:1000A00004081020010204081020040404040404BD
:1000B00004040202020202020303030303030A44CC
:1000C0004E53736572763A20000A44484350737267
:1000D000763A20000A476174657761793A20000A10
:1000E0004E65746D61736B3A20000A49502041647B
:1000F00064723A2000556E61626C6520746F2072E4
:100100006574726965766520746865204950204180
:10011000646472657373210D0A004661696C6564DD
:100120002100436F756C646E277420626567696E89
:1001300028292120436865636B20796F75722077C9
:100140006972696E673F0048656C6C6F2C20434391
:1001500033303030210A0000000000250028002B39
:100160000000000000230026002900000000080015
:10017000020100000304070000000000000000006E
:10018000A92111241FBECFEFD8E0DEBFCDBF12E002
:10019000A0E0B1E0ECE1F6E402C005900D92A03AD7
:1001A000B107D9F726E0A0EAB2E001C01D92AF384E
:1001B000B207E1F710E0C1ECD0E004C02197FE01E6
:1001C0000E94D622C03CD107C9F70E94DE1A0C94C7
:1001D0000C230C940000FC01108211821282138205
:1001E00080E090E00895FC01108211821282138257
:1001F00080E090E00895FC01108211821282138247
:1002000080E090E008952CB5237F24602CBD680F1A
:10021000791F23E08617970751F02EBD00000DB41B
:1002200007FEFDCF3EB5FC013193CF01F3CF08951A
:10023000680F791F8617970751F0FC012191CF01B4
:100240002EBD00000DB407FEFDCF2EB5F3CF0895EF
:100250008091DD02882361F09FB7F8942091DD0240
:100260008091D902213019F48DBB9FBF08958FBFB3
:1002700008952091DD02222399F04FB7F894209140
:10028000DD02213059F42DB32093D9023DB32091E2
:10029000DC02209523232DBB4FBF02C04093D9021F
:1002A0008CBD9DBD0895CF93DF931F92CDB7DEB770
:1002B0006983DC01ED91FC910280F381E02D41E046
:1002C00050E0BE016F5F7F4F09950F90DF91CF9196
:1002D0000895AF92BF92CF92DF92EF92FF920F9369
:1002E0001F93CF93DF936B015A01EC0124967C019D
:1002F0002DEFE20EF11C00E010E0E881F9810488A6
:10030000F589E02DCE010995882359F0E881F9811E
:100310000280F381E02DA501B601CE010995080FF9
:10032000191FCD5ADF4FCE15DF0539F7C801DF9110
:10033000CF911F910F91FF90EF90DF90CF90BF90E2
:10034000AF900895DC011C968D919C911D970097AC
:1003500039F0DC01ED91FC910288F389E02D0994DC
:100360000895DC011C968D919C911D97009739F0A2
:10037000DC01ED91FC910284F385E02D0994089550
:10038000DC011C968D919C911D97009739F0DC0142
:10039000ED91FC910084F185E02D099480E090E0DE
:1003A0000895DC011C968D919C911D97009739F062
:1003B000DC01ED91FC910280F381E02D099480E055
:1003C00090E00895DC011C968D919C911D970097FB
:1003D00039F0DC01ED91FC910088F189E02D099460
:1003E00080E090E00895DC011C968D919C911D9712
:1003F000009739F0DC01ED91FC910480F581E02D4E
:10040000099480E090E00895DC011C968D919C9108
:100410001D97009739F0DC01ED91FC910680F78182
:10042000E02D099480E090E00895DC011C968D9108
:100430009C911D97009739F0DC01ED91FC910190A2
:10044000F081E02D099480E090E00895DC011C9695
:100450008D919C911D97009739F0DC01ED91FC91F5
:100460000488F589E02D099480E00895DC011C964C
:100470008D919C911D97009739F0DC01ED91FC91D5
:100480000684F785E02D099480E090E00895EF92CE
:10049000FF920F931F93CF93DF9300D000D000D033
:1004A000CDB7DEB7FC01848595850097D9F0DB01D7
:1004B000FC0120813181F901E484F58420EE31E0F2
:1004C0003A83298312960D911D912D913C91159798
:1004D0000B831C832D833E83BE016F5F7F4FF7012B
:1004E000099502C080E090E026960FB6F894DEBF32
:1004F0000FBECDBFDF91CF911F910F91FF90EF9075
:100500000895DC01ED91FC910488F589E02D0995B1
:1005100091E0811101C090E0892F08950895DC01D8
:10052000ED91FC910488F589E02D099591E0811108
:1005300001C090E0892F0895809187040E944D1397
:10054000BC01990F880B990B0895882311F061E085
:1005500001C060E0809186040C9476131092DA0258
:1005600080918504823010F40C94DC14089581E0AD
:100570008093DA02809185040C94460CCF93DF932C
:10058000EC01C15BDF4F688179818A819B810E9488
:10059000FC168FEF9FEFDC0188839983AA83BB83CE
:1005A000DF91CF910895CF93DF93EC01C15BDF4FD3
:1005B000488159816A817B8177FD23C0DC01ED91FF
:1005C000FC910480F581E02D0995892B51F4688117
:1005D00079818A819B81FB01E754FD4F20812111A4
:1005E00002C081E00FC00E94FC16E881F981E75447
:1005F000FD4F10828FEF9FEFDC0188839983AA83E0
:10060000BB8380E0DF91CF910895CF92DF92EF928C
:10061000FF920F931F93FB018A0120E030E0DC0181
:10062000A15BBF4F6D917D918D919C91C12CD12C7F
:100630007601AF010E94791A1F910F91FF90EF9000
:10064000DF90CF9008958F929F92AF92BF92CF92FA
:10065000DF92EF92FF920F931F93CF93DF93CDB76B
:10066000DEB72C970FB6F894DEBF0FBECDBFFC01EE
:10067000E15BFF4F80819181A281B381B7FD5FC0B3
:100680003297208131811216130654F4319740813C
:1006900050E04217530724F4C901841B950B51C045
:1006A00019861A861B861C868C019D0145E03595AE
:1006B0002795179507954A95D1F7000F111F000F41
:1006C000111FE1E0F0E0EC0FFD1FE00FF11F4C0106
:1006D0005D012FE182229924AA24BB24C12CD12CB4
:1006E0007601C39404C0CC0CDD1CEE1CFF1C8A9464
:1006F000D2F7C086D186E286F38619821A821B82DF
:100700001C8208E813E120E030E00D831E832F8374
:100710003887BC01CD016F5F7F4F8F4F9F4F9E0188
:100720002F5F3F4FAE01475F5F4F0E94381831E0A7
:1007300020E0019709F030E0832F922F02C080E083
:1007400090E02C960FB6F894DEBF0FBECDBFDF91C0
:10075000CF911F910F91FF90EF90DF90CF90BF90BE
:10076000AF909F908F900895CF92DF92EF92FF927B
:100770000F931F93CF93DF931F92CDB7DEB769839B
:10078000FC01E15BFF4F6081718182819381C12C0B
:10079000D12C760101E010E020E030E0AE014F5FA7
:1007A0005F4F0E94F51897FF02C080E090E00F9025
:1007B000DF91CF911F910F91FF90EF90DF90CF903D
:1007C0000895CF92DF92EF92FF920F931F93FB0158
:1007D0008A0120E030E0DC01A15BBF4F6D917D918B
:1007E0008D919C91C12CD12C7601AF010E94F518FE
:1007F0001F910F91FF90EF90DF90CF900895EF92AF
:10080000FF920F931F93CF93DF93CDB7DEB72A9755
:100810000FB6F894DEBF0FBECDBF8C01CB017A01BD
:100820001F82188619861A86FB0101900020E9F7BD
:100830003197BF01681B790BAE01495F5F4F0E9482
:100840003C164F81588569857A85411551056105AA
:100850007105B9F0892BA9F0D801ED91FC910484C0
:10086000F585E02D80EE91E09A8389834B835C834C
:100870006D837E83A701BE016F5F7F4FC80109951D
:1008800002C080E090E02A960FB6F894DEBF0FBE5B
:10089000CDBFDF91CF911F910F91FF90EF90089501
:1008A000FA01603830E873078105910521F4309131
:1008B0008304316009C0613030E873078105910518
:1008C00031F43091830432603093830421C062306C
:1008D00030E873078105910531F420918304297F65
:1008E0002093830427C0603130E8730781059105A8
:1008F00021F480918304846008C069397105810501
:10090000910531F480918304886080938304089575
:10091000603430E873078105910561F48091B80275
:100920008F5F8093B802422F50E0BF0184EA92E0CB
:100930000C94E122611578488105910541F4E0812C
:10094000E03228F4F0E0E754FD4F81E08083089521
:100950000F931F93FC01E60FF71F438150E060E007
:1009600070E0342F2227112700279281492F50E071
:1009700060E070E0BA0155274427400F511F621F05
:10098000731F8081480F511D611D711D818190E091
:10099000A0E0B0E0BA2FA92F982F88278A019B01E9
:1009A000080F191F2A1F3B1FC901B8011F910F9182
:1009B0000895FC01E60FF71F9181892F90E0982F91
:1009C00088272081820F911D08958F929F92AF9268
:1009D000BF92CF92DF92EF92FF920F931F93CF932C
:1009E000DF93CDB7DEB765970FB6F894DEBF0FBEC5
:1009F000CDBF8C0161E070E00E94D9046C01E12C54
:100A0000F12C96FF69C0811521E4920709F064C0BA
:100A100065E070E0C8010E94D9044C01095F1F4FD6
:100A2000A12CB12CC12CD12C7601A814B90479F0D9
:100A300062E070E0C8010E94D904C80ED91EE11C12
:100A4000F11C0C5F1F4F8FEFA81AB80AEECF8091F0
:100A50007204909173048C0D9D1D90937304809388
:100A6000720480917E0490917F04A0918004B091E3
:100A70008104C80ED91EEA1EFB1EC0927E04D092CD
:100A80007F04E0928004F092810440917E045091B2
:100A90007F04609180047091810480917A04909128
:100AA0007B04A0917C04B0917D04481759076A0724
:100AB0007B0709F025C180918204882309F420C1B5
:100AC000E0916404F091650420E040E050E069E9C1
:100AD00070E080E090E0D3C097FFD3C08034E0E8BE
:100AE0009E0709F46DC0C0F4843020E8920709F431
:100AF000B6C030F481509048029708F017C1AFC0DB
:100B00008031904809F012C1D8011596FE01319646
:100B1000CE010596AF011AC0811524E8920709F4A9
:100B20009EC050F48038F0E89F0709F498C0811502
:100B3000924809F494C0FAC08115E8E89E0709F4C8
:100B40007EC08115994809F48AC0F0C02D91219387
:100B5000E817F907D9F7F80181858D8382858E839F
:100B600083858F83848588873D96DE011996C80129
:100B7000419621912D93E817F907D9F7DE011D96CB
:100B8000C801459621912D93E817F907D9F7DE01A1
:100B90005196C801499621912D93E817F907D9F785
:100BA000F80184818D8B8091640490916504892B78
:100BB00009F4A6C0E0916404F091650425E15DC0EC
:100BC0000B5F1F4F60E070E0C8010E94A8046983BA
:100BD0007A838B839C8364E070E0C8010E94A80440
:100BE0006D837E838F83988768E070E0C8010E94E0
:100BF000A80469877A878B879C876CE070E0C801BE
:100C00000E94A8046D877E878F87988B60E170E0D3
:100C1000C8010E94A804698B7A8B8B8B9C8B809176
:100C2000640490916504892B09F46AC0E09164041E
:100C3000F091650424E1AE014F5F5F4F1EC08091CB
:100C4000640490916504892B09F45AC0E09164040E
:100C5000F0916504A8014B5F5F4F21E00EC08091C9
:100C6000640490916504892B09F44AC0E0916404FE
:100C7000F091650420E040E050E0C701B60109951D
:100C80003FC0F3E0CF16F0E1DF06E104F10421F00C
:100C90008E5090410297C8F5780125E0E20EF11CD4
:100CA00064E070E0C7010E94A804673C7F4F8F4F4B
:100CB0009F4FE1F5F801848190E0A0E0B0E08093DF
:100CC0006E0490936F04A0937004B093710460E07D
:100CD00070E0C7010E94A8044B015C0164E070E071
:100CE000C7010E94A804673C7F4F8F4F9F4F41F47C
:100CF00021E030E040E050E0C501B4010E94B016B0
:100D000061E070E080E090E014C080915604909122
:100D10005704A0E0B0E0C816D906EA06FB0631F099
:100D2000C11420E1D206E104F10451F760E070E063
:100D3000CB0165960FB6F894DEBF0FBECDBFDF9135
:100D4000CF911F910F91FF90EF90DF90CF90BF90C8
:100D5000AF909F908F9008950F931F93CF93DF9341
:100D600081E08093DB028091E8029091E902A091FA
:100D7000EA02B091EB020097A105B10569F481E0A8
:100D800090E0A0E0B0E08093E8029093E902A093A5
:100D9000EA02B093EB02F3C082309105A105B105E0
:100DA00009F0BFC086E090E0A0E0B0E08093E802E8
:100DB0009093E902A093EA02B093EB028CB5809382
:100DC000E1028DB581708093E0028091DF028CBDDD
:100DD0008091DE02882319F08DB5816002C08DB547
:100DE0008E7F8DBD84E591E00E94390160E08091A5
:100DF00088040E9476136AE070E08091EE02909180
:100E0000EF020E94030188E090E0A0E0B0E0809350
:100E1000E8029093E902A093EA02B093EB02C0913A
:100E2000EE02D091EF028D81823019F08430E1F032
:100E30003EC063E070E0CE0105960E94D9049C019B
:100E4000BC0180E090E020FD05C06F5F7F4F8F4FB9
:100E50009F4F05C0611571058105910541F1CE01D6
:100E60000A960E94030123C0088510E020E030E0CC
:100E7000C901B801615071098109910960FF02C07F
:100E8000C901B801611571058105910521F0CE01F7
:100E90000A960E94030188E090E0A0E0B0E0809311
:100EA000E8029093E902A093EA02B093EB02109259
:100EB000DA0280918504823010F40E94DC1461E033
:100EC000809188040E9476130E9428018091E1029B
:100ED0008CBD8091E002882319F08DB5816002C03D
:100EE0008DB58E7F8DBD8091EE029091EF02FC0159
:100EF000EE57FF4F20812E3D09F0FFCF42E050E03A
:100F000060E070E04093E8025093E9026093EA02E7
:100F10007093EB02E091E202F091E30205960995ED
:100F20002EC00397A105B10551F56091E4027091BF
:100F3000E5028091EC029091ED020E94180182E09E
:100F400090E0A0E0B0E08093E8029093E902A093E3
:100F5000EA02B093EB0261E0809188040E9476136C
:100F60000E9428018091E1028CBD8091E0028823DB
:100F700019F08DB5816002C08DB58E7F8DBD109248
:100F8000DB02DF91CF911F910F910895FC01408307
:100F9000518362837383049608958F929F92AF92D8
:100FA000BF92CF92DF92EF92FF920F931F93CF9356
:100FB000DF93CDB7DEB766970FB6F894DEBF0FBEEE
:100FC000CDBF7C016B01FC01E35BFF4F11821082FE
:100FD000319710824D8B5E8B0E94FE0F4B015C019E
:100FE0004D895E896F3F2FEF72078207920709F4E0
:100FF00069C0FB01E754FD4F10828E010F5F1F4F48
:1010000080E1F80111928A95E9F782E090E09A83F5
:1010100089835B834C83F6018281938124813581AE
:101020003D832E839F8388878FEF9FEFDC01898B21
:101030009A8BAB8BBC8BC0905C04D0905D04B501E7
:10104000A401C60109960E94C607FC0188E08083BE
:101050001182128213828483158216821782D8012C
:101060003896CE010996A817B90719F02D9121934A
:10107000FACF44E1B60187E090E10E942516BE0157
:101080006F5E7F4F87E090E10E94351689899A89CB
:10109000AB89BC8990938E0680938D068F3F9F4FBE
:1010A000AF4FBF4F29F4C501B4010E94FC160AC01E
:1010B000F701E15BFF4F80829182A282B38281E0DF
:1010C00090E002C080E090E066960FB6F894DEBF34
:1010D0000FBECDBFDF91CF911F910F91FF90EF9089
:1010E000DF90CF90BF90AF909F908F9008958091A8
:1010F00087040E944D13892B49F48091DB028111F2
:1011000005C08091DA0281110C94AC0608958F928B
:101110009F92AF92BF92EF92FF920F931F93CF9344
:10112000DF93CDB7DEB768970FB6F894DEBF0FBE7A
:10113000CDBF8C010E9477088FEF8983E0905C041B
:10114000F0905D0440E458E360E070E0C701099668
:101150000E94C60740E15EE060E070E00E94C607C2
:101160004EE150E060E070E00E94C60740E050E0D1
:10117000BA010E94C60744E1B70189E090E20E94EB
:101180002516BE016F5F7F4F89E090E20E94351601
:1011900089818111D8C00E9477080E94FE0F77FDD7
:1011A000D2C06D8B7E8B8F8B988F0E947708E090DA
:1011B0005C04F0905D046D897E894B01770FAA086D
:1011C000BB08B501A401C70109960E94C6074FEFED
:1011D0005FEF60E070E00E94C60742E050E060E030
:1011E00070E00E94C607FC0188E0808311821282B1
:1011F000138281E08483158216821782108645E16E
:10120000B70189E090E10E942516BE016F5F7F4F14
:1012100089E090E10E94351689819A81AB81BC8179
:10122000B7FF06C09C0190938E0680938D0602C086
:1012300020E030E037FD87C082E090E09A83898328
:101240001D821E821F821886F801E350FF4F8081A5
:1012500091819827892798279C838B830E94770800
:101260008FEF9FEFDC01898B9A8BAB8BBC8BE0906F
:101270005C04F0905D04B501A401C70109960E94C9
:10128000C607FC0188E08083118212821382848366
:10129000158216821782DE0111963896CE010996C4
:1012A000A817B90719F02D912193FACF44E1B7019E
:1012B00082E090E10E942516BE016F5E7F4F82E0C2
:1012C00090E10E94351689899A89AB89BC899093EF
:1012D0008E0680938D06B7FD36C00E9477088FEF8B
:1012E0009FEFDC01898B9A8BAB8BBC8BE0905C040D
:1012F000F0905D04B501A401C70109960E94C607DC
:1013000040E050E0BA010E94C60748E0B70186E01D
:1013100090E10E942516BE016F5E7F4F86E090E14E
:101320000E94351689899A89AB89BC8990938E066B
:1013300080938D06B7FD07C0F801E150FF4F808212
:101340009182A282B38268960FB6F894DEBF0FBE78
:10135000CDBFDF91CF911F910F91FF90EF90BF9084
:10136000AF909F908F9008954F925F926F927F926F
:101370008F929F92AF92BF92CF92DF92EF92FF92A5
:101380000F931F93CF93DF93EC013C012DE4620E8A
:10139000711C4C018CE4880E911C2E01ECE04E0E69
:1013A000511C5E01FFE4AF0EB11CF30120813181BD
:1013B000121613065CF10E947708F50160817181B5
:1013C00082819381C12CD12C760100E410E020E0D1
:1013D00030E0A2010E94791AF30191838083C996BB
:1013E00091F4F50160817181828193810E94FC16E4
:1013F0008FEF9FEFDC01F50180839183A283B3839C
:1014000080E090E00DC0F4011082CFCFF401808124
:1014100090E02817390779F2C80FD91F8C8590E022
:10142000DF91CF911F910F91FF90EF90DF90CF90C0
:10143000BF90AF909F908F907F906F905F904F90F4
:1014400008954F925F926F927F928F929F92AF9288
:10145000BF92CF92DF92EF92FF920F931F93CF93A1
:10146000DF93EC013C012DE4620E711C5C018CE405
:10147000A80EB11C2E01ECE04E0E511C4E01FFE4F3
:101480008F0E911CF30140815181141615065CF1F9
:101490000E947708F4016081718182819381C12C5F
:1014A000D12C760100E410E020E030E0A2010E949F
:1014B000791AF30191838083C99691F4F4016081D4
:1014C0007181828193810E94FC168FEF9FEFDC0176
:1014D000F40180839183A283B38380E090E010C005
:1014E000F5011082CFCFF5019081292F30E042170E
:1014F000530771F2C20FD31F8C859F5F908390E0DA
:10150000DF91CF911F910F91FF90EF90DF90CF90DF
:10151000BF90AF909F908F907F906F905F904F9013
:10152000089581E08093DA02809185040C94460C42
:101530000F931F93CF93DF93EC01CB018170992719
:1015400021E0822721E028838C01060F171F1983D1
:101550008170860F8A831B821C82809172038E3D6C
:1015600009F0FFCF8091E8029091E902A091EA0290
:10157000B091EB020097A105B10509F4FFCF0197E7
:10158000A105B10509F056C08CB58093E1028DB577
:1015900081708093E0028091DF028CBD8091DE0239
:1015A000882319F08DB5816002C08DB58E7F8DBD09
:1015B00084E591E00E94390160E0809188040E94F6
:1015C000761361E070E080E090E00E94581464E0DF
:1015D00070E0CE010E94180161E070E080E090E0D0
:1015E0000E945814B8016F5F7F4FCE0104960E948D
:1015F000180182E090E0A0E0B0E08093E8029093D0
:10160000E902A093EA02B093EB0261E080918804C2
:101610000E9476130E9428018091E1028CBD809186
:10162000E002882319F08DB5816002C08DB58E7FF0
:101630008DBD7FC0E0916A04F0916B0409958091A3
:10164000E8029091E902A091EA02B091EB028230A7
:101650009105A105B105D9F783E090E0A0E0B0E0E5
:101660008093E8029093E902A093EA02B093EB0220
:10167000D093ED02C093EC020B5F1F4F1093E50275
:101680000093E4028CB58093E1028DB58170809364
:10169000E0028091DF028CBD8091DE02882319F088
:1016A0008DB5816002C08DB58E7F8DBD84E591E0E2
:1016B0000E94390160E0809188040E947613E091D5
:1016C0006804F09169040995E0916604F09167045B
:1016D0000995672B682B692B61F56091E402709185
:1016E000E5028091EC029091ED020E94180182E0E7
:1016F00090E0A0E0B0E08093E8029093E902A0932C
:10170000EA02B093EB0261E0809188040E947613B4
:101710000E9428018091E1028CBD8091E002882323
:1017200019F08DB5816002C08DB58E7F8DBD0E9490
:10173000B7028091E8029091E902A091EA02B0918B
:10174000EB0282309105A105B105D9F760E070E0A8
:10175000CB01DF91CF911F910F910895CF93DF932C
:10176000BC0187EA95E00E945112EC0165E072E04D
:1017700087EA95E00E9451128C0F9D1FDF91CF9157
:101780000895CF92DF92EF92FF926B017C018091DE
:10179000570690915806009709F442C04F2D5527DF
:1017A000662777272AE00E9466126EE2809157062C
:1017B000909158060E944A124E2D50E060E070E071
:1017C0002AE080915706909158060E9466126EE2B8
:1017D00080915706909158060E944A124D2D50E074
:1017E00060E070E02AE080915706909158060E94D0
:1017F00066126EE280915706909158060E944A1236
:10180000B701A6015527662777272AE0809157065A
:1018100090915806FF90EF90DF90CF900C94661255
:10182000FF90EF90DF90CF9008950F931F93CF9389
:10183000DF938C01C0E0D0E0F801EC0FFD1F649154
:10184000662371F0E091A705F091A8050190F08161
:10185000E02D87EA95E00995892B11F02196ECCFD0
:10186000CE01DF91CF911F910F910895CF93DF9318
:101870000E94150CEC0165E072E087EA95E00E9499
:1018800051128C0F9D1FDF91CF9108958230D8F4B3
:10189000E82FF0E0EE0FFF1FEC5FFE4F2CEA36E082
:1018A00031832083813041F0809169008C7F826098
:1018B00080936900E89A089580916900837F886029
:1018C00080936900E99A08956F927F928F929F9218
:1018D000AF92BF92CF92DF92EF92FF920F931F933E
:1018E000CF93DF9300D000D0CDB7DEB78C01E12CD1
:1018F000F12C80E1B82E96E2A92E0E947708809103
:10190000580490915904892BC1F3C0905A04D09087
:101910005B04F6018081843009F02AC261E070E046
:10192000C6010E94D9047C01C6010E94E504672B10
:10193000682B692B09F010C23601F5E06F0E711C9F
:1019400048E0E41640E1F40608F076C086E0E816C8
:1019500080E1F80608F002C1E2E0EE16FE0609F4A6
:10196000FDC000F54DE0E416F10480F488E0E816CF
:10197000F10408F0F3C0E1E0EE16F10408F4ECC164
:10198000F7E0EF16F10408F06CC1E8C04DE0E41692
:10199000F10409F4DEC081E0E81682E0F80609F4FB
:1019A000D8C0DAC1E3E0EE16E0E1FE0610F5F1E0A2
:1019B000EF16F0E1FF0608F0D1C045E0E41642E082
:1019C000F40608F4C6C087E0E81682E0F80609F0DD
:1019D000C3C1F6018481F80181938F0160E070E05A
:1019E000C3010E94A804AB01BC01C8010E94C60744
:1019F000B3C1E4E0EE16E0E1FE0609F4D9C008F454
:101A00000AC160E070E0C3010E94A804F80160838D
:101A100071838283938364E070E0C3010E94A80411
:101A2000F8016483758386839783085F1F4FF601EF
:101A30003D96D8018B2D47C141E1E41640E1F40603
:101A400009F487C008F04BC0EBE0EE16E0E1FE06BB
:101A500009F484C0A8F549E0E41640E1F40609F46D
:101A60007DC008F0EFC060E070E0C3010E94A804F0
:101A7000F801608371838283938364E070E0C30123
:101A80000E94A804F801648375838683978368E0C5
:101A900070E0C3010E94A804F80160877187828703
:101AA00093874801FCE08F0E911C6CE070E0C3014D
:101AB0000E94A804F80164877587868797874BC1C1
:101AC000EFE0EE16E0E1FE0609F4A5C008F051C013
:101AD0004DE0E41640E1F40609F46AC03DC185E03A
:101AE000E81680E2F80609F4F3C060F4F2E1EF16BC
:101AF000F0E1FF0609F453C041E0E41640E2F406C9
:101B000040F52AC18AE0E81680E2F80658F4E8E0D9
:101B1000EE16E0E2FE06E8F4F6E0EF16F0E2FF066D
:101B2000C1F01AC14BE0E41640E4F40609F014C118
:101B3000F601858190E0909373048093720461E0D4
:101B400070E0C3010E94D9049093750480937404DB
:101B500003C1F6018481F8018083FEC060E070E07B
:101B6000C3010E94A804F801608371838283938378
:101B7000F3C060E070E0C3010E94A804F801619323
:101B80007193819391934F0164E070E0C3010E94CF
:101B9000A804F8016483758386839783DCC060E0C2
:101BA00070E0C3010E94D904F80191838083D4C0FE
:101BB00060E070E0C3010E94A804F80160837183B3
:101BC0008283938364E070E0C3010E94A804F8015B
:101BD00064837583868397834801F8E08F0E911C98
:101BE00068E070E0C3010E94A804F8016087718773
:101BF000828793870485158526853785073C1F4F87
:101C00002F4F3F4F09F0A7C021E030E040E050E007
:101C10000E94B016A0C060E070E0C3010E94A8045A
:101C2000F801608371838283938364E070E0C30171
:101C30000E94A804F8016483758386839783085FF4
:101C40001F4F8AC0F6018481F8018483F6018581E3
:101C50009681A781B085F80180839183A283B383A5
:101C60007BC060E070E0C3010E94A804F8016083BB
:101C700071838283938364E070E0C3010E94A804AF
:101C8000F801648375838683978368E070E0C301FD
:101C90000E94D904A0E0B0E0F80180879187A28774
:101CA000B3876AE070E0C3010E94D904A0E0B0E00D
:101CB000F80182879387A487B587045F1F4FF601D9
:101CC0007196D8018A2D01900D928A95E1F744C052
:101CD000C801D8011496F30121913F01FC01219321
:101CE000CF01EA17FB07B9F7F6013996C6010D9641
:101CF00021912D93E817F907D9F7D8011896C60155
:101D0000419621912D93E817F907D9F7D8011C9630
:101D1000C601459621912D93E817F907D9F7D80107
:101D20005096C601499621912D93E817F907D9F7E6
:101D3000D8015496C6014F9621912D93E817F907C3
:101D4000D9F7D8015A96C601CF9621912D93E8175D
:101D5000F907D9F701C08401809156049091570486
:101D6000E816F906D9F4109257041092560416C0DA
:101D700063E070E0C6010E94D904F601628170E060
:101D8000AC01461B570B6B5F7F4F6C0D7D1DC8016F
:101D90000E94E12210927904109278041092590462
:101DA000109258040E94910AF6018081843009F053
:101DB00077C0E114F0E1FF0609F072C019821A82BF
:101DC0001B821C82F6018581823039F1833009F44F
:101DD00045C0813009F064C0809160049091610435
:101DE000892B89F0E0916004F0916104CE010196A5
:101DF0000995009741F060915C0470915D04298120
:101E00003A81AC0108C060915C0470915D0420E0EF
:101E100030E040E050E081E041C080915E0490916C
:101E20005F04892B89F0E0915E04F0915F04CE019C
:101E300001960995009741F060915C0470915D04F2
:101E400029813A81AC0108C060915C0470915D0405
:101E500020E030E040E050E082E020C08091620469
:101E600090916304892B89F0E0916204F0916304FE
:101E7000CE0101960995009741F060915C04709144
:101E80005D0429813A81AC0108C060915C047091C5
:101E90005D0420E030E040E050E083E00E94A015C7
:101EA0008091560490915704892B09F026CD80919A
:101EB000780490917904892B09F01FCD80E090E09F
:101EC0000F900F900F900F90DF91CF911F910F9176
:101ED000FF90EF90DF90CF90BF90AF909F908F904A
:101EE0007F906F900895CF93DF93C9E8D4E060E0CE
:101EF0008C850E94761360E08E850E94761360E0E8
:101F000070E088890E94E21360E070E08A89DF91C6
:101F1000CF910C94E2132EE630E03093900420939E
:101F20008F043093920420939104892B79F460E01C
:101F3000809195040E9476136091910470919204AF
:101F4000809199040E94E21361E00EC061E08091EB
:101F500095040E947613609191047091920480918F
:101F600099040E94E21360E0809197040E94761326
:101F700060918F047091900480919B040E94E21301
:101F80006091890470918A04072E000C880B990BCC
:101F90000E9458140C94730FCF92DF92EF92FF922D
:101FA000CF93DF93AB01BC0177FF1DC06A017B01BA
:101FB0006DE287EA95E00E944A12EC01442755271A
:101FC000BA014C195D096E097F092AE087EA95E09C
:101FD0000E9466128C0F9D1FDF91CF91FF90EF90B2
:101FE000DF90CF9008952AE087EA95E0DF91CF91C6
:101FF000FF90EF90DF90CF900C9466120F931F9399
:10200000CF93DF9300D000D0CDB7DEB78FEF9FEF37
:10201000DC0189839A83AB83BC8300915C041091BB
:102020005D0442E050E060E070E0C80109960E9463
:10203000C60741E050E060E070E00E94C60746E05D
:1020400050E060E070E00E94C6074CE0B80181E01B
:1020500090E10E942516BE016F5F7F4F81E090E105
:102060000E94351669817A818B819C8170938E06DE
:1020700060938D0620E030E0A9010E94B0166981CE
:102080007A818B819C810F900F900F900F90DF9140
:10209000CF911F910F910895EF92FF920F931F938D
:1020A000CF93DF93CDB7DEB7C454D1090FB6F89400
:1020B000DEBF0FBECDBF20E4E2E3F1E0DE0111960A
:1020C00001900D922A95E1F720914406222309F40C
:1020D00064C0AB01BC01E0905C04F0905D0484E25C
:1020E000D70119968C9319971A961C921A971B96DA
:1020F0001C921B971C961C92C7010D960E94C60746
:10210000FC0184E1808311821282138284E684833D
:1021100015821682178285E08087118612861386C3
:102120008FEF84878FE185871686178648E85FEFF3
:102130006FEF7FEFCF0140960E94C607FC0110822F
:102140001182128213828CE2848381E0858316825D
:1021500017828E010F5F1F4F3896CE018F5B9F4F06
:10216000D8012D918D012193A817B907C9F744E62D
:10217000B70183E090E00E942516B80183E090E06B
:102180000E943516F801408151816281738121E0FE
:10219000452B462B472B09F020E0822FCC5BDF4FED
:1021A0000FB6F894DEBF0FBECDBFDF91CF911F9168
:1021B0000F91FF90EF900895CF92DF92EF92FF92F0
:1021C0000F931F93CF93DF936C017A018B01C0E0D3
:1021D000D0E0CE15DF0589F0D8016D918D01D601D3
:1021E000ED91FC910190F081E02DC6010995892BBC
:1021F00011F47E0102C02196ECCFC701DF91CF918F
:102200001F910F91FF90EF90DF90CF900895FC0108
:10221000918D828D981761F0828DDF01A80FB11D1D
:102220005D968C91928D9F5F9F73928F90E0089541
:102230008FEF9FEF0895FC01918D828D981731F0FB
:10224000828DE80FF11D858D90E008958FEF9FEF4F
:102250000895FC01918D228D892F90E0805C9F4F25
:10226000821B91098F739927089587EA95E00E9450
:10227000291121E0892B09F420E0822F0895FC0127
:10228000848DDF01A80FB11DA35ABF4F2C91848DFF
:1022900090E001968F739927848FA689B7892C9334
:1022A000A089B1898C9180648C93938D848D9813CF
:1022B00006C00288F389E02D80818F7D8083089598
:1022C000EF92FF920F931F93CF93DF93EC0181E086
:1022D000888F9B8D8C8D981305C0E889F989808142
:1022E00085FD24C0F62E0B8D10E00F5F1F4F0F737E
:1022F0001127E02E8C8DE8120CC00FB607FCFACF28
:10230000E889F989808185FFF5CFCE010E943F11D0
:10231000F1CF8B8DFE01E80FF11DE35AFF4FF082E4
:102320000B8FEA89FB898081806207C0EE89FF8973
:102330006083E889F98980818064808381E090E00E
:10234000DF91CF911F910F91FF90EF900895CF9360
:10235000DF93EC01888D8823C9F0EA89FB898081AD
:1023600085FD05C0A889B9898C9186FD0FC00FB67F
:1023700007FCF5CF808185FFF2CFA889B9898C91C0
:1023800085FFEDCFCE010E943F11E7CFDF91CF91C6
:10239000089580E090E0892B29F00E943511811189
:1023A0000C9400000895833081F028F4813099F076
:1023B0008230A1F008958730A9F08830B9F08430D8
:1023C000D1F4809180008F7D03C0809180008F7751
:1023D00080938000089584B58F7702C084B58F7D87
:1023E00084BD08958091B0008F7703C08091B000C4
:1023F0008F7D8093B00008953FB7F8948091850653
:1024000090918606A0918706B091880626B5A89B74
:1024100005C02F3F19F00196A11DB11D3FBFBA2F76
:10242000A92F982F8827820F911DA11DB11DBC01D6
:10243000CD0142E0660F771F881F991F4A95D1F79B
:10244000089508950E94DC2221E030E03093590481
:102450002093580490935B0480935A04809158040D
:1024600090915904892BA9F080915A0490915B04B2
:10247000FC012081243069F40E94E504613071057B
:102480008105910531F410925904109258040C946E
:10249000910A0895DC01ED91FC910190F081E02D0D
:1024A00009946115710579F0FB0101900020E9F7AD
:1024B0003197AF01461B570BDC01ED91FC91028077
:1024C000F381E02D099480E090E008954F925F92AF
:1024D0006F927F92EF92FF920F931F93CF93DF93B0
:1024E000CDB7DEB7A1970FB6F894DEBF0FBECDBF54
:1024F0007C01FA01CB0119A2223008F42AE08E01F6
:102500000F5D1F4F422E512C612C712CBF01A30176
:1025100092010E94EA22F901CA01015011096A30B0
:1025200014F4605D01C0695CD8016C93232B242BEB
:10253000252B61F7B801C7010E945112A1960FB671
:10254000F894DEBF0FBECDBFDF91CF911F910F91E9
:10255000FF90EF907F906F905F904F9008958F92D3
:102560009F92AF92BF92CF92DF92EF92FF920F9322
:102570001F93CF93DF937C018B016C0182E0C80E27
:10258000D11C4701E5E08E0E911CC0E0D0E0F601C1
:1025900041916F0150E060E070E02AE0C8010E94C4
:1025A00066125C016EE2C8010E944A128A0D9B1DF0
:1025B000C80FD91FC814D90451F7F701458150E05D
:1025C00060E070E02AE0C8010E9466128C0F9D1F37
:1025D000DF91CF911F910F91FF90EF90DF90CF90FF
:1025E000BF90AF909F908F9008951F920F920FB65B
:1025F0000F9211242F933F934F935F936F937F9389
:102600008F939F93AF93BF93EF93FF9387EA95E0E8
:102610000E943F11FF91EF91BF91AF919F918F91D8
:102620007F916F915F914F913F912F910F900FBECE
:102630000F901F9018951F920F920FB60F921124B2
:102640002F938F939F93EF93FF93E091B705F091B2
:10265000B8058081E091BD05F091BE0582FD12C0F4
:1026600090818091C0058F5F8F732091C105821783
:1026700051F0E091C005F0E0E955FA4F958F809355
:10268000C00501C08081FF91EF919F918F912F91A3
:102690000F900FBE0F901F901895CF93DF93282FA8
:1026A00030E0F901E559FE4F8491F901EA56FF4FF8
:1026B000D491F901E655FF4FC491CC2391F08111DB
:1026C0000E94D311EC2FF0E0EE0FFF1FEF59FE4FE9
:1026D000A591B491EC91ED2381E090E021F480E0AC
:1026E00002C080E090E0DF91CF9108951F93CF93D7
:1026F000DF93282F30E0F901E559FE4F8491F9016D
:10270000EA56FF4FD491F901E655FF4FC491CC230F
:10271000C9F0162F81110E94D311EC2FF0E0EE0FBB
:10272000FF1FE95AFE4FA591B4918FB7F89411118C
:1027300005C09C91ED2FE095E92302C0EC91ED2BB3
:10274000EC938FBFDF91CF911F910895CF93DF93CB
:1027500090E0FC01EA56FF4F2491FC01E655FF4F43
:102760008491882361F190E0880F991FFC01E45760
:10277000FF4FC591D491FC01E95AFE4FA591B49148
:10278000611109C09FB7F8948881209582238883BE
:10279000EC912E230BC0623061F49FB7F89438811E
:1027A000822F809583238883EC912E2B2C939FBFBF
:1027B00006C08FB7F894E8812E2B28838FBFDF9156
:1027C000CF9108951F93CF93DF93182FEB0161E012
:1027D0000E94A613209711F460E004C0CF3FD105FA
:1027E00039F461E0812FDF91CF911F910C94761322
:1027F000E12FF0E0E559FE4FE491E330F9F048F4C1
:10280000E130B9F0E230A1F584B5806284BDC8BD85
:1028100034C0E730E9F0E83019F1E43049F580914F
:102820008000806280938000D0938B00C0938A00E8
:1028300024C084B5806884BDC7BD1FC0809180005E
:10284000806880938000D0938900C093880015C071
:102850008091B00080688093B000C093B3000DC039
:102860008091B00080628093B000C093B40005C036
:10287000C038D1050CF0B5CFAFCFDF91CF911F910C
:1028800008958E3008F08E508770806480937C00AD
:1028900080917A00806480937A0080917A0086FD2E
:1028A000FCCF809178002091790090E0922B0895E0
:1028B0008F929F92AF92BF92CF92DF92EF92FF9250
:1028C0006B017C010E94FC114B015C01C114D1041D
:1028D000E104F104F1F00E94FC11DC01CB01881944
:1028E0009909AA09BB09883E9340A105B10570F377
:1028F00021E0C21AD108E108F10888EE880E83E0D1
:10290000981EA11CB11CC114D104E104F10419F7F3
:10291000DDCFFF90EF90DF90CF90BF90AF909F9072
:102920008F9008951F920F920FB60F9211242F933C
:102930003F938F939F93AF93BF938091890690911C
:102940008A06A0918B06B0918C063091840623E014
:10295000230F2D3720F40196A11DB11D05C026E8D7
:10296000230F0296A11DB11D209384068093890632
:1029700090938A06A0938B06B0938C06809185066F
:1029800090918606A0918706B09188060196A11DB8
:10299000B11D8093850690938606A0938706B09319
:1029A0008806BF91AF919F918F913F912F910F908A
:1029B0000FBE0F901F901895882321F0813019F4D5
:1029C000E99801C0E898E82FF0E0EE0FFF1FEC5FF8
:1029D000FE4F81E292E19183808308951F920F92CE
:1029E0000FB60F9211242F933F934F935F936F93E2
:1029F0007F938F939F93AF93BF93EF93FF93E09158
:102A00000601F09107010995FF91EF91BF91AF91F8
:102A10009F918F917F916F915F914F913F912F91F6
:102A20000F900FBE0F901F9018951F920F920FB628
:102A30000F9211242F933F934F935F936F937F9344
:102A40008F939F93AF93BF93EF93FF93E091040114
:102A5000F09105010995FF91EF91BF91AF919F9181
:102A60008F917F916F915F914F913F912F910F9037
:102A70000FBE0F901F9018951F920F920FB60F92D6
:102A800011242F933F938F939F93EF93FF93809104
:102A9000830687FF05C0109285001092840005C050
:102AA0008091830687FD80918306809183068F5FE6
:102AB000809383068091830687FF20C080918306E0
:102AC0008C30E4F42091840030918500809183065D
:102AD000082E000C990BFC01EE0FFF1F8E0F9F1F9D
:102AE000FC01E15AF94F81819281820F931F9093EB
:102AF0008900809388008091830617C080918400AC
:102B000090918500049680349C4918F480E49CE9F7
:102B100005C080918400909185000496909389006F
:102B2000809388008FEF80938306FF91EF919F91B0
:102B30008F913F912F910F900FBE0F901F9018957E
:102B40008F929F92AF92BF92CF92DF92EF92FF92BD
:102B50000F931F93CF93DF938B01BA01E90123E019
:102B6000F80125838683CE01029687839087C8016A
:102B70000B96C93EF3E0DF07C0F4F801C187D287A6
:102B8000AE010E94E122BE016A5F7F4FC801DF9162
:102B9000CF911F910F91FF90EF90DF90CF90BF905A
:102BA000AF909F908F900C94980A38EEF80131877F
:102BB000228728EE33E0FA01DC0101900D922150CA
:102BC0003040D9F7C85ED3406A01F8E1CF1AFCEF74
:102BD000DF0A6EEE73E0C8010E94980A480127E000
:102BE000820E911C580135E0A30EB11C0E9477089B
:102BF000C93E83E0D80738F0C85ED34088EEE82E9F
:102C000083E0F82E03C07E01C0E0D0E0F801F68238
:102C1000E582A701B601C4010E94E122CE0CDF1CAF
:102C2000B7016E5F7F4FC5010E94980A2097F1F6A9
:102C3000DF91CF911F910F91FF90EF90DF90CF9098
:102C4000BF90AF909F908F900895FB0121E0258366
:102C500086839783408750E0BA016C5F7F4FCF0136
:102C60000E94980A80E090E0089590935704809322
:102C70005604CB010C94640CAF92BF92CF92DF92BA
:102C8000EF92FF920F931F93CF93DF93CDB7DEB7F1
:102C900028970FB6F894DEBF0FBECDBF5C017B0155
:102CA0006A018FEF9FEF90938E0680938D06673EAB
:102CB000710508F042C000915C0410915D0488E049
:102CC000D80119968C9319971A961C921A971B96ED
:102CD0001C921B971C961C92AB0160E070E0C8012F
:102CE0000D960E94C607F50195012E0D3F1DE217B6
:102CF000F30729F04191DC014D93CD01F8CF48E075
:102D00004E0DB80180E190E10E942516BE016F5F73
:102D10007F4F80E190E10E94351689819A819093DE
:102D20008E0680938D064D815E816F817885F601D8
:102D3000408351836283738302C08FEF9FEF289695
:102D40000FB6F894DEBF0FBECDBFDF91CF911F91BC
:102D50000F91FF90EF90DF90CF90BF90AF900895CC
:102D60008F929F92AF92BF92CF92DF92EF92FF929B
:102D70006830710581059105B0F5223031054105B6
:102D8000510588F5E1E0F0E0062E02C0EE0FFF1FCE
:102D90000A94E2F7E095F0956F01FF0FEE08FF0847
:102DA0008090080190900901A0900A01B0900B0159
:102DB000C820D920EA20FB2049015A0104C0880C10
:102DC000991CAA1CBB1C6A95D2F7D701C601882999
:102DD0009929AA29BB298093080190930901A093FE
:102DE0000A01B0930B01FF90EF90DF90CF90BF905E
:102DF000AF909F908F900895CF92DF92EF92FF92C5
:102E00000F931F93CF93DF9300D000D0CDB7DEB7E1
:102E10006B017C018FEF9FEFDC0189839A83AB8389
:102E2000BC8300915C0410915D04B701A601C80148
:102E300009960E94C60744E0B8018BE090E10E9429
:102E40002516BE016F5F7F4F8BE090E10E94351623
:102E500089819A8190938E0680938D0621E030E0DF
:102E600040E050E0C701B6010E94B01669817A8146
:102E70008B819C810F900F900F900F90DF91CF91DD
:102E80001F910F91FF90EF90DF90CF9008952F92B8
:102E90003F924F925F926F927F928F929F92AF92EA
:102EA000BF92CF92DF92EF92FF920F931F93CF9337
:102EB000DF93CDB7DEB72C970FB6F894DEBF0FBE09
:102EC000CDBF4B015C0129013A01CE0101961C01E5
:102ED00086E0F10111928A95E9F78FEF9FEFDC010F
:102EE0008F839887A987BA8780915C0490915D044D
:102EF0009C878B878CE1EB85FC8581871286138606
:102F00001486BA01A901CF010D960E94C607B5012A
:102F1000A4010E94C607B301A201405F5F4F6F4F3B
:102F20007F4F0E94C607B701A6010E94C607FC0199
:102F300010821182F101DC0112965E0127E0A20EDF
:102F4000B11C21912D93EA15FB05D9F7FC013896A8
:102F5000A8E9B2E0AD014859524060E070E0441584
:102F60005505660577051CF48D918193F3CFC11447
:102F7000D104E104F10479F54CE14C0D440D6B856D
:102F80007C8581E090E00E942516B50181E090E00B
:102F90000E9435166F81788589859A8570938E0693
:102FA00060938D062C960FB6F894DEBF0FBECDBF92
:102FB000DF91CF911F910F91FF90EF90DF90CF9015
:102FC000BF90AF909F908F907F906F905F904F9049
:102FD0003F902F9008950115110571F2D801AD01B0
:102FE000401B510B60E070E04C155D056E057F05E0
:102FF0001CF68D918193F3CF0F931F93CF93DF93A3
:1030000000D000D0CDB7DEB7AB01BC018FEF9FEF92
:10301000DC0189839A83AB83BC8300915C041091AB
:103020005D04F801118612861386148615861686AD
:103030001786108AC80141960E94C6074CE0B80165
:1030400084E090E00E942516BE016F5F7F4F84E010
:1030500090E00E94351669817A818B819C810F9066
:103060000F900F900F90DF91CF911F910F910895C6
:103070008F929F92AF92BF92CF92DF92EF92FF9288
:103080000F931F93CF93DF93CDB7DEB760970FB643
:10309000F894DEBF0FBECDBF7A018901C0905C04F9
:1030A000D0905D04AB01BC01C60109960E94C60721
:1030B000FC0184E180831182128213828483158251
:1030C000168217828087118612861386848715865A
:1030D0001686CF014096178641E050E060E070E030
:1030E0000115110519F040E050E0BA010E94C60731
:1030F000E114F10431F0F701408151816281738163
:1031000003C040E050E0BA010E94C60740E050E032
:10311000BA010E94C60740E050E0BA010E94C6070B
:103120000115110549F1F8014081518162817381D6
:103130004115510561057105B1F484809580A68023
:10314000B780F8E88F16F3E19F06A104B1045CF4A0
:1031500028E8822E23E1922EA12CB12CF801848242
:103160009582A682B7820E94C607F80144815581E4
:10317000668177810E94C6074CE2B60188E090E143
:103180000E942516BE016F5F7F4F88E090E10E948C
:10319000351689819A81AB81BC81B7FD0DC0E114E0
:1031A000F10481F04D815E816F817885F701408364
:1031B00051836283738306C090938E0680938D063D
:1031C0008FEF9FEF60960FB6F894DEBF0FBECDBFB6
:1031D000DF91CF911F910F91FF90EF90DF90CF90F3
:1031E000BF90AF909F908F9008952F923F924F92F3
:1031F0005F926F927F928F929F92AF92BF92CF9287
:10320000DF92EF92FF920F931F93CF93DF93CDB78F
:10321000DEB7A4970FB6F894DEBF0FBECDBF4B014B
:103220005C011A0128013901CB012FB7F8944091B4
:10323000890650918A0660918B0670918C064D8BA1
:103240005E8B6F8B788F2FBF21E030E0082C02C09F
:10325000220F331F0A94E2F7A901330F660B770B95
:10326000498F5A8F6B8F7C8F840125E016950795C7
:103270002A95E1F794012F71332741E050E060E097
:1032800070E004C0440F551F661F771F2A95D2F7C0
:10329000498B5A8B6B8B7C8B9C01092E000C440B49
:1032A000550B2D8F3E8F4F8F58A3000F111F000F0E
:1032B000111F41E050E04C0F5D1F040F151F045F0C
:1032C0001F4F01969C01990F440B550B29A33AA35C
:1032D0004BA35CA380916E0490916F04A091700445
:1032E000B0917104892B8A2B8B2BC9F040916E040D
:1032F00050916F046091700470917104CA015093F1
:103300008E0640938D0610926E0410926F041092F8
:10331000700410927104009709F475C0D1C04D8DEE
:103320005E8D6F8D78A1483051056105710508F0FB
:10333000C2C08091080190910901A0910A01B09149
:103340000B01298D3A8D4B8D5C8D82239323A42311
:10335000B523892B8A2B8B2B09F0ADC02FB7F8949E
:103360008091890690918A06A0918B06B0918C0677
:103370002FBF2D893E894F89588D821B930BA40B3B
:10338000B50B81339547A105B10508F097C0809131
:10339000720490917304892B31F51D861E861F8659
:1033A000188A49895A896B897C89D8014D935D9324
:1033B0006D937C93139719821A821B821C8228E8D2
:1033C00033E140E050E02D833E834F8358879E01D8
:1033D0002F5F3F4FAE01435F5F4F69A17AA18BA181
:1033E0009CA10E9438188091720490917304892BDB
:1033F00009F470CF809172049091730401979093B7
:1034000073048093720480917A0490917B04A0915C
:103410007C04B0917D040196A11DB11D80937A04B6
:1034200090937B04A0937C04B0937D0400915C0492
:1034300010915D04B501A401C8010A960E94C60757
:103440004CE050E060E070E00E94C607B301A201CA
:103450000E94C607B701A6010E94C6079801265E12
:103460003F4FF101CF0182199309A0E0B0E084152C
:103470009505A605B7052CF48191D9018D939D0181
:10348000F1CF82E0F801858381E8868380E187833C
:10349000C201409680879187B2016B5E7F4FC80161
:1034A0000E94980ABE016F5F7F4F83E090E10E9407
:1034B0003516C20105C08FEF9FEF02C08DEF9FEF61
:1034C000A4960FB6F894DEBF0FBECDBFDF91CF91AB
:1034D0001F910F91FF90EF90DF90CF90BF90AF9032
:1034E0009F908F907F906F905F904F903F902F9024
:1034F00008954F925F926F927F92AF92BF92CF9258
:10350000DF92EF92FF920F931F93CF93DF93CDB78C
:10351000DEB72C970FB6F894DEBF0FBECDBF5A01B1
:103520002801390100915C0410915D04AB01BC01DC
:10353000C80109960E94C607B301A2010E94C607EE
:10354000B701A6010E94C6074CE0B80184E090E1F3
:103550000E942516BE016F5F7F4F84E090E10E94BC
:1035600035168D819E81AF81B885181619061A0609
:103570001B064CF481E090E09093790480937804EA
:10358000C5010E94640C8D819E8190938E0680936C
:103590008D062C960FB6F894DEBF0FBECDBFDF911F
:1035A000CF911F910F91FF90EF90DF90CF90BF9040
:1035B000AF907F906F905F904F900895CF93DF937F
:1035C000CDB7DEB7CB55D1090FB6F894DEBF0FBE2D
:1035D000CDBF789484B5826084BD84B5816084BD9C
:1035E00085B5826085BD85B5816085BD80916E00A1
:1035F000816080936E0010928100809181008260D2
:10360000809381008091810081608093810080910E
:1036100080008160809380008091B10084608093FD
:10362000B1008091B00081608093B00080917A00F9
:10363000846080937A0080917A00826080937A001F
:1036400080917A00816080937A0080917A0080680E
:1036500080937A001092C100E091B705F091B8050F
:1036600082E08083E091B305F091B4051082E0918F
:10367000B505F091B6058FEC80831092BF05E091FF
:10368000BB05F091BC0586E08083E091B905F0911F
:10369000BA05808180618083E091B905F091BA0517
:1036A000808188608083E091B905F091BA058081BE
:1036B00080688083E091B905F091BA0580818F7DA3
:1036C000808361E080E10E94A6136FEF70E080E1EB
:1036D0000E94E21368EE73E080E090E00E945814CC
:1036E00060E070E080E10E94E21387E491E00E94D4
:1036F000360C809144068111F1C18091870482309B
:1037000021F0833021F08FEF03C080E001C081E021
:103710008093850461E0809186040E94A61360E096
:10372000809186040E94761364EF71E080E090E05F
:103730000E94581461E0809188040E94A61362E000
:10374000809187040E94A6138CB58093E1028DB509
:1037500081708093E0021FB7F89480917303811108
:1037600027C0E4EBF0E08491E0EAF0E09491E82FE8
:10377000F0E0EE0FFF1FE457FF4FA591B491EC91DD
:10378000E92321F461E08AE00E94761361E08AE097
:103790000E94A6138CB580618CBD8CB580648CBDF5
:1037A00061E08DE00E94A61361E08BE00E94A61309
:1037B000809173038F5F809373031FBF8CB5837FEA
:1037C00084608CBD8CB58F7D8CBD809184049CB54C
:1037D000282F23709C7F922B9CBD2DB582FB9927AF
:1037E00090F9822F8E7F892B8DBD8CB58093DF025F
:1037F0008DB581708093DE02809185049FB7F89427
:10380000882349F0813011F482E006C082E0809381
:10381000DD0280E001C081E02091DC02822B8093F8
:10382000DC028091DD02811103C081E08093DD0222
:103830009FBF61E0809188040E9476138091E1022D
:103840008CBD8091E002882319F08DB5816002C0A3
:103850008DB58E7F8DBD8BEE90E090935F0480934D
:103860005E048BEF90E0909361048093600483EF9B
:1038700090E090936304809362048CE992E09093CB
:1038800067048093660487EB92E0909369048093C9
:1038900068048EEA92E090936B0480936A0485EA50
:1038A00092E090936D0480936C0480E594E0909393
:1038B00065048093640481E08093820410927A040A
:1038C00010927B0410927C0410927D0410927E046E
:1038D00010927F0410928004109281041092570479
:1038E0001092560410927304109272041092750490
:1038F0001092740410927704109276041092790456
:103900001092780410926E0410926F04109270045A
:1039100010927104109259041092580410925B0492
:1039200010925A04A0EFB2E0B0935D04A0935C043F
:103930001092E8021092E9021092EA021092EB0251
:1039400024E733E083E8F901482F11924A95E9F71B
:10395000FD0111928A95E9F784E292E19093E302E6
:103960008093E2021092E5021092E4021092ED02BE
:103970001092EC023093EF022093EE021092E702D5
:103980001092E6028EED8093F60380937203E0912D
:103990006804F09169040995E0916604F091670468
:1039A00009956B017C01E0916C04F0916D0481E05C
:1039B0000995CD28CE28CF2809F478C0E091660477
:1039C000F09167040995672B682B692BB9F7609113
:1039D0005C0470915D04DB0119961C9241E080E06B
:1039E00090E40E94251660E070E080E090E40E9480
:1039F000351660915C0470915D0440E08BE090E4CA
:103A00000E94251660E070E08BE090E40E9435167D
:103A100060E070E0CB010E94FC17E0915C04F09143
:103A20005D048FEF8187128613861486CC24CA9496
:103A3000DC2C7601C982DA82EB82FC8244E0BF0191
:103A400086E090E00E942516BE016F5F7F4F86E002
:103A500090E00E94351611E010938204C982DA8248
:103A6000EB82FC82E0905C04F0905D0444E052E85C
:103A700060E070E0C70109960E94C60744E0B70104
:103A800088E090E00E942516BE016F5F7F4F88E0BE
:103A900090E00E94351689819A81AB81BC81892B87
:103AA0008A2B8B2BB1F41093440618C0E091660466
:103AB000F09167040995672B682B692BB9F3E091A6
:103AC0006604F09167040995672B682B692BB9F799
:103AD0007ECF82E291E00E94360CFFCF80914406B7
:103AE000882309F419C40E94770860EA7FE080E027
:103AF00090E00E944C1064E971E180E090E00E9447
:103B0000581460E070E0CB010E944C108091440694
:103B10008823A9F160E070E0CB010E94FC17672BBD
:103B2000682B692B61F564EF71E080E090E00E9402
:103B30005814BEE0CB2ED12CE12CF12C0CEE11E070
:103B400027E030E040E050E063E070E080E090E0AB
:103B50000E944717672B682B692B89F408EE13E046
:103B60008091830481FD0BC00E9477086AE070E0B9
:103B700080E090E00E9458140150110989F780916B
:103B8000830481FFB0CF8091830482FF09C0AE011E
:103B90004F5F5F4F69E070E08BEF91E00E943C1651
:103BA0008091830482FD15C064E670E080E090E0BF
:103BB0000E945814E8CF8091830481FD0FC085EFE7
:103BC00090E00E94360C68EE73E080E090E00E9486
:103BD0005814809144068111EECFF1CF8091830477
:103BE00082FFEDCF60915C0470915D0440E085E060
:103BF00090E20E942516BE016F5F7F4F85E090E244
:103C00000E9435168C818823D1F249815A816B81BB
:103C10007C814D805E806F80788489849A84AB84B7
:103C2000BC84CD84DE84EF84F88889899A89AB8945
:103C3000BC8968968CAF9DAFAEAFBFAF68978AEE78
:103C400090E069964FAF69976A965FAF6A976B96F7
:103C50006FAF6B976C967FAF6C970E94150C69964F
:103C60004FAD69976A965FAD6A976B966FAD6B972C
:103C70006C967FAD6C97CB01BA010E94C10B8FEDA2
:103C800090E00E94150CC301B2010E94C10B84EDAB
:103C900090E00E94150CC501B4010E94C10B89EC93
:103CA00090E00E94150CC701B6010E94C10B8EEB7B
:103CB00090E00E94150C68966CAD7DAD8EAD9FAD09
:103CC00068970E94C10B65E072E087EA95E00E9468
:103CD000511284EA94E00E9487081092A104109285
:103CE000F703FAE18F2EF1E09F2EA3E52A2E33246D
:103CF000339453C0C8018C549109DC01ED91FC91BF
:103D00000488F589E02D0995882309F452C00D5ADD
:103D10001F4FF5E00D3E1F0769F7E8EAEE2EE4E0DD
:103D2000FE2E00E010E0D701ED91FC910488F589AA
:103D3000E02DC7010995882309F4F3C2D701ED915D
:103D4000FC910480F581E02DC7010995181619062C
:103D50000CF0E7C21C821B8288EE93E0A0E0B0E08A
:103D60008D839E83AF83B8879A828982209EC0010B
:103D7000219E900D112488559B4F9E878D87109210
:103D8000F703CE0101960E948102811167C003E60C
:103D900010E01093A3040093A2048091F703811113
:103DA00075C06FEF70E080E10E94E21304EF14E051
:103DB000A1CF0E9477084090A3055090A405609081
:103DC000A5057090A605E0905C04F0905D04B30139
:103DD000A201C70109960E94C60744E0B70185E029
:103DE00090E10E942516BE016F5F7F4F85E090E154
:103DF0000E943516AD80BE80B0928E06A0928D06D0
:103E000065010B2C000CEE08FF08B8E0CB16D104BE
:103E1000E104F10430F420E030E0A901C701B6016B
:103E200006C021E030E040E050E0C301B2010E9452
:103E3000B016B7FC6CCFF801C382D482E582F6825B
:103E4000128211821082FE013D96D801A054B10960
:103E500080E401900D928A95E1F759CFCE01019649
:103E60000E94F301181619060CF091CFCE010196AD
:103E70000E9404028C01112700531109682F84EA63
:103E800094E00E9453013092F70383CF87E092E0E1
:103E90000E94AE0B68E072E087EA95E00E94511242
:103EA0006091A2047091A304072E000C880B990B5B
:103EB0000E94CC0F60E070E080E10E94E2138091EC
:103EC000A2049091A304909303018093020104E65D
:103ED00010E06BE9E62EF12C71E9C72ED12C82E1BE
:103EE0000E944114909355048093540481E10E94F0
:103EF0004114909353048093520465E172E087EA81
:103F000095E00E9451126091520470915304072E63
:103F1000000C880B990B0E94CC0F65E072E087EAD9
:103F200095E00E94511265E272E087EA95E00E94F6
:103F300051124091A10450E060E070E02AE087EA6D
:103F400095E00E94661265E072E087EA95E00E94C3
:103F50005112E091A1048E2F90E08930910508F074
:103F6000E4C0FC01EC5CFF4F0C94D622209152047B
:103F7000309153048091F8039091F903409102012C
:103F800050910301841795072CF085E392E00E947D
:103F9000AE0B17C040910001509101012417350765
:103FA00024F43093010120930001FC01EE0FFF1F68
:103FB000E650FC4F3183208301969093F903809360
:103FC000F803A0908D04B0908E0461E08091950478
:103FD0000E9476136EE670E0809199040E94E213CD
:103FE00060E0809197040E9476136EE670E0809105
:103FF0009B040E94E213B501BB0C880B990B0E9435
:10400000581497C0F0929004E0928F04D0929204DA
:10401000C092910460E0809195040E94761360E064
:10402000809197040E94761360919104709192049C
:10403000809199040E94E21360918F047091900422
:1040400080919B040E94E2131093900400938F04CC
:1040500010939204009391046CC010939004009309
:104060008F04109392040093910461E08091950471
:104070000E9476136091910470919204809199044A
:104080000E94E21361E0809197040E947613609190
:104090008F047091900480919B040E94E2136091C0
:1040A0008B0470918C04072E000C880B990B0E94D6
:1040B000581438C081E090E00E948B0F81E10E948B
:1040C00041145C0180E090E00E948B0F80E090E062
:1040D0000E948B0F81E10E944114A816B9064CF58D
:1040E000C5010E948B0FC50117C0A12CB12C809176
:1040F000A2049091A304880F991F880F991FA816F6
:10410000B906BCF480E090E00E948B0FBFEFAB1AC1
:10411000BB0AEDCF80E090E00E948B0F0AC081E0E7
:1041200090E0FACF0E94730F04C08AE492E00E94EC
:10413000AE0BE091A1048E2F90E08930910508F03C
:10414000DAC0FC01E35CFF4F0C94D6228091A204FC
:104150009091A304823091053CF43AEF832E33E032
:10416000932EA12CB12C06C001979093A3048093A9
:10417000A204CCC08091020190910301A816B90657
:10418000A4F4F401619171914F01072E000C880B8A
:10419000990B0E94CC0F63E372E087EA95E00E94DE
:1041A0005112FFEFAF1ABF0AE5CF87E092E00E94FD
:1041B000AE0B8091F8039091F903181619060CF0D4
:1041C00096C0880F991FFC01E650FC4F2081318179
:1041D0008091000190910101821793072CF01092B9
:1041E000F9031092F80320C0A0908D04B0908E04C3
:1041F00060E0809195040E9476136EE670E08091F5
:1042000099040E94E21361E0809197040E94761362
:104210006EE670E080919B040E94E213B501BB0C36
:10422000880B990B0E9458148091F8039091F90320
:1042300001979093F9038093F803BBCF86E00E9427
:104240004D135C01909351048093500487E00E94C9
:104250004D1390934F0480934E04AB2859F4892B4F
:1042600049F480915204909153048835924014F49B
:1042700083E001C081E02091540430915504295617
:1042800031402F34310508F042C082E040C08091B7
:10429000500490915104009731F020914E043091D8
:1042A0004F04232B79F52091520430915304283583
:1042B000324044F520914E0430914F04232B21F5D8
:1042C000892B21F185E023C080914C0490914D040D
:1042D000019690934D0480934C0409C080914A0448
:1042E00090914B04019690934B0480934A0483E091
:1042F0000EC088E00CC08FE692E00E94AE0B06C0B4
:1043000086E005C087E003C084E001C080E08093C0
:10431000A1040E94C911E3CD8AE191E00E94360C0C
:10432000FFCF0F5F1F4F93E5E90EF11C033011051E
:1043300009F0F9CC1C821B8288EE93E0A0E0B0E08B
:104340008D839E83AF83B8879A8289821E861D865D
:1043500016CDE5E4F6E080EE91E091838083128251
:10436000138214821582E7EAF5E01382128248EE86
:1043700053E060E070E0448355836683778326E7EB
:1043800031E03183208325EC30E03587248724EC2D
:1043900030E03787268720EC30E0318B208B21EC12
:1043A00030E0338B228B22EC30E0358B248B26ECF3
:1043B00030E0378B268B118E128E138E148EABE469
:1043C000B6E011969C938E9312961C9212971396B8
:1043D0001C92139714961C92149715961C92A1E5A3
:1043E000B6E011969C938E9312961C921297139698
:1043F0001C92139714961C92149715961C92A9E57B
:10440000B6E011969C938E9312961C921297139677
:104410001C92139714961C92149715961C92109246
:10442000440688E08093880482E08093870484E0D7
:10443000809386049FEF9093850480938404109268
:104440008304F0935806E0935706E4EAF4E01382FD
:1044500012828EEC91E091838083178216824087CE
:1044600051876287738722EB31E0358324838FEF96
:104470009FEFDC018093F7049093F804A093F90474
:10448000B093FA041092FE041092FD044093FF04CE
:104490005093000560930105709302053093FC046E
:1044A0002093FB0480934A0590934B05A0934C0501
:1044B000B0934D051092510510925005409352054E
:1044C00050935305609354057093550530934F05F1
:1044D00020934E0580939D0590939E05A0939F0584
:1044E000B093A00522E030E03093A2052093A1050F
:1044F0008093A3059093A405A093A505B093A6056A
:10450000E9E8F4E086E193E09183808384EF91E031
:10451000938382838CE291E09583848384E690E0A8
:10452000978386839187808785E090E0958784874D
:104530008AE090E09787868783E090E0918B808B7C
:1045400089E090E0938B828B86E090E0958B848B62
:1045500087E090E0978B868B60E086E00E94A61350
:1045600060E087E00E94A61361E08CE00E94A61341
:1045700061E08DE00E94A61361E083E00E94A61333
:1045800061E08BE00E94A61360E08CE00E9476134D
:1045900060E08DE00E94761360E070E083E00E94AE
:1045A000E21360E070E08BE00C94E213EE0FFF1F6B
:1045B0000590F491E02D099481E090E0F8940C943A
:1045C0000C23FB01DC0102C001900D9241505040D0
:1045D000D8F70895A1E21A2EAA1BBB1BFD010DC03E
:1045E000AA1FBB1FEE1FFF1FA217B307E407F507A3
:1045F00020F0A21BB30BE40BF50B661F771F881F7F
:10460000991F1A9469F760957095809590959B0114
:0C461000AC01BD01CF010895F894FFCF6C
:10461C00FFFF280021122112FFFF000000008F066F
:10462C00800001000000000000001502D101F30120
:10463C000402C001B10147023602E201A2012602C6
:10464C008102D0070000D0070000D0070000D0077F
:10465C000000D0070000D0070000D0070000D007F2
:10466C000000D0070000D0070000D0070000D007E2
:10467C000000D0070000D0070000D0070000D007D2
:10468C000000000000006011DC10291107111B1143
:10469C00A711000000002212221222122212221252
:1046AC002212221222122212221222122212000092
:1046BC0000002212DC1022122212221222120000FE
:1046CC000000B403E1032303210AB4098E02CD07D1
:1046DC00FF030503BE02D3028F020000000053014A
:1046EC0069018708000000002212DC1000000000A5
:1046FC00AF1200000000221206000700636F726EFA
:10470C00656C6C64706532303138006C6F63616C51
:10471C00686F7374000D0A0066696C65206E756DA8
:10472C00626572200046726F6E742073656E736FD3
:10473C0072203D200063757272656E742073746113
:10474C0074653A20004D41582053495A45204D413B
:10475C005020524541434845440073746174655F71
:10476C006D616368696E655F737769746368202D2A
:10477C0020696E76616C6964207374617465007372
:10478C00746174655F6D616368696E655F6E657891
:10479C00745F7374617465202D20696E76616C6929
:1047AC0064207374617465004450453230313800B4
:107E0000112484B714BE81FFF0D085E080938100F7
:107E100082E08093C00088E18093C10086E0809377
:107E2000C20080E18093C4008EE0C9D0259A86E02C
:107E300020E33CEF91E0309385002093840096BBD3
:107E4000B09BFECF1D9AA8958150A9F7CC24DD24C4
:107E500088248394B5E0AB2EA1E19A2EF3E0BF2EE7
:107E6000A2D0813461F49FD0082FAFD0023811F036
:107E7000013811F484E001C083E08DD089C08234E0
:107E800011F484E103C0853419F485E0A6D080C0E4
:107E9000853579F488D0E82EFF2485D0082F10E0AE
:107EA000102F00270E291F29000F111F8ED06801E7
:107EB0006FC0863521F484E090D080E0DECF843638
:107EC00009F040C070D06FD0082F6DD080E0C81688
:107ED00080E7D80618F4F601B7BEE895C0E0D1E017
:107EE00062D089930C17E1F7F0E0CF16F0E7DF06D8
:107EF00018F0F601B7BEE89568D007B600FCFDCFD4
:107F0000A601A0E0B1E02C9130E011968C91119780
:107F100090E0982F8827822B932B1296FA010C0160
:107F200087BEE89511244E5F5F4FF1E0A038BF0790
:107F300051F7F601A7BEE89507B600FCFDCF97BE46
:107F4000E89526C08437B1F42ED02DD0F82E2BD052
:107F50003CD0F601EF2C8F010F5F1F4F84911BD097
:107F6000EA94F801C1F70894C11CD11CFA94CF0C13
:107F7000D11C0EC0853739F428D08EE10CD085E9AC
:107F80000AD08FE07ACF813511F488E018D01DD067
:107F900080E101D065CF982F8091C00085FFFCCF94
:107FA0009093C60008958091C00087FFFCCF809118
:107FB000C00084FD01C0A8958091C6000895E0E648
:107FC000F0E098E1908380830895EDDF803219F02E
:107FD00088E0F5DFFFCF84E1DECF1F93182FE3DFCA
:107FE0001150E9F7F2DF1F91089580E0E8DFEE27F6
:047FF000FF270994CA
:027FFE00040479
:0400000300007E007B
:00000001FF
