:100000000C945D000C9485000C9485000C94850084
:100010000C9485000C9485000C9485000C9485004C
:100020000C9485000C9485000C9485000C94880237
:100030000C9485000C9485000C9485000C9485002C
:100040000C943E020C9485000C9485000C94850061
:100050000C9485000C9485000C9485000C9485000C
:100060000C9485000C94850000000008000201003B
:100070000003040700000000000000000000000072
:10008000250028002B0000000000240027002A0083
:10009000040404040404040402020202020203032E
:1000A0000303030301020408102040800102040836
:1000B0001020010204081020D60311241FBECFEF28
:1000C000D8E0DEBFCDBF21E0A4E0B1E001C01D92C9
:1000D000A933B207E1F711E0A0E0B1E0E8E0F9E010
:1000E00002C005900D92A430B107D9F710E0CDE51C
:1000F000D0E004C02197FE010E941904CC35D1073D
:10010000C9F70E9449030C9482040C94000090E00B
:10011000FC01EC55FF4F2491FC01E057FF4F849107
:10012000882399F090E0880F991FFC01EA57FF4F50
:10013000A591B491FC01E458FF4F859194918FB73C
:10014000F894EC91E22BEC938FBF089590E0FC01C2
:10015000E859FF4F3491FC01EC55FF4F2491FC010D
:10016000E057FF4FE491EE2309F43BC0332339F10C
:10017000333091F038F43130A9F0323001F584B5E4
:100180008F7D12C0373091F03830A1F03430B9F49F
:10019000809180008F7D03C0809180008F77809355
:1001A00080000DC084B58F7784BD09C08091B000F8
:1001B0008F7703C08091B0008F7D8093B000F0E016
:1001C000EE0FFF1FE458FF4FA591B4918FB7F8943D
:1001D000EC91611103C020952E2301C02E2B2C938E
:1001E0008FBF08953FB7F89480912F01909130010F
:1001F000A0913101B091320126B5A89B05C02F3FD7
:1002000019F00196A11DB11D3FBFBA2FA92F982F3C
:100210008827820F911DA11DB11DBC01CD0142E0B7
:10022000660F771F881F991F4A95D1F708958F92FF
:100230009F92AF92BF92CF92DF92EF92FF926B01AB
:100240007C010E94F2004B015C01C114D104E10465
:10025000F104F1F00E94F200DC01CB018819990948
:10026000AA09BB09883E9340A105B10570F321E0BE
:10027000C21AD108E108F10888EE880E83E0981EC2
:10028000A11CB11CC114D104E104F10419F7DDCFA4
:10029000FF90EF90DF90CF90BF90AF909F908F90A6
:1002A0000895CF92DF92EF92FF92CF93DF93EC010C
:1002B000603282E078070CF03DC077FD06C0653BF8
:1002C00071052CF064EB70E002C060E070E08981A1
:1002D00028E830E06901C81AD10887FDD394CC0C16
:1002E000DD1CCC0CDD1C0D2C000CEE08FF088A81F7
:1002F00028E532E0281B310987FD3395220F331F93
:10030000220F331FC901330FAA0BBB0B9C01AD0198
:100310002C193D094E095F09DB010E94490424EBB9
:1003200030E040E050E00E941F04C20ED31EE41EE5
:10033000F51EB60188818C3080F5998148E850E03F
:10034000491B510997FD5395440F551F440F551FE5
:100350006417750784F09A8128E532E0291B31097A
:1003600097FD3395220F331F220F331FAB01261742
:1003700037070CF4A90142505109440F551F2FB7FC
:10038000F89490E0FC01EE0FFF1F8E0F9F1FFC0101
:10039000EA5FFE4F528341832FBFDF91CF91FF90E1
:1003A000EF90DF90CF9008950F931F93CF93DF933B
:1003B0001F92CDB7DEB78C01DC018C918C3008F038
:1003C00055C0862F69830E948700F8018081E82F3D
:1003D000F0E09F01220F331FE20FF31FEA5FFE4F91
:1003E00069816F739081907C692B6083D80111962D
:1003F0001C92119712961C926CE00E940D04BCE0B6
:100400008B9FB001112440E050E09A01260F371F66
:10041000F901EE0FFF1F2E0F3F1FF901EA5FFE4F9C
:10042000908196FD16C04F5F5F4F4C30510569F7C4
:1004300081110FC01092800082E0809381001092A1
:10044000850010928400B19A80916F008260809341
:100450006F00D801EC91F0E0CF01880F991FE80FF1
:10046000F91FEA5FFE4F808180648083F8018081FC
:100470000F90DF91CF911F910F9108951F920F92CE
:100480000FB60F9211242F933F938F939F93AF93A7
:10049000BF9380912B0190912C01A0912D01B091DF
:1004A0002E0130912A0123E0230F2D3720F40196ED
:1004B000A11DB11D05C026E8230F0296A11DB11D87
:1004C00020932A0180932B0190932C01A0932D015E
:1004D000B0932E0180912F0190913001A0913101B4
:1004E000B09132010196A11DB11D80932F0190930F
:1004F0003001A0933101B0933201BF91AF919F9130
:100500008F913F912F910F900FBE0F901F901895D4
:100510001F920F920FB60F9211242F933F934F9378
:100520005F936F937F938F939F93AF93BF93EF935B
:10053000FF938091050187FF05C0109285001092FE
:1005400084001BC020910501022E000C330B80910A
:10055000040190E02817390784F480910501082EE2
:10056000000C990BFC01EE0FFF1F8E0F9F1FFC016B
:10057000EA5FFE4F808186FD15C0809105018F5F87
:100580008093050120910501022E000C330B809110
:10059000040190E028173907C4F4809105018C30DC
:1005A00064F113C080910501082E000C990BFC0129
:1005B000EE0FFF1F8E0F9F1FFC01EA5FFE4F808131
:1005C00060E08F730E94A600D8CF80918400909144
:1005D0008500049680349C4918F480E49CE905C0A9
:1005E0008091840090918500049690938900809377
:1005F00088008FEF809305013BC0209184003091EB
:10060000850080910501082E000C990BFC01EE0F6E
:10061000FF1F8E0F9F1FFC01EA5FFE4F81819281B9
:10062000820F931F90938900809388008091050129
:10063000082E000C990BFC01EE0FFF1F8E0F9F1F61
:10064000FC01EA5FFE4F808186FF12C080910501A8
:10065000082E000C990BFC01EE0FFF1F8E0F9F1F41
:10066000FC01EA5FFE4F808161E08F730E94A6006B
:10067000FF91EF91BF91AF919F918F917F916F917A
:100680005F914F913F912F910F900FBE0F901F9050
:100690001895789484B5826084BD84B5816084BDEA
:1006A00085B5826085BD85B5816085BD80916E0010
:1006B000816080936E001092810080918100826041
:1006C000809381008091810081608093810080917E
:1006D00080008160809380008091B100846080936D
:1006E000B1008091B00081608093B00080917A0069
:1006F000846080937A0080917A00826080937A008F
:1007000080917A00816080937A0080917A0080687D
:1007100080937A001092C1008DE00E94870060ED06
:1007200077E080E090E00E94170161E08DE00E9498
:10073000A60089E00E9487008AE00E94870069E0A5
:1007400070E086E391E00E94D4016AE070E083E308
:1007500091E00E94D401C0E0D0E060E070E086E368
:1007600091E00E94510164EB70E083E391E00E940C
:10077000510168EE73E080E090E00E94170160E0B4
:1007800070E086E391E00E94510160E070E083E355
:1007900091E00E94510168EE73E080E090E00E94D9
:1007A00017012097D1F20E940000D7CF8091040159
:1007B0008C30A0F491E0980F90930401809336015F
:1007C00090E0FC01EE0FFF1F8E0F9F1FFC01EA5F00
:1007D000FE4F88EB9BE09283818303C08FEF809371
:1007E0003601809104018C30A0F491E0980F909331
:1007F00004018093330190E0FC01EE0FFF1F8E0F88
:100800009F1FFC01EA5FFE4F88EB9BE09283818390
:1008100008958FEF809333010895991B79E004C008
:10082000991F961708F0961B881F7A95C9F780952F
:100830000895EE0FFF1F0590F491E02D0994052E09
:1008400097FB1EF400940E94360457FD07D00E94C7
:10085000510407FC03D04EF40C9436045095409597
:10086000309521953F4F4F4F5F4F0895909580955C
:10087000709561957F4F8F4F9F4F08950E9473042D
:10088000A59F900DB49F900DA49F800D911D1124E4
:100890000895B7FF0C943E040E943E04821B930B04
:1008A0000895A1E21A2EAA1BBB1BFD010DC0AA1FB1
:1008B000BB1FEE1FFF1FA217B307E407F50720F0C9
:1008C000A21BB30BE40BF50B661F771F881F991F44
:1008D0001A9469F760957095809590959B01AC018D
:1008E000BD01CF010895A29FB001B39FC001A39F96
:1008F000700D811D1124911DB29F700D811D112459
:08090000911D0895F894FFCF4A
:0409080001000000EA
:00000001FF
